:0400000033EF00F0EA
:060008005F82EDEF10F035
:100018005F80D8CF61F0E8CF62F0E0CF63F0FACF2D
:1000280064F0FBCF65F07DA41CEF00F01EEF00F03C
:1000380027EF00F07EA423EF00F025EF00F027EF74
:1000480000F01BEC1DF065C0FBFF64C0FAFF63C045
:10005800E0FF62C0E8FF61C0D8FF5F90100095EF35
:100068001AF0ABEF02F00C0E12EC1AF0A90E000118
:10007800A76FFF0EA86FA3EC1DF00001D051D8A404
:1000880048EF00F04AEF00F052EF00F0BC0EA76F07
:10009800FE0EA86FA3EC1DF058EF00F0680EA76FD6
:1000A800FE0EA86FA3EC1DF00001D151D8A45FEF9C
:1000B80000F061EF00F069EF00F03C0EA76FFD0E55
:1000C800A86FA3EC1DF06FEF00F0490EA76FFC0EB0
:1000D800A86FA3EC1DF0930E0001A76FFB0EA86F8D
:1000E800A3EC1DF0150E0001A76FFD0EA86FA3EC81
:1000F8001DF0020E59185A10D8A485EF00F087EFAA
:1001080000F08EEF00F0BE0E0001A76FFA0EA86F88
:10011800A3EC1DF02B0E0001A76FFE0EA86FA3EC39
:100128001DF0E50E0001A76FFF0EA86FA3EC1DF0F0
:10013800000E0001EC6FD9EF02F00C0E12EC1AF071
:100148000001D151D8B4ABEF00F0ADEF00F0BCEF37
:1001580000F0620EA76FFB0EA86FA3EC1DF0C30E94
:100168000001A76FFB0EA86FA3EC1DF0DAEF00F0FB
:10017800D051D8B4C2EF00F0C4EF00F0D0EF00F0D7
:10018800A20EA76FFE0EA86FA3EC1DF08A9E000EAC
:100198000001D06FDAEF00F0070EA76FFF0EA86F0F
:1001A800A3EC1DF08A8E010E0001D06FC50E000170
:1001B800A76FFC0EA86FA3EC1DF0E50E0001A76F5A
:1001C800FF0EA86FA3EC1DF09CEF00F00C0E12ECD4
:1001D8001AF00001D151D8A4F4EF00F0F6EF00F0C6
:1001E8001FEF01F0850EA76FFE0EA86FA3EC1DF0A0
:1001F800FB0E0001A76FFA0EA86FA3EC1DF05F0EAF
:100208000001A76FFF0EA86FA3EC1DF0340E0001CC
:10021800A76FFF0EA86FA3EC1DF0E50E0001A76FF6
:10022800FF0EA86FA3EC1DF0020E0001CD6F000EAB
:10023800CE6F9CEF00F0EC0EA76FFD0EA86FA3EC3D
:100248001DF09C0E0001A76FFC0EA86FA3EC1DF01B
:10025800E50E0001A76FFF0EA86FA3EC1DF0000EBE
:100268000001D16F9CEF00F00C0E12EC1AF0EE0EAC
:100278000001A76FFC0EA86F51C0A9F052C0AAF0E8
:10028800A3EC1DF0EF0E0001A76FFF0EA86F53C07F
:10029800A9F054C0AAF0A3EC1DF09C0E0001A76FB2
:1002A800FC0EA86FA3EC1DF0E50E0001A76FFF0E72
:1002B800A86FA3EC1DF09CEF00F00C0E12EC1AF0E6
:1002C8004A0E0001A76FFE0EA86F55C0A9F056C0D0
:1002D800AAF0A3EC1DF0EF0E0001A76FFF0EA86FA8
:1002E80057C0A9F058C0AAF0A3EC1DF09C0E00015D
:1002F800A76FFC0EA86FA3EC1DF0E50E0001A76F19
:10030800FF0EA86FA3EC1DF09CEF00F00C0E12EC92
:100318001AF0020E59185A10D8A495EF01F097EF69
:1003280001F0AEEF01F0630E0001A76FFD0EA86F9C
:1003380055C0A9F056C0AAF0A3EC1DF0310E00017B
:10034800A76FFB0EA86FA3EC1DF0010E0001CD6F87
:100358001BEF01F0710E0001A76FFA0EA86FA3EC56
:100368001DF09CEF00F0D90ECE25D96EDA6A000E8A
:10037800DA22CFC0DFFF030ECE19D8B4C6EF01F0E2
:10038800C8EF01F0D1EF01F00D0ECF19D8A4CFEFCF
:1003980001F0D1EF01F01EEF02F0030ECE19D8A440
:1003A800D8EF01F0DAEF01F0DBEF01F0CE2BD90E38
:1003B800CE25D96EDA6A000EDA22DF6AD90E6C6FA2
:1003C800000E6D6F9BEC11F06CC055F06DC056F0CF
:1003D8000C0E12EC1AF0565007E1650E555CD8B0B9
:1003E800F8EF01F0FAEF01F007EF02F0AA0E0001B2
:1003F800A76FFD0EA86F55C0A9F056C0AAF0A3ECD0
:100408001DF012EF02F0CB0E0001A76FFD0EA86FD2
:10041800A3EC1DF0000E566E000E556E730E000113
:10042800A76FFC0EA86FA3EC1DF0000E0001CD6FA6
:100438009CEF00F0CE2B9CEF00F0D90ECE25D96EA4
:10044800DA6A000EDA22CFC0DFFFCE05D8B42FEF6C
:1004580002F031EF02F03AEF02F00D0ECF19D8A4F6
:1004680038EF02F03AEF02F01EEF02F0CE05D8A402
:1004780040EF02F042EF02F043EF02F0CE2BD90E2C
:10048800CE25D96EDA6A000EDA22DF6AD90E6C6FD1
:10049800000E6D6F9BEC11F06CC059F06DC05AF0F6
:1004A8000C0E12EC1AF059045A10D8A45EEF02F0A0
:1004B80060EF02F06CEF02F01F0E0001A76FFC0E58
:1004C800A86FA3EC1DF0010E0001D16F8DEF02F0B3
:1004D800020E59185A10D8A474EF02F076EF02F001
:1004E8007FEF02F0F30E0001A76FFB0EA86FA3ECDD
:1004F8001DF067EF02F0870E0001A76FFD0EA86FD1
:10050800A3EC1DF0000E5A6E000E596E000E00018D
:10051800D16F730EA76FFC0EA86FA3EC1DF0000E31
:100528000001CD6F9CEF00F00C0E12EC1AF0860E55
:100538000001A76FFF0EA86FA3EC1DF0730E00015A
:10054800A76FFC0EA86FA3EC1DF09CEF00F0000154
:10055800EC51AD6FAE6BAE51000AD8B4B6EF02F0F5
:1005680098EF02F0AD51010AD8B4B7EF01F0030AD1
:10057800D8B421EF02F0320AD8B437EF00F0010AFC
:10058800D8B4A1EF00F0030AD8B4EAEF00F0010AEA
:10059800D8B438EF01F0070AD8B461EF01F0010AC6
:1005A800D8B48AEF01F098EF02F01200010E0001B2
:1005B800676F000E39EC1EF0960E4FEC1CF0EF0E34
:1005C8000001676F000E39EC1EF0030E0001676F23
:1005D800010E39EC1EF0800E0001676F010E39EC38
:1005E8001EF0020E0001676F010E39EC1EF0CF0EEF
:1005F8000001676F000E39EC1EF0000E0001676FF6
:10060800010E39EC1EF0C10E0001676F010E39ECC6
:100618001EF0300E0001676F010E39EC1EF0ED0E72
:100628000001676F000E39EC1EF0640E0001676F61
:10063800010E39EC1EF0030E0001676F010E39EC54
:100648001EF0120E0001676F010E39EC1EF0810ECC
:100658000001676F010E39EC1EF0E80E0001676FAC
:10066800000E39EC1EF0850E0001676F010E39ECA3
:100678001EF0000E0001676F010E39EC1EF0780EB7
:100688000001676F010E39EC1EF0CB0E0001676F99
:10069800000E39EC1EF0390E0001676F010E39ECBF
:1006A8001EF02C0E0001676F010E39EC1EF0000ED3
:1006B8000001676F010E39EC1EF0340E0001676F00
:1006C800010E39EC1EF0020E0001676F010E39ECC5
:1006D8001EF0F70E0001676F000E39EC1EF0200EB9
:1006E8000001676F010E39EC1EF0EA0E0001676F1A
:1006F800000E39EC1EF0000E0001676F010E39EC98
:100708001EF0000E0001676F010E39EC1EF0C00EDE
:100718000001676F000E39EC1EF0230E0001676FB1
:10072800010E39EC1EF0C10E0001676F000E39ECA6
:100738001EF0100E0001676F010E39EC1EF0C50E99
:100748000001676F000E39EC1EF03E0E0001676F66
:10075800010E39EC1EF0280E0001676F010E39EC0E
:100768001EF0C70E0001676F000E39EC1EF0860EF2
:100778000001676F010E39EC1EF0360E0001676F3D
:10078800000E39EC1EF0480E0001676F010E39ECBF
:100798001EF03A0E0001676F000E39EC1EF0550E80
:1007A8000001676F010E39EC1EF0B10E0001676F92
:1007B800000E39EC1EF0000E0001676F010E39ECD7
:1007C8001EF0180E0001676F010E39EC1EF0B60E10
:1007D8000001676F000E39EC1EF0080E0001676F0C
:1007E800010E39EC1EF0820E0001676F010E39EC24
:1007F8001EF0270E0001676F010E39EC1EF0F20E95
:100808000001676F000E39EC1EF0000E0001676FE3
:10081800010E39EC1EF0260E0001676F000E39EC50
:100828001EF0010E0001676F010E39EC1EF0E00E9C
:100838000001676F000E39EC1EF00F0E0001676FA4
:10084800010E39EC1EF0310E0001676F010E39EC14
:100858001EF02B0E0001676F010E39EC1EF00C0E16
:100868000001676F010E39EC1EF00E0E0001676F74
:10087800010E39EC1EF0080E0001676F010E39EC0D
:100888001EF04E0E0001676F010E39EC1EF0F10EDE
:100898000001676F010E39EC1EF0370E0001676F1B
:1008A800010E39EC1EF0070E0001676F010E39ECDE
:1008B8001EF0100E0001676F010E39EC1EF0030EDA
:1008C8000001676F010E39EC1EF00E0E0001676F14
:1008D800010E39EC1EF0090E0001676F010E39ECAC
:1008E8001EF0000E0001676F010E39EC1EF0E10EDC
:1008F8000001676F000E39EC1EF0000E0001676FF3
:10090800010E39EC1EF00E0E0001676F010E39EC76
:100918001EF0140E0001676F010E39EC1EF0030E75
:100928000001676F010E39EC1EF0110E0001676FB0
:10093800010E39EC1EF0070E0001676F010E39EC4D
:100948001EF0310E0001676F010E39EC1EF0C10E6A
:100958000001676F010E39EC1EF0480E0001676F49
:10096800010E39EC1EF0080E0001676F010E39EC1C
:100978001EF00F0E0001676F010E39EC1EF00C0E11
:100988000001676F010E39EC1EF0310E0001676F30
:10099800010E39EC1EF0360E0001676F010E39ECBE
:1009A8001EF00F0E0001676F010E39EC1EF0110EDC
:1009B8000001676F000E39EC1EF0780E4FEC1CF04A
:1009C800290E0001676F000E39EC1EF0780E4FEC0F
:1009D8001CF0000E0001706F000E6F6FB4EC18F081
:1009E80012001250800B1B6E12501224216E11AE91
:1009F80000EF05F002EF05F003EF05F0218021502C
:100A0800D8B409EF05F00BEF05F01EEF05F021282B
:100A1800D8A411EF05F013EF05F01BEF05F0000E59
:100A28000F6E000E106E000E116E000E126E118EFB
:100A380026EF05F0000E0F6E000E106E000E116E00
:100A4800000E126E1650800B1B1A16501624206EBC
:100A580015AE31EF05F033EF05F034EF05F02080E7
:100A68002050D8B43AEF05F03CEF05F04FEF05F011
:100A78002028D8A442EF05F044EF05F04CEF05F02C
:100A8800000E136E000E146E000E156E000E166E1C
:100A9800158E57EF05F0000E136E000E146E000E43
:100AA800156E000E166E2050D8B45DEF05F05FEF9E
:100AB80005F067EF05F02150D8A465EF05F067EF62
:100AC80005F071EF05F0000E0F6E000E106E000EAF
:100AD800116E000E126E09EF07F015500F02F3CFDA
:100AE80026F0F4CF27F026501C6E1D6A1E6A1F6A76
:100AF8002750226E236A246A256A14501002F3CF05
:100B080026F0F4CF27F026501C26000E1D221E22A8
:100B18001F2227502226000E23222422252213508A
:100B28001102F3CF26F0F4CF27F026501C26000E32
:100B38001D221E221F2227502226000E2322242295
:100B480025221EC01FF01DC01EF01CC01DF01C6A0F
:100B580013501002F3CF26F0F4CF27F026501C26AE
:100B680027501D22000E1E22000E1F2214500F02B5
:100B7800F3CF26F0F4CF27F026501C2627501D224D
:100B8800000E1E22000E1F221EC01FF01DC01EF0E8
:100B98001CC01DF01C6A13500F02F3CF26F0F4CFCF
:100BA80027F026501C2627501D22000E1E22000E5C
:100BB8001F2215501002F3CF26F0F4CF27F026504D
:100BC800222627502322000E2422000E252214500C
:100BD8001102F3CF26F0F4CF27F026502226275013
:100BE8002322000E2422000E252215501102F3CFD5
:100BF80026F0F4CF27F02650176E2750186E196A82
:100C08001A6A19C01AF018C019F017C018F0176A34
:100C18001750222618502322195024221A50252210
:100C28001CC017F01DC018F01EC019F01FC01AF024
:100C3800190E24EF06F0D8901A32193218321732EA
:100C4800E82E1FEF06F017502226185023221950BD
:100C580024221A5025221EC01FF01DC01EF01CC0E1
:100C68001DF01C6A205021C017F0186A1726000EC4
:100C78001822820E1724266EFF0E1820276E5AEFB0
:100C880006F0D89022362336243625361FAE4FEF8D
:100C980006F051EF06F052EF06F02280D8901C368D
:100CA8001D361E361F362606D8A0270624AE5FEF4F
:100CB80006F061EF06F045EF06F0000E206E1FAE5D
:100CC80068EF06F06AEF06F08EEF06F0FF0E1C14D0
:100CD800176EFF0E1D14186EFF0E1E14196E7F0E70
:100CE8001F141A6E1750181019101A10D8B47FEF65
:100CF80006F081EF06F085EF06F0010E206E8EEF0C
:100D080006F022A08AEF06F08CEF06F08EEF06F0D0
:100D180081EF06F02050D8B494EF06F096EF06F075
:100D2800BAEF06F0010E2226000E232224222522E5
:100D380025A0A1EF06F0A3EF06F0BAEF06F022C057
:100D480017F023C018F024C019F025C01AF01A347F
:100D58001A3219321832173217C022F018C023F08D
:100D680019C024F01AC025F0264A272A27BEC5EF45
:100D780006F0275008E12628D8A0C5EF06F0C7EFEF
:100D880006F0D1EF06F0000E226E000E236E800EE4
:100D9800246E7F0E256EFFEF06F027BEDEEF06F00D
:100DA800275006E12604D8B0DCEF06F0DEEF06F0A7
:100DB800EAEF06F0000E226E000E236E000E246E7F
:100DC800000E256E000E1B6EFFEF06F026C021F008
:100DD800FF0E2216FF0E23167F0E2416000E251670
:100DE80021A0F9EF06F0FBEF06F0FCEF06F0248EE9
:100DF800D8902130256E1B50251222C00FF023C039
:100E080010F024C011F025C012F0120092C0D9FFD2
:100E180093C0DAFFDECFF6FFDDCFF7FFF86A0800F0
:100E2800F550250AD8A41BEF07F01DEF07F0C3EF14
:100E380008F092C0D9FF93C0DAFFDE2A000EDD2247
:100E4800000E0001C16F000EC06FC0C0CCF0C269B7
:100E5800C36992C06CF093C06DF094C06EF095C0F9
:100E68006FF07DEC15F06CC0C0F06DC0C1F00001F2
:100E7800C1BF43EF07F041EF07F048EF07F0CC811F
:100E8800C06DC11FD8B0C12B92C0D9FF93C0DAFF83
:100E9800DECF9DF0DDCF9EF09DC0F6FF9EC0F7FF30
:100EA800F86A0800F5CF9CF066EF07F09D4B9E2B83
:100EB80083EF07F0690E9C6F83EF07F0000E9C6FBD
:100EC80083EF07F09C51966F976B9751000AD8B43F
:100ED80070EF07F062EF07F09651640AD8B45EEF3E
:100EE80007F00C0AD8B45AEF07F0010AD8B45EEF3D
:100EF80007F01C0AD8B45EEF07F062EF07F09DC058
:100F0800F6FF9EC0F7FFF86A0800F550640AD8B4E7
:100F180090EF07F092EF07F0CFEF07F09DC0F6FFD4
:100F28009EC0F7FFF86A0800F550690AD8A49FEF39
:100F380007F0A1EF07F002EF08F0CFEF07F094C039
:100F4800D9FF95C0DAFFDFCF96F0020EDE26DFCF9D
:100F580097F0000EDD2296C0D9FF97C0DAFFDECFEA
:100F680098F0DDCF99F0E4EF07F094C0D9FF95C071
:100F7800DAFFDFCF96F0020EDE26DFCF97F0000E05
:100F8800DD2296C0D9FF97C0DAFFDECF98F0DDCF1B
:100F980099F0E4EF07F09C51966F976B9751000A10
:100FA800D8B4D9EF07F0E4EF07F09651680AD8B43F
:100FB800B9EF07F0010AD8B4A3EF07F0E4EF07F0A0
:100FC800010E9D25966F000E9E21976F92C0D9FF46
:100FD80093C0DAFF96C0DEFF97C0DDFF90C083F0B4
:100FE80091C084F098C085F099C086F0EEEC0DF0C1
:100FF80083C090F084C091F0E0EF08F09DC0F6FF48
:101008009EC0F7FFF86A0800F550750AD8A40FEFDC
:1010180008F011EF08F08BEF08F03FEF08F094C0EC
:10102800D9FF95C0DAFFDFCF96F0020EDE26DFCFBC
:1010380097F0000EDD2296C0D9FF97C0DAFFDECF09
:1010480098F0DDCF99F054EF08F094C0D9FF95C01F
:10105800DAFFDFCF96F0020EDE26DFCF97F0000E24
:10106800DD2296C0D9FF97C0DAFFDECF98F0DDCF3A
:1010780099F054EF08F09C51966F976B9751000ABE
:10108800D8B449EF08F054EF08F09651680AD8B47C
:1010980029EF08F0010AD8B413EF08F054EF08F06C
:1010A800010E9D25966F000E9E21976F92C0D9FF65
:1010B80093C0DAFF96C0DEFF97C0DDFF74EF08F03B
:1010C80090C083F091C084F098C085F099C086F0F4
:1010D8008AEC14F083C090F084C091F0E0EF08F03F
:1010E8009DC0F6FF9EC0F7FFF86A0800F550966F9E
:1010F800976B9751000AD8B484EF08F08BEF08F08B
:101108009651750AD8B464EF08F08BEF08F092C0D6
:10111800D9FF93C0DAFFDECFF6FFDDCFF7FFF86A1D
:101128000800F550250AD8A49CEF08F09EEF08F0B7
:10113800B6EF08F092C0D9FF93C0DAFFDE2A000E9E
:10114800DD22000E696F250E686F90C06AF091C0AD
:101158006BF0E4EC15F0000E0001916F010E906F3A
:10116800E0EF08F092C0D9FF93C0DAFFDE2A000E44
:10117800DD22000E916F000E906FE0EF08F092C034
:10118800D9FF93C0DAFFDECFF6FFDDCFF7FFF86AAD
:101198000800F5500001686F696B90C06AF091C053
:1011A8006BF0E4EC15F092C0D9FF93C0DAFFDE2AA9
:1011B800000EDD22AFEF08F012002B50800B386EC6
:1011C8002B502B243F6E2AAEECEF08F0EEEF08F020
:1011D800EFEF08F03F803F50D8B4F5EF08F0F7EF95
:1011E80008F00CEF09F03F28D8A4FDEF08F0FFEF56
:1011F80008F007EF09F0000E286E000E296E000EA9
:101208002A6E000E2B6E2A8E000E2B6E14EF09F03C
:10121800000E286E000E296E000E2A6E000E2B6E30
:101228002F50800B381A2F502F24406E2EAE1FEFF0
:1012380009F021EF09F022EF09F040804050D8B4BE
:1012480028EF09F02AEF09F03FEF09F04028D8A469
:1012580030EF09F032EF09F03AEF09F0000E2C6E8A
:10126800000E2D6E000E2E6E000E2F6E2E8E000EAE
:101278002F6E47EF09F0000E2C6E000E2D6E000E3B
:101288002E6E000E2F6E2C502D102E102F10D8A45D
:1012980050EF09F052EF09F06AEF09F0000E286EDE
:1012A800000E296E000E2A6E000E2B6E800E2A127A
:1012B8007F0E2B1238502B1228C028F029C029F095
:1012C8002AC02AF02BC02BF0ADEF0AF03F50D8A46B
:1012D80070EF09F072EF09F07CEF09F0000E286E4C
:1012E800000E296E000E2A6E000E2B6EADEF0AF06E
:1012F80040503FC030F0316A305E000E315A7F0EE8
:101308003024396E000E31203A6E28C034F029C0DE
:1013180035F02AC036F02BC037F0000E286E000ECC
:10132800296E000E2A6E000E2B6E000E3B6E000E0C
:101338003C6E000E3D6E000E3E6E000E406EDDEF00
:1013480009F04050D8B4ABEF09F0ADEF09F0C4EFA5
:1013580009F0D8903436353636363736D8902836B0
:1013680029362A362B363EAEBCEF09F0BEEF09F01F
:10137800BFEF09F02880D8903B363C363D363E36E4
:101388002C50345C2D5035582E5036582F50375825
:10139800D8A0D1EF09F0D3EF09F0DCEF09F03E8CCB
:1013A8002C50345E2D50355A2E50365A2F50375AFD
:1013B800402A190E4064E3EF09F0E5EF09F0A5EFC4
:1013C80009F03450351036103710D8B4EEEF09F064
:1013D800F0EF09F008EF0AF03B8008EF0AF0D89028
:1013E800283629362A362B363EAEFDEF09F0FFEFB8
:1013F80009F000EF0AF02880D8903B363C363D369D
:101408003E363906D8A03A062AAE0DEF0AF00FEF9D
:101418000AF0F3EF09F0000E406E3EAE16EF0AF048
:1014280018EF0AF03CEF0AF0FF0E3B14306EFF0E87
:101438003C14316EFF0E3D14326E7F0E3E14336E37
:101448003050311032103310D8B42DEF0AF02FEF8E
:101458000AF033EF0AF0010E406E3CEF0AF028A0C4
:1014680038EF0AF03AEF0AF03CEF0AF02FEF0AF0F3
:101478004050D8B442EF0AF044EF0AF068EF0AF09F
:10148800010E2826000E29222A222B222BA04FEFFC
:101498000AF051EF0AF068EF0AF028C030F029C0CE
:1014A80031F02AC032F02BC033F0333433323232C9
:1014B8003132303230C028F031C029F032C02AF041
:1014C80033C02BF0394A3A2A3ABE73EF0AF03A5041
:1014D80008E13928D8A073EF0AF075EF0AF080EF19
:1014E8000AF0000E3A6E3968000E286E000E296E5A
:1014F800000E2A6E000E2B6E3ABE8DEF0AF03A509F
:1015080006E13904D8B08BEF0AF08DEF0AF09BEFB3
:101518000AF0000E3A6E000E396E000E286E000EAC
:10152800296E000E2A6E000E2B6E000E386E39C022
:101538003FF03FA0A2EF0AF0A4EF0AF0A7EF0AF0ED
:101548002A8EA8EF0AF02A9ED8903F302B6E5EEFC5
:1015580009F01200000E0001766F090E756F000E7B
:10156800786FD20E776F010E7A6F360E796F000E94
:101578007C6FD20E7B6FFF0E7E6F7D6984EC0FF05F
:10158800000E00018A6F280E896F000E8C6FD70E2F
:101598008B6FD60E8D6FFE0E8E6F000E906F000E45
:1015A8008F6FFF0E926F9169D9EC12F0100E000147
:1015B800A76F010EA86F000EAA6F320EA96F730EE7
:1015C800AB6FFF0EAC6F72EC13F0000E00018A6F68
:1015D8003C0E896F000E8C6FBE0E8B6F100E8D6FD8
:1015E800010E8E6FFF0E906F8F69000E926F000EC6
:1015F800916FD9EC12F0100E0001A76F010EA86FC1
:10160800000EAA6F320EA96FD90EAB6FFF0EAC6F2A
:1016180072EC13F0000E00018A6F780E896F000ECD
:101628008C6FA50E8B6F100E8D6F010E8E6FFF0ED7
:10163800906F8F69000E926F000E916FD9EC12F0C7
:10164800100E0001A76F010EA86F000EAA6F320ED0
:10165800A96F1E0EAB6FFF0EAC6F72EC13F0000E8D
:1016680000018A6F140E896F000E8C6F8C0E8B6FC1
:10167800100E8D6F010E8E6FFD0E906F200E8F6F06
:10168800000E926F000E916FD9EC12F0100E00014F
:10169800A76F010EA86F000EAA6F320EA96F980EE1
:1016A800AB6FFF0EAC6F72EC13F0000E00018A6F87
:1016B800140E896F000E8C6F780E8B6F100E8D6F65
:1016C800010E8E6FFD0E906F200E8F6F000E926FC1
:1016D800000E916FD9EC12F0100E0001A76F010EE9
:1016E800A86F000EAA6F320EA96FEF0EAB6FFE0E39
:1016F800AC6F72EC13F0000E00018A6F140E896F44
:10170800000E8C6F5F0E8B6F100E8D6F010E8E6F3B
:10171800FF0E906FE00E8F6F000E926F000E916FAC
:10172800D9EC12F0100E0001A76F010EA86F000E81
:10173800AA6F320EA96FBA0EAB6FFF0EAC6F72ECC8
:1017480013F0000E00018A6F5A0E896F000E8C6F1D
:101758004B0E8B6F100E8D6F010E8E6FFF0E906FFC
:10176800E00E8F6F000E926F000E916FD9EC12F0A1
:10177800100E0001A76F010EA86F000EAA6F320E9F
:10178800A96FCA0EAB6FFF0EAC6F72EC13F0000EB0
:1017980000018A6F140E896F000E8C6F140E8B6F08
:1017A800100E8D6F010E8E6FFF0E906F8F69000EF9
:1017B800926F000E916FD9EC12F0100E0001A76F16
:1017C800010EA86F000EAA6F320EA96F4A0EAB6FFA
:1017D800FF0EAC6F72EC13F0000E00018A6F140E4E
:1017E800896F000E8C6F280E8B6F100E8D6F010E97
:1017F8008E6FFF0E906F8F69000E926F000E916FC3
:10180800D9EC12F01200010E0001706F130E6F6F09
:10181800000E726F0A0E716F010E746F270E736FD0
:10182800000E766FC00E756FFF0E786F776909EC42
:1018380015F051C066F052C067F0000E0001696FE4
:10184800B40E686FB7EC1DF066C06CF067C06DF041
:10185800000E00016F6F640E6E6F38EC19F06CC0EB
:10186800B2F06DC0B3F00001B35109E1B40EB25D3E
:10187800D8A041EF0CF043EF0CF049EF0CF0000E4C
:10188800B36FB40EB26F56EF0CF0B251B311D8A4C7
:1018980050EF0CF052EF0CF056EF0CF0000EB36F57
:1018A800010EB26F010E706F140E6F6F000E726F23
:1018B8000B0E716F010E746F260E736F0A0EB22530
:1018C800756F000EB321766F000E786F1F0E776F5D
:1018D80009EC15F055C066F056C067F0000E00011F
:1018E800696FB40E686FB7EC1DF066C06CF067C026
:1018F8006DF0000E00016F6F640E6E6F38EC19F01A
:101908006CC0B4F06DC0B5F00001B55109E1B40E7A
:10191800B45DD8A092EF0CF094EF0CF09AEF0CF0B5
:10192800000EB56FB40EB46FA7EF0CF0B451B5113B
:10193800D8A4A1EF0CF0A3EF0CF0A7EF0CF0000E69
:10194800B56F010EB46F010E706F140E6F6F0A0E33
:10195800B425716F000EB521726F010E746F260EDB
:10196800736F0C0EB425756F000EB521766FF80EE7
:10197800786F000E776F09EC15F0100E0001A76F55
:10198800010EA86F000EAA6F320EA96FF90EAB6F89
:10199800FF0EAC6F55C0ADF056C0AEF072EC13F050
:1019A800000E00018A6FB40E896F000E8C6F280E2E
:1019B8008B6F100E8D6F010E8E6FFF0E906F8F69FB
:1019C800000E926F000E916FD9EC12F0100E00010C
:1019D800A76F010EA86F000EAA6F320EA96FF90E3D
:1019E800AB6FFF0EAC6F51C0ADF052C0AEF072ECF1
:1019F80013F0000E00018A6F8C0E896F000E8C6F39
:101A0800140E8B6F100E8D6F010E8E6FFF0E906F80
:101A18008F69000E926F000E916FD9EC12F01200D0
:101A2800096E0950D8B41BEF0DF01DEF0DF03FEF14
:101A38000DF004BE24EF0DF022EF0DF03FEF0DF096
:101A480001C005F002C006F003C007F004C008F0AA
:101A5800051E061E071E081E052A000E062207225E
:101A6800082205C00BF006C00CF007C00DF008C036
:101A78000EF047EF0DF001C00BF002C00CF003C0F0
:101A88000DF004C00EF00150021003100410D8A489
:101A980050EF0DF052EF0DF05CEF0DF0000E016EFF
:101AA800000E026E000E036E000E046EEDEF0DF0D8
:101AB800960E0A6E66EF0DF00A2AD8900E320D3295
:101AC8000C320B32000E0B14056E000E0C14066E51
:101AD800000E0D14076EFE0E0E14086E055006104B
:101AE80007100810D8A47BEF0DF07DEF0DF060EF24
:101AF8000DF08BEF0DF00A2A010E0B26000E0C22BA
:101B08000D220E22D8900E320D320C320B32000EFE
:101B18000B14056E000E0C14066E000E0D14076EE5
:101B2800FF0E0E14086E0550061007100810D8A4F2
:101B3800A0EF0DF0A2EF0DF07FEF0DF0AAEF0DF082
:101B48000A06D8900B360C360D360E360DBEAFEFA2
:101B58000DF0B1EF0DF0B9EF0DF0020E0A60B7EF1E
:101B68000DF0B9EF0DF0A4EF0DF00AB0BEEF0DF0D7
:101B7800C0EF0DF0C1EF0DF00D9ED8900A320AC0EB
:101B880005F0066A076A086A05C008F0076A066A67
:101B9800056A05500B1206500C1207500D1208501A
:101BA8000E120950D8B4DBEF0DF0DDEF0DF0E5EFC4
:101BB8000DF004BEE4EF0DF0E2EF0DF0E5EF0DF0EF
:101BC8000E8E0BC001F00CC002F00DC003F00EC069
:101BD80004F01200000186BFF4EF0DF0F7EF0DF0EE
:101BE800010EF8EF0DF0000E8D6F8D51D8B4FFEF98
:101BF8000DF001EF0EF005EF0EF0856D861FD8B0E1
:101C0800862BC3BF0CEF0EF00AEF0EF012EF0EF0AA
:101C1800000E8A6F010E896F16EF0EF0C2C089F0B0
:101C2800C3C08AF0C0C08BF0C1C08CF08D51D8B44D
:101C380020EF0EF022EF0EF039EF0EF08B07D8A050
:101C48008C078D51D8A42BEF0EF02DEF0EF033EF4B
:101C58000EF0000E886F2B0E876F37EF0EF0000E18
:101C6800886F2D0E876F87C08DF0000E8F6F1F0E47
:101C78008E6F000E0101616F73EF0EF08E07D8A012
:101C88008F07420E8E25D96E010E8F21DA6E85C020
:101C980066F086C067F0000E696F0A0E686F72EC16
:101CA80017F066C06CF067C06DF075EC1BF00001B2
:101CB8006C51300FDF6E8907D8A08A078B07D8A030
:101CC8008C0785C066F086C067F0000E696F0A0E43
:101CD800686FAFEC16F066C085F067C086F000014B
:101CE8008FBF7FEF0EF08F5108E18E05D8A07FEFF0
:101CF8000EF081EF0EF097EF0EF085518611D8A403
:101D080088EF0EF08AEF0EF042EF0EF08ABF97EFE1
:101D18000EF08A5106E18905D8B095EF0EF097EFDD
:101D28000EF042EF0EF08D51D8B49DEF0EF09FEFFC
:101D38000EF0AAEF0EF08E07D8A08F07420E8E2560
:101D4800D96E010E8F21DA6E8DC0DFFF83C078F067
:101D580084C079F0420E8E257A6F010E8F217B6F39
:101D68008BC07CF08CC07DF04AEC16F078C083F014
:101D780079C084F01200000E0001866F67EF0FF043
:101D8800D8907335F66E7435F76E950EF626EC0E10
:101D9800F722F86A000EF8220900F5CF79F0090059
:101DA800F5CF7AF08651795F000E7A5B6F5179250D
:101DB8006B6F70517A216C6F71C06DF072C06EF0EC
:101DC80096EC1BF0000E0001876F000E886F86519D
:101DD800796F7A6BD89079377A37D8907335F66EF1
:101DE8007435F76E950EF626EC0EF722F86A000E9B
:101DF800F8220900F5CF7BF00900F5CF7CF0D890E8
:101E08007B377C3779517B5D7D6F7A517C597E6F4A
:101E180087517D5F000E7E5B73517D2774517E2351
:101E2800D8907D377E37950E7D25F66EEC0E7E2197
:101E3800F76EF86A000EF8220900F5CF7FF0090066
:101E4800F5CF80F088C081F0800E826F000E836F1E
:101E5800812B32EF0FF0833583338233812F2FEFBD
:101E68000FF000017F518215846F80518315856FB3
:101E780084518511D8B443EF0FF045EF0FF04DEFC3
:101E88000FF075C069F076C06AF062EC1EF053EF8F
:101E98000FF077C069F078C06AF062EC1EF00001BC
:101EA800882B070E88655BEF0FF05DEF0FF0EBEF07
:101EB8000EF0872B010E876564EF0FF066EF0FF0C9
:101EC800E9EF0EF0862BD8907335F66E7435F76E01
:101ED800950EF626EC0EF722F86A000EF8228651C7
:101EE800796F7A6B0900F550795D0900F5507A59D8
:101EF800D8A081EF0FF083EF0FF0C4EF0EF01200BF
:101F080000017551795D886F76517A59896F7951D9
:101F1800755D7A517659D8A094EF0FF096EF0FF0CF
:101F28009AEF0FF0806981699EEF0FF0000E816FC4
:101F3800010E806F77517B5D8A6F78517C598B6F6A
:101F48007B51775D7C517859D8A0ADEF0FF0AFEF9A
:101F58000FF0B3EF0FF082698369B7EF0FF0000E4F
:101F6800836F010E826F7551795D76517A59D8B0B9
:101F7800C0EF0FF0C2EF0FF0C6EF0FF0886D891FAA
:101F8800D8B0892B7B51775D7C517859D8B0CFEF89
:101F98000FF0D1EF0FF0D5EF0FF08A6D8B1FD8B08F
:101FA8008B2B8A518825846F8B518921856F75C049
:101FB8006FF076C070F077C071F078C072F07DC0B5
:101FC80073F07EC074F0BBEC1CF0000179517519F8
:101FD80007E17A517619D8A4F4EF0FF0F6EF0FF075
:101FE80004EF10F07B51771907E17C517819D8A4D8
:101FF80000EF10F002EF10F004EF10F039EF10F0DE
:10200800D8908435866F8535876F8A51865D87516C
:10201800800A7F6F8B51800A7F59D8A016EF10F085
:1020280018EF10F020EF10F08A5184278B51852388
:1020380080517527815176238651885D8951800AA0
:102048007F6F8751800A7F59D8A02DEF10F02FEFAE
:1020580010F0DBEF0FF088518427895185238251D6
:10206800772783517823DBEF0FF0120083BE3FEF11
:1020780010F043EF10F0036A032A44EF10F0036AEC
:102088000350056E066A83BC4CEF10F050EF10F059
:10209800036A032A51EF10F0036A0350076E086AB7
:1020A80083BA59EF10F05DEF10F0036A032A5EEF70
:1020B80010F0036A0350096E0A6A83B666EF10F0DF
:1020C8006AEF10F0036A032A6BEF10F0036A0350FB
:1020D8000B6E0C6A83B473EF10F077EF10F0036A9D
:1020E800032A78EF10F0036A03500D6E0E6A82BA65
:1020F80080EF10F084EF10F0036A032A85EF10F0E8
:10210800036A03500F6E106A82B88DEF10F091EFDA
:1021180010F0036A032A92EF10F0036A0350116E5D
:10212800126A82B69AEF10F09EEF10F0036A032A43
:102138009FEF10F0036A0350136E146A82B0A7EF82
:1021480010F0ABEF10F0036A032AACEF10F0036A4B
:102158000350156E166A82B2B4EF10F0B8EF10F0A3
:10216800036A032AB9EF10F0036A0350176E186A5E
:10217800000E1A6E000E196E000E1C6E000E1B6EFD
:10218800D8901B34D96E1C34DA6E050ED926000E91
:10219800DA22DE50DE10D8A4D4EF10F0D6EF10F01B
:1021A800D8EF10F0194A1A2A1B4A1C2A1CBEE6EF5F
:1021B80010F01C5009E10A0E1B5CD8A0E6EF10F0E5
:1021C800E8EF10F0C4EF10F019C001F01AC002F0E7
:1021D8001200FACF4BF0FBCF4CF0D9CF4DF0DACF4D
:1021E8004EF0F3CF4FF0F4CF50F09DACFEEF10F06F
:1021F80000EF11F00BEF11F09EAC05EF11F007EFB7
:1022080011F00BEF11F0ECEC1CF08DEF11F0F2AACD
:1022180010EF11F012EF11F01DEF11F0F2A417EF0B
:1022280011F019EF11F01DEF11F0A1EC1CF08DEF7A
:1022380011F0F2A822EF11F024EF11F02FEF11F0B6
:10224800F2A229EF11F02BEF11F02FEF11F001ECB2
:102258001FF08DEF11F09DA834EF11F036EF11F05B
:102268004CEF11F09EA83BEF11F03DEF11F04CEF51
:1022780011F002D84AEF11F00500FA6E01017C5105
:10228800FD6E7D51FE6EFF6AFA5012008DEF11F05F
:102298009DAA51EF11F053EF11F069EF11F09EAACA
:1022A80058EF11F05AEF11F069EF11F002D867EF0B
:1022B80011F00500FA6E01017A51FD6E7B51FE6E38
:1022C800FF6AFA5012008DEF11F09DA26EEF11F027
:1022D80070EF11F07BEF11F09EA275EF11F077EF20
:1022E80011F07BEF11F0D4EC1CF08DEF11F09DA0F4
:1022F80080EF11F082EF11F08DEF11F09EA087EFC3
:1023080011F089EF11F08DEF11F014EC1CF08DEF46
:1023180011F050C0F4FF4FC0F3FF4EC0DAFF4DC0BC
:10232800D9FF4CC0FBFF4BC0FAFF5F921100000EB3
:102338000001746F000E736F000E726F000E716FE4
:10234800A8EF11F06C4B6D2B6CC0D9FF6DC0DAFF94
:10235800200EDE18D8B4B3EF11F0B5EF11F0A6EFE8
:1023680011F06CC0D9FF6DC0DAFFDF506E6FF70E49
:102378006E256F6F706BFF0E7023705109E1050EAB
:102388006F5DD8A0CAEF11F0CCEF11F0A6EF11F0F5
:10239800D6EF11F0000E726F010E716F6C4B6D2B42
:1023A8000CEF12F06CC0D9FF6DC0DAFFDF506E6F12
:1023B8006F6B6F51000AD8B4E4EF11F00CEF12F014
:1023C8006E512B0AD8B4D2EF11F0060AD8B4CEEF6A
:1023D80011F00CEF12F073C066F074C067F0000ED5
:1023E800696F0A0E686FB7EC1DF06CC0D9FF6DC03D
:1023F800DAFFDF5000016E6F6E51665F000E675B9B
:10240800300E6625736F000E6721746FD2EF11F0DE
:102418006CC0D9FF6DC0DAFFDF506E6FD00E6E252D
:102428006F6F706BFF0E7023705109E10A0E6F5DBC
:10243800D8A021EF12F023EF12F0EFEF11F0715155
:102448007211D8A42AEF12F02CEF12F03AEF12F022
:1024580073C06EF074C06FF06E1F6F1F6E4B6F2BE2
:102468006EC06CF06FC06DF03EEF12F073C06CF090
:1024780074C06DF012006BEC1CF008EC1FF0000E3D
:10248800CBEC17F0DAEC02F0AEEC0AF0F28EF28C3C
:10249800F28C860E0001666F3D0E676FDEEC1EF053
:1024A800DE0E0001666F300E676FFCEC1EF07E0ECC
:1024B8000001666F340E676FD9EC1EF01FEC1FF039
:1024C8000C0E0001666F390E676FD4EC1EF01DEC20
:1024D8001FF0EC0E0001666F370E676FCFEC1EF031
:1024E80019EC1FF0920E0001666F3A0E676FCAEC86
:1024F8001EF005EC1FF00C0E0001A76FFE0EA86F72
:10250800A3EC1DF0000E0001D16F0001D151D8A439
:1025180090EF12F092EF12F09AEF12F01BEC1FF00E
:1025280017EC1FF08A988A869FEF12F01DEC1FF0B7
:1025380019EC1FF08A960001ED51D8B4A6EF12F0FD
:10254800A8EF12F0ADEF12F007EC0CF0000E00014E
:10255800ED6F22EC18F00001EB51D8B4B6EF12F091
:10256800B8EF12F0BDEF12F035EC00F0000E0001EC
:10257800EB6F525009E1640E515CD8A0C6EF12F01F
:10258800C8EF12F0D3EF12F00BEC1FF0000E0001B1
:10259800676F320E666FD8EC1BF089EF12F008EC0B
:1025A8001FF089EF12F033EF00F058EF13F0000E30
:1025B8000001996F000E986F000E976F000E966FCE
:1025C80005EF13F0D8909835F66E9935F76E950E9D
:1025D800F626EC0EF722F86A000EF8220900F5CF6D
:1025E80093F00900F5CF94F0D89093379437010E03
:1025F8009327000E94239351982794519923964B2F
:10260800972B8DC0F6FF8EC0F7FF000EF86E0F0EE9
:10261800F76403D00800F55005D0F6CFE1FFF7CFF7
:10262800E2FFE7500001936FE00E9325946F956BDE
:10263800FF0E95239451965D95519759D8A027EF91
:1026480013F029EF13F0E6EF12F089C06FF08AC09B
:1026580070F08BC071F08CC072F098C073F099C0A4
:1026680074F08FC075F090C076F091C077F092C08A
:1026780078F0BFEC0EF0D89000019835F66E9935D9
:10268800F76E950EF626EC0EF722F86A000EF82281
:102698000900F5CF93F00900F5CF94F093518927FD
:1026A80094518A238D4B8E2B8DC0F6FF8EC0F7FF79
:1026B800000EF86E0F0EF76403D00800F55005D031
:1026C800F6CFE1FFF7CFE2FFE7500009D8A46FEF9C
:1026D80013F071EF13F0DBEF12F01200800E00011F
:1026E800AA5DD8A07AEF13F07CEF13F082EF13F015
:1026F800000EC56F4B0EC46F06EF14F0AD0E01014E
:10270800666F000E676FA7C068F1A8C069F1000185
:10271800AA5109E1020EA95DD8A095EF13F097EF31
:1027280013F0A6EF13F0FF0EA9250101726FFF0E3B
:102738000001AA210101736F000E6C6F000E6B6F10
:10274800AFEF13F0000E0101736F010E726F000EF0
:102758006C6F010E6B6F680E00019F6F010EA06F0A
:10276800ABC0A1F0ACC0A2F0660EA36F010EA46FBF
:10277800E0EC19F09FC064F1A0C065F10001A95117
:10278800AA11D8B4CAEF13F0CCEF13F006EF14F087
:10279800010165BFD2EF13F0D4EF13F006EF14F088
:1027A800FF0E0001A925AF6FFF0EAA21B06FAF5130
:1027B8000101645D6551800A0001B16FB051800A62
:1027C800B159D8A0EAEF13F0ECEF13F0F7EF13F0DC
:1027D800FF0EA9250101626FFF0E0001AA21010168
:1027E800636FFBEF13F064C162F165C163F101012E
:1027F80062510001A725D96E010163510001A8218A
:10280800DA6EDF6A1200433444344A6E4A50D8A460
:1028180010EF14F012EF14F01CEF14F0000E416EDC
:10282800000E426E000E436E000E446E89EF14F0E7
:1028380041C045F042C046F043C047F044C048F0AC
:10284800200E2CEF14F0D8904832473246324532E9
:10285800E82E27EF14F04550496E438EFF0E4116BF
:10286800FF0E4216FF0E4316000E4416960E4A5EE1
:102878004ABE43EF14F041EF14F059EF14F04A50F8
:10288800800A970FD8B04BEF14F04DEF14F04FEFCC
:1028980014F012EF14F0D8904432433242324132ED
:1028A8004A3E4FEF14F071EF14F01F0E4A645FEFC9
:1028B80014F061EF14F069EF14F012EF14F0D890EF
:1028C80041364236433644364A064A50D8A46FEF5A
:1028D80014F071EF14F063EF14F04950D8B477EFA7
:1028E80014F079EF14F081EF14F0441E431E421ED9
:1028F800416C000E42224322442241C041F042C0B2
:1029080042F043C043F044C044F012000001C3BF8A
:1029180092EF14F090EF14F098EF14F0000E8A6F15
:10292800010E896F9CEF14F0C2C089F0C3C08AF011
:10293800C0C087F0C1C088F0000E8C6F1F0E8B6F6F
:10294800000E0101616FD4EF14F08B07D8A08C073B
:10295800420E8B25D96E010E8C21DA6E85C066F089
:1029680086C067F0000E696F0A0E686FADEC19F04B
:1029780000016651300FDF6E8907D8A08A078707E4
:10298800D8A0880785C06CF086C06DF0000E6F6F08
:102998000A0E6E6F38EC19F06CC085F06DC086F0C9
:1029A80000018B518C11D8B4DCEF14F0DEEF14F079
:1029B800F4EF14F085518611D8A4E5EF14F0E7EF91
:1029C80014F0A9EF14F08ABFF4EF14F08A5106E16D
:1029D8008905D8B0F2EF14F0F4EF14F0A9EF14F071
:1029E80083C078F084C079F0420E8B257A6F010E8F
:1029F8008C217B6F87C07CF088C07DF04AEC16F094
:102A080078C083F079C084F0120071C07BF072C086
:102A18007CF00001725107E1F00E715DD8B017EF3C
:102A280015F019EF15F07CEF15F0400E6F5D010EF3
:102A38007059D8A022EF15F024EF15F026EF15F005
:102A48007CEF15F0400E735D010E7459D8A02FEF7E
:102A580015F031EF15F035EF15F0010E746F400EDB
:102A6800736F765109E1F00E755DD8A03EEF15F051
:102A780040EF15F071EF15F0000E766FF00E756FE0
:102A880071EF15F06FC06BF070C06CF071C06DF035
:102A980072C06EF096EC1BF000016F4B702B5BEF71
:102AA80015F077C069F078C06AF062EC1EF000019A
:102AB8007151796F72517A6F714B722B7951755DC3
:102AC8007A517659D8B06BEF15F06DEF15F055EFD8
:102AD80015F07BC071F07CC072F06F51735D70515E
:102AE8007459D8B07AEF15F07CEF15F046EF15F071
:102AF8001200000E0001746F000E736F6CC0D9FFD6
:102B08006DC0DAFFDECFF6FFDDCFF7FFF86A080009
:102B1800F5502A0AD8A493EF15F095EF15F0CAEFEF
:102B280015F06CC0D9FF6DC0DAFFDE2A000EDD2279
:102B38006EC0D9FF6FC0DAFFDFCF70F0020EDE265D
:102B4800DFCF71F0000EDD2270C0D9FF71C0DAFF4F
:102B5800DECF73F0DDCF74F0DFEF15F073C066F0F1
:102B680074C067F0000E696F0A0E686FB7EC1DF04D
:102B7800000172516625736F000E6721746F6CC077
:102B8800D9FF6DC0DAFFDE2A000EDD226CC0D9FF46
:102B98006DC0DAFFDECFF6FFDDCFF7FFF86A080079
:102BA800F550D00F726F090E7265DDEF15F0DFEF8B
:102BB80015F0B2EF15F073C06CF074C06DF0120030
:102BC80000016A516B11D8B4ECEF15F0EEEF15F077
:102BD800F7EF15F06A516B11D8A4F5EF15F0F7EF80
:102BE80015F0FCEF15F06851BCEC1EF049EF16F03B
:102BF80020EE0AF06A51D9266B51DA22DE50DE1037
:102C0800D8B409EF16F00BEF16F026EF16F020EE09
:102C18000AF06A51D9266B51DA2210EE03F06A5194
:102C2800E1266B51E222DE50E65CE650800A706FC6
:102C3800DE50800A7059D8B024EF16F026EF16F04F
:102C480049EF16F020EE03F06A51D9266B51DA22CB
:102C5800DECF6CF0DDCF6DF06AC0D9FF6BC0DAFF54
:102C6800DECF6EF0DDCF6FF06C516E25D96E6D51F1
:102C78006F21DA6E68C0DFFF20EE03F06A51D926B3
:102C88006B51DA22DE2A000EDD2212000001CCA1EF
:102C980050EF16F052EF16F05CEF16F07AC071F0B4
:102CA8007BC072F078C073F079C074F02EEC1BF022
:102CB80000017DBF62EF16F064EF16F06AEF16F0C0
:102CC8007CC081F07DC082F06EEF16F0000E826F3E
:102CD800000E816F000E806F000E7F6F81EF16F07F
:102CE800000E696F200E686F78C06AF079C06BF0CB
:102CF800E4EC15F000017F4B802B81517F5D805102
:102D0800800A7E6F8251800A7E59D8A08EEF16F015
:102D180090EF16F074EF16F0CCB195EF16F097EF30
:102D280016F0A1EF16F07AC071F07BC072F078C08F
:102D380073F079C074F02EEC1BF07AC066F07BC09B
:102D480067F032EC1CF0000181516625786F8251E2
:102D58006721796F1200000E00016B6F69BFB9EF30
:102D680016F0B7EF16F0BFEF16F0686D691FD8B010
:102D7800692B010E6B6F67BFC6EF16F0C4EF16F034
:102D8800CCEF16F0666D671FD8B0672B010E6B1B72
:102D9800000E6D6F000E6C6F68516911D8B4D7EFD3
:102DA80016F0D9EF16F001EF17F0010E6A6FE1EF98
:102DB80016F0D890683769376A2B69AFE6EF16F0D6
:102DC800E8EF16F0DDEF16F0D8906C376D376851E4
:102DD800665D69516759D8A0F4EF16F0F6EF16F062
:102DE800FBEF16F06851665F6951675B6C81D8909C
:102DF800693368336A2FE8EF16F06B51D8B407EFE0
:102E080017F009EF17F00DEF17F06C6D6D1FD8B0C4
:102E18006D2B6CC066F06DC067F01200B60E000135
:102E2800D525D96EDA6A000EDA22DF6AABA41FEF65
:102E380017F021EF17F035EF17F0B60ED525D96E3C
:102E4800DA6A000EDA22DF8202D835EF17F00500C1
:102E5800FA6E01017851FD6E7951FE6EFF6AFA50E3
:102E68001200ABA23AEF17F03CEF17F051EF17F052
:102E7800B60E0001D525D96EDA6A000EDA22DF8493
:102E880002D851EF17F00500FA6E01017651FD6E78
:102E98007751FE6EFF6AFA501200B60E0001D52572
:102EA800D96EDA6A000EDA22DF50D8B45EEF17F076
:102EB80060EF17F06FEF17F002D86DEF17F005000D
:102EC800FA6E01017451FD6E7551FE6EFF6AFA507B
:102ED800120071EF17F08DEC1DF01200000E0001CA
:102EE8006B6F67BF7CEF17F07AEF17F082EF17F080
:102EF800666D671FD8B0672B010E6B6F69BF89EFCE
:102F080017F087EF17F08DEF17F0686D691FD8B0CD
:102F1800692B68516911D8B494EF17F096EF17F040
:102F2800BAEF17F0010E6A6F9EEF17F0D890683766
:102F380069376A2B69AFA3EF17F0A5EF17F09AEF7F
:102F480017F06851665D69516759D8A0AEEF17F060
:102F5800B0EF17F0B4EF17F06851665F6951675B1F
:102F6800D890693368336A2FA5EF17F06B51D8B43E
:102F7800C0EF17F0C2EF17F0C6EF17F0666D671FC6
:102F8800D8B0672B66C066F067C067F01200000112
:102F9800676F6CBAD2EF17F0D4EF17F021EF18F083
:102FA80000016751040D010EF326000EF4226D0E88
:102FB800F324F66EFA0EF420F76EF86A000EF82283
:102FC8000800F5CF6DFF6751040D6D0EF324F66E02
:102FD800FA0EF420F76EF86A000EF8220800F5CF12
:102FE8006CFF000E6B6E6751040D020EF326000E87
:102FF800F4226D0EF324F66EFA0EF420F76EF86ADA
:10300800000EF8220800F5CF6EFF6751040D030E7D
:10301800F326000EF4226D0EF324F66EFA0EF42059
:10302800F76EF86A000EF8220800F5CF66F09550A2
:103038006619FE0B6619956E6C8A12006EEC1EF00E
:103048000009D8B42AEF18F02CEF18F06EEF18F03A
:103058006CEC1AF00001CF6FCF5112EC1AF02F0E62
:103068000001CF653AEF18F03CEF18F044EF18F084
:10307800390ECF6542EF18F044EF18F04DEF18F015
:103088000D0ECF19D8A44BEF18F04DEF18F053EFF1
:1030980018F0010EEB6FCFC0ECF057EF18F0000EF0
:1030A800EB6F300EEC6FCD05D8A45DEF18F05FEF35
:1030B80018F063EF18F0010EEC6F6EEF18F0020EC7
:1030C800CD19D8A46AEF18F06CEF18F06EEF18F06D
:1030D800020EEC6F1200000E7AEC1EF091EC1EF05E
:1030E80001C057F002C058F0000E2C6EC00E2D6EB5
:1030F8007F0E2E6E440E2F6E000E136E000E146E91
:10310800C80E156E420E166E57C001F058C002F078
:10311800036A046A000E14EC0DF001C00FF002C03F
:1031280010F003C011F004C012F0F5EC04F00FC069
:1031380028F010C029F011C02AF012C02BF0E1ECE1
:1031480008F028C041F029C042F02AC043F02BC043
:1031580044F007EC14F041C055F042C056F012009C
:10316800010E0001746F400E736F000E726FF00E47
:10317800716F000E6C6F000E6B6F000E6E6F000E9D
:103188006D6F96EC1BF00009D8B4CDEF18F0CFEFB7
:1031980018F0E9EF18F0F7EF18F06FC069F070C099
:1031A8006AF062EC1EF000017307D8A07407732957
:1031B80006E17429D8A4E3EF18F0E5EF18F0D1EF91
:1031C80018F0010E746F400E736F00017107D8A0DC
:1031D8007207712906E17229D8A4F5EF18F0F7EF04
:1031E80018F0D7EF18F012009D9A240E0001666FB0
:1031F8002E0E676FE8EC1EF09D986E0E0001666F4C
:10320800370E676FE3EC1EF0080EB86E900EAB6ECB
:10321800240EAC6ECF0EAF6E000EB06E500E0001D5
:10322800666F3E0E676FF2EC1EF01C0E0001666FB3
:103238003E0E676FEDEC1EF0220E0001666F3E0E2B
:10324800676FF7EC1EF0000E0001D26F000ED86F0A
:10325800000ED76F080ED66F000ED56F000ED46F14
:10326800000ED36F9D8A1200000E0001726F000ECF
:10327800716F6E516F11D8B444EF19F046EF19F021
:103288006EEF19F0010E706F4EEF19F0D8906E378F
:103298006F37702B6FAF53EF19F055EF19F04AEFF6
:1032A80019F0D890713772376E516C5D6F516D5946
:1032B800D8A061EF19F063EF19F068EF19F06E51BB
:1032C8006C5F6F516D5B7181D8906F336E33702F67
:1032D80055EF19F071C06CF072C06DF01200000E5D
:1032E8000C6E000E0B6E09500A10D8B47EEF19F060
:1032F80080EF19F0A8EF19F0010E0D6E88EF19F0A4
:10330800D89009360A360D2A0AAE8DEF19F08FEFDC
:1033180019F084EF19F0D8900B360C360950075C79
:103328000A500858D8A09BEF19F09DEF19F0A2EFAA
:1033380019F00950075E0A50085A0B80D8900A32D3
:1033480009320D2E8FEF19F00BC007F00CC008F0F2
:103358001200000168516911D8B4B5EF19F0B7EF40
:1033680019F0DBEF19F0010E6A6FBFEF19F0D89072
:10337800683769376A2B69AFC4EF19F0C6EF19F0DF
:10338800BBEF19F06851665D69516759D8A0CFEF56
:1033980019F0D1EF19F0D5EF19F06851665F69514E
:1033A800675BD890693368336A2FC6EF19F066C037
:1033B80066F067C067F01200A1C0A5F0A2C0A6F031
:1033C800000E0001BF6F000EBE6FFEEF19F09FC028
:1033D80090F0A0C091F0A50E926F000E936FA3C05D
:1033E80094F0A4C095F00AEC07F000019051BE27B4
:1033F8009151BF23A5C0F6FFA6C0F7FFF86A0800E1
:10340800F5500009D8A40BEF1AF00DEF1AF0EBEF06
:1034180019F0BEC09FF0BFC0A0F012000001666F97
:103428000001D651D8B41BEF1AF01DEF1AF014EFB3
:103438001AF09DB822EF1AF024EF1AF028EF1AF0CC
:1034480066C0ADFF3DEF1AF09D98080ED825D96EDD
:10345800DA6A010EDA2266C0DFFFD82B070ED865BC
:1034680038EF1AF03AEF1AF03CEF1AF0000ED86F66
:10347800D6079D88120059045A10D8A446EF1AF0AE
:1034880048EF1AF04DEF1AF0000E7AEC1EF021EC1E
:103498001FF03AEC10F001C053F002C054F053C0D2
:1034A80001F054C002F0000E046E640E036EF2ECDC
:1034B8001DF001C007F002C008F0000E0A6E0A0EE7
:1034C800096E73EC19F007C051F008C052F01200F1
:1034D8000001D351D8B473EF1AF075EF1AF06CEFFE
:1034E8001AF0B60ED425D96EDA6A000EDA22DF5049
:1034F800D26F000ED425D96EDA6A010EDA22DF50B7
:10350800666FD42B070ED4658CEF1AF08EEF1AF085
:1035180090EF1AF0000ED46F9D9AD3079D8A6651DA
:103528001200280EF66E3E0EF76E000EF86E00EED4
:10353800E9F010EE05F00900F5CFEEFFE550E15097
:10354800FAE101EE00F0620EEE6AE806FDE100EE37
:10355800B6F0270EEE6AE806FDE100EE51F00E0E19
:10356800EE6AE806FDE15F905F9200013FEF12F01E
:1035780000016A5109E1F00E695DD8A0C6EF1AF0A2
:10358800C8EF1AF0CBEF1AF0010EE2EF1AF02A0E8C
:10359800676F000E39EC1EF000016A51676F010E6B
:1035A80039EC1EF069C067F0010E39EC1EF02C0EE4
:1035B8000001676F000E39EC1EF0000E1200400E7D
:1035C8000001695D010E6A59D8A0EDEF1AF0EFEF1E
:1035D8001AF0F2EF1AF0010E09EF1BF02B0E676FCD
:1035E800000E39EC1EF000016A51676F010E39ECCC
:1035F8001EF069C067F0010E39EC1EF02C0E0001B8
:10360800676F000E39EC1EF0000E1200010E00016B
:103618006A6F200E66196711D8B415EF1BF017EF03
:103628001BF02AEF1BF0F70E6625686FFF0E672167
:10363800696F695109E1050E685DD8A026EF1BF096
:1036480028EF1BF02AEF1BF0000E6A6F6AC066F0C5
:10365800676B1200000E0001776F000E766F41EF66
:103668001BF075C068F0696B73C06AF074C06BF0CA
:10367800E4EC15F00001764B772B76517125D96E65
:1036880077517221DA6EDF50756F7551D8A44FEFFC
:103698001BF051EF1BF035EF1BF01200000E8D6E82
:1036A800000E8C6E000E896E000E8A6E000E8B6EF8
:1036B800000E966EBF0E926E270E936EBF0E946E1E
:1036C800EF0E956E000E0F013B6F000E3A6F060E5F
:1036D800396F000E3C6F2F0E386F000E616EF19E31
:1036E800120000016DBF83EF1BF06D5106E16C0500
:1036F800D8B081EF1BF083EF1BF091EF1BF06CC08B
:103708006EF06DC06FF06E1F6F1F6E4B6F2B6EC02B
:103718006CF06FC06DF095EF1BF06CC06CF06DC075
:103728006DF012006BC069F06CC06AF0E3EC1AF03F
:103738000009D8A4A2EF1BF0A4EF1BF0B2EF1BF016
:103748006DC069F06EC06AF0BCEC1AF00009D8B41C
:10375800B0EF1BF0B2EF1BF0B5EF1BF0010EB6EFA8
:103768001BF0000E1200080E0001D661BEEF1BF020
:10377800C0EF1BF0D6EF1BF0080ED725D96EDA6A1A
:10378800010EDA22DF50AD6ED72B070ED765CFEFCB
:103798001BF0D1EF1BF0D3EF1BF0000ED76FD62B29
:1037A800D7EF1BF09D98120066C068F067C069F0FB
:1037B8000001D89069336833D89069336833685109
:1037C8000F01556F66C068F0030E00016817683B6B
:1037D800F00E68170F015451CF0B000168110F014B
:1037E800546F12005150555C016E52505658026E7B
:1037F80002BE07EF1CF0025008E10104D8A007EF51
:103808001CF009EF1CF00FEF1CF0010E0001D06F47
:103818008A8E13EF1CF0000E0001D06F8A9E1200F2
:103828009E905BC001F05CC002F0CBEC1DF0000183
:10383800E151E211D8B423EF1CF025EF1CF031EF71
:103848001CF002D831EF1CF00500FA6EE151FD6E54
:10385800E251FE6EFF6AFA501200120066C068F06C
:1038680067C069F03BEF1CF00001664B672B66C030
:10387800D9FF67C0DAFFDF50D8A445EF1CF047EF47
:103888001CF038EF1CF000016851665D666F6951E5
:103898006759676F12000001676F000E0001686FBB
:1038A80061EF1CF0030E0001666F970EE82EFED73D
:1038B800662FFCD700D00001682B6751685DD8A03F
:1038C80068EF1CF06AEF1CF056EF1CF01200A4EC35
:1038D8001EF09BEC1EF052EC1BF0B5EC1EF005EC54
:1038E8001EF0DFEC1DF0ADEC1EF056EC1EF029ECDE
:1038F8001EF086EC1EF077EC1DF017EC1EF0F8ECCD
:1039080018F012000001D151D8B48DEF1CF08FEFE0
:103918001CF0A0EF1CF08AB894EF1CF097EF1CF095
:10392800010E98EF1CF0000EFF0A016E013A8A5052
:103938000118EF0B01188A6E1200F2945EC0D6FFD0
:103948000001E351E411D8B4ACEF1CF0AEEF1CF069
:10395800BAEF1CF002D8BAEF1CF00500FA6EE3517A
:10396800FD6EE451FE6EFF6AFA50120012006FC03D
:103978006BF070C06CF071C06DF072C06EF096ECB8
:103988001BF00009D8A4CBEF1CF0CDEF1CF0D3EF4F
:103998001CF073C069F074C06AF062EC1EF012008B
:1039A8009E920001DD51DE11D8B4DDEF1CF0DFEF8F
:1039B8001CF0EBEF1CF002D8EBEF1CF00500FA6EE0
:1039C800DD51FD6EDE51FE6EFF6AFA5012001200E4
:1039D8009E9C0001E751E811D8B4F5EF1CF0F7EF11
:1039E8001CF003EF1DF002D803EF1DF00500FA6E7E
:1039F800E751FD6EE851FE6EFF6AFA5012001200A0
:103A0800D00E00016625686FFF0E6721696F695146
:103A18000AE10A0E685DD8A014EF1DF017EF1DF03B
:103A2800010E18EF1DF0000E666F676B12007E9492
:103A38000001CA4BCB2BCB5109E1FA0ECA5DD8A0C5
:103A480028EF1DF02AEF1DF031EF1DF032EC1DF0CC
:103A5800000E0001CB6F000ECA6F12000001DF518B
:103A6800E011D8B43AEF1DF03CEF1DF048EF1DF01F
:103A780002D848EF1DF00500FA6EDF51FD6EE051E7
:103A8800FE6EFF6AFA50120012008ABC4EEF1DF05B
:103A980051EF1DF0010E52EF1DF0000EFF0A00015C
:103AA800606F603B604760478A506019BF0B6019C0
:103AB8008A6E010EED6F12000001E551E611D8B4CF
:103AC80068EF1DF06AEF1DF076EF1DF002D876EF73
:103AD8001DF00500FA6EE551FD6EE651FE6EFF6AB7
:103AE800FA5012001200000ECC6E0B0ECF6EDC0ED8
:103AF800CE6ECECF5BF0CFCF5CF09E909D804A0E0D
:103B08000001666F3E0E676FD4EC1EF0310ECD6E6D
:103B18001200000E0001D525D96EDA6A010EDA22EC
:103B2800AECFDFFFD52B070ED5659DEF1DF09FEFBC
:103B38001DF0A1EF1DF0000ED56FD32B1200A90EBA
:103B48000001AB6F000EAC6F000E9F6F000EA06FF0
:103B5800A7C0A1F0A8C0A2F0AB0EA36F000EA46F7F
:103B6800E0EC19F01200000166516803F3CF6AF027
:103B7800F4CF6BF066516903F3506B276751680304
:103B8800F3506B276AC066F06BC067F01200CDA4D3
:103B9800D0EF1DF0D2EF1DF0DAEF1DF0CD900250FE
:103BA800CF6E01C0CEFFCD80DEEF1DF00250CF6E8C
:103BB80001C0CEFF1200010EC26E000EC16E890E4A
:103BC800C06E000EC36E000EC46E9D8C520E0001B6
:103BD800666F3E0E676FFCEC1EF012000150030288
:103BE800F3CF05F0F4CF06F001500402F350062697
:103BF80002500302F350062605C001F006C002F089
:103C080012007C0E0F014B6F000E4C6F7E947D846A
:103C1800460E0001666F3E0E676FCAEC1EF07C0E02
:103C28000F014A6F1200000ED76ED90ED66ED90E4C
:103C38005E6EF294F28A4C0E0001666F3E0E676F5C
:103C4800D9EC1EF0570ED56E1200260EBB6E000E74
:103C5800BC6E9E929D82480E0001666F3E0E676F95
:103C6800CFEC1EF07E0EBA6E12000001686F0001E4
:103C780068B102D08D9001D08D808D92000167517E
:103C880048EC1EF08D8212000001666F66C06FFF5F
:103C9800A4AE51EF1EF053EF1EF04CEF1EF0A49EA1
:103CA8006F5012003C0E0F01546F7F0E556F000EBF
:103CB800566F4851F30B0409486F120000016A510E
:103CC800676F010E39EC1EF069C067F0010E39EC20
:103CD8001EF012000001D351D8A475EF1EF078EF42
:103CE8001EF0010E79EF1EF0000E1200026E02C0E7
:103CF80001F001460146C2500118830B0118C26E3B
:103D0800C2801200F292F19C4E0E0001666F3E0EC8
:103D1800676FDEEC1EF0F2881200C450046E036A6E
:103D2800C3500324016E000E0420026E1200400EE0
:103D38006D6E000E6C6E010E6E6E95906C9A120090
:103D4800D08E9F8CF1849F889F8A9F829F807F94CA
:103D580012000F015269000E536F7E90040E516FCE
:103D68001200300ED36E040ED26E000E9B6E12003F
:103D78000001676F0001675112EC1AF01200000E83
:103D88000001D06F000ED16FF292120066C0DFF012
:103D980067C0E0F0120066C0DDF067C0DEF0120018
:103DA80066C0E1F067C0E2F0120066C0E3F067C0E9
:103DB800E4F0120066C0E5F067C0E6F0120066C0E5
:103DC8007CF167C07DF1120066C07AF167C07BF1B3
:103DD800120066C076F167C077F1120066C078F10C
:103DE80067C079F1120066C074F167C075F11200FE
:103DF80066C0E7F067C0E8F01200F29260EC1DF0D0
:103E080012000F014A8512000F01519512000F018F
:103E180051851200AB98AB8812008DEC1DF0120092
:053E2800120001300151
:103E2E00BA941200BA841200CD901200CD80120006
:103E3E00D58E1200C2821200120012001200120061
:063E4E0012001200120038
:10CD54000014A514A514A514A514A514A514A514AC
:10CD6400A514A514A514AD14A514A514A514A514EF
:10CD7400A514A514ADF4ACD3AC92AC52A431A41157
:10CD8400A452A472A4D3ACF4AC14AD14AD14A51481
:10CD9400A514A514A514A514A514A514A514A514C7
:10CDA400A514A514A514A514A514A514A514A514B7
:10CDB400A514A514A514A514A514A514A514A514A7
:10CDC400A514A514A514A514A514A514A514A51497
:10CDD400A514A514A514A514A514A514A514A51487
:10CDE400A514A514A514A514A514A514A514A51477
:10CDF400A514A514A514A514A514A514A514A51467
:10CE0400A514A514A514A514A514A514A514ADD38F
:10CE1400AC31A44E9B6B8A88812679E678A578A5E7
:10CE240078C578067988814A8A0D93F0A3B3AC1447
:10CE3400A514A514A514A514A514A514A514A51426
:10CE4400A514A514A514A514A514A514A514A51416
:10CE5400A514A514A514A514A514A514A514A51406
:10CE6400A514A514A514A514A514A514A514A514F6
:10CE7400A514A514A514A514A514A514A514A514E6
:10CE8400A514A514A514A514A514A514A514A514D6
:10CE9400A514A514A514A514A514A514A514AD14BE
:10CEA400A514A514A514A514A514ADB2AC8E9B09A4
:10CEB40082C6784478037803780378037803780388
:10CEC4007803780378037802784378C578A8810DCD
:10CED4009B72AC13AD14A514A534A514A515A51403
:10CEE400A514A514A514A514A514A514A514A51476
:10CEF400A514A514A514A514A514A514A514A51466
:10CF0400A514A514A514A514A514A514A514A51455
:10CF1400A514A514A514A514A514A514A514A51445
:10CF2400A514A514A514A514A514A514A514A51435
:10CF3400A514A514A514A514A514A514A514A51425
:10CF4400A534A514AD14ADD3A44E9B6781647803B6
:10CF540078037803780378037803780378037803F5
:10CF640078037803780378037802700278037844AE
:10CF7400702679EC9292A413A514A514A514A514F3
:10CF8400A514A514A514A514A514A514A514A514D5
:10CF9400A514A514A514A514A514A514A514A514C5
:10CFA400A514A514A514A514A514A514A514A514B5
:10CFB400A514A514A514A514A514A514A514A514A5
:10CFC400A514A514A514A514A514A514A514A51495
:10CFD400A514A514A514A514A514A514A514A51485
:10CFE400A514A513AD30A4098A64780378037803E3
:10CFF4007803780378037803780378037803780355
:10D004007803780378037803780378037803780344
:10D014007803784370A881CFA3F3A413A514A514AF
:10D02400A514A514A514A514A514A514A514A51434
:10D03400A514A514A514A514A514A514A514A51424
:10D04400A514A514A514A514A514A514A514A51414
:10D05400A514A514A514A514A514A514A514A51404
:10D06400A514A514A514A514A514A514A514A514F4
:10D07400A514A514A514A514A514A514A514A514E4
:10D08400A5F3AC8E9B267923780378037803780381
:10D0940078037803780378037803780378037803B4
:10D0A40078037803780378037803780378037803A4
:10D0B40078037803780378C578ED92D3AC14A5147B
:10D0C400A514A514A514A514A514A514A514A51494
:10D0D400A514A514A514A514A514A514A514A51484
:10D0E400A514A514A514A514A514A514A514A51474
:10D0F400A514A514A514A514A514A514A514A51464
:10D10400A514A514A514A514A514A514A514A51453
:10D11400A514A514A514A514A514A514A514A5D384
:10D12400A40D93A570037803780378037803780338
:10D134007803780378037803780378037803780313
:10D144007803780378037803780378037803780303
:10D1540078037803780378037864786B8AB2A4142C
:10D16400A514A514A514A514A514A514A514A514F3
:10D17400A514A514A514A514A514A514A514A514E3
:10D18400A514A514A514A514A514A514A514A514D3
:10D19400A514A514A514A514A514A514A514A514C3
:10D1A400A514A514A514A514A514A514A514A514B3
:10D1B400A514A514A514A514A514A514A5D3ACEC05
:10D1C4009A847803780378037803780378037803E0
:10D1D40078037802782378857806798881E989E963
:10D1E40081A8814781C5784378037803780378035D
:10D1F400780378037803780378037844786B92B3E0
:10D20400AC14A514A514A514A514A514A514A5144B
:10D21400A514A514A514A514A514A514A514A51442
:10D22400A514A514A514A514A514A514A514A51432
:10D23400A514A514A514A514A514A514A514A51422
:10D24400A514A514A514A514A514A514A514A51412
:10D25400A514A514A514A514A514A5F4AC4E9B847B
:10D2640078037803780378037803780378037803E2
:10D274007864788881EC92F0A392A4D3ACF3ACF3F5
:10D28400A4D3AC92AC11A42E9BC9898578037803EE
:10D294007803780378037803780378037844788CE8
:10D2A40092F3AC14A514A514A514AD14A514A514D7
:10D2B400A514A514A514A514A514A514A514A514A2
:10D2C400A514A514A514A514A514A514A514A51492
:10D2D400A514A514A514A514A514A514A514A51482
:10D2E400A514A514A514A514A514A514A514A51472
:10D2F400A514A514A514A514A513ADF0A3C678030D
:10D30400780378037803780378037803784378887C
:10D31400818F9BB3ACF4AC14A514A514A514A51467
:10D32400A514A514A514A514ADD3ACF0A309826467
:10D334007003780378037803780378037803788498
:10D34400702D9B14A514A5F4A414A514A514A51458
:10D35400A514A514A514A514A514A514A514A51401
:10D36400A514A514A514A514A514A514A514A514F1
:10D37400A514A514A514A514A514A514A514A514E1
:10D38400A514A514A514A514A514A514A514A514D1
:10D39400A513A514A514A514A592A4A88123780304
:10D3A4007803780378037803780378A578AC92B28D
:10D3B400AC14A514A514AD14A514A514A514A51492
:10D3C400A514A514A514AD14A514A514ADD3AC4E81
:10D3D4009B06792378037802780380037803780224
:10D3E40078E67810A414AD14A514A514A514A514F6
:10D3F400A514A514A514A514A514A514A514A51461
:10D40400A514A514A514A514A514A514A514A51450
:10D41400A514A514A514A514A514A514A514A51440
:10D42400A514A514A514A514A514A514A514A51430
:10D43400A514A514A514A5F3ACCC92237803780302
:10D44400780378037803780378E5788E9BF3AC143B
:10D45400A514A514A514A513A514A514AD14AD14F1
:10D46400AD14A514A513A514A534A515A5F4ACF302
:10D47400ACF0A3478103780380037803780378032F
:10D48400784370298AD3AC14A514A5F4AC14A5145C
:10D49400A514A514A514A514A514A514A514A514C0
:10D4A400A514A514A514A514A514A514A514A514B0
:10D4B400A514A514A514A514A514A514A514A514A0
:10D4C400A514A514A514A514A514A514A514A51490
:10D4D400A514A514A5F4AC31AC067903780278033D
:10D4E40078037803780378A5788F9B14A514A51482
:10D4F400AD14A514A514A514A514A514A514A51458
:10D50400A514A514A514A514A514A5F4AC14A51468
:10D51400A514AD10A4277903700378037803780366
:10D5240078027884788F9B13AD14A514A514A514E0
:10D53400A514A514A514A514A514A514A514A5141F
:10D54400A514A514A514A514A514A514A514A5140F
:10D55400A514A514A514A514A514A514A514A514FF
:10D56400A514A514A514A514A514A514A514A514EF
:10D57400A514A514A5F4ACAB922370037803780327
:10D58400780378037864780D9BF3AC14A514A51480
:10D59400A514A514A514A514A514A514A514A514BF
:10D5A400A514A514A514A514AD14A514A514A514A7
:10D5B400A514A514ADAFA3C5780378037803780345
:10D5C4007802780378E989D3AC14A514A514A514BA
:10D5D400A514A514A514A514A514A514A514A5147F
:10D5E400A514A514A514A514A514A514A514A5146F
:10D5F400A514A514A514A514A514A514A514A5145F
:10D60400A514A514A514A514A514A514A514A5144E
:10D61400A514A514A592A4067902780378037803C7
:10D6240078037823780A8AD3AC14A514A534A514F6
:10D63400A514A514A514AD14AD14A514A514A5140E
:10D64400A514A514A514A514A514A514A514A5140E
:10D65400A514A514A5F3ACCC9243700380037803FE
:10D664007803780278857810A414A514A514A51459
:10D67400A514A514A514A514A514A514A514A514DE
:10D68400A514A514A514A514A514A514A514A514CE
:10D69400A514A514A514A514A514A514A514A514BE
:10D6A400A514A514A514A514A514A514A514A514AE
:10D6B400A514A514AD6E9B4478037803780378030E
:10D6C400780378C57811A414AD14A514A514A51471
:10D6D400AD14A514A514A514A514A514A514A51476
:10D6E400A514A514A514A514A514A514A514A5146E
:10D6F400A514A514A514A592AC6781037803780337
:10D7040078038002782370AC8A14AD14A514AD1488
:10D71400A514A514A514A514A514A514A514A5143D
:10D72400A514A514A514A514A514A514A514A5142D
:10D73400A514A514A514A514A514A514A514A5141D
:10D74400A514A514A514A514A514A514A514A5140D
:10D75400A515A5F3AC2A8A23780378037803780304
:10D764007803786B8AF3AC14A514AD14A514A5142E
:10D77400A514AD14A514A514A514A514A514A514D5
:10D78400A514A514A514A514A514A514A514A514CD
:10D79400A514A514A514A514AD2E9B4470037803F9
:10D7A400780378037803786781B2AC14AD14A514B8
:10D7B400A514A514A514A514A514A514A514A5149D
:10D7C400A514A514A514A514A514A514A514A5148D
:10D7D400A514A514A514A514A514A514A514A5147D
:10D7E400A514A514A514A514A514A514A514A5146D
:10D7F400A514A592AC4781037803780378237803B2
:10D80400786478F0A314A514A514A514A534A5145C
:10D81400A514A514A514A514A514A514A514A5143C
:10D82400A514A514A514A514A514A514A514A5142C
:10D83400A514A514A514A514A572ACE67803780361
:10D8440078037803780378A57830A414AD14A5146C
:10D85400A514A514A514A514A514A514A514A514FC
:10D86400A514A514A514A514A514A514A514A514EC
:10D87400A514A514A514A514A514A514A514A514DC
:10D88400A514A514A514A514A514A514A514A514CC
:10D89400A514A510A4A5780270037803780378036F
:10D8A400784779B2AC14AD14A5B3ACD0A38E9BF079
:10D8B400A3D3AC14AD14A514AD14A514A514A514C8
:10D8C400A514A514A514A514A514A514A514A5148C
:10D8D400A514A514A514A514A5F4AC2A8A037803E9
:10D8E4007803780378037864706E9B14AD14A514E0
:10D8F400A514A514A514A514A514A514A514A5145C
:10D90400A514A514A514A514A514A514A514A5144B
:10D91400A514A514A514A514A514A514A514A5143B
:10D92400A514A514A514A514A514A514A514A5142B
:10D93400A514A58F9B4478037803780378037803B0
:10D94400784A8AF3AC14AD31A4C9818478447885CB
:10D95400780A8A51A414A514A514A514A514A51411
:10D96400A514A514A514A514A514A514A514A514EB
:10D97400A514A514A514A514A513A50D9B2378031C
:10D98400780378037803782378CC92F4AC14A51444
:10D99400A514A514A514A514A514A514A514A514BB
:10D9A400A514A514A514A514A514A514A514A514AB
:10D9B400A514A514A514A514A514A514A514A5149B
:10D9C400A514A514A514A514A514A514A514A5148B
:10D9D400A514AD2D9323780378037803780380236B
:10D9E40078EC9213A5B2A4C9812378037803780351
:10D9F400782378EA89D3AC14AD14A514A514A5141E
:10DA0400A514A514A514A514A514A514A514A5144A
:10DA1400A514A514A514A514A514A5AFA36478038F
:10DA24007803780378037803704A92F4AC14A5134E
:10DA3400A514A514A514A514A514A514A514A5141A
:10DA4400A514A514A514A514A514A514A514A5140A
:10DA5400A514A514A514A514A514A514A514A514FA
:10DA6400A514A514A514A514A514A514A514A514EA
:10DA7400A514ADEC922378037803780378027844F4
:10DA8400704E9B14ADCF9B8478037803780378039E
:10DA9400780378857010A414A514A514A514A514EE
:10DAA400A514A514A514A514A514A514A514A514AA
:10DAB400A514A514A514A514A514A510A48578036C
:10DAC4007803780378027802780A8AF4AC14A514EF
:10DAD400A514A514A514A514A514A514A514A5147A
:10DAE400A514A514A514A514A514A514A514A5146A
:10DAF400A514A514A514A514A514A514A514A5145A
:10DB0400A514A514A514A514A514A514A514A51449
:10DB1400A514ADCC92237803780378037803784472
:10DB2400788F9B13AD4E9B44780378037803780376
:10DB34007803784470CF9B14A514A514A514A514D8
:10DB4400A514A514A514A514A514A514A514A51409
:10DB5400A514A514A514AD14A514A531A4A5780382
:10DB6400780378037803780378E989F3A414A51477
:10DB7400A514A514A514A514A514A514A514A514D9
:10DB8400A514A514A514A514A514A514A514A514C9
:10DB9400A514A514A514A514A514A514A514A514B9
:10DBA400A514A514A514A514A514A514A514A514A9
:10DBB400A5F4ACCC922378037803780378037844F3
:10DBC400784E9B13ADAF9B6478037803800378038E
:10DBD400780378A47010A414A514A514A514A5148E
:10DBE400A514A514A514A514A514A514A514A51469
:10DBF400A514A514A514A514A514AD10A485780323
:10DC04007803780378037803700A8AF3AC14A514B4
:10DC1400A514A514A514A514A514A514A514A51438
:10DC2400A514A514A514A514A514A514A514A51428
:10DC3400A514A514A514A514A514A514A514A51418
:10DC4400A514A514A514A514A514A514A514A51408
:10DC5400A514A52D934378037803780378037823D8
:10DC640078EC9213AD92ACA8812370037803780307
:10DC7400782378E989D3AC14A514A514A514A514A4
:10DC8400A514A514A514A514A514A514A514A514C8
:10DC9400A514A514A514A514AD14ADAFA364700305
:10DCA4007803780378037803704A8A14AD14A514B2
:10DCB400A514A514A514A514A514A514A514A51498
:10DCC400A514A514A514A514A514A514A514A51488
:10DCD400A514A514A514A514A514A514A514A51478
:10DCE400A514A514A514A514A514A514A514A51468
:10DCF400A514A58F9B6470037803780378037803D5
:10DD0400784A8AF3AC14A531A4C981847044788517
:10DD140078E98951ACF4AC14A514A514A514A51480
:10DD2400A514A514A514A514A514A514A514A51427
:10DD3400A514A514A514A514A513AD0D9B4478032F
:10DD4400780378037803782378CC9214AD14A5145F
:10DD5400A514A514A514A514A514A514A514A514F7
:10DD6400A514A514A514A514A514A514A514A514E7
:10DD7400A514A514A514A514A514A514A514A514D7
:10DD8400A514A514A514A514A514A514A514A514C7
:10DD9400A514A511A4A47803780378037803780361
:10DDA400784781B2A414A514A5D2A4CFA36E9BF086
:10DDB4009BB3A414AD14AD14A514A514A514A514F3
:10DDC400A514A514A514A514A514A514A514A51487
:10DDD400A514A514AD14A514A5F3AC2A8A037802DE
:10DDE4007803780378037843786E9B14AD14A514F4
:10DDF400A514A514A514A514A514A514A514A51457
:10DE0400A514A514A514A514A514A514A514A51446
:10DE1400A514A514A514A514A514A514A514A51436
:10DE2400A514A514A514A514A514A514A514A51426
:10DE3400A514A592AC47810378037803780378038B
:10DE4400788478F0A314AD14AD14A513A514A51407
:10DE5400A514A514A514A514A514A514A514A514F6
:10DE6400A514A514A514A514A514A514A514A514E6
:10DE7400A514A514A514A513A572AC0679037803FB
:10DE840078038003780378A57811A414A514A51346
:10DE9400A514A514A514A514A514A514A514A514B6
:10DEA400A514A514A514A514A514A514A514A514A6
:10DEB400A514A514A514A514A514A514A514A51496
:10DEC400A514A514A514A514A514A514A514A51486
:10DED400A514A5F3AC2A8A0378037803780378039E
:10DEE4007803786A92F3AC14A534A514A514A51488
:10DEF400A514A514A514A514A514AD14A514A5144E
:10DF0400A514A514A514A514A514AD14AD14A5F455
:10DF1400AC14A514A514A514AD4E93437003780353
:10DF2400700378037802786781B2AC14A513A51442
:10DF3400A514A514A514A514A514A514A514A51415
:10DF4400A514A514A514A514A514A514A514A51405
:10DF5400A514A514A514A514A514A514A514A514F5
:10DF6400A514A514A514A514A514A514A514A514E5
:10DF7400A514A513AD4E9B44780378037803780366
:10DF8400780378E57810A414AD15A514A514A51488
:10DF9400A514A514A514A514A514A514A514A514B5
:10DFA400A514A514A514A514ADF4AC14A514A514B6
:10DFB400A514A514A514A592A46781027803780377
:10DFC400780378037823788B9214A514A514A514E8
:10DFD400A514A514A514A514A514A514A514A51475
:10DFE400A514A514A514A514A514A514A514A51465
:10DFF400A514A514A514A514A514A514A514A51455
:10E00400A514A514A514A514A514A514A514A51444
:10E01400A514A514A592A4067903780378037803BC
:10E0240078037823782A8AD3AC14AD14AD14A514DC
:10E03400A514A514A514A514A514A514A514A51414
:10E04400A514A514A514A514A514A514A534A514E4
:10E05400A514AD14A5F3ACED9244780378037803CA
:10E0640078037803788478F09B14A514A514A51478
:10E07400A514A514A514A514A514A514A514A514D4
:10E08400A514A514A514A514A514A514A514A514C4
:10E09400A514A514A514A514A514A514A514A514B4
:10E0A400A514A514A514A514A514A514A514A514A4
:10E0B400A514A514A5F4AC8C9223780378037803F3
:10E0C400780378037864782D9BF4AC14A514A51414
:10E0D400A514A514A514A514A514A514A514A51474
:10E0E400A514A514A514A514A514A514A514A51464
:10E0F400AD14A534A5CFA3C57803780378037803BA
:10E104007803780378C981D3AC14A514A514A51495
:10E11400A514A514A514A514A514A514A514A51433
:10E12400A514A514A514A514A514A514A514A51423
:10E13400A514A514A514A514A514A514A514A51413
:10E14400A514A514A514A514A514A514A514A51403
:10E15400A514A514A514A531A4E6780378037803BF
:10E1640078037803780378C5788F9B14AD14A514CD
:10E17400A514A514A514A514A514A514A514A514D3
:10E18400A514A514A514A514A514A514A514AD14BB
:10E19400A514AD30A446810378037803780378038B
:10E1A4007803788478AF9B14A514A514A514A5143A
:10E1B400A514A514A514A514A514A514A514A51493
:10E1C400A514A514A514A514A514A514A514A51483
:10E1D400A514A514A514A514A514A514A514A51473
:10E1E400A514A514A514A514A514A514A514A51463
:10E1F400A514A514A514A5F3ACAB9243700378033E
:10E20400780380037802780378E6788F9BF4AC1463
:10E21400A514A514A514A514A514A514A514A51432
:10E22400A514A514A534AD14A514A514A514A513FB
:10E23400A5F0A36779037803780378037803780358
:10E24400780378098AD3AC14A514A514A514A514CD
:10E25400A514A514A514A514A514A514A514A514F2
:10E26400A514A514A514A514A514A514A514A514E2
:10E27400A514A514A514A514A514A514A514A514D2
:10E28400A514A514A514A514A514A514A514A514C2
:10E29400A514A514A514A534AD92A488810378030C
:10E2A4007803780378037803780378A578CC9AB256
:10E2B400AC14A514A514A514A514A514A514A5148B
:10E2C400A514A514A514A514A514A514A5D3AC4E82
:10E2D4009B06810378037803780378037803780333
:10E2E40078E68011A414A514A514A514A514A514E6
:10E2F400A514A514A514A514A514A514A514A51452
:10E30400A514A514A514A514A514A514A514A51441
:10E31400A514A514A514A514A514A514A514A51431
:10E32400A514A514A514A514A514A514A514A51421
:10E33400A514A514A514A514A514A5F0A3C57803C4
:10E34400780378037803780378037803784478A80B
:10E35400818E9BB3A414AD14A514AD14A514A514F7
:10E36400A514A514A514A513ADD3ACD0A30A8A642F
:10E374007803780378037803780378027803808439
:10E38400704E9BF4AC14A5F4AC14A514A514A514F8
:10E39400A514A514A514A514A514A514A514A514B1
:10E3A400A514A514A514A514A514A514A514A514A1
:10E3B400A514A514A514A514A514A514A514A51491
:10E3C400A514A514A514A514A514A514A514A51481
:10E3D400A514A514A514A534A514ADF3AC2D9B84E4
:10E3E4007803780378037803780378037802780352
:10E3F4007885788881ED9AF0A392A4D3ACF3A4F342
:10E40400ACD3ACB3AC31A44D9BE989C57803780394
:10E414007803780378038003780378037844788B4F
:10E424008AF3A414A514AD14A514A514A514A51455
:10E43400A514A514A514A514A514A514A514A51410
:10E44400A514A514A514A514A514A514A514A51400
:10E45400A514A514A514A514A514A514A514A514F0
:10E46400A514A514A514A514A514A514A514A514E0
:10E47400A514A514A514A514A514AD14A5F3A4CC32
:10E48400926478037803780380037803780378032D
:10E4940078037803782378A57026798881E989C878
:10E4A40089A8812681A578437803700378027802CD
:10E4B400780378037803780378037844704A8AB23F
:10E4C400AC34AD14A514A514A514A514A514A51451
:10E4D400AD14A514A514A514A514A514A514A51468
:10E4E400A514A514A514A514A514A514A514A51460
:10E4F400A514A514A514A514A514A514A514A51450
:10E50400A514A514A514A514A514A514A514A5143F
:10E51400A514A514A514AD14A514A514A514A5D368
:10E52400AC0D93A57003780378037803780378031C
:10E5340078037803780378037803780378037803FF
:10E5440078037803780378037803780378037803EF
:10E5540078037803780378037844786B8AB2AC1430
:10E56400A514A514A514A514AD14AD14A514A514CF
:10E57400A514A514A514A514A514A514A514A514CF
:10E58400A514A514A514A514A514A514A514A514BF
:10E59400A514A514A514A514A514A514A514A514AF
:10E5A400A514A514A514A514A514A514A514A5149F
:10E5B400A514A514A513A514AD14A514A514A51488
:10E5C400A5F3AC6E9B06792378037803780378036C
:10E5D400780378037803780378037803780378035F
:10E5E400780378037803780378037803780378034F
:10E5F40078037803780378A578CC92D3AC14A51467
:10E60400A514A514A514A514AD14A514A514A51436
:10E61400A514A514A514A514A514A514A514A5142E
:10E62400A514A514A514A514A514A514A514A5141E
:10E63400A514A514A514A514A514A514A514A5140E
:10E64400A514A514A514A514A514A514A514A514FE
:10E65400A514A514A514A514A514A514A514A514EE
:10E66400A514ADF3AC10A4E98964780378027803A7
:10E6740078037803780378037803780378037803BE
:10E6840078037803780378037803780378037803AE
:10E6940078037823786781AFA3F3A414A514A51491
:10E6A400A514A514A514A514A514A514A514A5149E
:10E6B400A514A514A514A514A514A514A514A5148E
:10E6C400A514A514A514A514A514A514A514A5147E
:10E6D400A514A514A514A514A514A514A514A5146E
:10E6E400A514A514A514A514A514A514A514A5145E
:10E6F400A514A514A514A514A514A514A514A5144E
:10E70400A514A514A534A5D3AC4E9B6781647803E6
:10E71400780378037803780378037803780378031D
:10E7240078037803780378037803780378037844CC
:10E73400782679EC9A92ACF4AC14A514A5F4AC1434
:10E74400A514A514A514A514A514A514A514A514FD
:10E75400A514A514A514A514A514A514A514A514ED
:10E76400A514A514A514A514A514A514A514A514DD
:10E77400A514A514A514A514A514A514A514A514CD
:10E78400A514A514A514A514A514A514A514A514BD
:10E79400A514A514A514A514A514A514A514A514AD
:10E7A400A514A514A514A514A513AD92AC4E9BC92C
:10E7B40081A57824780378027803780378037803B2
:10E7C4007803780278037803704470A57088810D0B
:10E7D4009B72AC14AD14A514AD14A514AD14A514FA
:10E7E400A514A514A514A514A514A514A514A5145D
:10E7F400A514A514A514A514A514A514A514A5144D
:10E80400A514A514A514A514A514A514A514A5143C
:10E81400A514A514A514A514A514A514A514A5142C
:10E82400A514A514A514A514A514A514A514A5141C
:10E83400A514A514A514A514A514A514A514A5140C
:10E84400A514A514A514AD14A514A514A514ADD32D
:10E85400AC31A44D932A8A6881E678C578A478857A
:10E8640078A578E57847810A8A0D9B10A4B3ACF3A8
:10E87400AC14A514A534A514A514A514A514A514A5
:10E88400A514A514A514A514A514A514A514A514BC
:10E89400A514A514A514A514A514A514A514A514AC
:10E8A400A514A514A514A514A514A514A514A5149C
:10E8B400A514A514A514A514A514A514A514A5148C
:10E8C400A514A514A514A514A514A514A514A5147C
:10E8D400A514A514A514A514A514A514A514A5146C
:10E8E400A514A513A514A514A514A514A514A5145D
:10E8F400A514AD14AD13ADD3A492A452A431A43184
:10E90400A451A492A4D3ACF3AC14AD14A514A514CF
:10E91400A514A514A514A515A514A514A514A5142A
:10E92400A514A514A514A514A514A514A514A5141B
:10E93400A514A514A514A514A514A514A514A5140B
:10E94400A514A514A514A514A514A514A514A514FB
:10E95400A514A514A514A514A514A514A514A514EB
:10E96400A514A514A514A514A514A514A514A514DB
:10E97400A514A514A514A514A514A514A514A514CB
:10E98400A514A514AD14AD14AD14A514AD14A5149B
:10E99400A514A514A514A514A5F4AC14A514A514C4
:10E9A400A514AD14AD14A514A514A514A514A5148B
:10E9B400A514A514A514A514A514A5F4AC14AD149C
:10E9C400AD14A514A514A514A514A514A514A51473
:10E9D400A514A514A514A514A514A514A514A5146B
