:0400000033EF00F0EA
:060008005F82DBEF0CF04B
:100018005F80D8CF61F0E8CF62F0E0CF63F0FACF2D
:1000280064F0FBCF65F07DA41CEF00F01EEF00F03C
:1000380027EF00F07EA423EF00F025EF00F027EF74
:1000480000F00FEC17F065C0FBFF64C0FAFF63C057
:10005800E0FF62C0E8FF61C0D8FF5F90100066EF64
:1000680014F0010E0001676F000EBCEC17F0960E3D
:100078001DEC16F0EF0E0001676F000EBCEC17F0D8
:10008800030E0001676F010EBCEC17F0800E000133
:10009800676F010EBCEC17F0020E0001676F010ECE
:1000A800BCEC17F0CF0E0001676F000EBCEC17F028
:1000B800000E0001676F010EBCEC17F0C10E0001C5
:1000C800676F010EBCEC17F0300E0001676F010E70
:1000D800BCEC17F0ED0E0001676F000EBCEC17F0DA
:1000E800640E0001676F010EBCEC17F0030E0001EF
:1000F800676F010EBCEC17F0120E0001676F010E5E
:10010800BCEC17F0810E0001676F010EBCEC17F014
:10011800E80E0001676F000EBCEC17F0850E0001B9
:10012800676F010EBCEC17F0000E0001676F010E3F
:10013800BCEC17F0780E0001676F010EBCEC17F0ED
:10014800CB0E0001676F000EBCEC17F0390E0001F2
:10015800676F010EBCEC17F02C0E0001676F010EE3
:10016800BCEC17F0000E0001676F010EBCEC17F035
:10017800340E0001676F010EBCEC17F0020E00018F
:10018800676F010EBCEC17F0F70E0001676F000EE9
:10019800BCEC17F0200E0001676F010EBCEC17F0E5
:1001A800EA0E0001676F000EBCEC17F0000E0001AC
:1001B800676F010EBCEC17F0000E0001676F010EAF
:1001C800BCEC17F0C00E0001676F000EBCEC17F016
:1001D800230E0001676F010EBCEC17F0C10E000181
:1001E800676F000EBCEC17F0100E0001676F010E70
:1001F800BCEC17F0C50E0001676F000EBCEC17F0E1
:100208003E0E0001676F010EBCEC17F0280E0001CE
:10021800676F010EBCEC17F0C70E0001676F000E88
:10022800BCEC17F0860E0001676F010EBCEC17F0EE
:10023800360E0001676F000EBCEC17F0480E000187
:10024800676F010EBCEC17F03A0E0001676F000EE5
:10025800BCEC17F0550E0001676F010EBCEC17F0EF
:10026800B10E0001676F000EBCEC17F0000E000124
:10027800676F010EBCEC17F0180E0001676F010ED6
:10028800BCEC17F0B60E0001676F000EBCEC17F05F
:10029800080E0001676F010EBCEC17F0820E00011A
:1002A800676F010EBCEC17F0270E0001676F010E97
:1002B800BCEC17F0F20E0001676F000EBCEC17F0F3
:1002C800000E0001676F010EBCEC17F0260E00014E
:1002D800676F000EBCEC17F0010E0001676F010E8E
:1002E800BCEC17F0E00E0001676F000EBCEC17F0D5
:1002F8000F0E0001676F010EBCEC17F0310E000104
:10030800676F010EBCEC17F02B0E0001676F010E32
:10031800BCEC17F00C0E0001676F010EBCEC17F077
:100328000E0E0001676F010EBCEC17F0080E0001FD
:10033800676F010EBCEC17F04E0E0001676F010EDF
:10034800BCEC17F0F10E0001676F010EBCEC17F062
:10035800370E0001676F010EBCEC17F0070E0001A5
:10036800676F010EBCEC17F0100E0001676F010EED
:10037800BCEC17F0030E0001676F010EBCEC17F020
:100388000E0E0001676F010EBCEC17F0090E00019C
:10039800676F010EBCEC17F0000E0001676F010ECD
:1003A800BCEC17F0E10E0001676F000EBCEC17F013
:1003B800000E0001676F010EBCEC17F00E0E000175
:1003C800676F010EBCEC17F0140E0001676F010E89
:1003D800BCEC17F0030E0001676F010EBCEC17F0C0
:1003E800110E0001676F010EBCEC17F0070E00013B
:1003F800676F010EBCEC17F0310E0001676F010E3C
:10040800BCEC17F0C10E0001676F010EBCEC17F0D1
:10041800480E0001676F010EBCEC17F0080E0001D2
:10042800676F010EBCEC17F00F0E0001676F010E2D
:10043800BCEC17F00C0E0001676F010EBCEC17F056
:10044800310E0001676F010EBCEC17F0360E00018B
:10045800676F010EBCEC17F00F0E0001676F010EFD
:10046800BCEC17F0110E0001676F000EBCEC17F022
:10047800780E1DEC16F0290E0001676F000EBCEC1B
:1004880017F0780E1DEC16F0000E0001706F000ECC
:100498006F6FCFEC12F012001850800B256E1850B9
:1004A80018242C6E17AE5BEF02F05DEF02F05EEFE2
:1004B80002F02C802C50D8B464EF02F066EF02F002
:1004C8007BEF02F02C28D8A46CEF02F06EEF02F05C
:1004D80076EF02F0000E156E000E166E000E176E07
:1004E800000E186E178E000E186E83EF02F0000EC5
:1004F800156E000E166E000E176E000E186E1C504C
:10050800800B251A1C501C242D6E1BAE8EEF02F09A
:1005180090EF02F091EF02F02D802D50D8B497EFB4
:1005280002F099EF02F0AEEF02F02D28D8A49FEF69
:1005380002F0A1EF02F0A9EF02F0000E196E000E12
:100548001A6E000E1B6E000E1C6E1B8E000E1C6EAB
:10055800B6EF02F0000E196E000E1A6E000E1B6E3A
:10056800000E1C6E19501A101B101C10D8A4BFEFD7
:1005780002F0C1EF02F0D9EF02F0000E156E000E86
:10058800166E000E176E000E186E800E17127F0E74
:1005980018122550181215C015F016C016F017C0FD
:1005A80017F018C018F01CEF04F02C50D8A4DFEF97
:1005B80002F0E1EF02F0EBEF02F0000E156E000E14
:1005C800166E000E176E000E186E1CEF04F02D50FC
:1005D8002CC01DF01E6A1D5E000E1E5A7F0E1D24C3
:1005E800266E000E1E20276E15C021F016C022F0C0
:1005F80017C023F018C024F0000E156E000E166EFA
:10060800000E176E000E186E000E286E000E296E72
:10061800000E2A6E000E2B6E000E2D6E4CEF03F0AE
:100628002D50D8B41AEF03F01CEF03F033EF03F0AA
:10063800D8902136223623362436D89015361636E9
:10064800173618362BAE2BEF03F02DEF03F02EEFF5
:1006580003F01580D890283629362A362B361950BB
:10066800215C1A5022581B5023581C502458D8A0DB
:1006780040EF03F042EF03F04BEF03F02B8C1950DF
:10068800215E1A50225A1B50235A1C50245A2D2AD4
:10069800190E2D6452EF03F054EF03F014EF03F03A
:1006A8002150221023102410D8B45DEF03F05FEF1F
:1006B80003F077EF03F0288077EF03F0D890153632
:1006C8001636173618362BAE6CEF03F06EEF03F0C4
:1006D8006FEF03F01580D890283629362A362B3646
:1006E8002606D8A0270617AE7CEF03F07EEF03F0AE
:1006F80062EF03F0000E2D6E2BAE85EF03F087EF4F
:1007080003F0ABEF03F0FF0E28141D6EFF0E291443
:100718001E6EFF0E2A141F6E7F0E2B14206E1D50A6
:100728001E101F102010D8B49CEF03F09EEF03F0AA
:10073800A2EF03F0010E2D6EABEF03F015A0A7EFAB
:1007480003F0A9EF03F0ABEF03F09EEF03F02D5099
:10075800D8B4B1EF03F0B3EF03F0D7EF03F0010E15
:100768001526000E16221722182218A0BEEF03F035
:10077800C0EF03F0D7EF03F015C01DF016C01EF050
:1007880017C01FF018C020F0203420321F321E324C
:100798001D321DC015F01EC016F01FC017F020C076
:1007A80018F0264A272A27BEE2EF03F0275008E16F
:1007B8002628D8A0E2EF03F0E4EF03F0EFEF03F010
:1007C800000E276E2668000E156E000E166E000EBF
:1007D800176E000E186E27BEFCEF03F0275006E1D7
:1007E8002604D8B0FAEF03F0FCEF03F00AEF04F0A8
:1007F800000E276E000E266E000E156E000E166E89
:10080800000E176E000E186E000E256E26C02CF016
:100818002CA011EF04F013EF04F016EF04F0178E7C
:1008280017EF04F0179ED8902C30186ECDEF02F019
:10083800120092C0D9FF93C0DAFFDECFF6FFDDCFFA
:10084800F7FFF86A0800F550250AD8A42EEF04F03F
:1008580030EF04F0BBEF05F092C0D9FF93C0DAFF88
:10086800DE2A000EDD22000E0001C96F000EC86FDF
:10087800C8C0D8F0CA69CB6992C0D9FF93C0DAFF63
:10088800DECF9DF0DDCF9EF09DC0F6FF9EC0F7FF46
:10089800F86A0800F5CF9CF05EEF04F09D4B9E2BA4
:1008A8007BEF04F0690E9C6F7BEF04F0000E9C6FE9
:1008B8007BEF04F09C51966F976B9751000AD8B460
:1008C80068EF04F05AEF04F09651640AD8B456EF72
:1008D80004F00C0AD8B452EF04F0010AD8B456EF69
:1008E80004F01C0AD8B456EF04F05AEF04F09DC087
:1008F800F6FF9EC0F7FFF86A0800F550640AD8B4FE
:1009080088EF04F08AEF04F0C7EF04F09DC0F6FF0B
:100918009EC0F7FFF86A0800F550690AD8A497EF57
:1009280004F099EF04F0FAEF04F0C7EF04F094C074
:10093800D9FF95C0DAFFDFCF96F0020EDE26DFCFB3
:1009480097F0000EDD2296C0D9FF97C0DAFFDECF00
:1009580098F0DDCF99F0DCEF04F094C0D9FF95C092
:10096800DAFFDFCF96F0020EDE26DFCF97F0000E1B
:10097800DD2296C0D9FF97C0DAFFDECF98F0DDCF31
:1009880099F0DCEF04F09C51966F976B9751000A31
:10099800D8B4D1EF04F0DCEF04F09651680AD8B46B
:1009A800B1EF04F0010AD8B49BEF04F0DCEF04F0D7
:1009B800010E9D25966F000E9E21976F92C0D9FF5C
:1009C80093C0DAFF96C0DEFF97C0DDFF90C083F0CA
:1009D80091C084F098C085F099C086F0CFEC09F0FA
:1009E80083C090F084C091F0D8EF05F09DC0F6FF69
:1009F8009EC0F7FFF86A0800F550750AD8A407EFFB
:100A080005F009EF05F083EF05F037EF05F094C026
:100A1800D9FF95C0DAFFDFCF96F0020EDE26DFCFD2
:100A280097F0000EDD2296C0D9FF97C0DAFFDECF1F
:100A380098F0DDCF99F04CEF05F094C0D9FF95C040
:100A4800DAFFDFCF96F0020EDE26DFCF97F0000E3A
:100A5800DD2296C0D9FF97C0DAFFDECF98F0DDCF50
:100A680099F04CEF05F09C51966F976B9751000ADF
:100A7800D8B441EF05F04CEF05F09651680AD8B4A8
:100A880021EF05F0010AD8B40BEF05F04CEF05F0A3
:100A9800010E9D25966F000E9E21976F92C0D9FF7B
:100AA80093C0DAFF96C0DEFF97C0DDFF6CEF05F05C
:100AB80090C083F091C084F098C085F099C086F00A
:100AC800B9EC0FF083C090F084C091F0D8EF05F036
:100AD8009DC0F6FF9EC0F7FFF86A0800F550966FB4
:100AE800976B9751000AD8B47CEF05F083EF05F0B7
:100AF8009651750AD8B45CEF05F083EF05F092C003
:100B0800D9FF93C0DAFFDECFF6FFDDCFF7FFF86A33
:100B18000800F550250AD8A494EF05F096EF05F0E3
:100B2800AEEF05F092C0D9FF93C0DAFFDE2A000EBF
:100B3800DD22000E696F250E686F90C06AF091C0C3
:100B48006BF0ACEC10F0000E0001916F010E906F8D
:100B5800D8EF05F092C0D9FF93C0DAFFDE2A000E65
:100B6800DD22000E916F000E906FD8EF05F092C055
:100B7800D9FF93C0DAFFDECFF6FFDDCFF7FFF86AC3
:100B88000800F5500001686F696B90C06AF091C069
:100B98006BF0ACEC10F092C0D9FF93C0DAFFDE2AFC
:100BA800000EDD22A7EF05F01200000E0001766F9F
:100BB800090E756F000E786FD20E776F010E7A6F7F
:100BC800360E796F000E7C6FD20E7B6FFF0E7E6F34
:100BD8007D6925EC0CF0000E00018A6F280E896FE4
:100BE800000E8C6FD70E8B6F2C0E8D6FFF0E8E6FD5
:100BF800000E906F000E8F6FFF0E926F916975EC6B
:100C08000DF0000E0001A76F010EA86F000EAA6F6D
:100C1800320EA96F870EAB6FFF0EAC6F0EEC0EF0A5
:100C2800000E00018A6F3C0E896F000E8C6FBE0E9D
:100C38008B6F000E8D6F010E8E6FFF0E906F8F6998
:100C4800000E926F000E916F75EC0DF0000E000112
:100C5800A76F010EA86F000EAA6F320EA96FDE0EE5
:100C6800AB6FFF0EAC6F0EEC0EF0000E00018A6F3A
:100C7800780E896F000E8C6FA50E8B6F000E8D6F2E
:100C8800010E8E6FFF0E906F8F69000E926F000E2F
:100C9800916F75EC0DF0000E0001A76F010EA86FA3
:100CA800000EAA6F320EA96F5D0EAB6FFF0EAC6F10
:100CB8000EEC0EF0000E00018A6F140E896F000E04
:100CC8008C6F8C0E8B6F000E8D6F010E8E6FF80E71
:100CD800906F000E8F6F000E926F000E916F75EC83
:100CE8000DF0000E0001A76F010EA86F000EAA6F8D
:100CF800320EA96FAC0EAB6FFF0EAC6F0EEC0EF0A0
:100D0800000E00018A6F280E896F000E8C6F780E16
:100D18008B6F000E8D6F010E8E6FF80E906F000EA8
:100D28008F6F000E926F000E916F75EC0DF0000E34
:100D38000001A76F010EA86F000EAA6F320EA96FEF
:100D4800450EAB6FFF0EAC6F0EEC0EF0000E0001FF
:100D58008A6F140E896F000E8C6F5F0E8B6F000EFA
:100D68008D6F010E8E6FFF0E906FE00E8F6F000E6D
:100D7800926F000E916F75EC0DF0000E0001A76FD9
:100D8800010EA86F000EAA6F320EA96FCE0EAB6FC0
:100D9800FF0EAC6F0EEC0EF0000E00018A6F5A0EBB
:100DA800896F000E8C6F4B0E8B6F000E8D6F010ECE
:100DB8008E6FFF0E906FE00E8F6F000E926F000E19
:100DC800916F75EC0DF01200010E0001706F0E0EA0
:100DD8006F6F000E726F0A0E716F010E746F2C0E1A
:100DE800736F000E766FBE0E756FFF0E786F7769A2
:100DF80038EC10F0D0C066F0D1C067F0000E0001EA
:100E0800696FB40E686F38EC17F066C06CF067C095
:100E18006DF0000E00016F6F640E6E6F90EC13F0B2
:100E28006CC0B2F06DC0B3F00001B35109E1B40E6B
:100E3800B25DD8A022EF07F024EF07F02AEF07F001
:100E4800000EB36FB40EB26F37EF07F0B251B311A3
:100E5800D8A431EF07F033EF07F037EF07F0000EB3
:100E6800B36F0B0EB26F010E706F0F0E6F6F000E27
:100E7800726F0B0E716F010E746F2B0E736FB2C011
:100E880075F0B3C076F0000E786F1F0E776F38ECF0
:100E980010F0D4C066F0D5C067F0000E0001696F8D
:100EA800B40E686F38EC17F066C06CF067C06DF070
:100EB800000E00016F6F640E6E6F90EC13F06CC043
:100EC800B4F06DC0B5F00001B55109E1B40EB45DE0
:100ED800D8A071EF07F073EF07F079EF07F0000E75
:100EE800B56FB40EB46F86EF07F0B451B511D8A43E
:100EF80080EF07F082EF07F086EF07F0000EB56F7E
:100F08000A0EB46F010E706F0F0E6F6FB4C071F0E0
:100F1800B5C072F0010E746F2B0E736F020EB425FC
:100F2800756F000EB521766FF80E786F000E776F2B
:100F380038EC10F0000E0001A76F010EA86F000E2C
:100F4800AA6F320EA96F730EAB6FFF0EAC6FD0C0D5
:100F5800ADF0D1C0AEF00EEC0EF0000E00018A6FBD
:100F6800140E896F000E8C6F140E8B6F000E8D6F30
:100F7800010E8E6FFF0E906F8F69000E926F000E3C
:100F8800916F75EC0DF0000E0001A76F010EA86FB0
:100F9800000EAA6F320EA96FF80EAB6FFE0EAC6F83
:100FA800D4C0ADF0D5C0AEF00EEC0EF0000E0001CE
:100FB8008A6F140E896F000E8C6F280E8B6F000ECF
:100FC8008D6F010E8E6FFF0E906F8F69000E926FFE
:100FD800000E916F75EC0DF01200CEEF08F00C0EBC
:100FE80095EC14F0BD0E0001A76FFF0EA86F24EC5E
:100FF80017F0DB0E0001A76FFE0EA86F24EC17F0A8
:101008002D0E0001A76FFE0EA86F24EC17F0330E0B
:101018000001A76FFD0EA86F24EC17F0060E000163
:10102800A76FFE0EA86F24EC17F0630E0001A76FE0
:10103800FD0EA86F24EC17F0BC0E0001A76FFE0E82
:10104800A86F24EC17F0F50E0001A76FFF0EA86F2C
:1010580024EC17F0300E0001ED6FF4EF08F00C0EE1
:1010680095EC14F0120E0001A76FFF0EA86F24EC88
:1010780017F0B50E0001A76FFD0EA86F24EC17F04E
:10108800F50E0001A76FFF0EA86F24EC17F0000EF5
:101098000001DA6F2EEF08F00C0E95EC14F0540EE8
:1010A8000001A76FFE0EA86F24EC17F0010E0001D7
:1010B800DB6F8C0EA76FFD0EA86F24EC17F0F50EF2
:1010C8000001A76FFF0EA86F24EC17F02EEF08F0B1
:1010D8000C0E95EC14F0790E0001A76FFE0EA86FA8
:1010E800D2C0A9F0D3C0AAF024EC17F0EA0E000190
:1010F800A76FFF0EA86F4CC0A9F04DC0AAF024EC52
:1011080017F08C0E0001A76FFD0EA86F24EC17F0E6
:10111800F50E0001A76FFF0EA86F24EC17F02EEF55
:1011280008F00C0E95EC14F08C0E0001A76FFD0E64
:10113800A86F24EC17F0F50E0001A76FFF0EA86F3B
:1011480024EC17F02EEF08F00C0E95EC14F08C0E32
:101158000001A76FFD0EA86F24EC17F0F50E000133
:10116800A76FFF0EA86F24EC17F02EEF08F00C0EF7
:1011780095EC14F09A0E0001A76FFF0EA86F24ECEF
:1011880017F0DE0E0001A76FFD0EA86F24EC17F014
:101198002EEF08F00001ED51AD6FAE6BAE51000AB5
:1011A800D8B4D9EF08F0BBEF08F0AD51300AD8B485
:1011B800F3EF07F0010AD8B433EF08F0030AD8B404
:1011C80050EF08F0010AD8B46CEF08F0070AD8B459
:1011D80095EF08F0010AD8B4A8EF08F0BBEF08F0C3
:1011E80012000F6E0F50D8B4FCEF08F0FEEF08F0B5
:1011F80020EF09F00ABE05EF09F003EF09F020EF30
:1012080009F007C00BF008C00CF009C00DF00AC0C7
:101218000EF00B1E0C1E0D1E0E1E0B2A000E0C22AD
:101228000D220E220BC011F00CC012F00DC013F0ED
:101238000EC014F028EF09F007C011F008C012F032
:1012480009C013F00AC014F00750081009100A105A
:10125800D8A431EF09F033EF09F03DEF09F0000EA3
:10126800076E000E086E000E096E000E0A6ECEEFB5
:1012780009F0960E106E47EF09F0102AD890143234
:10128800133212321132000E11140B6E000E1214AA
:101298000C6E000E13140D6EFE0E14140E6E0B5011
:1012A8000C100D100E10D8A45CEF09F05EEF09F0D9
:1012B80041EF09F06CEF09F0102A010E1126000E1B
:1012C800122213221422D8901432133212321132FD
:1012D800000E11140B6E000E12140C6E000E131477
:1012E8000D6EFF0E14140E6E0B500C100D100E1018
:1012F800D8A481EF09F083EF09F060EF09F08BEFD4
:1013080009F01006D890113612361336143613BE6B
:1013180090EF09F092EF09F09AEF09F0020E1060D1
:1013280098EF09F09AEF09F085EF09F010B09FEFF8
:1013380009F0A1EF09F0A2EF09F0139ED89010323E
:1013480010C00BF00C6A0D6A0E6A0BC00EF00D6A25
:101358000C6A0B6A0B5011120C5012120D5013121A
:101368000E5014120F50D8B4BCEF09F0BEEF09F0BC
:10137800C6EF09F00ABEC5EF09F0C3EF09F0C6EFE2
:1013880009F0148E11C007F012C008F013C009F05C
:1013980014C00AF01200000186BFD5EF09F0D8EF9B
:1013A80009F0010ED9EF09F0000E8D6F8D51D8B4F8
:1013B800E0EF09F0E2EF09F0E6EF09F0856D861F2E
:1013C800D8B0862BCBBFEDEF09F0EBEF09F0F3EFC8
:1013D80009F0000E8A6F010E896FF7EF09F0CAC095
:1013E80089F0CBC08AF0C8C08BF0C9C08CF08D5191
:1013F800D8B401EF0AF003EF0AF01AEF0AF08B07EE
:10140800D8A08C078D51D8A40CEF0AF00EEF0AF083
:1014180014EF0AF0000E886F2B0E876F18EF0AF092
:10142800000E886F2D0E876F87C08DF0000E8F6FAE
:101438001F0E8E6F000E0101516F54EF0AF08E07D8
:10144800D8A08F07320E8E25D96E010E8F21DA6E45
:1014580085C066F086C067F0000E696F0A0E686F77
:10146800D3EC11F066C06CF067C06DF080EC15F03D
:1014780000016C51300FDF6E8907D8A08A078B07EF
:10148800D8A08C0785C066F086C067F0000E696F2B
:101498000A0E686F12EC11F066C085F067C086F01E
:1014A80000018FBF60EF0AF08F5108E18E05D8A0C8
:1014B80060EF0AF062EF0AF078EF0AF085518611C2
:1014C800D8A469EF0AF06BEF0AF023EF0AF08ABF9D
:1014D80078EF0AF08A5106E18905D8B076EF0AF06C
:1014E80078EF0AF023EF0AF08D51D8B47EEF0AF0B6
:1014F80080EF0AF08BEF0AF08E07D8A08F07320E24
:101508008E25D96E010E8F21DA6E8DC0DFFF83C064
:1015180078F084C079F0320E8E257A6F010E8F2113
:101528007B6F8BC07CF08CC07DF083EC12F078C0B0
:1015380083F079C084F01200000E0001866F48EF36
:101548000BF0D8907335F66E7435F76E570EF62695
:10155800EF0EF722F86A000EF8220900F5CF79F0AD
:101568000900F5CF7AF08651795F000E7A5B6F51EA
:1015780079256B6F70517A216C6F71C06DF072C0F4
:101588006EF0A1EC15F0000E0001876F000E886F59
:101598008651796F7A6BD89079377A37D8907335C6
:1015A800F66E7435F76E570EF626EF0EF722F86AC8
:1015B800000EF8220900F5CF7BF00900F5CF7CF08A
:1015C800D8907B377C3779517B5D7D6F7A517C5918
:1015D8007E6F87517D5F000E7E5B73517D2774514E
:1015E8007E23D8907D377E37570E7D25F66EEF0E19
:1015F8007E21F76EF86A000EF8220900F5CF7FF019
:101608000900F5CF80F088C081F0800E826F000E4F
:10161800836F812B13EF0BF0833583338233812F54
:1016280010EF0BF000017F518215846F80518315F4
:10163800856F84518511D8B424EF0BF026EF0BF099
:101648002EEF0BF075C069F076C06AF0D9EC17F090
:1016580034EF0BF077C069F078C06AF0D9EC17F076
:101668000001882B070E88653CEF0BF03EEF0BF06E
:10167800CCEF0AF0872B010E876545EF0BF047EF9B
:101688000BF0CAEF0AF0862BD8907335F66E7435D6
:10169800F76E570EF626EF0EF722F86A000EF822BC
:1016A8008651796F7A6B0900F550795D0900F5501C
:1016B8007A59D8A062EF0BF064EF0BF0A5EF0AF0AF
:1016C800120083BE6AEF0BF06FEF0BF00001686B3E
:1016D800682B71EF0BF00001686B68516A6F6B6BD8
:1016E80083BC79EF0BF07DEF0BF0686B682B7FEF15
:1016F8000BF00001686B68516C6F6D6B83BA87EFF4
:101708000BF08BEF0BF0686B682B8DEF0BF0000183
:10171800686B68516E6F6F6B83B695EF0BF099EF3E
:101728000BF0686B682B9BEF0BF00001686B68513E
:10173800706F716B83B4A3EF0BF0A7EF0BF0686BBE
:10174800682BA9EF0BF00001686B6851726F736B1F
:1017580082BAB1EF0BF0B5EF0BF0686B682BB7EFFF
:101768000BF00001686B6851746F756B82B8BFEF3E
:101778000BF0C3EF0BF0686B682BC5EF0BF00001A3
:10178800686B6851766F776B82B6CDEF0BF0D1EF4F
:101798000BF0686B682BD3EF0BF00001686B685196
:1017A800786F796B82B4DBEF0BF0DFEF0BF0686BCF
:1017B800682BE1EF0BF00001686B68517A6F7B6B67
:1017C80082B2E9EF0BF0EDEF0BF0686B682BEFEFEF
:1017D8000BF00001686B68517C6F7D6B000E7F6FAA
:1017E800000E7E6FD8907E35D96E7F35DA6E6A0E20
:1017F800D926000EDA22DE50DE10D8A406EF0CF04F
:1018080008EF0CF010EF0CF0010E7E25666F000E4D
:101818007F21676F24EF0CF07E4B7F2B7FBF1EEF7D
:101828000CF07F5109E10A0E7E5DD8A01EEF0CF086
:1018380020EF0CF0F6EF0BF0000E676F000E666FEE
:10184800120000017551795D886F76517A59896F58
:101858007951755D7A517659D8A035EF0CF037EF8C
:101868000CF03BEF0CF0806981693FEF0CF0000E43
:10187800816F010E806F77517B5D8A6F78517C593B
:101888008B6F7B51775D7C517859D8A04EEF0CF067
:1018980050EF0CF054EF0CF08269836958EF0CF0AC
:1018A800000E836F010E826F7551795D76517A59FA
:1018B800D8B061EF0CF063EF0CF067EF0CF0886DB7
:1018C800891FD8B0892B7B51775D7C517859D8B066
:1018D80070EF0CF072EF0CF076EF0CF08A6D8B1F46
:1018E800D8B08B2B8A518825846F8B518921856FBD
:1018F80075C06FF076C070F077C071F078C072F084
:101908007DC073F07EC074F06EEC16F00001795162
:10191800751907E17A517619D8A495EF0CF097EF6D
:101928000CF0A5EF0CF07B51771907E17C51781981
:10193800D8A4A1EF0CF0A3EF0CF0A5EF0CF0DAEFB0
:101948000CF0D8908435866F8535876F8A51865D0F
:101958008751800A7F6F8B51800A7F59D8A0B7EFD3
:101968000CF0B9EF0CF0C1EF0CF08A5184278B51C1
:10197800852380517527815176238651885D895149
:10198800800A7F6F8751800A7F59D8A0CEEF0CF06C
:10199800D0EF0CF07CEF0CF0885184278951852317
:1019A80082517727835178237CEF0CF01200FACF0D
:1019B80038F0FBCF39F0D9CF3AF0DACF3BF0F3CF9C
:1019C8003CF0F4CF3DF09DACECEF0CF0EEEF0CF0FA
:1019D800F9EF0CF09EACF3EF0CF0F5EF0CF0F9EF2B
:1019E8000CF0CCEC16F067EF0DF0F2AAFEEF0CF05D
:1019F80000EF0DF00BEF0DF0F2A405EF0DF007EF7F
:101A08000DF00BEF0DF054EC16F067EF0DF0F2A8A7
:101A180010EF0DF012EF0DF01DEF0DF0F2A217EF21
:101A28000DF019EF0DF01DEF0DF078EC18F067EFE1
:101A38000DF09DA822EF0DF024EF0DF039EF0DF019
:101A48009EA829EF0DF02BEF0DF039EF0DF002D81D
:101A580037EF0DF00500FA6E5950FD6E5A50FE6EC4
:101A6800FF6AFA50120067EF0DF09DAA3EEF0DF0E5
:101A780040EF0DF055EF0DF09EAA45EF0DF047EF42
:101A88000DF055EF0DF002D853EF0DF00500FA6E8A
:101A98005750FD6E5850FE6EFF6AFA50120067EFFD
:101AA8000DF09DA05AEF0DF05CEF0DF067EF0DF013
:101AB8009EA061EF0DF063EF0DF067EF0DF000EC05
:101AC80016F067EF0DF03DC0F4FF3CC0F3FF3BC0DC
:101AD800DAFF3AC0D9FF39C0FBFF38C0FAFF5F927E
:101AE8001100F4EF0DF0000E0001996F000E986FD1
:101AF800000E976F000E966FA1EF0DF0D8909835F5
:101B0800F66E9935F76E570EF626EF0EF722F86A3D
:101B1800000EF8220900F5CF93F00900F5CF94F0F4
:101B2800D89093379437010E9327000E942393513E
:101B3800982794519923964B972B8DC0F6FF8EC00A
:101B4800F7FF000EF86E0F0EF76403D00800F5508B
:101B580005D0F6CFE1FFF7CFE2FFE7500001936F22
:101B6800E00E9325946F956BFF0E95239451965D27
:101B780095519759D8A0C3EF0DF0C5EF0DF082EF3E
:101B88000DF089C06FF08AC070F08BC071F08CC006
:101B980072F098C073F099C074F08FC075F090C05F
:101BA80076F091C077F092C078F0A0EC0AF0D89067
:101BB80000019835F66E9935F76E570EF626EF0E3A
:101BC800F722F86A000EF8220900F5CF93F0090011
:101BD800F5CF94F09351892794518A238D4B8E2BFE
:101BE8008DC0F6FF8EC0F7FF000EF86E0F0EF7647B
:101BF80003D00800F55005D0F6CFE1FFF7CFE2FF9C
:101C0800E7500009D8A40BEF0EF00DEF0EF077EFB8
:101C18000DF01200800E0001AA5DD8A016EF0EF09C
:101C280018EF0EF01EEF0EF0000ECD6F4B0ECC6FBE
:101C3800A2EF0EF0AD0E0101566F000E576FA7C050
:101C480058F1A8C059F10001AA5109E1020EA95D95
:101C5800D8A031EF0EF033EF0EF042EF0EF0FF0E8A
:101C6800A9250101626FFF0E0001AA210101636F1E
:101C7800000E5C6F000E5B6F4BEF0EF0000E010163
:101C8800636F010E626F000E5C6F010E5B6F580E82
:101C980000019F6F010EA06FABC0A1F0ACC0A2F015
:101CA800560EA36F010EA46F34EC14F09FC054F1CC
:101CB800A0C055F10001A951AA11D8B466EF0EF0E1
:101CC80068EF0EF0A2EF0EF0010155BF6EEF0EF0B7
:101CD80070EF0EF0A2EF0EF0FF0E0001A925AF6F16
:101CE800FF0EAA21B06FAF510101545D5551800A12
:101CF8000001B16FB051800AB159D8A086EF0EF03B
:101D080088EF0EF093EF0EF0FF0EA9250101526F38
:101D1800FF0E0001AA210101536F97EF0EF054C185
:101D280052F155C153F1010152510001A725D96E55
:101D3800010153510001A821DA6EDF6A120087EC15
:101D480016F0000E2CEC12F035EC00F0D9EC05F092
:101D5800F28EF28CF28C720E0001666F300E676F95
:101D680055EC18F0A60E0001666F260E676F73EC2F
:101D780018F0800E0001666F300E676F50EC18F097
:101D880089EC18F0720E0001666F2C0E676F4BEC31
:101D980018F087EC18F0540E0001666F2F0E676F6D
:101DA80046EC18F07CEC18F09D0E0001A76FFE0EB3
:101DB800A86F24EC17F0010E0001DB6FE8EC06F0C9
:101DC8000001DB51D8A4EBEF0EF0EDEF0EF0F3EFCE
:101DD8000EF085EC18F08A988A86F6EF0EF087ECFC
:101DE80018F08A960001DA51D8B4FDEF0EF0FFEF33
:101DF8000EF002EF0FF08A8A03EF0FF08A9AEC5187
:101E0800D8B409EF0FF00BEF0FF010EF0FF0F1EC73
:101E180007F0000E0001EC6FCBEC13F065EC0BF053
:101E280066C0D6F067C0D7F0D6C066F0D7C067F0F6
:101E3800000E0001696F640E686F38EC17F066C019
:101E48006CF067C06DF0000E00016F6F0A0E6E6FC8
:101E580090EC13F06CC0D4F06DC0D5F0E2EF0EF04A
:101E680033EF00F030343134376E3750D8A43FEFB9
:101E78000FF041EF0FF04BEF0FF0000E2E6E000E3B
:101E88002F6E000E306E000E316EB8EF0FF02EC0C0
:101E980032F02FC033F030C034F031C035F0200EAE
:101EA8005BEF0FF0D8903532343233323232E82ECD
:101EB80056EF0FF03250366E308EFF0E2E16FF0E94
:101EC8002F16FF0E3016000E3116960E375E37BEEF
:101ED80072EF0FF070EF0FF088EF0FF03750800AB5
:101EE800970FD8B07AEF0FF07CEF0FF07EEF0FF07E
:101EF80041EF0FF0D890313230322F322E32373E48
:101F08007EEF0FF0A0EF0FF01F0E37648EEF0FF08B
:101F180090EF0FF098EF0FF041EF0FF0D8902E36BA
:101F28002F363036313637063750D8A49EEF0FF0AB
:101F3800A0EF0FF092EF0FF03650D8B4A6EF0FF0E5
:101F4800A8EF0FF0B0EF0FF0311E301E2F1E2E6CD1
:101F5800000E2F22302231222EC02EF02FC02FF05B
:101F680030C030F031C031F012000001CBBFC1EFFA
:101F78000FF0BFEF0FF0C7EF0FF0000E8A6F010EE2
:101F8800896FCBEF0FF0CAC089F0CBC08AF0C8C008
:101F980087F0C9C088F0000E8C6F1F0E8B6F000E83
:101FA8000101516F03EF10F08B07D8A08C07320E98
:101FB8008B25D96E010E8C21DA6E85C066F086C03D
:101FC80067F0000E696F0A0E686F01EC14F00001EB
:101FD8006651300FDF6E8907D8A08A078707D8A017
:101FE800880785C06CF086C06DF0000E6F6F0A0E12
:101FF8006E6F90EC13F06CC085F06DC086F0000138
:102008008B518C11D8B40BEF10F00DEF10F023EFBB
:1020180010F085518611D8A414EF10F016EF10F0C7
:10202800D8EF0FF08ABF23EF10F08A5106E1890537
:10203800D8B021EF10F023EF10F0D8EF0FF083C0E5
:1020480078F084C079F0320E8B257A6F010E8C21DE
:102058007B6F87C07CF088C07DF083EC12F078C07D
:1020680083F079C084F0120071C07BF072C07CF0FC
:102078000001725107E1F00E715DD8B046EF10F023
:1020880048EF10F0ABEF10F0400E6F5D010E705985
:10209800D8A051EF10F053EF10F055EF10F0ABEF60
:1020A80010F0400E735D010E7459D8A05EEF10F069
:1020B80060EF10F064EF10F0010E746F400E736F54
:1020C800765109E1F00E755DD8A06DEF10F06FEF55
:1020D80010F0A0EF10F0000E766FF00E756FA0EF05
:1020E80010F06FC06BF070C06CF071C06DF072C012
:1020F8006EF0A1EC15F000016F4B702B8AEF10F019
:1021080077C069F078C06AF0D9EC17F00001715116
:10211800796F72517A6F714B722B7951755D7A5163
:102128007659D8B09AEF10F09CEF10F084EF10F0C9
:102138007BC071F07CC072F06F51735D705174593F
:10214800D8B0A9EF10F0ABEF10F075EF10F0120057
:1021580000016A516B11D8B4B4EF10F0B6EF10F06B
:10216800BFEF10F06A516B11D8A4BDEF10F0BFEFAC
:1021780010F0C4EF10F0685132EC18F011EF11F0C4
:1021880020EE0AF06A51D9266B51DA22DE50DE10B1
:10219800D8B4D1EF10F0D3EF10F0EEEF10F020EE3E
:1021A8000AF06A51D9266B51DA2210EE03F06A510F
:1021B800E1266B51E222DE50E65CE650800A706F41
:1021C800DE50800A7059D8B0ECEF10F0EEEF10F046
:1021D80011EF11F020EE03F06A51D9266B51DA2283
:1021E800DECF6CF0DDCF6DF06AC0D9FF6BC0DAFFCF
:1021F800DECF6EF0DDCF6FF06C516E25D96E6D516C
:102208006F21DA6E68C0DFFF20EE03F06A51D9262D
:102218006B51DA22DE2A000EDD221200000E0001C8
:102228006B6F69BF1CEF11F01AEF11F022EF11F07C
:10223800686D691FD8B0692B010E6B6F67BF29EFF6
:1022480011F027EF11F02FEF11F0666D671FD8B06E
:10225800672B010E6B1B000E6D6F000E6C6F6851C3
:102268006911D8B43AEF11F03CEF11F064EF11F0B6
:10227800010E6A6F44EF11F0D890683769376A2BFE
:1022880069AF49EF11F04BEF11F040EF11F0D89022
:102298006C376D376851665D69516759D8A057EF3B
:1022A80011F059EF11F05EEF11F06851665F695156
:1022B800675B6C81D890693368336A2F4BEF11F0F4
:1022C8006B51D8B46AEF11F06CEF11F070EF11F0A8
:1022D8006C6D6D1FD8B06D2B6CC066F06DC067F06B
:1022E8001200B60E0001E025D96EDA6A000EDA2275
:1022F800DF6AABA482EF11F084EF11F097EF11F0D1
:10230800B60EE025D96EDA6A000EDA22DF8202D82C
:1023180097EF11F00500FA6EE851FD6EE951FE6E77
:10232800FF6AFA501200ABA29CEF11F09EEF11F079
:10233800B2EF11F0B60E0001E025D96EDA6A000E90
:10234800DA22DF8402D8B2EF11F00500FA6E555098
:10235800FD6E5650FE6EFF6AFA501200B60E00016E
:10236800E025D96EDA6A000EDA22DF50D8B4BFEF62
:1023780011F0C1EF11F0D0EF11F002D8CEEF11F04B
:102388000500FA6E01016451FD6E6551FE6EFF6A2B
:10239800FA501200D2EF11F0F9EC16F01200000E0C
:1023A80000016B6F67BFDDEF11F0DBEF11F0E3EFBA
:1023B80011F0666D671FD8B0672B010E6B6F69BF90
:1023C800EAEF11F0E8EF11F0EEEF11F0686D691F18
:1023D800D8B0692B68516911D8B4F5EF11F0F7EF4F
:1023E80011F01BEF12F0010E6A6FFFEF11F0D89099
:1023F800683769376A2B69AF04EF12F006EF12F0FD
:10240800FBEF11F06851665D69516759D8A00FEF6D
:1024180012F011EF12F015EF12F06851665F695172
:10242800675BD890693368336A2F06EF12F06B51F7
:10243800D8B421EF12F023EF12F027EF12F0666DF7
:10244800671FD8B0672B66C066F067C067F01200D8
:102458000001676F6CBA33EF12F035EF12F082EFBC
:1024680012F000016751040D010EF326000EF4224C
:102478002F0EF324F66EFD0EF420F76EF86A000EA8
:10248800F8220800F5CF6DFF6751040D2F0EF324D5
:10249800F66EFD0EF420F76EF86A000EF8220800BA
:1024A800F5CF6CFF000E6B6E6751040D020EF3261C
:1024B800000EF4222F0EF324F66EFD0EF420F76EB4
:1024C800F86A000EF8220800F5CF6EFF6751040D78
:1024D800030EF326000EF4222F0EF324F66EFD0EE3
:1024E800F420F76EF86A000EF8220800F5CF66F0BF
:1024F80095506619FE0B6619956E6C8A12000001DC
:102508007DBF89EF12F08BEF12F091EF12F07CC0D3
:1025180081F07DC082F095EF12F0000E826F000E00
:10252800816F000E806F000E7F6FA8EF12F0000E13
:10253800696F200E686F78C06AF079C06BF0ACECF8
:1025480010F000017F4B802B81517F5D8051800A04
:102558007E6F8251800A7E59D8A0B5EF12F0B7EF8E
:1025680012F09BEF12F07AC071F07BC072F078C065
:1025780073F079C074F039EC15F07AC066F07BC05E
:1025880067F0E3EC15F0000181516625786F825100
:102598006721796F1200010E0001746F400E736F8E
:1025A800000E726FF00E716F000E6C6F000E6B6F85
:1025B800000E6E6F000E6D6FA1EC15F00009D8B417
:1025C800E8EF12F0EAEF12F004EF13F012EF13F055
:1025D8006FC069F070C06AF0D9EC17F0000173079A
:1025E800D8A07407732906E17429D8A4FEEF12F065
:1025F80000EF13F0ECEF12F0010E746F400E736FE2
:1026080000017107D8A07207712906E17229D8A4C0
:1026180010EF13F012EF13F0F2EF12F012009D9A80
:10262800EA0E0001666F220E676F5FEC18F09D9846
:10263800840E0001666F2B0E676F5AEC18F0080EB7
:10264800B86E900EAB6E240EAC6ECF0EAF6E000E51
:10265800B06E260E0001666F310E676F69EC18F0D8
:10266800FE0E0001666F300E676F64EC18F0040E02
:102678000001666F310E676F6EEC18F0000E0001F6
:10268800DD6F000EE36F000EE26F080EE16F000EC3
:10269800E06F000EDF6F000EDE6F9D8A1200000EE5
:1026A800F1EC17F008EC18F001C04CF002C04DF046
:1026B800000E196EC00E1A6E7F0E1B6E440E1C6E35
:1026C8004CC001F04DC002F0000E046E640E036EA3
:1026D80073EC17F001C007F002C008F0096A0A6A33
:1026E800000EF5EC08F007C015F008C016F009C098
:1026F80017F00AC018F050EC02F015C02EF016C002
:102708002FF017C030F018C031F036EC0FF02EC0A3
:10271800D2F02FC0D3F01200000E0001726F000E2D
:10272800716F6E516F11D8B49CEF13F09EEF13F0D8
:10273800C6EF13F0010E706FA6EF13F0D8906E3746
:102748006F37702B6FAFABEF13F0ADEF13F0A2EF55
:1027580013F0D890713772376E516C5D6F516D59A7
:10276800D8A0B9EF13F0BBEF13F0C0EF13F06E5120
:102778006C5F6F516D5B7181D8906F336E33702FC2
:10278800ADEF13F071C06CF072C06DF01200E5ECA3
:1027980017F00009D8B4D3EF13F0D5EF13F000EF1A
:1027A80014F0C2EC14F00001D96FD95195EC14F073
:1027B8002F0E0001D965E3EF13F0E5EF13F0EDEF0D
:1027C80013F0390ED965EBEF13F0EDEF13F0F6EFD8
:1027D80013F00D0ED919D8A4F4EF13F0F6EF13F097
:1027E800FCEF13F0010EEC6FD9C0EDF000EF14F020
:1027F800000EEC6F300EED6F120000016851691188
:10280800D8B409EF14F00BEF14F02FEF14F0010E09
:102818006A6F13EF14F0D890683769376A2B69AF7D
:1028280018EF14F01AEF14F00FEF14F06851665D0A
:1028380069516759D8A023EF14F025EF14F029EF58
:1028480014F06851665F6951675BD89069336833E3
:102858006A2F1AEF14F066C066F067C067F01200BE
:10286800A1C0A5F0A2C0A6F0000E0001C76F000E1F
:10287800C66F52EF14F09FC090F0A0C091F0A50E63
:10288800926F000E936FA3C094F0A4C095F01DEC56
:1028980004F000019051C6279151C723A5C0F6FF47
:1028A800A6C0F7FFF86A0800F5500009D8A45FEF42
:1028B80014F061EF14F03FEF14F0C6C09FF0C7C0EA
:1028C800A0F012001C0EF66E310EF76E000EF86EB8
:1028D8000900F5CFECF00900F5CFEDF01A0EF66E11
:1028E800310EF76E000EF86E0900F5CF5DF00900A5
:1028F800F5CF5EF001EE00F0520EEE6AE806FDE15B
:1029080000EEB6F02E0EEE6AE806FDE100EE3EF0AF
:10291800150EEE6AE806FDE15F905F920001A3EFF5
:102928000EF00001666F0001E151D8B49EEF14F07B
:10293800A0EF14F097EF14F09DB8A5EF14F0A7EFEF
:1029480014F0ABEF14F066C0ADFFC0EF14F09D9823
:102958003E0EE325D96EDA6A000EDA2266C0DFFF82
:10296800E32B070EE365BBEF14F0BDEF14F0BFEFE8
:1029780014F0000EE36FE1079D8812000001DE519C
:10298800D8B4C9EF14F0CBEF14F0C2EF14F0B60EC0
:10299800DF25D96EDA6A000EDA22DF50DD6FBE0E4F
:1029A800DF25D96EDA6A000EDA22DF50666FDF2B78
:1029B800070EDF65E2EF14F0E4EF14F0E6EF14F031
:1029C800000EDF6F9D9ADE079D8A66511200000196
:1029D8006A5109E1F00E695DD8A0F5EF14F0F7EF40
:1029E80014F0FAEF14F0010E11EF15F02A0E676FCC
:1029F800000EBCEC17F000016A51676F010EBCECC9
:102A080017F069C067F0010EBCEC17F02C0E00013E
:102A1800676F000EBCEC17F0000E1200400E0001AC
:102A2800695D010E6A59D8A01CEF15F01EEF15F06C
:102A380021EF15F0010E38EF15F02B0E676F000E21
:102A4800BCEC17F000016A51676F010EBCEC17F07F
:102A580069C067F0010EBCEC17F02C0E0001676F1F
:102A6800000EBCEC17F0000E1200000E0001776F8C
:102A7800000E766F4CEF15F075C068F0696B73C087
:102A88006AF074C06BF0ACEC10F00001764B772B59
:102A980076517125D96E77517221DA6EDF50756FD4
:102AA8007551D8A45AEF15F05CEF15F040EF15F00A
:102AB8001200000E8D6E000E8C6E000E896E000ED8
:102AC8008A6E000E8B6E040E966EBF0E926E470EC7
:102AD800936EBE0E946EEF0E956E000E0F013B6F57
:102AE800000E3A6F060E396F040E3C6F2F0E386FCA
:102AF800000E616EF19E120000016DBF8EEF15F0A1
:102B08006D5106E16C05D8B08CEF15F08EEF15F01D
:102B18009CEF15F06CC06EF06DC06FF06E1F6F1FEC
:102B28006E4B6F2B6EC06CF06FC06DF0A0EF15F0A0
:102B38006CC06CF06DC06DF012006BC069F06CC0B9
:102B48006AF012EC15F00009D8A4ADEF15F0AFEF5C
:102B580015F0BDEF15F06DC069F06EC06AF0EBECD2
:102B680014F00009D8B4BBEF15F0BDEF15F0C0EFB5
:102B780015F0010EC1EF15F0000E1200080E00014D
:102B8800E161C9EF15F0CBEF15F0E1EF15F03E0E5E
:102B9800E225D96EDA6A000EDA22DF50AD6EE22B3A
:102BA800070EE265DAEF15F0DCEF15F0DEEF15F051
:102BB800000EE26FE12BE2EF15F09D98120066C05F
:102BC80068F067C069F0ECEF15F00001664B672B01
:102BD80066C0D9FF67C0DAFFDF50D8A4F6EF15F05A
:102BE800F8EF15F0E9EF15F000016851665D666FC2
:102BF80069516759676F12009E9050C001F051C02B
:102C080002F04CEC17F053505410D8B40EEF16F0F5
:102C180010EF16F01CEF16F002D81CEF16F00500A6
:102C2800FA6E5350FD6E5450FE6EFF6AFA50120051
:102C380012000001676F000E0001686F2FEF16F099
:102C4800030E0001666F970EE82EFED7662FFCD79D
:102C580000D00001682B6751685DD8A036EF16F0E8
:102C680038EF16F024EF16F012000001DB51D8B44B
:102C780040EF16F042EF16F053EF16F08AB847EF20
:102C880016F04AEF16F0010E4BEF16F0000EFF0A91
:102C9800016E013A8A500118EF0B01188A6E120072
:102CA800F294DCC0D6FF0001E651E711D8B45FEF1B
:102CB80016F061EF16F06DEF16F002D86DEF16F012
:102CC8000500FA6EE651FD6EE751FE6EFF6AFA5096
:102CD800120012006FC06BF070C06CF071C06DF024
:102CE80072C06EF0A1EC15F00009D8A47EEF16F0C2
:102CF80080EF16F086EF16F073C069F074C06AF0C2
:102D0800D9EC17F012001BEC18F012EC18F05DEC7F
:102D180015F02BEC18F086EC17F023EC18F060ECAB
:102D280017F0E3EC16F0FDEC17F098EC17F013EC45
:102D380013F012000001E451E511D8B4A6EF16F023
:102D4800A8EF16F0B4EF16F002D8B4EF16F00500AD
:102D5800FA6EE451FD6EE551FE6EFF6AFA501200FC
:102D680012000001EA51EB11D8B4BDEF16F0BFEF25
:102D780016F0CBEF16F002D8CBEF16F00500FA6E7E
:102D8800EA51FD6EEB51FE6EFF6AFA501200120016
:102D98009E9C5B505C10D8B4D4EF16F0D6EF16F0BA
:102DA800E2EF16F002D8E2EF16F00500FA6E5B507B
:102DB800FD6E5C50FE6EFF6AFA5012001200000EA3
:102DC800CC6E0B0ECF6EDC0ECE6ECECF50F0CFCFCA
:102DD80051F09E909D80200E0001666F310E676F46
:102DE8004BEC18F0310ECD6E1200BE0E0001E0253E
:102DF800D96EDA6A000EDA22AECFDFFFE02B070EBB
:102E0800E06509EF17F00BEF17F00DEF17F0000E64
:102E1800E06FDE2B12007E944E4A4F2A4F5009E194
:102E2800FA0E4E5CD8A01BEF17F01DEF17F023EF3A
:102E380017F09EEC16F0000E4F6E000E4E6E12004C
:102E4800A90E0001AB6F000EAC6F000E9F6F000E55
:102E5800A06FA7C0A1F0A8C0A2F0AB0EA36F000E90
:102E6800A46F34EC14F01200000166516803F3CF2C
:102E78006AF0F4CF6BF066516903F3506B27675122
:102E88006803F3506B276AC066F06BC067F01200E6
:102E9800CDA451EF17F053EF17F05BEF17F0CD907B
:102EA8000250CF6E01C0CEFFCD805FEF17F0025009
:102EB800CF6E01C0CEFF1200010EC26E000EC16EB1
:102EC800890EC06E000EC36E000EC46E9D8C280E57
:102ED8000001666F310E676F73EC18F01200015035
:102EE8000302F3CF05F0F4CF06F001500402F350CB
:102EF800062602500302F350062605C001F006C05C
:102F080002F012007C0E0F014B6F000E4C6F7E9486
:102F18007D841E0E0001666F310E676F46EC18F057
:102F28007C0E0F014A6F1200000ED76E3D0ED66E52
:102F38003D0E0001DC6FF294F28A220E666F310EAC
:102F4800676F50EC18F0570ED56E12008BB0AFEFCC
:102F580017F0B2EF17F0010EB3EF17F0000EFF0AEB
:102F68000001606F8B506019FE0B60198B6E1200A8
:102F78000001686F000168B102D08D9001D08D808A
:102F88008D9200016751CBEC17F08D821200000181
:102F9800666F66C06FFFA4AED4EF17F0D6EF17F0D8
:102FA800CFEF17F0A49E6F50120000016A51676FAF
:102FB800010EBCEC17F069C067F0010EBCEC17F00D
:102FC80012000001DE51D8A4ECEF17F0EFEF17F074
:102FD800010EF0EF17F0000E1200026E02C001F0B1
:102FE80001460146C2500118830B0118C26EC28007
:102FF8001200F292F19C240E0001666F310E676F89
:1030080055EC18F0F2881200C450046E036AC350DD
:103018000324016E000E0420026E1200400E6D6E35
:10302800000E6C6E010E6E6E95906C9A1200D08E2A
:103038009F8CF1849F889F8A9F807F941200000E46
:103048000F01546F000E556F000E566F1200300EB0
:10305800D36E040ED26E000E9B6E12000001676FD5
:103068000001675195EC14F01200000E0001DA6FB0
:10307800000EDB6FF2921200000EF1EC17F08BECF1
:1030880018F0120066C0E4F067C0E5F0120066C0F0
:1030980053F067C054F0120066C0E6F067C0E7F06E
:1030A800120066C0EAF067C0EBF0120066C059F083
:1030B80067C05AF0120066C057F067C058F0120097
:1030C80066C055F067C056F0120066C0E8F067C0E9
:1030D800E9F0120066C064F167C065F1120066C0CD
:1030E8005BF067C05CF01200F292B5EC16F01200CB
:1030F8000F014A851200AB98AB881200F9EC16F064
:103108001200CD901200CD801200D58E1200C2821E
:1031180012001200013012001200120012001200F8
:02312800120093
:10D016000014A514A514A514A514A514A514A514E7
:10D02600A514A514A514AD14A514A514A514A5142A
:10D03600A514A514ADF4ACD3AC92AC52A431A41192
:10D04600A452A472A4D3ACF4AC14AD14AD14A514BC
:10D05600A514A514A514A514A514A514A514A51402
:10D06600A514A514A514A514A514A514A514A514F2
:10D07600A514A514A514A514A514A514A514A514E2
:10D08600A514A514A514A514A514A514A514A514D2
:10D09600A514A514A514A514A514A514A514A514C2
:10D0A600A514A514A514A514A514A514A514A514B2
:10D0B600A514A514A514A514A514A514A514A514A2
:10D0C600A514A514A514A514A514A514A514ADD3CB
:10D0D600AC31A44E9B6B8A88812679E678A578A523
:10D0E60078C578067988814A8A0D93F0A3B3AC1483
:10D0F600A514A514A514A514A514A514A514A51462
:10D10600A514A514A514A514A514A514A514A51451
:10D11600A514A514A514A514A514A514A514A51441
:10D12600A514A514A514A514A514A514A514A51431
:10D13600A514A514A514A514A514A514A514A51421
:10D14600A514A514A514A514A514A514A514A51411
:10D15600A514A514A514A514A514A514A514AD14F9
:10D16600A514A514A514A514A514ADB2AC8E9B09DF
:10D1760082C67844780378037803780378037803C3
:10D186007803780378037802784378C578A8810D08
:10D196009B72AC13AD14A514A534A514A515A5143E
:10D1A600A514A514A514A514A514A514A514A514B1
:10D1B600A514A514A514A514A514A514A514A514A1
:10D1C600A514A514A514A514A514A514A514A51491
:10D1D600A514A514A514A514A514A514A514A51481
:10D1E600A514A514A514A514A514A514A514A51471
:10D1F600A514A514A514A514A514A514A514A51461
:10D20600A534A514AD14ADD3A44E9B6781647803F1
:10D216007803780378037803780378037803780330
:10D2260078037803780378037802700278037844E9
:10D23600702679EC9292A413A514A514A514A5142E
:10D24600A514A514A514A514A514A514A514A51410
:10D25600A514A514A514A514A514A514A514A51400
:10D26600A514A514A514A514A514A514A514A514F0
:10D27600A514A514A514A514A514A514A514A514E0
:10D28600A514A514A514A514A514A514A514A514D0
:10D29600A514A514A514A514A514A514A514A514C0
:10D2A600A514A513AD30A4098A647803780378031E
:10D2B6007803780378037803780378037803780390
:10D2C6007803780378037803780378037803780380
:10D2D6007803784370A881CFA3F3A413A514A514EB
:10D2E600A514A514A514A514A514A514A514A51470
:10D2F600A514A514A514A514A514A514A514A51460
:10D30600A514A514A514A514A514A514A514A5144F
:10D31600A514A514A514A514A514A514A514A5143F
:10D32600A514A514A514A514A514A514A514A5142F
:10D33600A514A514A514A514A514A514A514A5141F
:10D34600A5F3AC8E9B2679237803780378037803BC
:10D3560078037803780378037803780378037803EF
:10D3660078037803780378037803780378037803DF
:10D3760078037803780378C578ED92D3AC14A514B6
:10D38600A514A514A514A514A514A514A514A514CF
:10D39600A514A514A514A514A514A514A514A514BF
:10D3A600A514A514A514A514A514A514A514A514AF
:10D3B600A514A514A514A514A514A514A514A5149F
:10D3C600A514A514A514A514A514A514A514A5148F
:10D3D600A514A514A514A514A514A514A514A5D3C0
:10D3E600A40D93A570037803780378037803780374
:10D3F600780378037803780378037803780378034F
:10D40600780378037803780378037803780378033E
:10D4160078037803780378037864786B8AB2A41467
:10D42600A514A514A514A514A514A514A514A5142E
:10D43600A514A514A514A514A514A514A514A5141E
:10D44600A514A514A514A514A514A514A514A5140E
:10D45600A514A514A514A514A514A514A514A514FE
:10D46600A514A514A514A514A514A514A514A514EE
:10D47600A514A514A514A514A514A514A5D3ACEC40
:10D486009A8478037803780378037803780378031B
:10D4960078037802782378857806798881E989E99E
:10D4A60081A8814781C57843780378037803780398
:10D4B600780378037803780378037844786B92B31B
:10D4C600AC14A514A514A514A514A514A514A51487
:10D4D600A514A514A514A514A514A514A514A5147E
:10D4E600A514A514A514A514A514A514A514A5146E
:10D4F600A514A514A514A514A514A514A514A5145E
:10D50600A514A514A514A514A514A514A514A5144D
:10D51600A514A514A514A514A514A5F4AC4E9B84B6
:10D52600780378037803780378037803780378031D
:10D536007864788881EC92F0A392A4D3ACF3ACF330
:10D54600A4D3AC92AC11A42E9BC989857803780329
:10D556007803780378037803780378037844788C23
:10D5660092F3AC14A514A514A514AD14A514A51412
:10D57600A514A514A514A514A514A514A514A514DD
:10D58600A514A514A514A514A514A514A514A514CD
:10D59600A514A514A514A514A514A514A514A514BD
:10D5A600A514A514A514A514A514A514A514A514AD
:10D5B600A514A514A514A514A513ADF0A3C6780348
:10D5C60078037803780378037803780378437888B8
:10D5D600818F9BB3ACF4AC14A514A514A514A514A3
:10D5E600A514A514A514A514ADD3ACF0A3098264A3
:10D5F60070037803780378037803780378037884D4
:10D60600702D9B14A514A5F4A414A514A514A51493
:10D61600A514A514A514A514A514A514A514A5143C
:10D62600A514A514A514A514A514A514A514A5142C
:10D63600A514A514A514A514A514A514A514A5141C
:10D64600A514A514A514A514A514A514A514A5140C
:10D65600A513A514A514A514A592A4A8812378033F
:10D666007803780378037803780378A578AC92B2C8
:10D67600AC14A514A514AD14A514A514A514A514CD
:10D68600A514A514A514AD14A514A514ADD3AC4EBC
:10D696009B0679237803780278038003780378025F
:10D6A60078E67810A414AD14A514A514A514A51431
:10D6B600A514A514A514A514A514A514A514A5149C
:10D6C600A514A514A514A514A514A514A514A5148C
:10D6D600A514A514A514A514A514A514A514A5147C
:10D6E600A514A514A514A514A514A514A514A5146C
:10D6F600A514A514A514A5F3ACCC9223780378033E
:10D70600780378037803780378E5788E9BF3AC1476
:10D71600A514A514A514A513A514A514AD14AD142C
:10D72600AD14A514A513A514A534A515A5F4ACF33D
:10D73600ACF0A3478103780380037803780378036A
:10D74600784370298AD3AC14A514A5F4AC14A51497
:10D75600A514A514A514A514A514A514A514A514FB
:10D76600A514A514A514A514A514A514A514A514EB
:10D77600A514A514A514A514A514A514A514A514DB
:10D78600A514A514A514A514A514A514A514A514CB
:10D79600A514A514A5F4AC31AC0679037802780378
:10D7A60078037803780378A5788F9B14A514A514BD
:10D7B600AD14A514A514A514A514A514A514A51493
:10D7C600A514A514A514A514A514A5F4AC14A514A4
:10D7D600A514AD10A42779037003780378037803A2
:10D7E60078027884788F9B13AD14A514A514A5141C
:10D7F600A514A514A514A514A514A514A514A5145B
:10D80600A514A514A514A514A514A514A514A5144A
:10D81600A514A514A514A514A514A514A514A5143A
:10D82600A514A514A514A514A514A514A514A5142A
:10D83600A514A514A5F4ACAB922370037803780362
:10D84600780378037864780D9BF3AC14A514A514BB
:10D85600A514A514A514A514A514A514A514A514FA
:10D86600A514A514A514A514AD14A514A514A514E2
:10D87600A514A514ADAFA3C5780378037803780380
:10D886007802780378E989D3AC14A514A514A514F5
:10D89600A514A514A514A514A514A514A514A514BA
:10D8A600A514A514A514A514A514A514A514A514AA
:10D8B600A514A514A514A514A514A514A514A5149A
:10D8C600A514A514A514A514A514A514A514A5148A
:10D8D600A514A514A592A406790278037803780303
:10D8E60078037823780A8AD3AC14A514A534A51432
:10D8F600A514A514A514AD14AD14A514A514A5144A
:10D90600A514A514A514A514A514A514A514A51449
:10D91600A514A514A5F3ACCC924370038003780339
:10D926007803780278857810A414A514A514A51494
:10D93600A514A514A514A514A514A514A514A51419
:10D94600A514A514A514A514A514A514A514A51409
:10D95600A514A514A514A514A514A514A514A514F9
:10D96600A514A514A514A514A514A514A514A514E9
:10D97600A514A514AD6E9B44780378037803780349
:10D98600780378C57811A414AD14A514A514A514AC
:10D99600AD14A514A514A514A514A514A514A514B1
:10D9A600A514A514A514A514A514A514A514A514A9
:10D9B600A514A514A514A592AC6781037803780372
:10D9C60078038002782370AC8A14AD14A514AD14C4
:10D9D600A514A514A514A514A514A514A514A51479
:10D9E600A514A514A514A514A514A514A514A51469
:10D9F600A514A514A514A514A514A514A514A51459
:10DA0600A514A514A514A514A514A514A514A51448
:10DA1600A515A5F3AC2A8A2378037803780378033F
:10DA26007803786B8AF3AC14A514AD14A514A51469
:10DA3600A514AD14A514A514A514A514A514A51410
:10DA4600A514A514A514A514A514A514A514A51408
:10DA5600A514A514A514A514AD2E9B447003780334
:10DA6600780378037803786781B2AC14AD14A514F3
:10DA7600A514A514A514A514A514A514A514A514D8
:10DA8600A514A514A514A514A514A514A514A514C8
:10DA9600A514A514A514A514A514A514A514A514B8
:10DAA600A514A514A514A514A514A514A514A514A8
:10DAB600A514A592AC4781037803780378237803ED
:10DAC600786478F0A314A514A514A514A534A51498
:10DAD600A514A514A514A514A514A514A514A51478
:10DAE600A514A514A514A514A514A514A514A51468
:10DAF600A514A514A514A514A572ACE6780378039D
:10DB060078037803780378A57830A414AD14A514A7
:10DB1600A514A514A514A514A514A514A514A51437
:10DB2600A514A514A514A514A514A514A514A51427
:10DB3600A514A514A514A514A514A514A514A51417
:10DB4600A514A514A514A514A514A514A514A51407
:10DB5600A514A510A4A578027003780378037803AA
:10DB6600784779B2AC14AD14A5B3ACD0A38E9BF0B4
:10DB7600A3D3AC14AD14A514AD14A514A514A51403
:10DB8600A514A514A514A514A514A514A514A514C7
:10DB9600A514A514A514A514A5F4AC2A8A03780324
:10DBA6007803780378037864706E9B14AD14A5141B
:10DBB600A514A514A514A514A514A514A514A51497
:10DBC600A514A514A514A514A514A514A514A51487
:10DBD600A514A514A514A514A514A514A514A51477
:10DBE600A514A514A514A514A514A514A514A51467
:10DBF600A514A58F9B4478037803780378037803EC
:10DC0600784A8AF3AC14AD31A4C981847844788506
:10DC1600780A8A51A414A514A514A514A514A5144C
:10DC2600A514A514A514A514A514A514A514A51426
:10DC3600A514A514A514A514A513A50D9B23780357
:10DC4600780378037803782378CC92F4AC14A5147F
:10DC5600A514A514A514A514A514A514A514A514F6
:10DC6600A514A514A514A514A514A514A514A514E6
:10DC7600A514A514A514A514A514A514A514A514D6
:10DC8600A514A514A514A514A514A514A514A514C6
:10DC9600A514AD2D932378037803780378038023A6
:10DCA60078EC9213A5B2A4C981237803780378038C
:10DCB600782378EA89D3AC14AD14A514A514A51459
:10DCC600A514A514A514A514A514A514A514A51486
:10DCD600A514A514A514A514A514A5AFA3647803CB
:10DCE6007803780378037803704A92F4AC14A5138A
:10DCF600A514A514A514A514A514A514A514A51456
:10DD0600A514A514A514A514A514A514A514A51445
:10DD1600A514A514A514A514A514A514A514A51435
:10DD2600A514A514A514A514A514A514A514A51425
:10DD3600A514ADEC9223780378037803780278442F
:10DD4600704E9B14ADCF9B847803780378037803D9
:10DD5600780378857010A414A514A514A514A51429
:10DD6600A514A514A514A514A514A514A514A514E5
:10DD7600A514A514A514A514A514A510A4857803A7
:10DD86007803780378027802780A8AF4AC14A5142A
:10DD9600A514A514A514A514A514A514A514A514B5
:10DDA600A514A514A514A514A514A514A514A514A5
:10DDB600A514A514A514A514A514A514A514A51495
:10DDC600A514A514A514A514A514A514A514A51485
:10DDD600A514ADCC922378037803780378037844AE
:10DDE600788F9B13AD4E9B447803780378037803B2
:10DDF6007803784470CF9B14A514A514A514A51414
:10DE0600A514A514A514A514A514A514A514A51444
:10DE1600A514A514A514AD14A514A531A4A57803BD
:10DE2600780378037803780378E989F3A414A514B2
:10DE3600A514A514A514A514A514A514A514A51414
:10DE4600A514A514A514A514A514A514A514A51404
:10DE5600A514A514A514A514A514A514A514A514F4
:10DE6600A514A514A514A514A514A514A514A514E4
:10DE7600A5F4ACCC9223780378037803780378442E
:10DE8600784E9B13ADAF9B647803780380037803C9
:10DE9600780378A47010A414A514A514A514A514C9
:10DEA600A514A514A514A514A514A514A514A514A4
:10DEB600A514A514A514A514A514AD10A48578035E
:10DEC6007803780378037803700A8AF3AC14A514F0
:10DED600A514A514A514A514A514A514A514A51474
:10DEE600A514A514A514A514A514A514A514A51464
:10DEF600A514A514A514A514A514A514A514A51454
:10DF0600A514A514A514A514A514A514A514A51443
:10DF1600A514A52D93437803780378037803782313
:10DF260078EC9213AD92ACA8812370037803780342
:10DF3600782378E989D3AC14A514A514A514A514DF
:10DF4600A514A514A514A514A514A514A514A51403
:10DF5600A514A514A514A514AD14ADAFA364700340
:10DF66007803780378037803704A8A14AD14A514ED
:10DF7600A514A514A514A514A514A514A514A514D3
:10DF8600A514A514A514A514A514A514A514A514C3
:10DF9600A514A514A514A514A514A514A514A514B3
:10DFA600A514A514A514A514A514A514A514A514A3
:10DFB600A514A58F9B647003780378037803780310
:10DFC600784A8AF3AC14A531A4C981847044788553
:10DFD60078E98951ACF4AC14A514A514A514A514BC
:10DFE600A514A514A514A514A514A514A514A51463
:10DFF600A514A514A514A514A513AD0D9B4478036B
:10E00600780378037803782378CC9214AD14A5149A
:10E01600A514A514A514A514A514A514A514A51432
:10E02600A514A514A514A514A514A514A514A51422
:10E03600A514A514A514A514A514A514A514A51412
:10E04600A514A514A514A514A514A514A514A51402
:10E05600A514A511A4A4780378037803780378039C
:10E06600784781B2A414A514A5D2A4CFA36E9BF0C1
:10E076009BB3A414AD14AD14A514A514A514A5142E
:10E08600A514A514A514A514A514A514A514A514C2
:10E09600A514A514AD14A514A5F3AC2A8A03780219
:10E0A6007803780378037843786E9B14AD14A5142F
:10E0B600A514A514A514A514A514A514A514A51492
:10E0C600A514A514A514A514A514A514A514A51482
:10E0D600A514A514A514A514A514A514A514A51472
:10E0E600A514A514A514A514A514A514A514A51462
:10E0F600A514A592AC4781037803780378037803C7
:10E10600788478F0A314AD14AD14A513A514A51442
:10E11600A514A514A514A514A514A514A514A51431
:10E12600A514A514A514A514A514A514A514A51421
:10E13600A514A514A514A513A572AC067903780336
:10E1460078038003780378A57811A414A514A51381
:10E15600A514A514A514A514A514A514A514A514F1
:10E16600A514A514A514A514A514A514A514A514E1
:10E17600A514A514A514A514A514A514A514A514D1
:10E18600A514A514A514A514A514A514A514A514C1
:10E19600A514A5F3AC2A8A037803780378037803D9
:10E1A6007803786A92F3AC14A534A514A514A514C3
:10E1B600A514A514A514A514A514AD14A514A51489
:10E1C600A514A514A514A514A514AD14AD14A5F491
:10E1D600AC14A514A514A514AD4E9343700378038F
:10E1E600700378037802786781B2AC14A513A5147E
:10E1F600A514A514A514A514A514A514A514A51451
:10E20600A514A514A514A514A514A514A514A51440
:10E21600A514A514A514A514A514A514A514A51430
:10E22600A514A514A514A514A514A514A514A51420
:10E23600A514A513AD4E9B447803780378037803A1
:10E24600780378E57810A414AD15A514A514A514C3
:10E25600A514A514A514A514A514A514A514A514F0
:10E26600A514A514A514A514ADF4AC14A514A514F1
:10E27600A514A514A514A592A467810278037803B2
:10E28600780378037823788B9214A514A514A51423
:10E29600A514A514A514A514A514A514A514A514B0
:10E2A600A514A514A514A514A514A514A514A514A0
:10E2B600A514A514A514A514A514A514A514A51490
:10E2C600A514A514A514A514A514A514A514A51480
:10E2D600A514A514A592A4067903780378037803F8
:10E2E60078037823782A8AD3AC14AD14AD14A51418
:10E2F600A514A514A514A514A514A514A514A51450
:10E30600A514A514A514A514A514A514A534A5141F
:10E31600A514AD14A5F3ACED924478037803780305
:10E3260078037803788478F09B14A514A514A514B3
:10E33600A514A514A514A514A514A514A514A5140F
:10E34600A514A514A514A514A514A514A514A514FF
:10E35600A514A514A514A514A514A514A514A514EF
:10E36600A514A514A514A514A514A514A514A514DF
:10E37600A514A514A5F4AC8C92237803780378032E
:10E38600780378037864782D9BF4AC14A514A5144F
:10E39600A514A514A514A514A514A514A514A514AF
:10E3A600A514A514A514A514A514A514A514A5149F
:10E3B600AD14A534A5CFA3C57803780378037803F5
:10E3C6007803780378C981D3AC14A514A514A514D1
:10E3D600A514A514A514A514A514A514A514A5146F
:10E3E600A514A514A514A514A514A514A514A5145F
:10E3F600A514A514A514A514A514A514A514A5144F
:10E40600A514A514A514A514A514A514A514A5143E
:10E41600A514A514A514A531A4E6780378037803FA
:10E4260078037803780378C5788F9B14AD14A51408
:10E43600A514A514A514A514A514A514A514A5140E
:10E44600A514A514A514A514A514A514A514AD14F6
:10E45600A514AD30A44681037803780378037803C6
:10E466007803788478AF9B14A514A514A514A51475
:10E47600A514A514A514A514A514A514A514A514CE
:10E48600A514A514A514A514A514A514A514A514BE
:10E49600A514A514A514A514A514A514A514A514AE
:10E4A600A514A514A514A514A514A514A514A5149E
:10E4B600A514A514A514A5F3ACAB92437003780379
:10E4C600780380037802780378E6788F9BF4AC149F
:10E4D600A514A514A514A514A514A514A514A5146E
:10E4E600A514A514A534AD14A514A514A514A51337
:10E4F600A5F0A36779037803780378037803780394
:10E50600780378098AD3AC14A514A514A514A51408
:10E51600A514A514A514A514A514A514A514A5142D
:10E52600A514A514A514A514A514A514A514A5141D
:10E53600A514A514A514A514A514A514A514A5140D
:10E54600A514A514A514A514A514A514A514A514FD
:10E55600A514A514A514A534AD92A4888103780347
:10E566007803780378037803780378A578CC9AB291
:10E57600AC14A514A514A514A514A514A514A514C6
:10E58600A514A514A514A514A514A514A5D3AC4EBD
:10E596009B0681037803780378037803780378036E
:10E5A60078E68011A414A514A514A514A514A51421
:10E5B600A514A514A514A514A514A514A514A5148D
:10E5C600A514A514A514A514A514A514A514A5147D
:10E5D600A514A514A514A514A514A514A514A5146D
:10E5E600A514A514A514A514A514A514A514A5145D
:10E5F600A514A514A514A514A514A5F0A3C5780300
:10E60600780378037803780378037803784478A846
:10E61600818E9BB3A414AD14A514AD14A514A51432
:10E62600A514A514A514A513ADD3ACD0A30A8A646A
:10E636007803780378037803780378027803808474
:10E64600704E9BF4AC14A5F4AC14A514A514A51433
:10E65600A514A514A514A514A514A514A514A514EC
:10E66600A514A514A514A514A514A514A514A514DC
:10E67600A514A514A514A514A514A514A514A514CC
:10E68600A514A514A514A514A514A514A514A514BC
:10E69600A514A514A514A534A514ADF3AC2D9B841F
:10E6A600780378037803780378037803780278038D
:10E6B6007885788881ED9AF0A392A4D3ACF3A4F37D
:10E6C600ACD3ACB3AC31A44D9BE989C578037803D0
:10E6D6007803780378038003780378037844788B8B
:10E6E6008AF3A414A514AD14A514A514A514A51491
:10E6F600A514A514A514A514A514A514A514A5144C
:10E70600A514A514A514A514A514A514A514A5143B
:10E71600A514A514A514A514A514A514A514A5142B
:10E72600A514A514A514A514A514A514A514A5141B
:10E73600A514A514A514A514A514AD14A5F3A4CC6D
:10E746009264780378037803800378037803780368
:10E7560078037803782378A57026798881E989C8B3
:10E7660089A8812681A57843780370037802780208
:10E77600780378037803780378037844704A8AB27A
:10E78600AC34AD14A514A514A514A514A514A5148C
:10E79600AD14A514A514A514A514A514A514A514A3
:10E7A600A514A514A514A514A514A514A514A5149B
:10E7B600A514A514A514A514A514A514A514A5148B
:10E7C600A514A514A514A514A514A514A514A5147B
:10E7D600A514A514A514AD14A514A514A514A5D3A4
:10E7E600AC0D93A570037803780378037803780358
:10E7F600780378037803780378037803780378033B
:10E80600780378037803780378037803780378032A
:10E8160078037803780378037844786B8AB2AC146B
:10E82600A514A514A514A514AD14AD14A514A5140A
:10E83600A514A514A514A514A514A514A514A5140A
:10E84600A514A514A514A514A514A514A514A514FA
:10E85600A514A514A514A514A514A514A514A514EA
:10E86600A514A514A514A514A514A514A514A514DA
:10E87600A514A514A513A514AD14A514A514A514C3
:10E88600A5F3AC6E9B0679237803780378037803A7
:10E89600780378037803780378037803780378039A
:10E8A600780378037803780378037803780378038A
:10E8B60078037803780378A578CC92D3AC14A514A2
:10E8C600A514A514A514A514AD14A514A514A51472
:10E8D600A514A514A514A514A514A514A514A5146A
:10E8E600A514A514A514A514A514A514A514A5145A
:10E8F600A514A514A514A514A514A514A514A5144A
:10E90600A514A514A514A514A514A514A514A51439
:10E91600A514A514A514A514A514A514A514A51429
:10E92600A514ADF3AC10A4E98964780378027803E2
:10E9360078037803780378037803780378037803F9
:10E9460078037803780378037803780378037803E9
:10E9560078037823786781AFA3F3A414A514A514CC
:10E96600A514A514A514A514A514A514A514A514D9
:10E97600A514A514A514A514A514A514A514A514C9
:10E98600A514A514A514A514A514A514A514A514B9
:10E99600A514A514A514A514A514A514A514A514A9
:10E9A600A514A514A514A514A514A514A514A51499
:10E9B600A514A514A514A514A514A514A514A51489
:10E9C600A514A514A534A5D3AC4E9B678164780322
:10E9D6007803780378037803780378037803780359
:10E9E6007803780378037803780378037803784408
:10E9F600782679EC9A92ACF4AC14A514A5F4AC1470
:10EA0600A514A514A514A514A514A514A514A51438
:10EA1600A514A514A514A514A514A514A514A51428
:10EA2600A514A514A514A514A514A514A514A51418
:10EA3600A514A514A514A514A514A514A514A51408
:10EA4600A514A514A514A514A514A514A514A514F8
:10EA5600A514A514A514A514A514A514A514A514E8
:10EA6600A514A514A514A514A513AD92AC4E9BC967
:10EA760081A57824780378027803780378037803ED
:10EA86007803780278037803704470A57088810D46
:10EA96009B72AC14AD14A514AD14A514AD14A51435
:10EAA600A514A514A514A514A514A514A514A51498
:10EAB600A514A514A514A514A514A514A514A51488
:10EAC600A514A514A514A514A514A514A514A51478
:10EAD600A514A514A514A514A514A514A514A51468
:10EAE600A514A514A514A514A514A514A514A51458
:10EAF600A514A514A514A514A514A514A514A51448
:10EB0600A514A514A514AD14A514A514A514ADD368
:10EB1600AC31A44D932A8A6881E678C578A47885B5
:10EB260078A578E57847810A8A0D9B10A4B3ACF3E3
:10EB3600AC14A514A534A514A514A514A514A514E0
:10EB4600A514A514A514A514A514A514A514A514F7
:10EB5600A514A514A514A514A514A514A514A514E7
:10EB6600A514A514A514A514A514A514A514A514D7
:10EB7600A514A514A514A514A514A514A514A514C7
:10EB8600A514A514A514A514A514A514A514A514B7
:10EB9600A514A514A514A514A514A514A514A514A7
:10EBA600A514A513A514A514A514A514A514A51498
:10EBB600A514AD14AD13ADD3A492A452A431A431BF
:10EBC600A451A492A4D3ACF3AC14AD14A514A5140B
:10EBD600A514A514A514A515A514A514A514A51466
:10EBE600A514A514A514A514A514A514A514A51457
:10EBF600A514A514A514A514A514A514A514A51447
:10EC0600A514A514A514A514A514A514A514A51436
:10EC1600A514A514A514A514A514A514A514A51426
:10EC2600A514A514A514A514A514A514A514A51416
:10EC3600A514A514A514A514A514A514A514A51406
:10EC4600A514A514AD14AD14AD14A514AD14A514D6
:10EC5600A514A514A514A514A5F4AC14A514A514FF
:10EC6600A514AD14AD14A514A514A514A514A514C6
:10EC7600A514A514A514A514A514A5F4AC14AD14D7
:10EC8600AD14A514A514A514A514A514A514A514AE
:10EC9600A514A514A514A514A514A514A514A514A6
:10ECA600A514A514A514A514A514A514A514A51496
:10ECB600A514A514A514A514A514A514A514A51486
:10ECC600A514A514A514A514A514A514A514A51476
:10ECD600A514A514A514A514A514A514A514A51466
:10ECE600A514A514A514A514AD14A514A514A5144E
:10ECF600A514A514A514A514A514A514A514A51446
:10ED0600A514A514A514A514A514A514A514A51435
:10ED1600A514A514AD14A514A514A514A514A5141D
:10ED2600A514A514A514A514A514A514A514A51415
:10ED3600A514A514A514A514A514A514A514A51405
:10ED4600A514A514A514A514A514A514A514A514F5
:10ED5600A514A514A514A514A514A514A514A514E5
:10EF5600A504000000000000000000000000000002
:10EF6600000000030000000000FE001B000000007F
:10EF76000005001E00000000000000000000001E4A
:10EF8600000000000000000B00000000001000015F
:10EF96000010001D00F00003001E0001001000011B
:10EFA6000010001D00F00003001E0001001000010B
:10EFB60000000000000900000004001C00080022F8
:10EFC60000100042001000FF007F00420010008485
:10EFD60000100000000F00000000000C001C0000E4
:10EFE600002200100022000800220006001C00017A
:10EFF60000C000000020000E0018001100040011DF
:10F00600000200110000000E00000000000B0000CE
:10F0160000000000000E001C001100A2001000C23B
:10F02600001000220011001C000A0000000C000065
:10F03600000C0000001200000000000300000000A9
:10F04600001E000000000000000600000000000096
:10F05600000000E0001F001C0060000200800000AD
:10F066000000000400000000000600C000F8003F99
:10F076000000000000060024000000180000007ECA
:10F086000000001800000024000000000000000935
:10F0960000000000008000000080000000800000EA
:10F0A60000F00007008000000080000000800000E3
:10F0B60000000000000400000000000000600000E6
:10F0C600001800000000000500000001000000011B
:10F0D6000000000100000001000000000004000024
:10F0E60000000000001800000018000000000008E2
:10F0F600000000000000004000000038000000078B
:10F1060000E00000001C00000002000000000000FB
:10F11600000900F8000700040008000200100002C1
:10F12600001000020010000200100004000800F8A1
:10F1360000070000000000090000000000000000B9
:10F1460000000000000000000000000000020000B7
:10F156000002000000FE001F000000000009001869
:10F166000010000400180002001400020012000241
:10F17600001100820010004400100038001000004A
:10F18600000000090008000C000400100002001036
:10F1960000420010004200100044001000B80008B1
:10F1A6000000000700000000000900000002000047
:10F1B6000003008000020060000200100002000848
:10F1C600000200FE001F000000020000000000090F
:10F1D6000000000400700008002E0010002200103D
:10F1E60000220010002200100042000800820007E2
:10F1F600000000000009000000000000000700C039
:10F206000008006000100058001000440010008242
:10F2160000080000000700000000000900000000D0
:10F22600000200100002000C0002000300C20000F1
:10F2360000320000000E0000000200000000000086
:10F246000009000000070098000800640010004252
:10F256000010004200100064001000980008000032
:10F266000007000000000009000000000038000050
:10F27600004400100082000800820004008200039F
:10F286000084000000780000000000000004000078
:10F2960000000030001800300018000000000004D4
:10F2A6000000000000300060003000180000000080
:10F2B600000A0000000000800000008000000040FE
:10F2C60000010020000200200002001000040010CF
:10F2D60000040008000800000000000A000000000A
:10F2E6000020000100200001002000010020000194
:10F2F6000020000100200001002000010020000184
:10F3060000000000000A00000000000800080010CD
:10F31600000400100004002000020020000200404B
:10F3260000010080000000800000000000000008CE
:10F3360000000000000C00000082000100420002F4
:10F346000022001A0022001A009C000100000000A2
:10F35600000E0000000000F0000300080004000496
:10F36600000800C200110022001200120012001252
:10F37600001200E200110012001200040012000840
:10F38600000900F0000400000000000D000000006D
:10F39600000000100000000E008000010060000167
:10F3A600001C000100020001001C000100600001B9
:10F3B600008000010000000E0000001000000000A8
:10F3C6000009000000000000000000FE001F0042CF
:10F3D60000100042001000640010009800080000B1
:10F3E600000700000000000D0000000000F0000310
:10F3F60000080004000400080002001000020010CB
:10F4060000020010000200100002001000040008B4
:10F41600000400080008000400000000000C0000C2
:10F4260000000000000000FE001F000200100002A5
:10F43600001000020010000200100002001000047C
:10F4460000080008000400F00003000000000009A6
:10F45600000000000000000000FE001F0042001037
:10F46600004200100042001000420010004200104E
:10F47600000000000008000000000000000000FE80
:10F48600001F00420000004200000042000000424F
:10F49600000000000000000E0000000000F0000365
:10F4A600000800040004000800020010000200101A
:10F4B60000020010000200100082001000840010FC
:10F4C600008400080088000400800003000000009B
:10F4D600000A000000000000000000FE001F0040BF
:10F4E6000000004000000040000000400000004016
:10F4F600000000FE001F00000000000400000000E5
:10F506000000000000FE001F0000000000070000D1
:10F5160000000000000800000010000000100000BD
:10F52600000800FE000700000000000900000000BF
:10F536000000000000FE001F0060000000900001B7
:10F54600000800020004000C000200100000000089
:10F556000008000000000000000000FE001F000080
:10F566000010000000100000001000000010000055
:10F576000000000F000000000000001C00F800035F
:10F58600000600000038000000C000010000000E68
:10F59600000000100000000E00C00001003800004E
:10F5A6000006000000F800030000001C0000000038
:10F5B600000B000000000000000000FE001F000815
:10F5C6000000003000000040000000800000000045
:10F5D60000030000000400FE001F00000000000EF3
:10F5E6000000000000F0000300080004000400080A
:10F5F60000020010000200100002001000020010BD
:10F6060000020010000200100004000800080004B8
:10F6160000F00003000000000009000000000000E8
:10F62600000000FE001F00420000004200000042F1
:10F636000000002400000018000000000000000E7A
:10F646000000000000F000030008000400040008A9
:10F65600000200100002001000020010000200115B
:10F66600000200120002000C000400080008001648
:10F6760000F0002100000000000A00000000000069
:10F68600000000FE001F0042000000C20000004211
:10F6960000010042000600240008001800100000C7
:10F6A60000000008000000040018000800240010F4
:10F6B6000042001000420010008400080008000705
:10F6C6000000000000080002000000020000000226
:10F6D600000000FE001F0002000000020000000201
:10F6E600000000000000000A00000000000000000A
:10F6F60000FE0007000000080000001000000010D7
:10F70600000000100000000800FE000700000000D6
:10F71600000C00020000001C0000006000000080D9
:10F7260000010000000E000000100000000E008026
:10F73600000100600000001C000000020000000044
:10F746000000000F00000000000600000078000026
:10F756000080000700000018008000070078000005
:10F766000006000000780000008000070000001876
:10F77600008000070078000000060000000000007E
:10F786000009000000000006001800080004003010
:10F79600000300C00000003000030008000400065B
:10F7A600001800000000000B00000000000200002E
:10F7B6000004000000180000006000000080001F28
:10F7C60000600000001800000004000000020000B5
:10F7D600000000000008000200100002001C0002E9
:10F7E600001300C2001000320010000E00100002CC
:10F7F60000100000000000060000000000000000ED
:10F8060000FE00FF000200800002008000000000F1
:10F81600000A00020000000C00000010000000605A
:10F826000000008000010000000600000008000043
:10F83600003000000040000000000005000000004D
:10F84600000200800002008000FE00FF00000000B1
:10F85600000B0000000000000002008000010070A4
:10F866000000000C000000020000000C0000007008
:10F8760000000080000100000002000000000009F6
:10F886000000004000000040000000400000004072
:10F896000000004000000040000000400000004062
:10F8A600000000000005000000000000000000024B
:10F8B60000000004000000000000000B0000000033
:10F8C60000C0000700200008001000100010001003
:10F8D600001000100010001000100010002000089A
:10F8E60000F0001F00000000000B0000000000FEFA
:10F8F600001F00200008001000100010001000106B
:10F90600001000100010001000100020000800C0B9
:10F91600000700000000000A0000000000C0000709
:10F926000020000800100010001000100010001049
:10F936000010001000200008004000040000000035
:10F94600000B0000000000C00007002000080010A7
:10F956000010001000100010001000100010001021
:10F9660000100020000800FE001F00000000000A32
:10F976000000000000C00007002000090010001170
:10F9860000100011001000110010001100200009E5
:10F9960000C0000500000000000600000000001086
:10F9A600000000FC001F0012000000120000000012
:10F9B6000000000B0000000000C0002700200048E7
:10F9C60000100090001000900010009000100090B1
:10F9D600001000900020004800F0003F00000000EA
:10F9E600000A0000000000FE001F002000000010BA
:10F9F60000000010000000100000001000000020B1
:10FA0600000000C0001F000000000003000000000E
:10FA160000F6001F0000000000030000008000F652
:10FA2600007F0000000000080000000000FE001F2C
:10FA360000000001008000020040000400200008D1
:10FA4600001000100000000000030000000000FE8F
:10FA5600001F00000000000F0000000000F0001F63
:10FA66000020000000100000001000000010000040
:10FA76000020000000C0001F002000000010000051
:10FA860000100000001000000020000000C0001F51
:10FA960000000000000A0000000000F0001F002027
:10FAA6000000001000000010000000100000001010
:10FAB60000000020000000C0001F00000000000A37
:10FAC6000000000000C00007002000080010001021
:10FAD6000010001000100010001000100020000898
:10FAE60000C0000700000000000B0000000000F04E
:10FAF60000FF002000080010001000100010001089
:10FB0600001000100010001000100020000800C0B7
:10FB1600000700000000000B0000000000C0000706
:10FB26000020000800100010001000100010001047
:10FB360000100010001000100020000800F000FF68
:10FB46000000000000060000000000F0001F00207A
:10FB56000000001000000010000000000000000679
:10FB66000060000800900010001000110010001145
:10FB76000020000E0000000000070000000000103A
:10FB860000000010000000FE001F00100000001022
:10FB9600000000000000000A0000000000F000075E
:10FBA6000000000800000010000000100000001017
:10FBB600000000100000000800F000070000000030
