:0400000099EF00F084
:100008004282FACF1AF0FBCF1BF0D9CF1CF0DACF1F
:100018001DF09DAC12EF00F014EF00F01FEF00F0A0
:100028009EAC19EF00F01BEF00F01FEF00F0FBECA7
:100038000CF08FEF00F0F2AA24EF00F026EF00F0AA
:1000480031EF00F0F2A42BEF00F02DEF00F031EFCC
:1000580000F0B3EC0CF08FEF00F0F2A836EF00F0F0
:1000680038EF00F043EF00F0F2A23DEF00F03FEF71
:1000780000F043EF00F047EC0EF08FEF00F09DA882
:1000880048EF00F04AEF00F060EF00F09EA84FEF55
:1000980000F051EF00F060EF00F002D85EEF00F0E2
:1000A8000500FA6E0001FA51FD6EFB51FE6EFF6A03
:1000B800FA5012008FEF00F09DAA65EF00F067EF8D
:1000C80000F07DEF00F09EAA6CEF00F06EEF00F0FC
:1000D8007DEF00F002D87BEF00F00500FA6E00011A
:1000E800F851FD6EF951FE6EFF6AFA5012008FEF5B
:1000F80000F09DA082EF00F084EF00F08FEF00F099
:100108009EA089EF00F08BEF00F08FEF00F041EC3C
:100118000CF08FEF00F01DC0DAFF1CC0D9FF1BC028
:10012800FBFF1AC0FAFF4292110040EF0BF0010EDC
:100138001F6E000EA7EC0DF0960ECDEC0CF0EF0E36
:100148001F6E000EA7EC0DF0030E1F6E010EA7EC3C
:100158000DF0800E1F6E010EA7EC0DF0020E1F6E43
:10016800010EA7EC0DF0CF0E1F6E000EA7EC0DF0E0
:10017800000E1F6E010EA7EC0DF0C10E1F6E010ED2
:10018800A7EC0DF0300E1F6E010EA7EC0DF0ED0E72
:100198001F6E000EA7EC0DF0640E1F6E010EA7EC8B
:1001A8000DF0030E1F6E010EA7EC0DF0120E1F6E60
:1001B800010EA7EC0DF0810E1F6E010EA7EC0DF0DD
:1001C800E80E1F6E000EA7EC0DF0850E1F6E010ED7
:1001D800A7EC0DF0000E1F6E010EA7EC0DF0780EC7
:1001E8001F6E010EA7EC0DF0CB0E1F6E000EA7ECD4
:1001F8000DF0390E1F6E010EA7EC0DF02C0E1F6EC0
:10020800010EA7EC0DF0000E1F6E010EA7EC0DF00D
:10021800340E1F6E010EA7EC0DF0020E1F6E010EBC
:10022800A7EC0DF0F70E1F6E000EA7EC0DF0200ED8
:100238001F6E010EA7EC0DF0EA0E1F6E000EA7EC64
:100248000DF0000E1F6E010EA7EC0DF0000E1F6ED4
:10025800010EA7EC0DF0C00E1F6E000EA7EC0DF0FE
:10026800230E1F6E010EA7EC0DF0C10E1F6E000EBF
:10027800A7EC0DF0100E1F6E010EA7EC0DF0C50EC9
:100288001F6E000EA7EC0DF03E0E1F6E010EA7ECC0
:100298000DF0280E1F6E010EA7EC0DF0C70E1F6E95
:1002A800000EA7EC0DF0860E1F6E010EA7EC0DF0E8
:1002B800360E1F6E000EA7EC0DF0480E1F6E010ED5
:1002C800A7EC0DF03A0E1F6E000EA7EC0DF0550EC0
:1002D8001F6E010EA7EC0DF0B10E1F6E000EA7ECFD
:1002E8000DF0000E1F6E010EA7EC0DF0180E1F6E1C
:1002F800010EA7EC0DF0B60E1F6E000EA7EC0DF068
:10030800080E1F6E010EA7EC0DF0820E1F6E010E77
:10031800A7EC0DF0270E1F6E010EA7EC0DF0F20EE4
:100328001F6E000EA7EC0DF0000E1F6E010EA7EC5D
:100338000DF0260E1F6E000EA7EC0DF0010E1F6EBD
:10034800010EA7EC0DF0E00E1F6E000EA7EC0DF0ED
:100358000F0E1F6E010EA7EC0DF0310E1F6E010E71
:10036800A7EC0DF02B0E1F6E010EA7EC0DF00C0E76
:100378001F6E010EA7EC0DF00E0E1F6E010EA7ECFE
:100388000DF0080E1F6E010EA7EC0DF04E0E1F6E3D
:10039800010EA7EC0DF0F10E1F6E010EA7EC0DF08B
:1003A800370E1F6E010EA7EC0DF0070E1F6E010E23
:1003B800A7EC0DF0100E1F6E010EA7EC0DF0030E4A
:1003C8001F6E010EA7EC0DF00E0E1F6E010EA7ECAE
:1003D8000DF0090E1F6E010EA7EC0DF0000E1F6E3A
:1003E800010EA7EC0DF0E10E1F6E000EA7EC0DF04C
:1003F800000E1F6E010EA7EC0DF00E0E1F6E010E03
:10040800A7EC0DF0140E1F6E010EA7EC0DF0030EF5
:100418001F6E010EA7EC0DF0110E1F6E010EA7EC5A
:100428000DF0070E1F6E010EA7EC0DF0310E1F6EBA
:10043800010EA7EC0DF0C10E1F6E010EA7EC0DF01A
:10044800480E1F6E010EA7EC0DF0080E1F6E010E70
:10045800A7EC0DF00F0E1F6E010EA7EC0DF00C0EA1
:100468001F6E010EA7EC0DF0310E1F6E010EA7ECEA
:100478000DF0360E1F6E010EA7EC0DF00F0E1F6E5D
:10048800010EA7EC0DF0110E1F6E000EA7EC0DF07B
:10049800780ECDEC0CF0290E1F6E000EA7EC0DF0B7
:1004A800780ECDEC0CF0000E0001D96F000ED86F5D
:1004B80029EC0AF0120012EC0DF0000E2DEC09F0F8
:1004C8009BEC00F0000E01010E6F520E0D6F000E36
:1004D800106FDC0E0F6F590E116FFF0E126FF80EB2
:1004E800146F1F0E136F000E166F000E156F9DEC24
:1004F80006F0A20E0101066F000E086F320E076F9C
:100508009E0E096FFF0E0A6F39EC07F0000E01010D
:100518000E6F550E0D6F000E106FBE0E0F6FA20EF0
:10052800116F126B070E146FE00E136F000E166F2B
:10053800000E156F9DEC06F0A20E0101066F000E6D
:10054800086F320E076FF50E096FFF0E0A6F39EC50
:1005580007F0000E01010E6F780E0D6F000E106F80
:10056800A50E0F6FA20E116F126BFC0E146F180EF2
:10057800136F000E166F000E156F9DEC06F0A20E9D
:100588000101066F000E086F320E076F230E096F08
:10059800FF0E0A6F39EC07F0000E01010E6F140E02
:1005A8000D6F000E106F8C0E0F6FA20E116F126B75
:1005B800F80E146F000E136F000E166F000E156FF5
:1005C8009DEC06F0A20E0101066F000E086F320EB8
:1005D800076F720E096FFF0E0A6F39EC07F0000EF5
:1005E80001010E6F280E0D6F000E106F780E0F6F41
:1005F800A20E116F126BF80E146F000E136F000E1F
:10060800166F000E156F9DEC06F0A20E0101066F25
:10061800000E086F320E076F880E096FFF0E0A6F03
:1006280039EC07F0000E01010E6F140E0D6F000E6D
:10063800106F5F0E0F6FA20E116F126BFF0E146F0B
:10064800E00E136F000E166F000E156F9DEC06F08E
:10065800A20E0101066F000E086F320E076FD30E4F
:10066800096FFF0E0A6F39EC07F0000E01010E6FDB
:100678005A0E0D6F000E106F4B0E0F6FA20E116FFA
:10068800126BFF0E146FE00E136F000E166F000E44
:10069800156F9DEC06F0F28EF28CF28C100E1E6E29
:1006A8001C0E1F6E24EC0EF0B80E1E6E150E1F6E7B
:1006B80042EC0EF01E0E1E6E1C0E1F6E1FEC0EF08E
:1006C80055EC0EF0300E1E6E190E1F6E1AEC0EF061
:1006D80053EC0EF0C80E0101066FFE0E076F3CECDE
:1006E8000DF0010E0001A16F0001A151D8A47FEF08
:1006F80003F081EF03F087EF03F051EC0EF08A98D6
:100708008A868AEF03F053EC0EF08A960001A05116
:10071800D8B491EF03F093EF03F096EF03F08A8AD1
:1007280097EF03F08A9AFE51D8B49DEF03F09FEF3C
:1007380003F0A4EF03F0C1EC04F0000E0001FE6F1B
:100748007BEC08F078EF03F099EF00F0000E000161
:10075800E26F000EE16FDB51D96EDA6ADECFF6FF89
:10076800DDCFF7FFF86A0800F550250AD8A4BFEFD7
:1007780003F0C1EF03F0A3EF04F0DB51D96EDA6A9E
:10078800DE2A000EDD22000E276E000E266E26C021
:1007980032F028682968DB51D96EDA6ADECFE3F0D7
:1007A800DDCFE4F0E3C0F6FFE4C0F7FFF86A080025
:1007B800F550640AD8B4E3EF03F0E5EF03F0F4EF83
:1007C80003F0E3C0F6FFE4C0F7FFF86A0800F5504D
:1007D800690AD8A4F2EF03F0F4EF03F097EF04F0FE
:1007E800DCC0D9FFDDC0DAFFDFCFDEF0020EDE2687
:1007F800DFCFDFF0000EDD22DEC0D9FFDFC0DAFF79
:10080800DECFE5F0DDCFE6F0010EE325DE6F000E6A
:10081800E421DF6FDB51D96EDA6ADEC0DEFFDFC0AC
:10082800DDFF200EE96FE6BF1CEF04F01FEF04F0B8
:10083800010E20EF04F0000EE06FE907E951600FA8
:10084800D96EDA6AE5C01EF0E6C01FF0000E216E10
:100858000A0E206ED5EC08F01EC0D4F01FC0D5F0EB
:100868007DEC0CF00001D451300FDF6EE5C01EF0B6
:10087800E6C01FF0000E216E0A0E206EB9EC07F0DC
:100888001EC0E5F01FC0E6F00001E14BE22BE55188
:10089800E611D8B452EF04F054EF04F05CEF04F022
:1008A800E951D8A45AEF04F05CEF04F021EF04F00A
:1008B800E951D8B462EF04F064EF04F088EF04F073
:1008C800E051D8B46AEF04F06CEF04F088EF04F05C
:1008D800E907E951600FD96EDA6A2D0EDF6EE14B38
:1008E800E22B88EF04F0E951600FD96EDA6ADF5025
:1008F800DE6FDE51206E216AD9C022F0DAC023F003
:100908001CEC08F00001E92B200EE919D8A48FEFA0
:1009180004F091EF04F077EF04F0E1C0D9F0E2C001
:10092800DAF0C0EF04F0DB51D96EDA6ADE2A000E85
:10093800DD22000EDA6F000ED96FC0EF04F0DB5134
:10094800D96EDA6ADECFF6FFDDCFF7FFF86A080066
:10095800F550206E216AD9C022F0DAC023F01CECD1
:1009680008F00001DB51D96EDA6ADE2A000EDD22BA
:10097800000EDA6F010ED96F12009FEF05F00C0E12
:1009880069EC0BF0B10E0101066FFF0E076F3CEC2E
:100998000DF0060E0101066FFF0E076F3CEC0DF01F
:1009A800590E0101066FFE0E076F3CEC0DF0B10EFB
:1009B8000101066FFD0E076F3CEC0DF0320E0101D0
:1009C800066FFE0E076F3CEC0DF0E10E0101066F9D
:1009D800FD0E076F3CEC0DF0E70E0101066FFE0EF1
:1009E800076F3CEC0DF0EB0E0101066FFF0E076F71
:1009F8003CEC0DF0300E0001FF6FC6EF05F00C0E59
:100A080069EC0BF03F0E0101066FFF0E076F3CEC1F
:100A18000DF0E70E0101066FFE0E076F3CEC0DF0BE
:100A2800EB0E0101066FFF0E076F3CEC0DF0000E98
:100A38000001A06FFEEF04F00C0E69EC0BF0800EC5
:100A48000101066FFE0E076F3CEC0DF0010E000170
:100A5800A16FE70E0101066FFE0E076F3CEC0DF06B
:100A6800EB0E0101066FFF0E076F3CEC0DF0FEEF79
:100A780004F00C0E69EC0BF0A50E0101066FFE0EDA
:100A8800076F9EC008F19FC009F13CEC0DF0E00E25
:100A98000101066FFF0E076F2EC008F12FC009F184
:100AA8003CEC0DF0E70E0101066FFE0E076F3CEC03
:100AB8000DF0EB0E0101066FFF0E076F3CEC0DF019
:100AC800FEEF04F00C0E69EC0BF0E70E0101066F67
:100AD800FE0E076F3CEC0DF0EB0E0101066FFF0EEA
:100AE800076F3CEC0DF0FEEF04F00C0E69EC0BF018
:100AF800E70E0101066FFE0E076F3CEC0DF0EB0EE2
:100B08000101066FFF0E076F3CEC0DF0FEEF04F0DD
:100B18000C0E69EC0BF0C20E0101066FFF0E076F99
:100B28003CEC0DF00A0E0101066FFE0E076F3CEC5F
:100B38000DF0FEEF04F00001FF5101010A6F0B6B8D
:100B48000B51000AD8B4ABEF05F08CEF05F00A5151
:100B5800300AD8B4C3EF04F0010AD8B403EF05F0A3
:100B6800030AD8B420EF05F0010AD8B43DEF05F028
:100B7800070AD8B466EF05F0010AD8B479EF05F092
:100B88008CEF05F01200000E0001E26F7FEF06F017
:100B9800D8900001DC35F66EDD35F76ED50EF626F9
:100BA800EF0EF722F86A000EF8220900F5CF00F1DF
:100BB8000900F5CF01F1E2510101005F000E015B70
:100BC8000001D851010100250001D46FD95101015C
:100BD80001210001D56FDAC0D6F0DBC0D7F020ECD8
:100BE8000CF0000E0001E36F000EE46FE25101010A
:100BF800006F016BD89000370137D8900001DC35C1
:100C0800F66EDD35F76ED50EF626EF0EF722F86A8A
:100C1800000EF8220900F5CF02F10900F5CF03F123
:100C2800D8900101023703370051025D046F01516A
:100C38000359056F0001E3510101045F000E055BD4
:100C48000001DC51010104270001DD5101010523E8
:100C5800D89004370537D50E0425F66EEF0E05211A
:100C6800F76EF86A000EF8220900F5CF06F10900C0
:100C7800F5CF07F1E4C008F1800E096F000E0A6F86
:100C8800082B4AEF06F00A350A330933082F47EFD5
:100C980006F00101065109150B6F07510A150C6F73
:100CA8000B510C11D8B45BEF06F05DEF06F065EF61
:100CB80006F0DEC021F0DFC022F0BFEC0DF06BEFD4
:100CC80006F0E0C021F0E1C022F0BFEC0DF0000119
:100CD800E42B070EE46573EF06F075EF06F0FAEF04
:100CE80005F0E32B010EE3657CEF06F07EEF06F0DE
:100CF800F8EF05F0E22BD890DC35F66EDD35F76EAF
:100D0800D50EF626EF0EF722F86A000EF822E25109
:100D18000101006F016B0900F550005D0900F550F5
:100D28000159D8A09AEF06F09CEF06F0CCEF05F039
:100D380012001FEF07F0000E0001EB6F000EEA6FC4
:100D4800000EE96F000EE86FC9EF06F0D890EA359B
:100D5800F66EEB35F76ED50EF626EF0EF722F86A2B
:100D6800000EF8220900F5CFE5F00900F5CFE6F00E
:100D7800D890E537E637010EE527000EE623E55162
:100D8800EA27E651EB23E84BE92B11C1F6FF12C124
:100D9800F7FF000EF86E0F0EF76403D00800F55049
:100DA80005D0F6CFE1FFF7CFE2FFE7500001E56F8E
:100DB800E00EE525E66FE76BFF0EE723E651E85DF9
:100DC800E751E959D8A0EBEF06F0EDEF06F0AAEFEE
:100DD80006F00DC1D8F00EC1D9F00FC1DAF010C17C
:100DE800DBF0EAC0DCF0EBC0DDF013C1DEF014C1CB
:100DF800DFF015C1E0F016C1E1F0C7EC05F0D890BE
:100E08000001EA35F66EEB35F76ED50EF626EF0ED5
:100E1800F722F86A000EF8220900F5CFE5F009007C
:100E2800F5CFE6F0E55101010D270001E65101017A
:100E38000E23114B122B11C1F6FF12C1F7FF000E42
:100E4800F86E0F0EF76403D00800F55005D0F6CF02
:100E5800E1FFF7CFE2FFE7500009D8A436EF07F02B
:100E680038EF07F09FEF06F01200800E0101085DD1
:100E7800D8A041EF07F043EF07F04AEF07F0000E64
:100E880000019D6F4B0E9C6FB8EF07F00B0E106FB3
:100E9800010E116F06C114F1085109E1020E075D38
:100EA800D8A059EF07F05BEF07F067EF07F0FF0EE8
:100EB80007251E6FFF0E08211F6F000E186F000E0A
:100EC800176F6FEF07F0000E1F6F010E1E6F000EF9
:100ED800186F010E176F140E006F010E016F09C114
:100EE80002F10AC103F1100E046F010E056F10EC38
:100EF8000BF000C112F101C113F1010107510811F2
:100F0800D8B489EF07F08BEF07F0B8EF07F013BFFD
:100F180090EF07F092EF07F0B8EF07F0FF0E072504
:100F28000B6FFF0E08210C6F0B51125D1351800AD5
:100F38000D6F0C51800A0D59D8A0A5EF07F0A7EF47
:100F480007F0AFEF07F0FF0E07250E6FFF0E082121
:100F58000F6FB3EF07F012C10EF113C10FF1065175
:100F68000E25D96EDA6ADF6A1200000E0001D56F0D
:100F780021BEC3EF07F0C1EF07F0C9EF07F0206CFF
:100F8800211ED8B0212A010ED56F1FBED0EF07F061
:100F9800CEEF07F0D6EF07F01E6C1F1ED8B01F2A41
:100FA800010ED51B000ED76F000ED66F20502110F2
:100FB800D8B4E1EF07F0E3EF07F00BEF08F0010E0C
:100FC800D46FEBEF07F0D89020362136D42B21AE22
:100FD800F0EF07F0F2EF07F0E7EF07F0D890D63719
:100FE800D73720501E5C21501F58D8A0FEEF07F0BD
:100FF80000EF08F005EF08F020501E5E21501F5A40
:10100800D681D89021322032D42FF2EF07F0D55173
:10101800D8B411EF08F013EF08F017EF08F0D66D09
:10102800D71FD8B0D72BD6C01EF0D7C01FF01200DC
:1010380022502310D8B423EF08F025EF08F02EEF44
:1010480008F022502310D8A42CEF08F02EEF08F057
:1010580033EF08F0205015EC0EF07AEF08F020EE90
:101068000AF02250D9262350DA22DE50DE10D8B4F6
:1010780040EF08F042EF08F05EEF08F020EE0AF0CB
:101088002250D9262350DA2210EE03F02250E1260E
:101098002350E222DE50E65CE650800A0001D86F59
:1010A800DE50800AD859D8B05CEF08F05EEF08F03F
:1010B8007AEF08F020EE03F02250D9262350DA22E6
:1010C800DF500001D46F22C0D9FF23C0DAFFDF5000
:1010D800D425D96EDA6A20C0DFFF20EE03F0225053
:1010E800D9262350DA22DE2A000EDD221200CAECAD
:1010F8000DF00009D8B483EF08F085EF08F0D4EFBD
:1011080008F0DAEC0BF0356E355069EC0BF09BEF1C
:1011180008F0010E0001FE6F35C0FFF0D4EF08F0B3
:10112800000E0001FE6F300EFF6FD4EF08F035504F
:101138001F6E206A2050000AD8B4A5EF08F094EF7B
:1011480008F01F500D0AD8B48DEF08F03D0AD8B446
:101158008DEF08F0010AD8B48DEF08F0030AD8B46F
:101168008DEF08F0010AD8B48DEF08F0070AD8B45B
:101178008DEF08F0010AD8B48DEF08F0030AD8B44F
:101188008DEF08F0010AD8B48DEF08F00F0AD8B433
:101198008DEF08F0010AD8B48DEF08F094EF08F04D
:1011A8001200000E236E1FBEDEEF08F0DCEF08F021
:1011B800E4EF08F01E6C1F1ED8B01F2A010E236E24
:1011C80021BEEBEF08F0E9EF08F0EFEF08F0206C34
:1011D800211ED8B0212A20502110D8B4F6EF08F0EB
:1011E800F8EF08F01CEF09F0010E226E00EF09F08D
:1011F800D89020362136222A21AE05EF09F007EFD4
:1012080009F0FCEF08F020501E5C21501F58D8A0B0
:1012180010EF09F012EF09F016EF09F020501E5EEA
:1012280021501F5AD89021322032222E07EF09F080
:101238002350D8B422EF09F024EF09F028EF09F081
:101248001E6C1F1ED8B01F2A1EC01EF01FC01FF024
:1012580012001F6E6CBA33EF09F035EF09F081EF19
:1012680009F01F50040D010EF326000EF422AD0EF6
:10127800F324F66EFD0EF420F76EF86A000EF822DD
:101288000800F5CF6DFF1F50040DAD0EF324F66E68
:10129800FD0EF420F76EF86A000EF8220800F5CF6C
:1012A8006CFF000E6B6E1F50040D020EF326000E2D
:1012B800F422AD0EF324F66EFD0EF420F76EF86AF4
:1012C800000EF8220800F5CF6EFF1F50040D030E24
:1012D800F326000EF422AD0EF324F66EFD0EF42074
:1012E800F76EF86A000EF8220800F5CF1EF0955048
:1012F8001E18FE0B1E18956E6C8A12003A50800F4D
:10130800D96EDA6ADF6AABA48CEF09F08EEF09F0C8
:10131800A0EF09F03A50800FD96EDA6A0001DF8237
:1013280002D8A0EF09F00500FA6EF651FD6EF751EC
:10133800FE6EFF6AFA501200ABA2A5EF09F0A7EF04
:1013480009F0B9EF09F03A50800FD96EDA6A000156
:10135800DF8402D8B9EF09F00500FA6EF451FD6E8A
:10136800F551FE6EFF6AFA5012003A50800FD96E9E
:10137800DA6ADF50D8B4C3EF09F0C5EF09F0D4EF4B
:1013880009F002D8D2EF09F00500FA6E0001F25117
:10139800FD6EF351FE6EFF6AFA501200D6EF09F0A7
:1013A80064EC0DF01200000E156E000E166E000EA5
:1013B800176E000E186E1150121013101410D8B4B6
:1013C800E8EF09F0EAEF09F020EF0AF0010E196ED4
:1013D800F4EF09F0D8901136123613361436192A5C
:1013E80014AEF9EF09F0FBEF09F0EEEF09F0D89031
:1013F800153616361736183611500D5C12500E5821
:1014080013500F5814501058D8A00DEF0AF00FEFD2
:101418000AF018EF0AF011500D5E12500E5A1350D0
:101428000F5A1450105A1580D890143213321232B1
:101438001132192EFBEF09F015C00DF016C00EF091
:1014480017C00FF018C010F01200010E0001DD6F78
:10145800400EDC6F000EDB6FF00EDA6F000ED56FFA
:10146800000ED46F000ED76F000ED66F20EC0CF074
:101478000009D8B442EF0AF044EF0AF05EEF0AF030
:101488006CEF0AF0D8C021F0D9C022F0BFEC0DF003
:101498000001DC07D8A0DD07DC2906E1DD29D8A496
:1014A80058EF0AF05AEF0AF046EF0AF0010EDD6F26
:1014B800400EDC6F0001DA07D8A0DB07DA2906E165
:1014C800DB29D8A46AEF0AF06CEF0AF04CEF0AF0B7
:1014D80012009D9A040E1E6E130E1F6E2EEC0EF057
:1014E8009D98BE0E1E6E180E1F6E29EC0EF0080E8B
:1014F800B86E900EAB6E240EAC6ECF0EAF6E000EB3
:10150800B06EBC0E1E6E1C0E1F6E38EC0EF0960EE2
:101518001E6E1C0E1F6E33EC0EF09C0E1E6E1C0E03
:101528001F6E3DEC0EF0000E376E000E3D6E000E85
:101538003C6E080E3B6E000E3A6E000E396E000EC1
:10154800386E9D8A1200000E096E000E0A6E000E9B
:101558000B6E000E0C6E01A0B4EF0AF0B6EF0AF0A5
:10156800BEEF0AF00550092606500A2207500B2242
:1015780008500C22D8900536063607360836D8901B
:1015880004320332023201320150021003100410F7
:10159800D8A4D1EF0AF0D3EF0AF0AFEF0AF009C0F0
:1015A80001F00AC002F00BC003F00CC004F01200F6
:1015B800000EB3EC0DF0DFEC0DF001C02EF002C010
:1015C8002FF02EC001F02FC002F0036A046A640EE7
:1015D800056E000E066E000E076E000E086EA7EC74
:1015E8000AF001C00DF002C00EF003C00FF004C0F5
:1015F80010F0FF0E116E030E126E000E136E000E29
:10160800146ED7EC09F00DC09EF00EC09FF09EC07E
:101618009EF09FC09FF0120002C1EAF003C1EBF0F8
:10162800000E256E000E246E2CEF0BF000C1D9F0D1
:1016380001C1DAF0EA0E0001DB6F04C1DCF005C17C
:10164800DDF0AAEC03F00001D9512426DA51252255
:10165800EAC0F6FFEBC0F7FFF86A0800F55000098A
:10166800D8A439EF0BF03BEF0BF01AEF0BF024C0C6
:1016780000F125C001F11200B40EF66E1C0EF76ED3
:10168800000EF86E0900F5CFFEF00900F5CFFFF067
:10169800B20EF66E1C0EF76E000EF86E0900F5CF4E
:1016A80040F00900F5CF41F000EE60F0740EEE6AEC
:1016B800E806FDE100EE24F01A0EEE6AE806FDE108
:1016C8004290429200015FEF02F01E6E3B50D8B488
:1016D80070EF0BF072EF0BF06AEF0BF09DB877EF3D
:1016E8000BF079EF0BF07DEF0BF01EC0ADFF90EF24
:1016F8000BF09D983D50900FD96EDA6A1EC0DFFF3F
:101708003D2A070E3D648BEF0BF08DEF0BF08FEF4A
:101718000BF0000E3D6E3B069D881200225009E139
:10172800F00E215CD8A09BEF0BF09DEF0BF0A0EF23
:101738000BF0010EB5EF0BF02A0E1F6E000EA7EC92
:101748000DF022501F6E010EA7EC0DF021C01FF006
:10175800010EA7EC0DF02C0E1F6E000EA7EC0DF07D
:10176800000E1200400E215C010E2258D8A0BFEFD7
:101778000BF0C1EF0BF0C4EF0BF0010ED9EF0BF03B
:101788002B0E1F6E000EA7EC0DF022501F6E010EDF
:10179800A7EC0DF021C01FF0010EA7EC0DF02C0EE8
:1017A8001F6E000EA7EC0DF0000E12003850D8B4D2
:1017B800E0EF0BF0E2EF0BF0DAEF0BF03950800FAF
:1017C800D96EDA6ADF50376E3950880FD96EDA6A07
:1017D800DF501E6E392A070E3964F5EF0BF0F7EF6C
:1017E8000BF0F9EF0BF0000E396E9D9A38069D8AC2
:1017F8001E501200000E8D6E000E8C6E000E896E4B
:10180800000E8A6E000E8B6E040E966EBF0E926EE0
:10181800C70E936E9F0E946E9568000E0F013B6F76
:10182800300E3A6F060E396F070E3C6F2F0E386F69
:10183800000E616EF19E1200D4C021F0D5C022F0D6
:10184800B6EC0BF00009D8A42CEF0CF02EEF0CF03E
:101858003CEF0CF0D6C021F0D7C022F092EC0BF090
:101868000009D8B43AEF0CF03CEF0CF03FEF0CF065
:10187800010E40EF0CF0000E12009E9030C001F0F7
:1018880031C002F050EC0DF00001EE51EF11D8B468
:1018980050EF0CF052EF0CF05EEF0CF002D85EEF58
:1018A8000CF00500FA6EEE51FD6EEF51FE6EFF6A08
:1018B800FA5012001200080E3B6065EF0CF067EF5B
:1018C8000CF07BEF0CF03C50900FD96EDA6ADF50C9
:1018D800AD6E3C2A070E3C6474EF0CF076EF0CF00A
:1018E80078EF0CF0000E3C6E3B2A7CEF0CF09D98D4
:1018F80012000001D5BF83EF0CF085EF0CF08BEFE1
:101908000CF0D4C0D4F0D5C0D5F097EF0CF0D4C00B
:10191800D6F0D5C0D7F0D61FD71FD64BD72BD6C0F9
:10192800D4F0D7C0D5F012000001A151D8B49FEF70
:101938000CF0A1EF0CF0B2EF0CF08AB8A6EF0CF0A7
:10194800A9EF0CF0010EAAEF0CF0000EFF0A016ED1
:10195800013A8A500118EF0B01188A6E1200F294AE
:1019680036C0D6FF0001F051F111D8B4BEEF0CF02B
:10197800C0EF0CF0CCEF0CF002D8CCEF0CF0050067
:10198800FA6EF051FD6EF151FE6EFF6AFA501200C8
:1019980012001F6E000E206EDAEF0CF0030E1E6EA2
:1019A800980EE82EFED71E2EFCD7202A1F50205C4A
:1019B800D8A0E1EF0CF0E3EF0CF0D2EF0CF012003E
:1019C8000001FC51FD11D8B4ECEF0CF0EEEF0CF077
:1019D800FAEF0CF002D8FAEF0CF00500FA6EFC51A1
:1019E800FD6EFD51FE6EFF6AFA50120012009E9CB9
:1019F8003E503F10D8B403EF0DF005EF0DF011EF96
:101A08000DF002D811EF0DF00500FA6E3E50FD6E94
:101A18003F50FE6EFF6AFA501200120001EC0EF001
:101A2800E9EC0DF0FEEC0BF0FAEC0DF077EC0DF0B4
:101A3800F2EC0DF027EC0DF0D5EC0DF089EC0DF083
:101A48006DEC0AF01200000ECC6E0B0ECF6EDC0EA1
:101A5800CE6ECECF30F0CFCF31F09E909D80B60EB7
:101A68001E6E1C0E1F6E1AEC0EF0310ECD6E12009B
:101A7800080E0001EC6F010EED6F000E0101006F02
:101A8800000E016F06C102F107C103F1EC0E046FED
:101A9800056B10EC0BF01200CDA455EF0DF057EFCD
:101AA8000DF05FEF0DF0CD900250CF6E01C0CEFF6C
:101AB800CD8063EF0DF00250CF6E01C0CEFF120053
:101AC8003A50880FD96EDA6AAECFDFFF3A2A070E8E
:101AD8003A6471EF0DF073EF0DF075EF0DF0000E35
:101AE8003A6E382A1200010EC26E000EC16E8C0EBC
:101AF800C06E000EC36E000EC46E9D8CBE0E1E6EB0
:101B08001C0E1F6E42EC0EF01200000ED76E3D0E3A
:101B1800D66E3D0E366EF294F28AB80E1E6E1C0E0C
:101B28001F6E1FEC0EF0570ED56E12001E6E1EC0F3
:101B38006FFFA4AEA2EF0DF0A4EF0DF09DEF0DF036
:101B4800A49E6F501200206E20B002D08D9001D05C
:101B58008D808D921F509AEC0DF08D821200026ECE
:101B680002C001F001460146C2500118830B01185A
:101B7800C26EC280120022501F6E010EA7EC0DF03B
:101B880021C01FF0010EA7EC0DF012003850D8A4A8
:101B9800D0EF0DF0D3EF0DF0010ED4EF0DF0000EE5
:101BA8001200F292F19CBA0E1E6E1C0E1F6E24ECEF
:101BB8000EF0F2881200C450046E036AC350032466
:101BC800016E000E0420026E1200400E6D6E000EB3
:101BD8006C6E010E6E6E95906C9A1200000E0F01DD
:101BE800546F000E556F000E566F1200300ED36EF4
:101BF800040ED26E000E9B6E1200D08E9F8CF18464
:101C08009F889F8A9F801200000E0001A06F000E1F
:101C1800A16FF2921200000EB3EC0DF057EC0EF02B
:101C280012001F6E1F5069EC0BF012001EC0EEF080
:101C38001FC0EFF012001EC0F0F01FC0F1F012003C
:101C48001EC0FCF01FC0FDF012001EC0FAF01FC03D
:101C5800FBF012001EC0F8F01FC0F9F012001EC001
:101C6800F4F01FC0F5F012001EC0F6F01FC0F7F028
:101C780012001EC0F2F01FC0F3F012001EC03EF0AA
:101C88001FC03FF01200F292E4EC0CF01200AB9887
:101C9800AB88120064EC0DF01200CD901200CD80DC
:101CA8001200D58E1200C2821200120001301200FA
:081CB8001200120012001200DC
:10D094000014A514A514A514A514A514A514A51469
:10D0A400A514A514A514AD14A514A514A514A514AC
:10D0B400A514A514ADF4ACD3AC92AC52A431A41114
:10D0C400A452A472A4D3ACF4AC14AD14AD14A5143E
:10D0D400A514A514A514A514A514A514A514A51484
:10D0E400A514A514A514A514A514A514A514A51474
:10D0F400A514A514A514A514A514A514A514A51464
:10D10400A514A514A514A514A514A514A514A51453
:10D11400A514A514A514A514A514A514A514A51443
:10D12400A514A514A514A514A514A514A514A51433
:10D13400A514A514A514A514A514A514A514A51423
:10D14400A514A514A514A514A514A514A514ADD34C
:10D15400AC31A44E9B6B8A88812679E678A578A5A4
:10D1640078C578067988814A8A0D93F0A3B3AC1404
:10D17400A514A514A514A514A514A514A514A514E3
:10D18400A514A514A514A514A514A514A514A514D3
:10D19400A514A514A514A514A514A514A514A514C3
:10D1A400A514A514A514A514A514A514A514A514B3
:10D1B400A514A514A514A514A514A514A514A514A3
:10D1C400A514A514A514A514A514A514A514A51493
:10D1D400A514A514A514A514A514A514A514AD147B
:10D1E400A514A514A514A514A514ADB2AC8E9B0961
:10D1F40082C6784478037803780378037803780345
:10D204007803780378037802784378C578A8810D89
:10D214009B72AC13AD14A514A534A514A515A514BF
:10D22400A514A514A514A514A514A514A514A51432
:10D23400A514A514A514A514A514A514A514A51422
:10D24400A514A514A514A514A514A514A514A51412
:10D25400A514A514A514A514A514A514A514A51402
:10D26400A514A514A514A514A514A514A514A514F2
:10D27400A514A514A514A514A514A514A514A514E2
:10D28400A534A514AD14ADD3A44E9B678164780373
:10D2940078037803780378037803780378037803B2
:10D2A400780378037803780378027002780378446B
:10D2B400702679EC9292A413A514A514A514A514B0
:10D2C400A514A514A514A514A514A514A514A51492
:10D2D400A514A514A514A514A514A514A514A51482
:10D2E400A514A514A514A514A514A514A514A51472
:10D2F400A514A514A514A514A514A514A514A51462
:10D30400A514A514A514A514A514A514A514A51451
:10D31400A514A514A514A514A514A514A514A51441
:10D32400A514A513AD30A4098A647803780378039F
:10D334007803780378037803780378037803780311
:10D344007803780378037803780378037803780301
:10D354007803784370A881CFA3F3A413A514A5146C
:10D36400A514A514A514A514A514A514A514A514F1
:10D37400A514A514A514A514A514A514A514A514E1
:10D38400A514A514A514A514A514A514A514A514D1
:10D39400A514A514A514A514A514A514A514A514C1
:10D3A400A514A514A514A514A514A514A514A514B1
:10D3B400A514A514A514A514A514A514A514A514A1
:10D3C400A5F3AC8E9B26792378037803780378033E
:10D3D4007803780378037803780378037803780371
:10D3E4007803780378037803780378037803780361
:10D3F40078037803780378C578ED92D3AC14A51438
:10D40400A514A514A514A514A514A514A514A51450
:10D41400A514A514A514A514A514A514A514A51440
:10D42400A514A514A514A514A514A514A514A51430
:10D43400A514A514A514A514A514A514A514A51420
:10D44400A514A514A514A514A514A514A514A51410
:10D45400A514A514A514A514A514A514A514A5D341
:10D46400A40D93A5700378037803780378037803F5
:10D4740078037803780378037803780378037803D0
:10D4840078037803780378037803780378037803C0
:10D4940078037803780378037864786B8AB2A414E9
:10D4A400A514A514A514A514A514A514A514A514B0
:10D4B400A514A514A514A514A514A514A514A514A0
:10D4C400A514A514A514A514A514A514A514A51490
:10D4D400A514A514A514A514A514A514A514A51480
:10D4E400A514A514A514A514A514A514A514A51470
:10D4F400A514A514A514A514A514A514A5D3ACECC2
:10D504009A8478037803780378037803780378039C
:10D5140078037802782378857806798881E989E91F
:10D5240081A8814781C57843780378037803780319
:10D53400780378037803780378037844786B92B39C
:10D54400AC14A514A514A514A514A514A514A51408
:10D55400A514A514A514A514A514A514A514A514FF
:10D56400A514A514A514A514A514A514A514A514EF
:10D57400A514A514A514A514A514A514A514A514DF
:10D58400A514A514A514A514A514A514A514A514CF
:10D59400A514A514A514A514A514A5F4AC4E9B8438
:10D5A400780378037803780378037803780378039F
:10D5B4007864788881EC92F0A392A4D3ACF3ACF3B2
:10D5C400A4D3AC92AC11A42E9BC9898578037803AB
:10D5D4007803780378037803780378037844788CA5
:10D5E40092F3AC14A514A514A514AD14A514A51494
:10D5F400A514A514A514A514A514A514A514A5145F
:10D60400A514A514A514A514A514A514A514A5144E
:10D61400A514A514A514A514A514A514A514A5143E
:10D62400A514A514A514A514A514A514A514A5142E
:10D63400A514A514A514A514A513ADF0A3C67803C9
:10D644007803780378037803780378037843788839
:10D65400818F9BB3ACF4AC14A514A514A514A51424
:10D66400A514A514A514A514ADD3ACF0A309826424
:10D674007003780378037803780378037803788455
:10D68400702D9B14A514A5F4A414A514A514A51415
:10D69400A514A514A514A514A514A514A514A514BE
:10D6A400A514A514A514A514A514A514A514A514AE
:10D6B400A514A514A514A514A514A514A514A5149E
:10D6C400A514A514A514A514A514A514A514A5148E
:10D6D400A513A514A514A514A592A4A881237803C1
:10D6E4007803780378037803780378A578AC92B24A
:10D6F400AC14A514A514AD14A514A514A514A5144F
:10D70400A514A514A514AD14A514A514ADD3AC4E3D
:10D714009B067923780378027803800378037802E0
:10D7240078E67810A414AD14A514A514A514A514B2
:10D73400A514A514A514A514A514A514A514A5141D
:10D74400A514A514A514A514A514A514A514A5140D
:10D75400A514A514A514A514A514A514A514A514FD
:10D76400A514A514A514A514A514A514A514A514ED
:10D77400A514A514A514A5F3ACCC922378037803BF
:10D78400780378037803780378E5788E9BF3AC14F8
:10D79400A514A514A514A513A514A514AD14AD14AE
:10D7A400AD14A514A513A514A534A515A5F4ACF3BF
:10D7B400ACF0A347810378038003780378037803EC
:10D7C400784370298AD3AC14A514A5F4AC14A51419
:10D7D400A514A514A514A514A514A514A514A5147D
:10D7E400A514A514A514A514A514A514A514A5146D
:10D7F400A514A514A514A514A514A514A514A5145D
:10D80400A514A514A514A514A514A514A514A5144C
:10D81400A514A514A5F4AC31AC06790378027803F9
:10D8240078037803780378A5788F9B14A514A5143E
:10D83400AD14A514A514A514A514A514A514A51414
:10D84400A514A514A514A514A514A5F4AC14A51425
:10D85400A514AD10A4277903700378037803780323
:10D8640078027884788F9B13AD14A514A514A5149D
:10D87400A514A514A514A514A514A514A514A514DC
:10D88400A514A514A514A514A514A514A514A514CC
:10D89400A514A514A514A514A514A514A514A514BC
:10D8A400A514A514A514A514A514A514A514A514AC
:10D8B400A514A514A5F4ACAB9223700378037803E4
:10D8C400780378037864780D9BF3AC14A514A5143D
:10D8D400A514A514A514A514A514A514A514A5147C
:10D8E400A514A514A514A514AD14A514A514A51464
:10D8F400A514A514ADAFA3C5780378037803780302
:10D904007802780378E989D3AC14A514A514A51476
:10D91400A514A514A514A514A514A514A514A5143B
:10D92400A514A514A514A514A514A514A514A5142B
:10D93400A514A514A514A514A514A514A514A5141B
:10D94400A514A514A514A514A514A514A514A5140B
:10D95400A514A514A592A406790278037803780384
:10D9640078037823780A8AD3AC14A514A534A514B3
:10D97400A514A514A514AD14AD14A514A514A514CB
:10D98400A514A514A514A514A514A514A514A514CB
:10D99400A514A514A5F3ACCC9243700380037803BB
:10D9A4007803780278857810A414A514A514A51416
:10D9B400A514A514A514A514A514A514A514A5149B
:10D9C400A514A514A514A514A514A514A514A5148B
:10D9D400A514A514A514A514A514A514A514A5147B
:10D9E400A514A514A514A514A514A514A514A5146B
:10D9F400A514A514AD6E9B447803780378037803CB
:10DA0400780378C57811A414AD14A514A514A5142D
:10DA1400AD14A514A514A514A514A514A514A51432
:10DA2400A514A514A514A514A514A514A514A5142A
:10DA3400A514A514A514A592AC67810378037803F3
:10DA440078038002782370AC8A14AD14A514AD1445
:10DA5400A514A514A514A514A514A514A514A514FA
:10DA6400A514A514A514A514A514A514A514A514EA
:10DA7400A514A514A514A514A514A514A514A514DA
:10DA8400A514A514A514A514A514A514A514A514CA
:10DA9400A515A5F3AC2A8A237803780378037803C1
:10DAA4007803786B8AF3AC14A514AD14A514A514EB
:10DAB400A514AD14A514A514A514A514A514A51492
:10DAC400A514A514A514A514A514A514A514A5148A
:10DAD400A514A514A514A514AD2E9B4470037803B6
:10DAE400780378037803786781B2AC14AD14A51475
:10DAF400A514A514A514A514A514A514A514A5145A
:10DB0400A514A514A514A514A514A514A514A51449
:10DB1400A514A514A514A514A514A514A514A51439
:10DB2400A514A514A514A514A514A514A514A51429
:10DB3400A514A592AC47810378037803782378036E
:10DB4400786478F0A314A514A514A514A534A51419
:10DB5400A514A514A514A514A514A514A514A514F9
:10DB6400A514A514A514A514A514A514A514A514E9
:10DB7400A514A514A514A514A572ACE6780378031E
:10DB840078037803780378A57830A414AD14A51429
:10DB9400A514A514A514A514A514A514A514A514B9
:10DBA400A514A514A514A514A514A514A514A514A9
:10DBB400A514A514A514A514A514A514A514A51499
:10DBC400A514A514A514A514A514A514A514A51489
:10DBD400A514A510A4A5780270037803780378032C
:10DBE400784779B2AC14AD14A5B3ACD0A38E9BF036
:10DBF400A3D3AC14AD14A514AD14A514A514A51485
:10DC0400A514A514A514A514A514A514A514A51448
:10DC1400A514A514A514A514A5F4AC2A8A037803A5
:10DC24007803780378037864706E9B14AD14A5149C
:10DC3400A514A514A514A514A514A514A514A51418
:10DC4400A514A514A514A514A514A514A514A51408
:10DC5400A514A514A514A514A514A514A514A514F8
:10DC6400A514A514A514A514A514A514A514A514E8
:10DC7400A514A58F9B44780378037803780378036D
:10DC8400784A8AF3AC14AD31A4C981847844788588
:10DC9400780A8A51A414A514A514A514A514A514CE
:10DCA400A514A514A514A514A514A514A514A514A8
:10DCB400A514A514A514A514A513A50D9B237803D9
:10DCC400780378037803782378CC92F4AC14A51401
:10DCD400A514A514A514A514A514A514A514A51478
:10DCE400A514A514A514A514A514A514A514A51468
:10DCF400A514A514A514A514A514A514A514A51458
:10DD0400A514A514A514A514A514A514A514A51447
:10DD1400A514AD2D93237803780378037803802327
:10DD240078EC9213A5B2A4C981237803780378030D
:10DD3400782378EA89D3AC14AD14A514A514A514DA
:10DD4400A514A514A514A514A514A514A514A51407
:10DD5400A514A514A514A514A514A5AFA36478034C
:10DD64007803780378037803704A92F4AC14A5130B
:10DD7400A514A514A514A514A514A514A514A514D7
:10DD8400A514A514A514A514A514A514A514A514C7
:10DD9400A514A514A514A514A514A514A514A514B7
:10DDA400A514A514A514A514A514A514A514A514A7
:10DDB400A514ADEC922378037803780378027844B1
:10DDC400704E9B14ADCF9B8478037803780378035B
:10DDD400780378857010A414A514A514A514A514AB
:10DDE400A514A514A514A514A514A514A514A51467
:10DDF400A514A514A514A514A514A510A485780329
:10DE04007803780378027802780A8AF4AC14A514AB
:10DE1400A514A514A514A514A514A514A514A51436
:10DE2400A514A514A514A514A514A514A514A51426
:10DE3400A514A514A514A514A514A514A514A51416
:10DE4400A514A514A514A514A514A514A514A51406
:10DE5400A514ADCC9223780378037803780378442F
:10DE6400788F9B13AD4E9B44780378037803780333
:10DE74007803784470CF9B14A514A514A514A51495
:10DE8400A514A514A514A514A514A514A514A514C6
:10DE9400A514A514A514AD14A514A531A4A578033F
:10DEA400780378037803780378E989F3A414A51434
:10DEB400A514A514A514A514A514A514A514A51496
:10DEC400A514A514A514A514A514A514A514A51486
:10DED400A514A514A514A514A514A514A514A51476
:10DEE400A514A514A514A514A514A514A514A51466
:10DEF400A5F4ACCC922378037803780378037844B0
:10DF0400784E9B13ADAF9B6478037803800378034A
:10DF1400780378A47010A414A514A514A514A5144A
:10DF2400A514A514A514A514A514A514A514A51425
:10DF3400A514A514A514A514A514AD10A4857803DF
:10DF44007803780378037803700A8AF3AC14A51471
:10DF5400A514A514A514A514A514A514A514A514F5
:10DF6400A514A514A514A514A514A514A514A514E5
:10DF7400A514A514A514A514A514A514A514A514D5
:10DF8400A514A514A514A514A514A514A514A514C5
:10DF9400A514A52D93437803780378037803782395
:10DFA40078EC9213AD92ACA88123700378037803C4
:10DFB400782378E989D3AC14A514A514A514A51461
:10DFC400A514A514A514A514A514A514A514A51485
:10DFD400A514A514A514A514AD14ADAFA3647003C2
:10DFE4007803780378037803704A8A14AD14A5146F
:10DFF400A514A514A514A514A514A514A514A51455
:10E00400A514A514A514A514A514A514A514A51444
:10E01400A514A514A514A514A514A514A514A51434
:10E02400A514A514A514A514A514A514A514A51424
:10E03400A514A58F9B647003780378037803780391
:10E04400784A8AF3AC14A531A4C9818470447885D4
:10E0540078E98951ACF4AC14A514A514A514A5143D
:10E06400A514A514A514A514A514A514A514A514E4
:10E07400A514A514A514A514A513AD0D9B447803EC
:10E08400780378037803782378CC9214AD14A5141C
:10E09400A514A514A514A514A514A514A514A514B4
:10E0A400A514A514A514A514A514A514A514A514A4
:10E0B400A514A514A514A514A514A514A514A51494
:10E0C400A514A514A514A514A514A514A514A51484
:10E0D400A514A511A4A4780378037803780378031E
:10E0E400784781B2A414A514A5D2A4CFA36E9BF043
:10E0F4009BB3A414AD14AD14A514A514A514A514B0
:10E10400A514A514A514A514A514A514A514A51443
:10E11400A514A514AD14A514A5F3AC2A8A0378029A
:10E124007803780378037843786E9B14AD14A514B0
:10E13400A514A514A514A514A514A514A514A51413
:10E14400A514A514A514A514A514A514A514A51403
:10E15400A514A514A514A514A514A514A514A514F3
:10E16400A514A514A514A514A514A514A514A514E3
:10E17400A514A592AC478103780378037803780348
:10E18400788478F0A314AD14AD14A513A514A514C4
:10E19400A514A514A514A514A514A514A514A514B3
:10E1A400A514A514A514A514A514A514A514A514A3
:10E1B400A514A514A514A513A572AC0679037803B8
:10E1C40078038003780378A57811A414A514A51303
:10E1D400A514A514A514A514A514A514A514A51473
:10E1E400A514A514A514A514A514A514A514A51463
:10E1F400A514A514A514A514A514A514A514A51453
:10E20400A514A514A514A514A514A514A514A51442
:10E21400A514A5F3AC2A8A0378037803780378035A
:10E224007803786A92F3AC14A534A514A514A51444
:10E23400A514A514A514A514A514AD14A514A5140A
:10E24400A514A514A514A514A514AD14AD14A5F412
:10E25400AC14A514A514A514AD4E93437003780310
:10E26400700378037802786781B2AC14A513A514FF
:10E27400A514A514A514A514A514A514A514A514D2
:10E28400A514A514A514A514A514A514A514A514C2
:10E29400A514A514A514A514A514A514A514A514B2
:10E2A400A514A514A514A514A514A514A514A514A2
:10E2B400A514A513AD4E9B44780378037803780323
:10E2C400780378E57810A414AD15A514A514A51445
:10E2D400A514A514A514A514A514A514A514A51472
:10E2E400A514A514A514A514ADF4AC14A514A51473
:10E2F400A514A514A514A592A46781027803780334
:10E30400780378037823788B9214A514A514A514A4
:10E31400A514A514A514A514A514A514A514A51431
:10E32400A514A514A514A514A514A514A514A51421
:10E33400A514A514A514A514A514A514A514A51411
:10E34400A514A514A514A514A514A514A514A51401
:10E35400A514A514A592A406790378037803780379
:10E3640078037823782A8AD3AC14AD14AD14A51499
:10E37400A514A514A514A514A514A514A514A514D1
:10E38400A514A514A514A514A514A514A534A514A1
:10E39400A514AD14A5F3ACED924478037803780387
:10E3A40078037803788478F09B14A514A514A51435
:10E3B400A514A514A514A514A514A514A514A51491
:10E3C400A514A514A514A514A514A514A514A51481
:10E3D400A514A514A514A514A514A514A514A51471
:10E3E400A514A514A514A514A514A514A514A51461
:10E3F400A514A514A5F4AC8C9223780378037803B0
:10E40400780378037864782D9BF4AC14A514A514D0
:10E41400A514A514A514A514A514A514A514A51430
:10E42400A514A514A514A514A514A514A514A51420
:10E43400AD14A534A5CFA3C5780378037803780376
:10E444007803780378C981D3AC14A514A514A51452
:10E45400A514A514A514A514A514A514A514A514F0
:10E46400A514A514A514A514A514A514A514A514E0
:10E47400A514A514A514A514A514A514A514A514D0
:10E48400A514A514A514A514A514A514A514A514C0
:10E49400A514A514A514A531A4E67803780378037C
:10E4A40078037803780378C5788F9B14AD14A5148A
:10E4B400A514A514A514A514A514A514A514A51490
:10E4C400A514A514A514A514A514A514A514AD1478
:10E4D400A514AD30A4468103780378037803780348
:10E4E4007803788478AF9B14A514A514A514A514F7
:10E4F400A514A514A514A514A514A514A514A51450
:10E50400A514A514A514A514A514A514A514A5143F
:10E51400A514A514A514A514A514A514A514A5142F
:10E52400A514A514A514A514A514A514A514A5141F
:10E53400A514A514A514A5F3ACAB924370037803FA
:10E54400780380037802780378E6788F9BF4AC1420
:10E55400A514A514A514A514A514A514A514A514EF
:10E56400A514A514A534AD14A514A514A514A513B8
:10E57400A5F0A36779037803780378037803780315
:10E58400780378098AD3AC14A514A514A514A5148A
:10E59400A514A514A514A514A514A514A514A514AF
:10E5A400A514A514A514A514A514A514A514A5149F
:10E5B400A514A514A514A514A514A514A514A5148F
:10E5C400A514A514A514A514A514A514A514A5147F
:10E5D400A514A514A514A534AD92A48881037803C9
:10E5E4007803780378037803780378A578CC9AB213
:10E5F400AC14A514A514A514A514A514A514A51448
:10E60400A514A514A514A514A514A514A5D3AC4E3E
:10E614009B068103780378037803780378037803EF
:10E6240078E68011A414A514A514A514A514A514A2
:10E63400A514A514A514A514A514A514A514A5140E
:10E64400A514A514A514A514A514A514A514A514FE
:10E65400A514A514A514A514A514A514A514A514EE
:10E66400A514A514A514A514A514A514A514A514DE
:10E67400A514A514A514A514A514A5F0A3C5780381
:10E68400780378037803780378037803784478A8C8
:10E69400818E9BB3A414AD14A514AD14A514A514B4
:10E6A400A514A514A514A513ADD3ACD0A30A8A64EC
:10E6B40078037803780378037803780278038084F6
:10E6C400704E9BF4AC14A5F4AC14A514A514A514B5
:10E6D400A514A514A514A514A514A514A514A5146E
:10E6E400A514A514A514A514A514A514A514A5145E
:10E6F400A514A514A514A514A514A514A514A5144E
:10E70400A514A514A514A514A514A514A514A5143D
:10E71400A514A514A514A534A514ADF3AC2D9B84A0
:10E72400780378037803780378037803780278030E
:10E734007885788881ED9AF0A392A4D3ACF3A4F3FE
:10E74400ACD3ACB3AC31A44D9BE989C57803780351
:10E754007803780378038003780378037844788B0C
:10E764008AF3A414A514AD14A514A514A514A51412
:10E77400A514A514A514A514A514A514A514A514CD
:10E78400A514A514A514A514A514A514A514A514BD
:10E79400A514A514A514A514A514A514A514A514AD
:10E7A400A514A514A514A514A514A514A514A5149D
:10E7B400A514A514A514A514A514AD14A5F3A4CCEF
:10E7C40092647803780378038003780378037803EA
:10E7D40078037803782378A57026798881E989C835
:10E7E40089A8812681A5784378037003780278028A
:10E7F400780378037803780378037844704A8AB2FC
:10E80400AC34AD14A514A514A514A514A514A5140D
:10E81400AD14A514A514A514A514A514A514A51424
:10E82400A514A514A514A514A514A514A514A5141C
:10E83400A514A514A514A514A514A514A514A5140C
:10E84400A514A514A514A514A514A514A514A514FC
:10E85400A514A514A514AD14A514A514A514A5D325
:10E86400AC0D93A5700378037803780378037803D9
:10E8740078037803780378037803780378037803BC
:10E8840078037803780378037803780378037803AC
:10E8940078037803780378037844786B8AB2AC14ED
:10E8A400A514A514A514A514AD14AD14A514A5148C
:10E8B400A514A514A514A514A514A514A514A5148C
:10E8C400A514A514A514A514A514A514A514A5147C
:10E8D400A514A514A514A514A514A514A514A5146C
:10E8E400A514A514A514A514A514A514A514A5145C
:10E8F400A514A514A513A514AD14A514A514A51445
:10E90400A5F3AC6E9B067923780378037803780328
:10E91400780378037803780378037803780378031B
:10E92400780378037803780378037803780378030B
:10E9340078037803780378A578CC92D3AC14A51423
:10E94400A514A514A514A514AD14A514A514A514F3
:10E95400A514A514A514A514A514A514A514A514EB
:10E96400A514A514A514A514A514A514A514A514DB
:10E97400A514A514A514A514A514A514A514A514CB
:10E98400A514A514A514A514A514A514A514A514BB
:10E99400A514A514A514A514A514A514A514A514AB
:10E9A400A514ADF3AC10A4E9896478037802780364
:10E9B400780378037803780378037803780378037B
:10E9C400780378037803780378037803780378036B
:10E9D40078037823786781AFA3F3A414A514A5144E
:10E9E400A514A514A514A514A514A514A514A5145B
:10E9F400A514A514A514A514A514A514A514A5144B
:10EA0400A514A514A514A514A514A514A514A5143A
:10EA1400A514A514A514A514A514A514A514A5142A
:10EA2400A514A514A514A514A514A514A514A5141A
:10EA3400A514A514A514A514A514A514A514A5140A
:10EA4400A514A514A534A5D3AC4E9B6781647803A3
:10EA540078037803780378037803780378037803DA
:10EA64007803780378037803780378037803784489
:10EA7400782679EC9A92ACF4AC14A514A5F4AC14F1
:10EA8400A514A514A514A514A514A514A514A514BA
:10EA9400A514A514A514A514A514A514A514A514AA
:10EAA400A514A514A514A514A514A514A514A5149A
:10EAB400A514A514A514A514A514A514A514A5148A
:10EAC400A514A514A514A514A514A514A514A5147A
:10EAD400A514A514A514A514A514A514A514A5146A
:10EAE400A514A514A514A514A513AD92AC4E9BC9E9
:10EAF40081A578247803780278037803780378036F
:10EB04007803780278037803704470A57088810DC7
:10EB14009B72AC14AD14A514AD14A514AD14A514B6
:10EB2400A514A514A514A514A514A514A514A51419
:10EB3400A514A514A514A514A514A514A514A51409
:10EB4400A514A514A514A514A514A514A514A514F9
:10EB5400A514A514A514A514A514A514A514A514E9
:10EB6400A514A514A514A514A514A514A514A514D9
:10EB7400A514A514A514A514A514A514A514A514C9
:10EB8400A514A514A514AD14A514A514A514ADD3EA
:10EB9400AC31A44D932A8A6881E678C578A4788537
:10EBA40078A578E57847810A8A0D9B10A4B3ACF365
:10EBB400AC14A514A534A514A514A514A514A51462
:10EBC400A514A514A514A514A514A514A514A51479
:10EBD400A514A514A514A514A514A514A514A51469
:10EBE400A514A514A514A514A514A514A514A51459
:10EBF400A514A514A514A514A514A514A514A51449
:10EC0400A514A514A514A514A514A514A514A51438
:10EC1400A514A514A514A514A514A514A514A51428
:10EC2400A514A513A514A514A514A514A514A51419
:10EC3400A514AD14AD13ADD3A492A452A431A43140
:10EC4400A451A492A4D3ACF3AC14AD14A514A5148C
:10EC5400A514A514A514A515A514A514A514A514E7
:10EC6400A514A514A514A514A514A514A514A514D8
:10EC7400A514A514A514A514A514A514A514A514C8
:10EC8400A514A514A514A514A514A514A514A514B8
:10EC9400A514A514A514A514A514A514A514A514A8
:10ECA400A514A514A514A514A514A514A514A51498
:10ECB400A514A514A514A514A514A514A514A51488
:10ECC400A514A514AD14AD14AD14A514AD14A51458
:10ECD400A514A514A514A514A5F4AC14A514A51481
:10ECE400A514AD14AD14A514A514A514A514A51448
:10ECF400A514A514A514A514A514A5F4AC14AD1459
:10ED0400AD14A514A514A514A514A514A514A5142F
:10ED1400A514A514A514A514A514A514A514A51427
:10ED2400A514A514A514A514A514A514A514A51417
:10ED3400A514A514A514A514A514A514A514A51407
:10ED4400A514A514A514A514A514A514A514A514F7
:10ED5400A514A514A514A514A514A514A514A514E7
:10ED6400A514A514A514A514AD14A514A514A514CF
:10ED7400A514A514A514A514A514A514A514A514C7
:10ED8400A514A514A514A514A514A514A514A514B7
:10ED9400A514A514AD14A514A514A514A514A5149F
:10EDA400A514A514A514A514A514A514A514A51497
:10EDB400A514A514A514A514A514A514A514A51487
:10EDC400A514A514A514A514A514A514A514A51477
:10EDD400A514A514A514A514A514A514A514A51467
:10EFD400A504000000000000000000000000000084
:10EFE400000000030000000000FE001B0000000001
:10EFF4000005001E00000000000000000000001ECC
:10F00400000000000000000B0000000000100001E0
:10F014000010001D00F00003001E0001001000019C
:10F024000010001D00F00003001E0001001000018C
:10F0340000000000000900000004001C0008002279
:10F0440000100042001000FF007F00420010008406
:10F0540000100000000F00000000000C001C000065
:10F06400002200100022000800220006001C0001FB
:10F0740000C000000020000E001800110004001160
:10F08400000200110000000E00000000000B000050
:10F0940000000000000E001C001100A2001000C2BD
:10F0A400001000220011001C000A0000000C0000E7
:10F0B400000C00000012000000000003000000002B
:10F0C400001E000000000000000600000000000018
:10F0D400000000E0001F001C00600002008000002F
:10F0E4000000000400000000000600C000F8003F1B
:10F0F4000000000000060024000000180000007E4C
:10F1040000000018000000240000000000000009B6
:10F11400000000000080000000800000008000006B
:10F1240000F0000700800000008000000080000064
:10F134000000000000040000000000000060000067
:10F14400001800000000000500000001000000019C
:10F1540000000001000000010000000000040000A5
:10F164000000000000180000001800000000000863
:10F17400000000000000004000000038000000070C
:10F1840000E00000001C000000020000000000007D
:10F19400000900F800070004000800020010000243
:10F1A400001000020010000200100004000800F823
:10F1B400000700000000000900000000000000003B
:10F1C4000000000000000000000000000002000039
:10F1D4000002000000FE001F0000000000090018EB
:10F1E40000100004001800020014000200120002C3
:10F1F40000110082001000440010003800100000CC
:10F20400000000090008000C0004001000020010B7
:10F2140000420010004200100044001000B8000832
:10F2240000000007000000000009000000020000C8
:10F2340000030080000200600002001000020008C9
:10F24400000200FE001F0000000200000000000990
:10F254000000000400700008002E001000220010BE
:10F264000022001000220010004200080082000763
:10F27400000000000009000000000000000700C0BA
:10F2840000080060001000580010004400100082C4
:10F294000008000000070000000000090000000052
:10F2A400000200100002000C0002000300C2000073
:10F2B40000320000000E0000000200000000000008
:10F2C40000090000000700980008006400100042D4
:10F2D40000100042001000640010009800080000B4
:10F2E40000070000000000090000000000380000D2
:10F2F4000044001000820008008200040082000321
:10F3040000840000007800000000000000040000F9
:10F314000000003000180030001800000000000455
:10F324000000000000300060003000180000000001
:10F33400000A00000000008000000080000000407F
:10F344000001002000020020000200100004001050
:10F3540000040008000800000000000A000000008B
:10F364000020000100200001002000010020000115
:10F374000020000100200001002000010020000105
:10F3840000000000000A000000000008000800104F
:10F3940000040010000400200002002000020040CD
:10F3A4000001008000000080000000000000000850
:10F3B40000000000000C0000008200010042000276
:10F3C4000022001A0022001A009C00010000000024
:10F3D400000E0000000000F0000300080004000418
:10F3E400000800C2001100220012001200120012D4
:10F3F400001200E2001100120012000400120008C2
:10F40400000900F0000400000000000D00000000EE
:10F41400000000100000000E0080000100600001E8
:10F42400001C000100020001001C0001006000013A
:10F43400008000010000000E000000100000000029
:10F444000009000000000000000000FE001F004250
:10F454000010004200100064001000980008000032
:10F46400000700000000000D0000000000F0000391
:10F47400000800040004000800020010000200104C
:10F484000002001000020010000200100004000836
:10F49400000400080008000400000000000C000044
:10F4A40000000000000000FE001F00020010000227
:10F4B40000100002001000020010000200100004FE
:10F4C40000080008000400F0000300000000000928
:10F4D400000000000000000000FE001F00420010B9
:10F4E40000420010004200100042001000420010D0
:10F4F400000000000008000000000000000000FE02
:10F50400001F0042000000420000004200000042D0
:10F51400000000000000000E0000000000F00003E6
:10F52400000800040004000800020010000200109B
:10F53400000200100002001000820010008400107D
:10F54400008400080088000400800003000000001C
:10F55400000A000000000000000000FE001F004040
:10F564000000004000000040000000400000004097
:10F57400000000FE001F0000000000040000000066
:10F584000000000000FE001F000000000007000053
:10F59400000000000008000000100000001000003F
:10F5A400000800FE00070000000000090000000041
:10F5B4000000000000FE001F006000000090000139
:10F5C400000800020004000C00020010000000000B
:10F5D4000008000000000000000000FE001F000002
:10F5E40000100000001000000010000000100000D7
:10F5F4000000000F000000000000001C00F80003E1
:10F60400000600000038000000C000010000000EE9
:10F61400000000100000000E00C0000100380000CF
:10F624000006000000F800030000001C00000000B9
:10F63400000B000000000000000000FE001F000896
:10F6440000000030000000400000008000000000C6
:10F6540000030000000400FE001F00000000000E74
:10F664000000000000F0000300080004000400088B
:10F67400000200100002001000020010000200103E
:10F68400000200100002001000040008000800043A
:10F6940000F000030000000000090000000000006A
:10F6A400000000FE001F0042000000420000004273
:10F6B4000000002400000018000000000000000EFC
:10F6C4000000000000F0000300080004000400082B
:10F6D40000020010000200100002001000020011DD
:10F6E400000200120002000C0004000800080016CA
:10F6F40000F0002100000000000A000000000000EB
:10F70400000000FE001F0042000000C20000004292
:10F714000001004200060024000800180010000048
:10F724000000000800000004001800080024001075
:10F734000042001000420010008400080008000786
:10F7440000000000000800020000000200000002A7
:10F75400000000FE001F0002000000020000000282
:10F76400000000000000000A00000000000000008B
:10F7740000FE000700000008000000100000001058
:10F78400000000100000000800FE00070000000058
:10F79400000C00020000001C00000060000000805B
:10F7A40000010000000E000000100000000E0080A8
:10F7B400000100600000001C0000000200000000C6
:10F7C4000000000F000000000006000000780000A8
:10F7D4000080000700000018008000070078000087
:10F7E40000060000007800000080000700000018F8
:10F7F4000080000700780000000600000000000000
:10F804000009000000000006001800080004003091
:10F81400000300C0000000300003000800040006DC
:10F82400001800000000000B0000000000020000AF
:10F834000004000000180000006000000080001FA9
:10F844000060000000180000000400000002000036
:10F85400000000000008000200100002001C00026A
:10F86400001300C2001000320010000E001000024D
:10F87400001000000000000600000000000000006E
:10F8840000FE00FF00020080000200800000000073
:10F89400000A00020000000C0000001000000060DC
:10F8A40000000080000100000006000000080000C5
:10F8B40000300000004000000000000500000000CF
:10F8C400000200800002008000FE00FF0000000033
:10F8D400000B000000000000000200800001007026
:10F8E4000000000C000000020000000C000000708A
:10F8F4000000008000010000000200000000000978
:10F9040000000040000000400000004000000040F3
:10F9140000000040000000400000004000000040E3
:10F9240000000000000500000000000000000002CC
:10F9340000000004000000000000000B00000000B4
:10F9440000C0000700200008001000100010001084
:10F95400001000100010001000100010002000081B
:10F9640000F0001F00000000000B0000000000FE7B
:10F97400001F0020000800100010001000100010EC
:10F98400001000100010001000100020000800C03B
:10F99400000700000000000A0000000000C000078B
:10F9A40000200008001000100010001000100010CB
:10F9B40000100010002000080040000400000000B7
:10F9C400000B0000000000C0000700200008001029
:10F9D40000100010001000100010001000100010A3
:10F9E40000100020000800FE001F00000000000AB4
:10F9F4000000000000C000070020000900100011F2
:10FA04000010001100100011001000110020000966
:10FA140000C0000500000000000600000000001007
:10FA2400000000FC001F0012000000120000000093
:10FA34000000000B0000000000C000270020004868
:10FA44000010009000100090001000900010009032
:10FA5400001000900020004800F0003F000000006B
:10FA6400000A0000000000FE001F0020000000103B
:10FA74000000001000000010000000100000002032
:10FA8400000000C0001F0000000000030000000090
:10FA940000F6001F0000000000030000008000F6D4
:10FAA400007F0000000000080000000000FE001FAE
:10FAB4000000000100800002004000040020000853
:10FAC400001000100000000000030000000000FE11
:10FAD400001F00000000000F0000000000F0001FE5
:10FAE40000200000001000000010000000100000C2
:10FAF4000020000000C0001F0020000000100000D3
:10FB040000100000001000000020000000C0001FD2
:10FB140000000000000A0000000000F0001F0020A8
:10FB24000000001000000010000000100000001091
:10FB340000000020000000C0001F00000000000AB8
:10FB44000000000000C000070020000800100010A2
:10FB54000010001000100010001000100020000819
:10FB640000C0000700000000000B0000000000F0CF
:10FB740000FF00200008001000100010001000100A
:10FB8400001000100010001000100020000800C039
:10FB9400000700000000000B0000000000C0000788
:10FBA40000200008001000100010001000100010C9
:10FBB40000100010001000100020000800F000FFEA
:10FBC4000000000000060000000000F0001F0020FC
:10FBD40000000010000000100000000000000006FB
:10FBE40000600008009000100010001100100011C7
:10FBF4000020000E000000000007000000000010BC
:10FC040000000010000000FE001F001000000010A3
:10FC1400000000000000000A0000000000F00007DF
:10FC24000000000800000010000000100000001098
:10FC3400000000100000000800F0000700000000B1
:10FC4400000A0010000000600000008000030000B3
:10FC5400000C000000100000000C00800003006095
:10FC640000000010000000000000000E0010000062
:10FC740000E000000000000700000018000000077A
:10FC840000E000000010000000E000000000000799
:10FC9400000000180000000700E000000010000051
:10FCA40000000000000900100010002000080040BF
:10FCB40000040080000300800003004000040020D2
:10FCC40000080010001000000000000900100000EF
:10FCD40000E00000000000830000007C0000000C35
:10FCE4000000000300E0000000100000000000001D
:10FCF400000800100010001000180010001600107A
:10FD0400001100D00010003000100010001000009E
:10FD14000000000700000000000000010080000255
:10FD240000FC007E00020080000200800000000051
:10FD340000070000000000000000000000000000B8
:10FD440000000000000000FE00FF000000000006AC
:10FD5400000200800002008000FC007E008000029F
:10FD64000000000100000000000A00000000008004
:10FD7400000000400000004000000040000000803F
:10FD8400000000800000008000000040000000002F
:10FD94000000000500FF000F00010008000100083A
:10FDA40000FF000F0000000000004001000D0A33B6
:10FDB400202D2056697375616C697A617220612007
:10FDC40070657263656E746167656D20646F206E23
:10FDD4006976656C2064652061677561000D0A357C
:10FDE400202D2050726F6772616D6172206E6F7684
:10FDF4006F2076616C6F722064652072656665722F
:10FE0400656E636961000D0A5072696D612030206E
:10FE14007061726120766F6C74617220616F204D25
:10FE2400656E75205072696E636970616C000D0AAD
:10FE340034202D2056697375616C697A6172206F64
:10FE4400206E6976656C20646520726566657265EE
:10FE54006E636961000D0A32202D20417469766158
:10FE64007220636F6D74726F6C6F20646F206E69A3
:10FE740076656C2064652061677561000D0A436FC7
:10FE84006E74726F6C6F20646F206E6976656C207F
:10FE940064652061677561206174697661646F21AE
:10FEA400000D0A50657263656E746167656D206448
:10FEB4006F206E6976656C20646520616775613AB0
:10FEC40020256400534554555020434F4D504C4514
:10FED400544544205355434345535346554C4C597C
:10FEE4000D0A000D0A30202D20566F6C74617220AB
:10FEF400616F204D656E75205072696E6369706123
:10FF04006C000D0A31202D204465736C69676172A1
:10FF140020626F6D626120646520616775610053C2
:10FF2400495354454D41205041524120434F4E5472
:10FF3400524F4C4F20444520554D000D0A426F6DE1
:10FF440062612064652061677561206465736C6912
:10FF54006761646100454E47454E4841524941201E
:10FF6400454C4554524F5445434E494341004D4F2F
:10FF7400544F5220454D204D414C4841204142456B
:10FF8400525441004175746F7265733A205365721F
:10FF940067696F204661726961004D4943524F5051
:10FFA400524F4345535341444F524553000D0A4D5C
:10FFB400454E55205052494E434950414C000D0A7C
:10FFC4004F7063616F20496E76616C696461004CA7
:10FFD400756361732054686F6D617A000D0A6269FC
:10FFE40074733A202564000D0A4F7063616F3A20E0
:0CFFF4000032303232202F203233000067
:020000040020DA
:08000000FFFFFFFFFFFFFFFF00
:020000040030CA
:0E000000FF2A1F3CFFBF81FF0FC00FE00F4023
:00000001FF
