:0400000099EF00F084
:100008004182FACF1BF0FBCF1CF0D9CF1DF0DACF1D
:100018001EF09DAC12EF00F014EF00F01FEF00F09F
:100028009EAC19EF00F01BEF00F01FEF00F03CEC66
:100038000DF08FEF00F0F2AA24EF00F026EF00F0A9
:1000480031EF00F0F2A42BEF00F02DEF00F031EFCC
:1000580000F0F4EC0CF08FEF00F0F2A836EF00F0AF
:1000680038EF00F043EF00F0F2A23DEF00F03FEF71
:1000780000F043EF00F089EC0EF08FEF00F09DA840
:1000880048EF00F04AEF00F060EF00F09EA84FEF55
:1000980000F051EF00F060EF00F002D85EEF00F0E2
:1000A8000500FA6E0001FA51FD6EFB51FE6EFF6A03
:1000B800FA5012008FEF00F09DAA65EF00F067EF8D
:1000C80000F07DEF00F09EAA6CEF00F06EEF00F0FC
:1000D8007DEF00F002D87BEF00F00500FA6E00011A
:1000E800F851FD6EF951FE6EFF6AFA5012008FEF5B
:1000F80000F09DA082EF00F084EF00F08FEF00F099
:100108009EA089EF00F08BEF00F08FEF00F082ECFB
:100118000CF08FEF00F01EC0DAFF1DC0D9FF1CC025
:10012800FBFF1BC0FAFF419211007DEF0BF0010E9F
:10013800206E000EF4EC0DF0960E0EEC0DF0EF0EA6
:10014800206E000EF4EC0DF0030E206E010EF4ECA0
:100158000DF0800E206E010EF4EC0DF0020E206EF4
:10016800010EF4EC0DF0CF0E206E000EF4EC0DF045
:10017800000E206E010EF4EC0DF0C10E206E010E83
:10018800F4EC0DF0300E206E010EF4EC0DF0ED0ED7
:10019800206E000EF4EC0DF0640E206E010EF4ECEF
:1001A8000DF0030E206E010EF4EC0DF0120E206E11
:1001B800010EF4EC0DF0810E206E010EF4EC0DF042
:1001C800E80E206E000EF4EC0DF0850E206E010E88
:1001D800F4EC0DF0000E206E010EF4EC0DF0780E2C
:1001E800206E010EF4EC0DF0CB0E206E000EF4EC38
:1001F8000DF0390E206E010EF4EC0DF02C0E206E71
:10020800010EF4EC0DF0000E206E010EF4EC0DF072
:10021800340E206E010EF4EC0DF0020E206E010E6D
:10022800F4EC0DF0F70E206E000EF4EC0DF0200E3D
:10023800206E010EF4EC0DF0EA0E206E000EF4ECC8
:100248000DF0000E206E010EF4EC0DF0000E206E85
:10025800010EF4EC0DF0C00E206E000EF4EC0DF063
:10026800230E206E010EF4EC0DF0C10E206E000E70
:10027800F4EC0DF0100E206E010EF4EC0DF0C50E2E
:10028800206E000EF4EC0DF03E0E206E010EF4EC24
:100298000DF0280E206E010EF4EC0DF0C70E206E46
:1002A800000EF4EC0DF0860E206E010EF4EC0DF04D
:1002B800360E206E000EF4EC0DF0480E206E010E86
:1002C800F4EC0DF03A0E206E000EF4EC0DF0550E25
:1002D800206E010EF4EC0DF0B10E206E000EF4EC61
:1002E8000DF0000E206E010EF4EC0DF0180E206ECD
:1002F800010EF4EC0DF0B60E206E000EF4EC0DF0CD
:10030800080E206E010EF4EC0DF0820E206E010E28
:10031800F4EC0DF0270E206E010EF4EC0DF0F20E49
:10032800206E000EF4EC0DF0000E206E010EF4ECC1
:100338000DF0260E206E000EF4EC0DF0010E206E6E
:10034800010EF4EC0DF0E00E206E000EF4EC0DF052
:100358000F0E206E010EF4EC0DF0310E206E010E22
:10036800F4EC0DF02B0E206E010EF4EC0DF00C0EDB
:10037800206E010EF4EC0DF00E0E206E010EF4EC62
:100388000DF0080E206E010EF4EC0DF04E0E206EEE
:10039800010EF4EC0DF0F10E206E010EF4EC0DF0F0
:1003A800370E206E010EF4EC0DF0070E206E010ED4
:1003B800F4EC0DF0100E206E010EF4EC0DF0030EAF
:1003C800206E010EF4EC0DF00E0E206E010EF4EC12
:1003D8000DF0090E206E010EF4EC0DF0000E206EEB
:1003E800010EF4EC0DF0E10E206E000EF4EC0DF0B1
:1003F800000E206E010EF4EC0DF00E0E206E010EB4
:10040800F4EC0DF0140E206E010EF4EC0DF0030E5A
:10041800206E010EF4EC0DF0110E206E010EF4ECBE
:100428000DF0070E206E010EF4EC0DF0310E206E6B
:10043800010EF4EC0DF0C10E206E010EF4EC0DF07F
:10044800480E206E010EF4EC0DF0080E206E010E21
:10045800F4EC0DF00F0E206E010EF4EC0DF00C0E06
:10046800206E010EF4EC0DF0310E206E010EF4EC4E
:100478000DF0360E206E010EF4EC0DF00F0E206E0E
:10048800010EF4EC0DF0110E206E000EF4EC0DF0E0
:10049800780E0EEC0DF0290E206E000EF4EC0DF027
:1004A800780E0EEC0DF0000E0001DB6F000EDA6F17
:1004B8006AEC0AF0120053EC0DF0000EC0EC09F0E3
:1004C8009BEC00F0000E01010E6F520E0D6F000E36
:1004D800106FDC0E0F6F580E116FFF0E126FF80EB3
:1004E800146F1F0E136F000E166F000E156FA3EC1E
:1004F80006F0A20E0101106F000E126F320E116F7E
:100508009D0E136FFF0E146F3FEC07F0000E0101F4
:100518000E6F550E0D6F000E106FBE0E0F6FA20EF0
:10052800116F126B070E146FE00E136F000E166F2B
:10053800000E156FA3EC06F0A20E0101106F000E5D
:10054800126F320E116FF40E136FFF0E146F3FEC23
:1005580007F0000E01010E6F780E0D6F000E106F80
:10056800A50E0F6FA20E116F126BFC0E146F180EF2
:10057800136F000E166F000E156FA3EC06F0A20E97
:100588000101106F000E126F320E116F220E136FE1
:10059800FF0E146F3FEC07F0000E01010E6F140EF2
:1005A8000D6F000E106F8C0E0F6FA20E116F126B75
:1005B800F80E146F000E136F000E166F000E156FF5
:1005C800A3EC06F0A20E0101106F000E126F320E9E
:1005D800116F710E136FFF0E146F3FEC07F0000ED2
:1005E80001010E6F280E0D6F000E106F780E0F6F41
:1005F800A20E116F126BF80E146F000E136F000E1F
:10060800166F000E156FA3EC06F0A20E0101106F15
:10061800000E126F320E116F870E136FFF0E146FDC
:100628003FEC07F0000E01010E6F140E0D6F000E67
:10063800106F5F0E0F6FA20E116F126BFF0E146F0B
:10064800E00E136F000E166F000E156FA3EC06F088
:10065800A20E0101106F000E126F320E116FD20E32
:10066800136FFF0E146F3FEC07F0000E01010E6FC1
:100678005A0E0D6F000E106F4B0E0F6FA20E116FFA
:10068800126BFF0E146FE00E136F000E166F000E44
:10069800156FA3EC06F0F28EF28CF28C940E1F6E9E
:1006A8001C0E206E66EC0EF09A0E1F6E160E206E53
:1006B80084EC0EF0A20E1F6E1C0E206E61EC0EF084
:1006C80097EC0EF0B20E1F6E190E206E5CEC0EF059
:1006D80095EC0EF0C70E0101106FFE0E116F7DEC48
:1006E8000DF0010E0001A16F0001A151D8A47FEF08
:1006F80003F081EF03F087EF03F093EC0EF08A9894
:100708008A868AEF03F095EC0EF08A960001A051D4
:10071800D8B491EF03F093EF03F096EF03F08A8AD1
:1007280097EF03F08A9AFE51D8B49DEF03F09FEF3C
:1007380003F0A4EF03F0C8EC04F0000E0001FE6F14
:100748000DEC09F078EF03F099EF00F0000E0101CD
:10075800026F000E016F0001DF51D96EDA6ADECF39
:10076800F6FFDDCFF7FFF86A0800F550250AD8A490
:10077800C0EF03F0C2EF03F0AAEF04F0DF51D96E27
:10078800DA6ADE2A000EDD22000E266E000E256EC5
:1007980025C031F027682868DF51D96EDA6ADECFC4
:1007A80003F1DDCF04F103C1F6FF04C1F7FFF86AD6
:1007B8000800F550640AD8B4E4EF03F0E6EF03F05C
:1007C800F5EF03F003C1F6FF04C1F7FFF86A08006C
:1007D800F550690AD8A4F3EF03F0F5EF03F09EEFA4
:1007E80004F0E0C0D9FFE1C0DAFFDFCFE2F0020E8B
:1007F800DE26DFCFE3F0000EDD22E2C0D9FFE3C042
:10080800DAFFDECF05F1DDCF06F1010E0101032588
:100818000001E26F000E010104210001E36FDF51C6
:10082800D96EDA6AE2C0DEFFE3C0DDFF200E010107
:10083800096F06BF22EF04F025EF04F0010E26EF42
:1008480004F0000E006F09070951600FD96EDA6ACB
:1008580005C11FF006C120F0000E226E0A0E216E9F
:1008680067EC09F01FC0D6F020C0D7F0BEEC0CF042
:100878000001D651300FDF6E05C11FF006C120F010
:10088800000E226E0A0E216E4CEC08F01FC005F116
:1008980020C006F10101014B022B05510611D8B405
:1008A80058EF04F05AEF04F062EF04F00951D8A4AD
:1008B80060EF04F062EF04F027EF04F00951D8B4B8
:1008C80068EF04F06AEF04F08FEF04F00051D8B439
:1008D80070EF04F072EF04F08FEF04F0090709518C
:1008E800600FD96EDA6A2D0EDF6E014B022B8FEF87
:1008F80004F00951600FD96EDA6ADF500001E26F27
:10090800E251D46FD56BDDC0D6F0DEC0D7F0AFECC6
:1009180008F00101092B200E0919D8A496EF04F05C
:1009280098EF04F07DEF04F001C1DDF002C1DEF0C4
:10093800C7EF04F0DF51D96EDA6ADE2A000EDD2235
:10094800000EDE6F000EDD6FC7EF04F0DF51D96EC9
:10095800DA6ADECFF6FFDDCFF7FFF86A0800F55058
:10096800D46FD56BDDC0D6F0DEC0D7F0AFEC08F0A1
:100978000001DF51D96EDA6ADE2A000EDD22000E90
:10098800DE6F010EDD6F1200A6EF05F00C0EA6EC6F
:100998000BF0B00E0101106FFF0E116F7DEC0DF022
:1009A800050E0101106FFF0E116F7DEC0DF0590E51
:1009B8000101106FFE0E116F7DEC0DF0B10E0101FB
:1009C800106FFD0E116F7DEC0DF0320E0101106FEE
:1009D800FE0E116F7DEC0DF0E10E0101106FFD0EA2
:1009E800116F7DEC0DF0E60E0101106FFE0E116F18
:1009F8007DEC0DF0EA0E0101106FFF0E116F7DEC1A
:100A08000DF0000E0001FF6FCCEF05F00C0EA6EC08
:100A18000BF03E0E0101106FFF0E116F7DEC0DF013
:100A2800E60E0101106FFE0E116F7DEC0DF0EA0E5F
:100A38000101106FFF0E116F7DEC0DF0000E00012B
:100A4800A06F05EF05F00C0EA6EC0BF0800E01016F
:100A5800106FFE0E116F7DEC0DF0010E0001A16FFD
:100A6800E60E0101106FFE0E116F7DEC0DF0EA0E1F
:100A78000101106FFF0E116F7DEC0DF005EF05F011
:100A88000C0EA6EC0BF0A40E0101106FFE0E116FF8
:100A98009EC012F19FC013F17DEC0DF0DF0E010135
:100AA800106FFF0E116F2DC012F12EC013F17DECE7
:100AB8000DF0E60E0101106FFE0E116F7DEC0DF0CA
:100AC800EA0E0101106FFF0E116F7DEC0DF005EFBE
:100AD80005F00C0EA6EC0BF0E60E0101106FFE0EF1
:100AE800116F7DEC0DF0EA0E0101106FFF0E116F12
:100AF8007DEC0DF005EF05F00C0EA6EC0BF0E60E04
:100B08000101106FFE0E116F7DEC0DF0EA0E010170
:100B1800106FFF0E116F7DEC0DF005EF05F00C0E58
:100B2800A6EC0BF0C10E0101106FFF0E116F7DECEA
:100B38000DF00A0E0101106FFE0E116F7DEC0DF025
:100B480005EF05F00001FF51E86FE96BE951000A74
:100B5800D8B4B1EF05F093EF05F0E851300AD8B4F6
:100B6800CAEF04F0010AD8B40AEF05F0030AD8B4B2
:100B780027EF05F0010AD8B444EF05F0070AD8B406
:100B88006DEF05F0010AD8B480EF05F093EF05F09A
:100B98001200000E0001E46F85EF06F0D890000106
:100BA800DE35F66EDF35F76ED50EF626EF0EF72238
:100BB800F86A000EF8220900F5CF00F10900F5CF18
:100BC80001F1E4510101005F000E015B0001DA51FF
:100BD800010100250001D66FDB510101012100014F
:100BE800D76FDCC0D8F0DDC0D9F061EC0CF0000E96
:100BF8000001E56F000EE66FE4510101006F016B23
:100C0800D89000370137D8900001DE35F66EDF3511
:100C1800F76ED50EF626EF0EF722F86A000EF822C8
:100C28000900F5CF02F10900F5CF03F1D8900101D1
:100C3800023703370051025D046F01510359056FF4
:100C48000001E5510101045F000E055B0001DE5162
:100C5800010104270001DF5101010523D890043761
:100C68000537D50E0425F66EEF0E0521F76EF86AE6
:100C7800000EF8220900F5CF06F10900F5CF07F1BB
:100C8800E6C008F1800E096F000E0A6F082B50EFBE
:100C980006F00A350A330933082F4DEF06F0010133
:100CA800065109150B6F07510A150C6F0B510C11E2
:100CB800D8B461EF06F063EF06F06BEF06F0E0C022
:100CC800D4F0E1C0D5F0E8EC0DF071EF06F0E2C029
:100CD800D4F0E3C0D5F0E8EC0DF00001E62B070EE8
:100CE800E66579EF06F07BEF06F000EF06F0E52BFE
:100CF800010EE56582EF06F084EF06F0FEEF05F0E1
:100D0800E42BD890DE35F66EDF35F76ED50EF62675
:100D1800EF0EF722F86A000EF822E4510101006F85
:100D2800016B0900F550005D0900F5500159D8A084
:100D3800A0EF06F0A2EF06F0D2EF05F0120025EFC3
:100D480007F0000E0001ED6F000EEC6F000EEB6F68
:100D5800000EEA6FCFEF06F0D890EC35F66EED3561
:100D6800F76ED50EF626EF0EF722F86A000EF82277
:100D78000900F5CFE7F00900F5CFE8F0D890E7379C
:100D8800E837010EE727000EE823E751EC27E85182
:100D9800ED23EA4BEB2B11C1F6FF12C1F7FF000E52
:100DA800F86E0F0EF76403D00800F55005D0F6CFA3
:100DB800E1FFF7CFE2FFE7500001E76FE00EE7251C
:100DC800E86FE96BFF0EE923E851EA5DE951EB5959
:100DD800D8A0F1EF06F0F3EF06F0B0EF06F00DC182
:100DE800DAF00EC1DBF00FC1DCF010C1DDF0ECC0B1
:100DF800DEF0EDC0DFF013C1E0F014C1E1F015C181
:100E0800E2F016C1E3F0CDEC05F0D8900001EC3526
:100E1800F66EED35F76ED50EF626EF0EF722F86A68
:100E2800000EF8220900F5CFE7F00900F5CFE8F049
:100E3800E75101010D270001E85101010E23114B73
:100E4800122B11C1F6FF12C1F7FF000EF86E0F0E3C
:100E5800F76403D00800F55005D0F6CFE1FFF7CFCF
:100E6800E2FFE7500009D8A43CEF07F03EEF07F097
:100E7800A5EF06F01200800E0101125DD8A047EF21
:100E880007F049EF07F050EF07F0000E00019D6FE3
:100E98004B0E9C6FC5EF07F0150E176F010E186FFC
:100EA80010C11BF1125109E1020E115DD8A05FEFCC
:100EB80007F061EF07F06DEF07F0FF0E1125256FC2
:100EC800FF0E1221266F000E1F6F000E1E6F75EFAA
:100ED80007F0000E266F010E256F000E1F6F010E22
:100EE8001E6F1B0E0A6F010E0B6F13C10CF114C19C
:100EF8000DF1170E0E6F010E0F6F1DEC0BF00AC1EE
:100F080019F10BC11AF1010111511211D8B48FEF67
:100F180007F091EF07F0C5EF07F01ABF96EF07F05B
:100F280098EF07F0C5EF07F0FF0E11250001E66FF7
:100F3800FF0E010112210001E76FE6510101195D61
:100F48001A51800A0001E86FE751800AE859D8A0D1
:100F5800B0EF07F0B2EF07F0BBEF07F0FF0E0101AB
:100F68001125156FFF0E1221166FBFEF07F019C17B
:100F780015F11AC116F1010110511525D96EDA6A59
:100F8800DF6A1200000E166E14BECFEF07F0CDEF29
:100F980007F0D9EF07F0141E131E121E116C000E75
:100FA800122213221422010E166E10BEE0EF07F073
:100FB800DEEF07F0EAEF07F0101E0F1E0E1E0D6C95
:100FC800000E0E220F221022010E161A000E176EA6
:100FD800000E186E000E196E000E1A6E11501210C7
:100FE80013101410D8B4FBEF07F0FDEF07F033EF40
:100FF80008F0010E156E07EF08F0D890113612367A
:1010080013361436152A14AE0CEF08F00EEF08F05C
:1010180001EF08F0D8901736183619361A361150DD
:101028000D5C12500E5813500F5814501058D8A079
:1010380020EF08F022EF08F02BEF08F011500D5EBA
:1010480012500E5A13500F5A1450105A1780D89035
:101058001432133212321132152E0EEF08F01650D8
:10106800D8B439EF08F03BEF08F043EF08F01A1E48
:10107800191E181E176C000E182219221A2217C0E2
:101088000DF018C00EF019C00FF01AC010F01200C1
:10109800000E0001D56F22BE56EF08F054EF08F09D
:1010A8005CEF08F0216C221ED8B0222A010ED56F01
:1010B80020BE63EF08F061EF08F069EF08F01F6CDD
:1010C800201ED8B0202A010ED51B000ED76F000EA7
:1010D800D66F21502210D8B474EF08F076EF08F0DC
:1010E8009EEF08F0010ED46F7EEF08F0D8902136FD
:1010F8002236D42B22AE83EF08F085EF08F07AEF82
:1011080008F0D890D637D73721501F5C2250205886
:10111800D8A091EF08F093EF08F098EF08F021506D
:101128001F5E2250205AD681D89022322132D42FE5
:1011380085EF08F0D551D8B4A4EF08F0A6EF08F071
:10114800AAEF08F0D66DD71FD8B0D72BD6C01FF09E
:10115800D7C020F012000001D651D711D8B4B7EF8C
:1011680008F0B9EF08F0C2EF08F0D651D711D8A4AB
:10117800C0EF08F0C2EF08F0C7EF08F0D45157EC01
:101188000EF00CEF09F020EE0AF0D651D926D7510F
:10119800DA22DE50DE10D8B4D4EF08F0D6EF08F02B
:1011A800F1EF08F020EE0AF0D651D926D751DA220D
:1011B80010EE03F0D651E126D751E222DE50E65C6C
:1011C800E650800ADC6FDE50800ADC59D8B0EFEFB9
:1011D80008F0F1EF08F00CEF09F020EE03F0D6511B
:1011E800D926D751DA22DF50D86FD6C0D9FFD7C059
:1011F800DAFFDF50D825D96EDA6AD4C0DFFF20EED7
:1012080003F0D651D926D751DA22DE2A000EDD2284
:1012180012000CEC0EF00009D8B415EF09F017EF26
:1012280009F066EF09F01BEC0CF0346E3450A6ECB4
:101238000BF02DEF09F0010E0001FE6F34C0FFF036
:1012480066EF09F0000E0001FE6F300EFF6F66EFCB
:1012580009F03450206E216A2150000AD8B437EFC3
:1012680009F026EF09F020500D0AD8B41FEF09F055
:101278003D0AD8B41FEF09F0010AD8B41FEF09F0EE
:10128800030AD8B41FEF09F0010AD8B41FEF09F018
:10129800070AD8B41FEF09F0010AD8B41FEF09F004
:1012A800030AD8B41FEF09F0010AD8B41FEF09F0F8
:1012B8000F0AD8B41FEF09F0010AD8B41FEF09F0DC
:1012C80026EF09F01200000E0001D56F20BE71EF65
:1012D80009F06FEF09F077EF09F01F6C201ED8B006
:1012E800202A010ED56F22BE7EEF09F07CEF09F0AF
:1012F80082EF09F0216C221ED8B0222A2150221038
:10130800D8B489EF09F08BEF09F0AFEF09F0010EBF
:10131800D46F93EF09F0D89021362236D42B22AE21
:1013280098EF09F09AEF09F08FEF09F021501F5C50
:1013380022502058D8A0A3EF09F0A5EF09F0A9EF93
:1013480009F021501F5E2250205AD89022322132B3
:10135800D42F9AEF09F0D551D8B4B5EF09F0B7EF0B
:1013680009F0BBEF09F01F6C201ED8B0202A1FC05F
:101378001FF020C020F01200206E6CBAC6EF09F0F2
:10138800C8EF09F014EF0AF02050040D010EF326FF
:10139800000EF422AD0EF324F66EFD0EF420F76E67
:1013A800F86A000EF8220800F5CF6DFF2050040DF2
:1013B800AD0EF324F66EFD0EF420F76EF86A000EFB
:1013C800F8220800F5CF6CFF000E6B6E2050040D5C
:1013D800020EF326000EF422AD0EF324F66EFD0E77
:1013E800F420F76EF86A000EF8220800F5CF6EFFB9
:1013F8002050040D030EF326000EF422AD0EF32444
:10140800F66EFD0EF420F76EF86A000EF82208005A
:10141800F5CF1FF095501F18FE0B1F18956E6C8A9C
:1014280012003950800FD96EDA6ADF6AABA41FEF59
:101438000AF021EF0AF033EF0AF03950800FD96E25
:10144800DA6A0001DF8202D833EF0AF00500FA6E8B
:10145800F651FD6EF751FE6EFF6AFA501200ABA20C
:1014680038EF0AF03AEF0AF04CEF0AF03950800FE3
:10147800D96EDA6A0001DF8402D84CEF0AF0050061
:10148800FA6EF451FD6EF551FE6EFF6AFA501200C5
:101498003950800FD96EDA6ADF50D8B456EF0AF0A7
:1014A80058EF0AF067EF0AF002D865EF0AF0050076
:1014B800FA6E0001F251FD6EF351FE6EFF6AFA50AA
:1014C800120069EF0AF0A5EC0DF01200010E000100
:1014D800DF6F400EDE6F000EDD6FF00EDC6F000E6A
:1014E800D76F000ED66F000ED96F000ED86F61EC63
:1014F8000CF00009D8B483EF0AF085EF0AF09FEFEB
:101508000AF0ADEF0AF0DAC0D4F0DBC0D5F0E8ECB1
:101518000DF00001DE07D8A0DF07DE2906E1DF298C
:10152800D8A499EF0AF09BEF0AF087EF0AF0010EB2
:10153800DF6F400EDE6F0001DC07D8A0DD07DC2975
:1015480006E1DD29D8A4ABEF0AF0ADEF0AF08DEF84
:101558000AF012009D9A2A0E1F6E140E206E70EC6F
:101568000EF09D98400E1F6E190E206E6BEC0EF05B
:10157800080EB86E900EAB6E240EAC6ECF0EAF6E2A
:10158800000EB06E400E1F6E1D0E206E7AEC0EF02F
:101598001A0E1F6E1D0E206E75EC0EF0200E1F6EBB
:1015A8001D0E206E7FEC0EF0000E366E000E3C6EA7
:1015B800000E3B6E080E3A6E000E396E000E386E45
:1015C800000E376E9D8A1200000E096E000E0A6E1C
:1015D800000E0B6E000E0C6E01A0F5EF0AF0F7EF8F
:1015E8000AF0FFEF0AF00550092606500A220750B4
:1015F8000B2208500C22D8900536063607360836D6
:10160800D890043203320232013201500210031022
:101618000410D8A412EF0BF014EF0BF0F0EF0AF05F
:1016280009C001F00AC002F00BC003F00CC004F0BE
:1016380012000CC1E4F00DC1E5F0000E246E000E9E
:10164800236E39EF0BF00AC1DDF00BC1DEF0E40EBA
:101658000001DF6F0EC1E0F00FC1E1F0AAEC03F06A
:101668000001DD512326DE512422E4C0F6FFE5C047
:10167800F7FFF86A0800F5500009D8A446EF0BF008
:1016880048EF0BF027EF0BF023C00AF124C00BF151
:101698001200000E00EC0EF021EC0EF001C02DF04F
:1016A80002C02EF02DC001F02EC002F0036A046AB9
:1016B800640E056E000E066E000E076E000E086EB4
:1016C800E8EC0AF001C00DF002C00EF003C00FF004
:1016D80004C010F0FF0E116E030E126E000E136E92
:1016E800000E146EC6EC07F00DC09EF00EC09FF001
:1016F8001200380EF66E1D0EF76E000EF86E090019
:10170800F5CFFEF00900F5CFFFF0360EF66E1D0E90
:10171800F76E000EF86E0900F5CF3FF00900F5CF1F
:1017280040F000EE60F0740EEE6AE806FDE100EEAF
:1017380023F01A0EEE6AE806FDE14190419200019D
:101748005FEF02F01F6E3A50D8B4ADEF0BF0AFEF79
:101758000BF0A7EF0BF09DB8B4EF0BF0B6EF0BF062
:10176800BAEF0BF01FC0ADFFCDEF0BF09D983C50CA
:10177800900FD96EDA6A1FC0DFFF3C2A070E3C645F
:10178800C8EF0BF0CAEF0BF0CCEF0BF0000E3C6E7D
:101798003A069D8812000001D55109E1F00ED45D8A
:1017A800D8A0D9EF0BF0DBEF0BF0DEEF0BF0010E5A
:1017B800F4EF0BF02A0E206E000EF4EC0DF0000191
:1017C800D551206E010EF4EC0DF0D4C020F0010EBE
:1017D800F4EC0DF02C0E206E000EF4EC0DF0000E63
:1017E8001200400E0001D45D010ED559D8A0FFEFBC
:1017F8000BF001EF0CF004EF0CF0010E1AEF0CF0F7
:101808002B0E206E000EF4EC0DF00001D551206E69
:10181800010EF4EC0DF0D4C020F0010EF4EC0DF044
:101828002C0E206E000EF4EC0DF0000E1200375056
:10183800D8B421EF0CF023EF0CF01BEF0CF038506C
:10184800800FD96EDA6ADF50366E3850880FD96E3D
:10185800DA6ADF501F6E382A070E386436EF0CF04C
:1018680038EF0CF03AEF0CF0000E386E9D9A370600
:101878009D8A1F501200000E8D6E000E8C6E000E99
:10188800896E000E8A6E000E8B6E040E966EBF0E69
:10189800926EC70E936E9F0E946E9568000E0F01A0
:1018A8003B6F300E3A6F060E396F070E3C6F2F0EE6
:1018B800386F000E616EF19E1200D6C0D4F0D7C00A
:1018C800D5F0F5EC0BF00009D8A46DEF0CF06FEF34
:1018D8000CF07DEF0CF0D8C0D4F0D9C0D5F0CFEC27
:1018E8000BF00009D8B47BEF0CF07DEF0CF080EF23
:1018F8000CF0010E81EF0CF0000E12009E902FC02C
:1019080001F030C002F091EC0DF00001EE51EF1142
:10191800D8B491EF0CF093EF0CF09FEF0CF002D8D5
:101928009FEF0CF00500FA6EEE51FD6EEF51FE6E62
:10193800FF6AFA5012001200080E3A60A6EF0CF087
:10194800A8EF0CF0BCEF0CF03B50900FD96EDA6AA0
:10195800DF50AD6E3B2A070E3B64B5EF0CF0B7EFD6
:101968000CF0B9EF0CF0000E3B6E3A2ABDEF0CF00C
:101978009D9812000001D7BFC4EF0CF0C6EF0CF021
:10198800CCEF0CF0D6C0D6F0D7C0D7F0D8EF0CF01B
:10199800D6C0D8F0D7C0D9F0D81FD91FD84BD92B6B
:1019A800D8C0D6F0D9C0D7F012000001A151D8B4E0
:1019B800E0EF0CF0E2EF0CF0F3EF0CF08AB8E7EF91
:1019C8000CF0EAEF0CF0010EEBEF0CF0000EFF0A42
:1019D800016E013A8A500118EF0B01188A6E120045
:1019E800F29435C0D6FF0001F051F111D8B4FFEFE1
:1019F8000CF001EF0DF00DEF0DF002D80DEF0DF02A
:101A08000500FA6EF051FD6EF151FE6EFF6AFA5054
:101A180012001200206E000E216E1BEF0DF0030E57
:101A28001F6E980EE82EFED71F2EFCD7212A2050B5
:101A3800215CD8A022EF0DF024EF0DF013EF0DF08C
:101A480012000001FC51FD11D8B42DEF0DF02FEF5D
:101A58000DF03BEF0DF002D83BEF0DF00500FA6EEC
:101A6800FC51FD6EFD51FE6EFF6AFA501200120025
:101A78009E9C3D503E10D8B444EF0DF046EF0DF05B
:101A880052EF0DF002D852EF0DF00500FA6E3D50FE
:101A9800FD6E3E50FE6EFF6AFA501200120043ECD3
:101AA8000EF02BEC0EF03FEC0CF03CEC0EF0B8EC2A
:101AB8000DF034EC0EF068EC0DF017EC0EF0CAECFB
:101AC8000DF0AEEC0AF01200000ECC6E0B0ECF6ECD
:101AD800DC0ECE6ECECF2FF0CFCF30F09E909D8013
:101AE8003A0E1F6E1D0E206E5CEC0EF0310ECD6EA0
:101AF8001200120E0001E66F010EE76F000E0101E1
:101B08000A6F000E0B6F10C10CF111C10DF1E60E3A
:101B18000E6F0F6B1DEC0BF01200CDA496EF0DF0BD
:101B280098EF0DF0A0EF0DF0CD900250CF6E01C0F0
:101B3800CEFFCD80A4EF0DF00250CF6E01C0CEFFD6
:101B480012003950880FD96EDA6AAECFDFFF392A12
:101B5800070E3964B2EF0DF0B4EF0DF0B6EF0DF0EB
:101B6800000E396E372A1200010EC26E000EC16EC9
:101B78008C0EC06E000EC36E000EC46E9D8C420E9D
:101B88001F6E1D0E206E84EC0EF01200000ED76E34
:101B98003D0ED66E3D0E356EF294F28A3C0E1F6EE7
:101BA8001D0E206E61EC0EF0570ED56E12001F6EE2
:101BB8001FC06FFFA4AEE3EF0DF0E5EF0DF0DEEF11
:101BC8000DF0A49E6F5012000001D551206E010E39
:101BD800F4EC0DF0D4C020F0010EF4EC0DF012007E
:101BE800216E21B002D08D9001D08D808D92205031
:101BF800DBEC0DF08D821200026E02C001F001468E
:101C08000146C2500118830B0118C26EC28012002F
:101C18003750D8A412EF0EF015EF0EF0010E16EFA4
:101C28000EF0000E1200F292F19C3E0E1F6E1D0E79
:101C3800206E66EC0EF0F2881200C450046E036A3F
:101C4800C3500324016E000E0420026E1200400EE1
:101C58006D6E000E6C6E010E6E6E95906C9A120091
:101C6800000E0F01546F000E556F000E566F1200D4
:101C7800300ED36E040ED26E000E9B6E1200D08E04
:101C88009F8CF1849F889F8A9F801200000E00011C
:101C9800A06F000EA16FF2921200000E00EC0EF081
:101CA80099EC0EF01200206E2050A6EC0BF01200FA
:101CB8001FC0EEF020C0EFF012001FC0F0F020C0EF
:101CC800F1F012001FC0FCF020C0FDF012001FC090
:101CD800FAF020C0FBF012001FC0F8F020C0F9F0A5
:101CE80012001FC0F4F020C0F5F012001FC0F6F07B
:101CF80020C0F7F012001FC0F2F020C0F3F012006D
:101D08001FC03DF020C03EF01200F29225EC0DF00D
:101D18001200AB98AB881200A5EC0DF01200CD9024
:101D28001200CD801200D58E1200C282120012005D
:0C1D380001301200120012001200120014
:10D094000014A514A514A514A514A514A514A51469
:10D0A400A514A514A514AD14A514A514A514A514AC
:10D0B400A514A514ADF4ACD3AC92AC52A431A41114
:10D0C400A452A472A4D3ACF4AC14AD14AD14A5143E
:10D0D400A514A514A514A514A514A514A514A51484
:10D0E400A514A514A514A514A514A514A514A51474
:10D0F400A514A514A514A514A514A514A514A51464
:10D10400A514A514A514A514A514A514A514A51453
:10D11400A514A514A514A514A514A514A514A51443
:10D12400A514A514A514A514A514A514A514A51433
:10D13400A514A514A514A514A514A514A514A51423
:10D14400A514A514A514A514A514A514A514ADD34C
:10D15400AC31A44E9B6B8A88812679E678A578A5A4
:10D1640078C578067988814A8A0D93F0A3B3AC1404
:10D17400A514A514A514A514A514A514A514A514E3
:10D18400A514A514A514A514A514A514A514A514D3
:10D19400A514A514A514A514A514A514A514A514C3
:10D1A400A514A514A514A514A514A514A514A514B3
:10D1B400A514A514A514A514A514A514A514A514A3
:10D1C400A514A514A514A514A514A514A514A51493
:10D1D400A514A514A514A514A514A514A514AD147B
:10D1E400A514A514A514A514A514ADB2AC8E9B0961
:10D1F40082C6784478037803780378037803780345
:10D204007803780378037802784378C578A8810D89
:10D214009B72AC13AD14A514A534A514A515A514BF
:10D22400A514A514A514A514A514A514A514A51432
:10D23400A514A514A514A514A514A514A514A51422
:10D24400A514A514A514A514A514A514A514A51412
:10D25400A514A514A514A514A514A514A514A51402
:10D26400A514A514A514A514A514A514A514A514F2
:10D27400A514A514A514A514A514A514A514A514E2
:10D28400A534A514AD14ADD3A44E9B678164780373
:10D2940078037803780378037803780378037803B2
:10D2A400780378037803780378027002780378446B
:10D2B400702679EC9292A413A514A514A514A514B0
:10D2C400A514A514A514A514A514A514A514A51492
:10D2D400A514A514A514A514A514A514A514A51482
:10D2E400A514A514A514A514A514A514A514A51472
:10D2F400A514A514A514A514A514A514A514A51462
:10D30400A514A514A514A514A514A514A514A51451
:10D31400A514A514A514A514A514A514A514A51441
:10D32400A514A513AD30A4098A647803780378039F
:10D334007803780378037803780378037803780311
:10D344007803780378037803780378037803780301
:10D354007803784370A881CFA3F3A413A514A5146C
:10D36400A514A514A514A514A514A514A514A514F1
:10D37400A514A514A514A514A514A514A514A514E1
:10D38400A514A514A514A514A514A514A514A514D1
:10D39400A514A514A514A514A514A514A514A514C1
:10D3A400A514A514A514A514A514A514A514A514B1
:10D3B400A514A514A514A514A514A514A514A514A1
:10D3C400A5F3AC8E9B26792378037803780378033E
:10D3D4007803780378037803780378037803780371
:10D3E4007803780378037803780378037803780361
:10D3F40078037803780378C578ED92D3AC14A51438
:10D40400A514A514A514A514A514A514A514A51450
:10D41400A514A514A514A514A514A514A514A51440
:10D42400A514A514A514A514A514A514A514A51430
:10D43400A514A514A514A514A514A514A514A51420
:10D44400A514A514A514A514A514A514A514A51410
:10D45400A514A514A514A514A514A514A514A5D341
:10D46400A40D93A5700378037803780378037803F5
:10D4740078037803780378037803780378037803D0
:10D4840078037803780378037803780378037803C0
:10D4940078037803780378037864786B8AB2A414E9
:10D4A400A514A514A514A514A514A514A514A514B0
:10D4B400A514A514A514A514A514A514A514A514A0
:10D4C400A514A514A514A514A514A514A514A51490
:10D4D400A514A514A514A514A514A514A514A51480
:10D4E400A514A514A514A514A514A514A514A51470
:10D4F400A514A514A514A514A514A514A5D3ACECC2
:10D504009A8478037803780378037803780378039C
:10D5140078037802782378857806798881E989E91F
:10D5240081A8814781C57843780378037803780319
:10D53400780378037803780378037844786B92B39C
:10D54400AC14A514A514A514A514A514A514A51408
:10D55400A514A514A514A514A514A514A514A514FF
:10D56400A514A514A514A514A514A514A514A514EF
:10D57400A514A514A514A514A514A514A514A514DF
:10D58400A514A514A514A514A514A514A514A514CF
:10D59400A514A514A514A514A514A5F4AC4E9B8438
:10D5A400780378037803780378037803780378039F
:10D5B4007864788881EC92F0A392A4D3ACF3ACF3B2
:10D5C400A4D3AC92AC11A42E9BC9898578037803AB
:10D5D4007803780378037803780378037844788CA5
:10D5E40092F3AC14A514A514A514AD14A514A51494
:10D5F400A514A514A514A514A514A514A514A5145F
:10D60400A514A514A514A514A514A514A514A5144E
:10D61400A514A514A514A514A514A514A514A5143E
:10D62400A514A514A514A514A514A514A514A5142E
:10D63400A514A514A514A514A513ADF0A3C67803C9
:10D644007803780378037803780378037843788839
:10D65400818F9BB3ACF4AC14A514A514A514A51424
:10D66400A514A514A514A514ADD3ACF0A309826424
:10D674007003780378037803780378037803788455
:10D68400702D9B14A514A5F4A414A514A514A51415
:10D69400A514A514A514A514A514A514A514A514BE
:10D6A400A514A514A514A514A514A514A514A514AE
:10D6B400A514A514A514A514A514A514A514A5149E
:10D6C400A514A514A514A514A514A514A514A5148E
:10D6D400A513A514A514A514A592A4A881237803C1
:10D6E4007803780378037803780378A578AC92B24A
:10D6F400AC14A514A514AD14A514A514A514A5144F
:10D70400A514A514A514AD14A514A514ADD3AC4E3D
:10D714009B067923780378027803800378037802E0
:10D7240078E67810A414AD14A514A514A514A514B2
:10D73400A514A514A514A514A514A514A514A5141D
:10D74400A514A514A514A514A514A514A514A5140D
:10D75400A514A514A514A514A514A514A514A514FD
:10D76400A514A514A514A514A514A514A514A514ED
:10D77400A514A514A514A5F3ACCC922378037803BF
:10D78400780378037803780378E5788E9BF3AC14F8
:10D79400A514A514A514A513A514A514AD14AD14AE
:10D7A400AD14A514A513A514A534A515A5F4ACF3BF
:10D7B400ACF0A347810378038003780378037803EC
:10D7C400784370298AD3AC14A514A5F4AC14A51419
:10D7D400A514A514A514A514A514A514A514A5147D
:10D7E400A514A514A514A514A514A514A514A5146D
:10D7F400A514A514A514A514A514A514A514A5145D
:10D80400A514A514A514A514A514A514A514A5144C
:10D81400A514A514A5F4AC31AC06790378027803F9
:10D8240078037803780378A5788F9B14A514A5143E
:10D83400AD14A514A514A514A514A514A514A51414
:10D84400A514A514A514A514A514A5F4AC14A51425
:10D85400A514AD10A4277903700378037803780323
:10D8640078027884788F9B13AD14A514A514A5149D
:10D87400A514A514A514A514A514A514A514A514DC
:10D88400A514A514A514A514A514A514A514A514CC
:10D89400A514A514A514A514A514A514A514A514BC
:10D8A400A514A514A514A514A514A514A514A514AC
:10D8B400A514A514A5F4ACAB9223700378037803E4
:10D8C400780378037864780D9BF3AC14A514A5143D
:10D8D400A514A514A514A514A514A514A514A5147C
:10D8E400A514A514A514A514AD14A514A514A51464
:10D8F400A514A514ADAFA3C5780378037803780302
:10D904007802780378E989D3AC14A514A514A51476
:10D91400A514A514A514A514A514A514A514A5143B
:10D92400A514A514A514A514A514A514A514A5142B
:10D93400A514A514A514A514A514A514A514A5141B
:10D94400A514A514A514A514A514A514A514A5140B
:10D95400A514A514A592A406790278037803780384
:10D9640078037823780A8AD3AC14A514A534A514B3
:10D97400A514A514A514AD14AD14A514A514A514CB
:10D98400A514A514A514A514A514A514A514A514CB
:10D99400A514A514A5F3ACCC9243700380037803BB
:10D9A4007803780278857810A414A514A514A51416
:10D9B400A514A514A514A514A514A514A514A5149B
:10D9C400A514A514A514A514A514A514A514A5148B
:10D9D400A514A514A514A514A514A514A514A5147B
:10D9E400A514A514A514A514A514A514A514A5146B
:10D9F400A514A514AD6E9B447803780378037803CB
:10DA0400780378C57811A414AD14A514A514A5142D
:10DA1400AD14A514A514A514A514A514A514A51432
:10DA2400A514A514A514A514A514A514A514A5142A
:10DA3400A514A514A514A592AC67810378037803F3
:10DA440078038002782370AC8A14AD14A514AD1445
:10DA5400A514A514A514A514A514A514A514A514FA
:10DA6400A514A514A514A514A514A514A514A514EA
:10DA7400A514A514A514A514A514A514A514A514DA
:10DA8400A514A514A514A514A514A514A514A514CA
:10DA9400A515A5F3AC2A8A237803780378037803C1
:10DAA4007803786B8AF3AC14A514AD14A514A514EB
:10DAB400A514AD14A514A514A514A514A514A51492
:10DAC400A514A514A514A514A514A514A514A5148A
:10DAD400A514A514A514A514AD2E9B4470037803B6
:10DAE400780378037803786781B2AC14AD14A51475
:10DAF400A514A514A514A514A514A514A514A5145A
:10DB0400A514A514A514A514A514A514A514A51449
:10DB1400A514A514A514A514A514A514A514A51439
:10DB2400A514A514A514A514A514A514A514A51429
:10DB3400A514A592AC47810378037803782378036E
:10DB4400786478F0A314A514A514A514A534A51419
:10DB5400A514A514A514A514A514A514A514A514F9
:10DB6400A514A514A514A514A514A514A514A514E9
:10DB7400A514A514A514A514A572ACE6780378031E
:10DB840078037803780378A57830A414AD14A51429
:10DB9400A514A514A514A514A514A514A514A514B9
:10DBA400A514A514A514A514A514A514A514A514A9
:10DBB400A514A514A514A514A514A514A514A51499
:10DBC400A514A514A514A514A514A514A514A51489
:10DBD400A514A510A4A5780270037803780378032C
:10DBE400784779B2AC14AD14A5B3ACD0A38E9BF036
:10DBF400A3D3AC14AD14A514AD14A514A514A51485
:10DC0400A514A514A514A514A514A514A514A51448
:10DC1400A514A514A514A514A5F4AC2A8A037803A5
:10DC24007803780378037864706E9B14AD14A5149C
:10DC3400A514A514A514A514A514A514A514A51418
:10DC4400A514A514A514A514A514A514A514A51408
:10DC5400A514A514A514A514A514A514A514A514F8
:10DC6400A514A514A514A514A514A514A514A514E8
:10DC7400A514A58F9B44780378037803780378036D
:10DC8400784A8AF3AC14AD31A4C981847844788588
:10DC9400780A8A51A414A514A514A514A514A514CE
:10DCA400A514A514A514A514A514A514A514A514A8
:10DCB400A514A514A514A514A513A50D9B237803D9
:10DCC400780378037803782378CC92F4AC14A51401
:10DCD400A514A514A514A514A514A514A514A51478
:10DCE400A514A514A514A514A514A514A514A51468
:10DCF400A514A514A514A514A514A514A514A51458
:10DD0400A514A514A514A514A514A514A514A51447
:10DD1400A514AD2D93237803780378037803802327
:10DD240078EC9213A5B2A4C981237803780378030D
:10DD3400782378EA89D3AC14AD14A514A514A514DA
:10DD4400A514A514A514A514A514A514A514A51407
:10DD5400A514A514A514A514A514A5AFA36478034C
:10DD64007803780378037803704A92F4AC14A5130B
:10DD7400A514A514A514A514A514A514A514A514D7
:10DD8400A514A514A514A514A514A514A514A514C7
:10DD9400A514A514A514A514A514A514A514A514B7
:10DDA400A514A514A514A514A514A514A514A514A7
:10DDB400A514ADEC922378037803780378027844B1
:10DDC400704E9B14ADCF9B8478037803780378035B
:10DDD400780378857010A414A514A514A514A514AB
:10DDE400A514A514A514A514A514A514A514A51467
:10DDF400A514A514A514A514A514A510A485780329
:10DE04007803780378027802780A8AF4AC14A514AB
:10DE1400A514A514A514A514A514A514A514A51436
:10DE2400A514A514A514A514A514A514A514A51426
:10DE3400A514A514A514A514A514A514A514A51416
:10DE4400A514A514A514A514A514A514A514A51406
:10DE5400A514ADCC9223780378037803780378442F
:10DE6400788F9B13AD4E9B44780378037803780333
:10DE74007803784470CF9B14A514A514A514A51495
:10DE8400A514A514A514A514A514A514A514A514C6
:10DE9400A514A514A514AD14A514A531A4A578033F
:10DEA400780378037803780378E989F3A414A51434
:10DEB400A514A514A514A514A514A514A514A51496
:10DEC400A514A514A514A514A514A514A514A51486
:10DED400A514A514A514A514A514A514A514A51476
:10DEE400A514A514A514A514A514A514A514A51466
:10DEF400A5F4ACCC922378037803780378037844B0
:10DF0400784E9B13ADAF9B6478037803800378034A
:10DF1400780378A47010A414A514A514A514A5144A
:10DF2400A514A514A514A514A514A514A514A51425
:10DF3400A514A514A514A514A514AD10A4857803DF
:10DF44007803780378037803700A8AF3AC14A51471
:10DF5400A514A514A514A514A514A514A514A514F5
:10DF6400A514A514A514A514A514A514A514A514E5
:10DF7400A514A514A514A514A514A514A514A514D5
:10DF8400A514A514A514A514A514A514A514A514C5
:10DF9400A514A52D93437803780378037803782395
:10DFA40078EC9213AD92ACA88123700378037803C4
:10DFB400782378E989D3AC14A514A514A514A51461
:10DFC400A514A514A514A514A514A514A514A51485
:10DFD400A514A514A514A514AD14ADAFA3647003C2
:10DFE4007803780378037803704A8A14AD14A5146F
:10DFF400A514A514A514A514A514A514A514A51455
:10E00400A514A514A514A514A514A514A514A51444
:10E01400A514A514A514A514A514A514A514A51434
:10E02400A514A514A514A514A514A514A514A51424
:10E03400A514A58F9B647003780378037803780391
:10E04400784A8AF3AC14A531A4C9818470447885D4
:10E0540078E98951ACF4AC14A514A514A514A5143D
:10E06400A514A514A514A514A514A514A514A514E4
:10E07400A514A514A514A514A513AD0D9B447803EC
:10E08400780378037803782378CC9214AD14A5141C
:10E09400A514A514A514A514A514A514A514A514B4
:10E0A400A514A514A514A514A514A514A514A514A4
:10E0B400A514A514A514A514A514A514A514A51494
:10E0C400A514A514A514A514A514A514A514A51484
:10E0D400A514A511A4A4780378037803780378031E
:10E0E400784781B2A414A514A5D2A4CFA36E9BF043
:10E0F4009BB3A414AD14AD14A514A514A514A514B0
:10E10400A514A514A514A514A514A514A514A51443
:10E11400A514A514AD14A514A5F3AC2A8A0378029A
:10E124007803780378037843786E9B14AD14A514B0
:10E13400A514A514A514A514A514A514A514A51413
:10E14400A514A514A514A514A514A514A514A51403
:10E15400A514A514A514A514A514A514A514A514F3
:10E16400A514A514A514A514A514A514A514A514E3
:10E17400A514A592AC478103780378037803780348
:10E18400788478F0A314AD14AD14A513A514A514C4
:10E19400A514A514A514A514A514A514A514A514B3
:10E1A400A514A514A514A514A514A514A514A514A3
:10E1B400A514A514A514A513A572AC0679037803B8
:10E1C40078038003780378A57811A414A514A51303
:10E1D400A514A514A514A514A514A514A514A51473
:10E1E400A514A514A514A514A514A514A514A51463
:10E1F400A514A514A514A514A514A514A514A51453
:10E20400A514A514A514A514A514A514A514A51442
:10E21400A514A5F3AC2A8A0378037803780378035A
:10E224007803786A92F3AC14A534A514A514A51444
:10E23400A514A514A514A514A514AD14A514A5140A
:10E24400A514A514A514A514A514AD14AD14A5F412
:10E25400AC14A514A514A514AD4E93437003780310
:10E26400700378037802786781B2AC14A513A514FF
:10E27400A514A514A514A514A514A514A514A514D2
:10E28400A514A514A514A514A514A514A514A514C2
:10E29400A514A514A514A514A514A514A514A514B2
:10E2A400A514A514A514A514A514A514A514A514A2
:10E2B400A514A513AD4E9B44780378037803780323
:10E2C400780378E57810A414AD15A514A514A51445
:10E2D400A514A514A514A514A514A514A514A51472
:10E2E400A514A514A514A514ADF4AC14A514A51473
:10E2F400A514A514A514A592A46781027803780334
:10E30400780378037823788B9214A514A514A514A4
:10E31400A514A514A514A514A514A514A514A51431
:10E32400A514A514A514A514A514A514A514A51421
:10E33400A514A514A514A514A514A514A514A51411
:10E34400A514A514A514A514A514A514A514A51401
:10E35400A514A514A592A406790378037803780379
:10E3640078037823782A8AD3AC14AD14AD14A51499
:10E37400A514A514A514A514A514A514A514A514D1
:10E38400A514A514A514A514A514A514A534A514A1
:10E39400A514AD14A5F3ACED924478037803780387
:10E3A40078037803788478F09B14A514A514A51435
:10E3B400A514A514A514A514A514A514A514A51491
:10E3C400A514A514A514A514A514A514A514A51481
:10E3D400A514A514A514A514A514A514A514A51471
:10E3E400A514A514A514A514A514A514A514A51461
:10E3F400A514A514A5F4AC8C9223780378037803B0
:10E40400780378037864782D9BF4AC14A514A514D0
:10E41400A514A514A514A514A514A514A514A51430
:10E42400A514A514A514A514A514A514A514A51420
:10E43400AD14A534A5CFA3C5780378037803780376
:10E444007803780378C981D3AC14A514A514A51452
:10E45400A514A514A514A514A514A514A514A514F0
:10E46400A514A514A514A514A514A514A514A514E0
:10E47400A514A514A514A514A514A514A514A514D0
:10E48400A514A514A514A514A514A514A514A514C0
:10E49400A514A514A514A531A4E67803780378037C
:10E4A40078037803780378C5788F9B14AD14A5148A
:10E4B400A514A514A514A514A514A514A514A51490
:10E4C400A514A514A514A514A514A514A514AD1478
:10E4D400A514AD30A4468103780378037803780348
:10E4E4007803788478AF9B14A514A514A514A514F7
:10E4F400A514A514A514A514A514A514A514A51450
:10E50400A514A514A514A514A514A514A514A5143F
:10E51400A514A514A514A514A514A514A514A5142F
:10E52400A514A514A514A514A514A514A514A5141F
:10E53400A514A514A514A5F3ACAB924370037803FA
:10E54400780380037802780378E6788F9BF4AC1420
:10E55400A514A514A514A514A514A514A514A514EF
:10E56400A514A514A534AD14A514A514A514A513B8
:10E57400A5F0A36779037803780378037803780315
:10E58400780378098AD3AC14A514A514A514A5148A
:10E59400A514A514A514A514A514A514A514A514AF
:10E5A400A514A514A514A514A514A514A514A5149F
:10E5B400A514A514A514A514A514A514A514A5148F
:10E5C400A514A514A514A514A514A514A514A5147F
:10E5D400A514A514A514A534AD92A48881037803C9
:10E5E4007803780378037803780378A578CC9AB213
:10E5F400AC14A514A514A514A514A514A514A51448
:10E60400A514A514A514A514A514A514A5D3AC4E3E
:10E614009B068103780378037803780378037803EF
:10E6240078E68011A414A514A514A514A514A514A2
:10E63400A514A514A514A514A514A514A514A5140E
:10E64400A514A514A514A514A514A514A514A514FE
:10E65400A514A514A514A514A514A514A514A514EE
:10E66400A514A514A514A514A514A514A514A514DE
:10E67400A514A514A514A514A514A5F0A3C5780381
:10E68400780378037803780378037803784478A8C8
:10E69400818E9BB3A414AD14A514AD14A514A514B4
:10E6A400A514A514A514A513ADD3ACD0A30A8A64EC
:10E6B40078037803780378037803780278038084F6
:10E6C400704E9BF4AC14A5F4AC14A514A514A514B5
:10E6D400A514A514A514A514A514A514A514A5146E
:10E6E400A514A514A514A514A514A514A514A5145E
:10E6F400A514A514A514A514A514A514A514A5144E
:10E70400A514A514A514A514A514A514A514A5143D
:10E71400A514A514A514A534A514ADF3AC2D9B84A0
:10E72400780378037803780378037803780278030E
:10E734007885788881ED9AF0A392A4D3ACF3A4F3FE
:10E74400ACD3ACB3AC31A44D9BE989C57803780351
:10E754007803780378038003780378037844788B0C
:10E764008AF3A414A514AD14A514A514A514A51412
:10E77400A514A514A514A514A514A514A514A514CD
:10E78400A514A514A514A514A514A514A514A514BD
:10E79400A514A514A514A514A514A514A514A514AD
:10E7A400A514A514A514A514A514A514A514A5149D
:10E7B400A514A514A514A514A514AD14A5F3A4CCEF
:10E7C40092647803780378038003780378037803EA
:10E7D40078037803782378A57026798881E989C835
:10E7E40089A8812681A5784378037003780278028A
:10E7F400780378037803780378037844704A8AB2FC
:10E80400AC34AD14A514A514A514A514A514A5140D
:10E81400AD14A514A514A514A514A514A514A51424
:10E82400A514A514A514A514A514A514A514A5141C
:10E83400A514A514A514A514A514A514A514A5140C
:10E84400A514A514A514A514A514A514A514A514FC
:10E85400A514A514A514AD14A514A514A514A5D325
:10E86400AC0D93A5700378037803780378037803D9
:10E8740078037803780378037803780378037803BC
:10E8840078037803780378037803780378037803AC
:10E8940078037803780378037844786B8AB2AC14ED
:10E8A400A514A514A514A514AD14AD14A514A5148C
:10E8B400A514A514A514A514A514A514A514A5148C
:10E8C400A514A514A514A514A514A514A514A5147C
:10E8D400A514A514A514A514A514A514A514A5146C
:10E8E400A514A514A514A514A514A514A514A5145C
:10E8F400A514A514A513A514AD14A514A514A51445
:10E90400A5F3AC6E9B067923780378037803780328
:10E91400780378037803780378037803780378031B
:10E92400780378037803780378037803780378030B
:10E9340078037803780378A578CC92D3AC14A51423
:10E94400A514A514A514A514AD14A514A514A514F3
:10E95400A514A514A514A514A514A514A514A514EB
:10E96400A514A514A514A514A514A514A514A514DB
:10E97400A514A514A514A514A514A514A514A514CB
:10E98400A514A514A514A514A514A514A514A514BB
:10E99400A514A514A514A514A514A514A514A514AB
:10E9A400A514ADF3AC10A4E9896478037802780364
:10E9B400780378037803780378037803780378037B
:10E9C400780378037803780378037803780378036B
:10E9D40078037823786781AFA3F3A414A514A5144E
:10E9E400A514A514A514A514A514A514A514A5145B
:10E9F400A514A514A514A514A514A514A514A5144B
:10EA0400A514A514A514A514A514A514A514A5143A
:10EA1400A514A514A514A514A514A514A514A5142A
:10EA2400A514A514A514A514A514A514A514A5141A
:10EA3400A514A514A514A514A514A514A514A5140A
:10EA4400A514A514A534A5D3AC4E9B6781647803A3
:10EA540078037803780378037803780378037803DA
:10EA64007803780378037803780378037803784489
:10EA7400782679EC9A92ACF4AC14A514A5F4AC14F1
:10EA8400A514A514A514A514A514A514A514A514BA
:10EA9400A514A514A514A514A514A514A514A514AA
:10EAA400A514A514A514A514A514A514A514A5149A
:10EAB400A514A514A514A514A514A514A514A5148A
:10EAC400A514A514A514A514A514A514A514A5147A
:10EAD400A514A514A514A514A514A514A514A5146A
:10EAE400A514A514A514A514A513AD92AC4E9BC9E9
:10EAF40081A578247803780278037803780378036F
:10EB04007803780278037803704470A57088810DC7
:10EB14009B72AC14AD14A514AD14A514AD14A514B6
:10EB2400A514A514A514A514A514A514A514A51419
:10EB3400A514A514A514A514A514A514A514A51409
:10EB4400A514A514A514A514A514A514A514A514F9
:10EB5400A514A514A514A514A514A514A514A514E9
:10EB6400A514A514A514A514A514A514A514A514D9
:10EB7400A514A514A514A514A514A514A514A514C9
:10EB8400A514A514A514AD14A514A514A514ADD3EA
:10EB9400AC31A44D932A8A6881E678C578A4788537
:10EBA40078A578E57847810A8A0D9B10A4B3ACF365
:10EBB400AC14A514A534A514A514A514A514A51462
:10EBC400A514A514A514A514A514A514A514A51479
:10EBD400A514A514A514A514A514A514A514A51469
:10EBE400A514A514A514A514A514A514A514A51459
:10EBF400A514A514A514A514A514A514A514A51449
:10EC0400A514A514A514A514A514A514A514A51438
:10EC1400A514A514A514A514A514A514A514A51428
:10EC2400A514A513A514A514A514A514A514A51419
:10EC3400A514AD14AD13ADD3A492A452A431A43140
:10EC4400A451A492A4D3ACF3AC14AD14A514A5148C
:10EC5400A514A514A514A515A514A514A514A514E7
:10EC6400A514A514A514A514A514A514A514A514D8
:10EC7400A514A514A514A514A514A514A514A514C8
:10EC8400A514A514A514A514A514A514A514A514B8
:10EC9400A514A514A514A514A514A514A514A514A8
:10ECA400A514A514A514A514A514A514A514A51498
:10ECB400A514A514A514A514A514A514A514A51488
:10ECC400A514A514AD14AD14AD14A514AD14A51458
:10ECD400A514A514A514A514A5F4AC14A514A51481
:10ECE400A514AD14AD14A514A514A514A514A51448
:10ECF400A514A514A514A514A514A5F4AC14AD1459
:10ED0400AD14A514A514A514A514A514A514A5142F
:10ED1400A514A514A514A514A514A514A514A51427
:10ED2400A514A514A514A514A514A514A514A51417
:10ED3400A514A514A514A514A514A514A514A51407
:10ED4400A514A514A514A514A514A514A514A514F7
:10ED5400A514A514A514A514A514A514A514A514E7
:10ED6400A514A514A514A514AD14A514A514A514CF
:10ED7400A514A514A514A514A514A514A514A514C7
:10ED8400A514A514A514A514A514A514A514A514B7
:10ED9400A514A514AD14A514A514A514A514A5149F
:10EDA400A514A514A514A514A514A514A514A51497
:10EDB400A514A514A514A514A514A514A514A51487
:10EDC400A514A514A514A514A514A514A514A51477
:10EDD400A514A514A514A514A514A514A514A51467
:10EFD400A504000000000000000000000000000084
:10EFE400000000030000000000FE001B0000000001
:10EFF4000005001E00000000000000000000001ECC
:10F00400000000000000000B0000000000100001E0
:10F014000010001D00F00003001E0001001000019C
:10F024000010001D00F00003001E0001001000018C
:10F0340000000000000900000004001C0008002279
:10F0440000100042001000FF007F00420010008406
:10F0540000100000000F00000000000C001C000065
:10F06400002200100022000800220006001C0001FB
:10F0740000C000000020000E001800110004001160
:10F08400000200110000000E00000000000B000050
:10F0940000000000000E001C001100A2001000C2BD
:10F0A400001000220011001C000A0000000C0000E7
:10F0B400000C00000012000000000003000000002B
:10F0C400001E000000000000000600000000000018
:10F0D400000000E0001F001C00600002008000002F
:10F0E4000000000400000000000600C000F8003F1B
:10F0F4000000000000060024000000180000007E4C
:10F1040000000018000000240000000000000009B6
:10F11400000000000080000000800000008000006B
:10F1240000F0000700800000008000000080000064
:10F134000000000000040000000000000060000067
:10F14400001800000000000500000001000000019C
:10F1540000000001000000010000000000040000A5
:10F164000000000000180000001800000000000863
:10F17400000000000000004000000038000000070C
:10F1840000E00000001C000000020000000000007D
:10F19400000900F800070004000800020010000243
:10F1A400001000020010000200100004000800F823
:10F1B400000700000000000900000000000000003B
:10F1C4000000000000000000000000000002000039
:10F1D4000002000000FE001F0000000000090018EB
:10F1E40000100004001800020014000200120002C3
:10F1F40000110082001000440010003800100000CC
:10F20400000000090008000C0004001000020010B7
:10F2140000420010004200100044001000B8000832
:10F2240000000007000000000009000000020000C8
:10F2340000030080000200600002001000020008C9
:10F24400000200FE001F0000000200000000000990
:10F254000000000400700008002E001000220010BE
:10F264000022001000220010004200080082000763
:10F27400000000000009000000000000000700C0BA
:10F2840000080060001000580010004400100082C4
:10F294000008000000070000000000090000000052
:10F2A400000200100002000C0002000300C2000073
:10F2B40000320000000E0000000200000000000008
:10F2C40000090000000700980008006400100042D4
:10F2D40000100042001000640010009800080000B4
:10F2E40000070000000000090000000000380000D2
:10F2F4000044001000820008008200040082000321
:10F3040000840000007800000000000000040000F9
:10F314000000003000180030001800000000000455
:10F324000000000000300060003000180000000001
:10F33400000A00000000008000000080000000407F
:10F344000001002000020020000200100004001050
:10F3540000040008000800000000000A000000008B
:10F364000020000100200001002000010020000115
:10F374000020000100200001002000010020000105
:10F3840000000000000A000000000008000800104F
:10F3940000040010000400200002002000020040CD
:10F3A4000001008000000080000000000000000850
:10F3B40000000000000C0000008200010042000276
:10F3C4000022001A0022001A009C00010000000024
:10F3D400000E0000000000F0000300080004000418
:10F3E400000800C2001100220012001200120012D4
:10F3F400001200E2001100120012000400120008C2
:10F40400000900F0000400000000000D00000000EE
:10F41400000000100000000E0080000100600001E8
:10F42400001C000100020001001C0001006000013A
:10F43400008000010000000E000000100000000029
:10F444000009000000000000000000FE001F004250
:10F454000010004200100064001000980008000032
:10F46400000700000000000D0000000000F0000391
:10F47400000800040004000800020010000200104C
:10F484000002001000020010000200100004000836
:10F49400000400080008000400000000000C000044
:10F4A40000000000000000FE001F00020010000227
:10F4B40000100002001000020010000200100004FE
:10F4C40000080008000400F0000300000000000928
:10F4D400000000000000000000FE001F00420010B9
:10F4E40000420010004200100042001000420010D0
:10F4F400000000000008000000000000000000FE02
:10F50400001F0042000000420000004200000042D0
:10F51400000000000000000E0000000000F00003E6
:10F52400000800040004000800020010000200109B
:10F53400000200100002001000820010008400107D
:10F54400008400080088000400800003000000001C
:10F55400000A000000000000000000FE001F004040
:10F564000000004000000040000000400000004097
:10F57400000000FE001F0000000000040000000066
:10F584000000000000FE001F000000000007000053
:10F59400000000000008000000100000001000003F
:10F5A400000800FE00070000000000090000000041
:10F5B4000000000000FE001F006000000090000139
:10F5C400000800020004000C00020010000000000B
:10F5D4000008000000000000000000FE001F000002
:10F5E40000100000001000000010000000100000D7
:10F5F4000000000F000000000000001C00F80003E1
:10F60400000600000038000000C000010000000EE9
:10F61400000000100000000E00C0000100380000CF
:10F624000006000000F800030000001C00000000B9
:10F63400000B000000000000000000FE001F000896
:10F6440000000030000000400000008000000000C6
:10F6540000030000000400FE001F00000000000E74
:10F664000000000000F0000300080004000400088B
:10F67400000200100002001000020010000200103E
:10F68400000200100002001000040008000800043A
:10F6940000F000030000000000090000000000006A
:10F6A400000000FE001F0042000000420000004273
:10F6B4000000002400000018000000000000000EFC
:10F6C4000000000000F0000300080004000400082B
:10F6D40000020010000200100002001000020011DD
:10F6E400000200120002000C0004000800080016CA
:10F6F40000F0002100000000000A000000000000EB
:10F70400000000FE001F0042000000C20000004292
:10F714000001004200060024000800180010000048
:10F724000000000800000004001800080024001075
:10F734000042001000420010008400080008000786
:10F7440000000000000800020000000200000002A7
:10F75400000000FE001F0002000000020000000282
:10F76400000000000000000A00000000000000008B
:10F7740000FE000700000008000000100000001058
:10F78400000000100000000800FE00070000000058
:10F79400000C00020000001C00000060000000805B
:10F7A40000010000000E000000100000000E0080A8
:10F7B400000100600000001C0000000200000000C6
:10F7C4000000000F000000000006000000780000A8
:10F7D4000080000700000018008000070078000087
:10F7E40000060000007800000080000700000018F8
:10F7F4000080000700780000000600000000000000
:10F804000009000000000006001800080004003091
:10F81400000300C0000000300003000800040006DC
:10F82400001800000000000B0000000000020000AF
:10F834000004000000180000006000000080001FA9
:10F844000060000000180000000400000002000036
:10F85400000000000008000200100002001C00026A
:10F86400001300C2001000320010000E001000024D
:10F87400001000000000000600000000000000006E
:10F8840000FE00FF00020080000200800000000073
:10F89400000A00020000000C0000001000000060DC
:10F8A40000000080000100000006000000080000C5
:10F8B40000300000004000000000000500000000CF
:10F8C400000200800002008000FE00FF0000000033
:10F8D400000B000000000000000200800001007026
:10F8E4000000000C000000020000000C000000708A
:10F8F4000000008000010000000200000000000978
:10F9040000000040000000400000004000000040F3
:10F9140000000040000000400000004000000040E3
:10F9240000000000000500000000000000000002CC
:10F9340000000004000000000000000B00000000B4
:10F9440000C0000700200008001000100010001084
:10F95400001000100010001000100010002000081B
:10F9640000F0001F00000000000B0000000000FE7B
:10F97400001F0020000800100010001000100010EC
:10F98400001000100010001000100020000800C03B
:10F99400000700000000000A0000000000C000078B
:10F9A40000200008001000100010001000100010CB
:10F9B40000100010002000080040000400000000B7
:10F9C400000B0000000000C0000700200008001029
:10F9D40000100010001000100010001000100010A3
:10F9E40000100020000800FE001F00000000000AB4
:10F9F4000000000000C000070020000900100011F2
:10FA04000010001100100011001000110020000966
:10FA140000C0000500000000000600000000001007
:10FA2400000000FC001F0012000000120000000093
:10FA34000000000B0000000000C000270020004868
:10FA44000010009000100090001000900010009032
:10FA5400001000900020004800F0003F000000006B
:10FA6400000A0000000000FE001F0020000000103B
:10FA74000000001000000010000000100000002032
:10FA8400000000C0001F0000000000030000000090
:10FA940000F6001F0000000000030000008000F6D4
:10FAA400007F0000000000080000000000FE001FAE
:10FAB4000000000100800002004000040020000853
:10FAC400001000100000000000030000000000FE11
:10FAD400001F00000000000F0000000000F0001FE5
:10FAE40000200000001000000010000000100000C2
:10FAF4000020000000C0001F0020000000100000D3
:10FB040000100000001000000020000000C0001FD2
:10FB140000000000000A0000000000F0001F0020A8
:10FB24000000001000000010000000100000001091
:10FB340000000020000000C0001F00000000000AB8
:10FB44000000000000C000070020000800100010A2
:10FB54000010001000100010001000100020000819
:10FB640000C0000700000000000B0000000000F0CF
:10FB740000FF00200008001000100010001000100A
:10FB8400001000100010001000100020000800C039
:10FB9400000700000000000B0000000000C0000788
:10FBA40000200008001000100010001000100010C9
:10FBB40000100010001000100020000800F000FFEA
:10FBC4000000000000060000000000F0001F0020FC
:10FBD40000000010000000100000000000000006FB
:10FBE40000600008009000100010001100100011C7
:10FBF4000020000E000000000007000000000010BC
:10FC040000000010000000FE001F001000000010A3
:10FC1400000000000000000A0000000000F00007DF
:10FC24000000000800000010000000100000001098
:10FC3400000000100000000800F0000700000000B1
:10FC4400000A0010000000600000008000030000B3
:10FC5400000C000000100000000C00800003006095
:10FC640000000010000000000000000E0010000062
:10FC740000E000000000000700000018000000077A
:10FC840000E000000010000000E000000000000799
:10FC9400000000180000000700E000000010000051
:10FCA40000000000000900100010002000080040BF
:10FCB40000040080000300800003004000040020D2
:10FCC40000080010001000000000000900100000EF
:10FCD40000E00000000000830000007C0000000C35
:10FCE4000000000300E0000000100000000000001D
:10FCF400000800100010001000180010001600107A
:10FD0400001100D00010003000100010001000009E
:10FD14000000000700000000000000010080000255
:10FD240000FC007E00020080000200800000000051
:10FD340000070000000000000000000000000000B8
:10FD440000000000000000FE00FF000000000006AC
:10FD5400000200800002008000FC007E008000029F
:10FD64000000000100000000000A00000000008004
:10FD7400000000400000004000000040000000803F
:10FD8400000000800000008000000040000000002F
:10FD94000000000500FF000F00010008000100083A
:10FDA40000FF000F0000000000004001000D0A33B6
:10FDB400202D2056697375616C697A617220612007
:10FDC40070657263656E746167656D20646F206E23
:10FDD4006976656C2064652061677561000D0A357C
:10FDE400202D2050726F6772616D6172206E6F7684
:10FDF4006F2076616C6F722064652072656665722F
:10FE0400656E636961000D0A5072696D612030206E
:10FE14007061726120766F6C74617220616F204D25
:10FE2400656E75205072696E636970616C000D0AAD
:10FE340034202D2056697375616C697A6172206F64
:10FE4400206E6976656C20646520726566657265EE
:10FE54006E636961000D0A32202D20417469766158
:10FE64007220636F6D74726F6C6F20646F206E69A3
:10FE740076656C2064652061677561000D0A436FC7
:10FE84006E74726F6C6F20646F206E6976656C207F
:10FE940064652061677561206174697661646F00CF
:10FEA4000D0A50657263656E746167656D20646FD9
:10FEB400206E6976656C20646520616775613A20FF
:10FEC400256400534554555020434F4D504C4554E0
:10FED4004544205355434345535346554C4C590DC3
:10FEE4000A000D0A30202D20566F6C746172206157
:10FEF4006F204D656E75205072696E636970616C18
:10FF0400000D0A31202D204465736C6967617220ED
:10FF1400626F6D6261206465206167756100534999
:10FF24005354454D41205041524120434F4E545269
:10FF34004F4C4F20444520554D000D0A426F6D62D1
:10FF4400612064652061677561206465736C69670D
:10FF540061646100454E47454E4841524941204540
:10FF64004C4554524F5445434E494341004D4F5420
:10FF74004F5220454D204D414C484120414245526D
:10FF84005441004175746F7265733A20536572670A
:10FF9400696F204661726961004D4943524F505266
:10FFA4004F4345535341444F524553000D0A4D4569
:10FFB4004E55205052494E434950414C000D0A4F72
:10FFC4007063616F20496E76616C696461004C7581
:10FFD4006361732054686F6D617A000D0A626974FD
:10FFE400733A202564000D0A4F7063616F3A200054
:0BFFF40032303232202F203233000068
:020000040020DA
:08000000FFFFFFFFFFFFFFFF00
:020000040030CA
:0E000000FF2A1F3CFFBF81FF0FC00FE00F4023
:00000001FF
