:0400000099EF00F084
:100008004282FACF1AF0FBCF1BF0D9CF1CF0DACF1F
:100018001DF09DAC12EF00F014EF00F01FEF00F0A0
:100028009EAC19EF00F01BEF00F01FEF00F0D7ECCB
:100038000DF08FEF00F0F2AA24EF00F026EF00F0A9
:1000480031EF00F0F2A42BEF00F02DEF00F031EFCC
:1000580000F0A6EC0DF08FEF00F0F2A836EF00F0FC
:1000680038EF00F043EF00F0F2A23DEF00F03FEF71
:1000780000F043EF00F03CEC0FF08FEF00F09DA88C
:1000880048EF00F04AEF00F060EF00F09EA84FEF55
:1000980000F051EF00F060EF00F002D85EEF00F0E2
:1000A8000500FA6E0001FC51FD6EFD51FE6EFF6AFF
:1000B800FA5012008FEF00F09DAA65EF00F067EF8D
:1000C80000F07DEF00F09EAA6CEF00F06EEF00F0FC
:1000D8007DEF00F002D87BEF00F00500FA6E00011A
:1000E800FA51FD6EFB51FE6EFF6AFA5012008FEF57
:1000F80000F09DA082EF00F084EF00F08FEF00F099
:100108009EA089EF00F08BEF00F08FEF00F052EC2B
:100118000DF08FEF00F01DC0DAFF1CC0D9FF1BC027
:10012800FBFF1AC0FAFF42921100DFEF0BF0010E3D
:100138001F6E000E9CEC0EF0960EC0EC0DF0EF0E4C
:100148001F6E000E9CEC0EF0030E1F6E010E9CEC51
:100158000EF0800E1F6E010E9CEC0EF0020E1F6E4C
:10016800010E9CEC0EF0CF0E1F6E000E9CEC0EF0F4
:10017800000E1F6E010E9CEC0EF0C10E1F6E010EDC
:100188009CEC0EF0300E1F6E010E9CEC0EF0ED0E86
:100198001F6E000E9CEC0EF0640E1F6E010E9CECA0
:1001A8000EF0030E1F6E010E9CEC0EF0120E1F6E69
:1001B800010E9CEC0EF0810E1F6E010E9CEC0EF0F1
:1001C800E80E1F6E000E9CEC0EF0850E1F6E010EE1
:1001D8009CEC0EF0000E1F6E010E9CEC0EF0780EDB
:1001E8001F6E010E9CEC0EF0CB0E1F6E000E9CECE9
:1001F8000EF0390E1F6E010E9CEC0EF02C0E1F6EC9
:10020800010E9CEC0EF0000E1F6E010E9CEC0EF021
:10021800340E1F6E010E9CEC0EF0020E1F6E010EC6
:100228009CEC0EF0F70E1F6E000E9CEC0EF0200EEC
:100238001F6E010E9CEC0EF0EA0E1F6E000E9CEC79
:100248000EF0000E1F6E010E9CEC0EF0000E1F6EDD
:10025800010E9CEC0EF0C00E1F6E000E9CEC0EF012
:10026800230E1F6E010E9CEC0EF0C10E1F6E000EC9
:100278009CEC0EF0100E1F6E010E9CEC0EF0C50EDD
:100288001F6E000E9CEC0EF03E0E1F6E010E9CECD5
:100298000EF0280E1F6E010E9CEC0EF0C70E1F6E9E
:1002A800000E9CEC0EF0860E1F6E010E9CEC0EF0FC
:1002B800360E1F6E000E9CEC0EF0480E1F6E010EDF
:1002C8009CEC0EF03A0E1F6E000E9CEC0EF0550ED4
:1002D8001F6E010E9CEC0EF0B10E1F6E000E9CEC12
:1002E8000EF0000E1F6E010E9CEC0EF0180E1F6E25
:1002F800010E9CEC0EF0B60E1F6E000E9CEC0EF07C
:10030800080E1F6E010E9CEC0EF0820E1F6E010E81
:100318009CEC0EF0270E1F6E010E9CEC0EF0F20EF8
:100328001F6E000E9CEC0EF0000E1F6E010E9CEC72
:100338000EF0260E1F6E000E9CEC0EF0010E1F6EC6
:10034800010E9CEC0EF0E00E1F6E000E9CEC0EF001
:100358000F0E1F6E010E9CEC0EF0310E1F6E010E7B
:100368009CEC0EF02B0E1F6E010E9CEC0EF00C0E8A
:100378001F6E010E9CEC0EF00E0E1F6E010E9CEC13
:100388000EF0080E1F6E010E9CEC0EF04E0E1F6E46
:10039800010E9CEC0EF0F10E1F6E010E9CEC0EF09F
:1003A800370E1F6E010E9CEC0EF0070E1F6E010E2D
:1003B8009CEC0EF0100E1F6E010E9CEC0EF0030E5E
:1003C8001F6E010E9CEC0EF00E0E1F6E010E9CECC3
:1003D8000EF0090E1F6E010E9CEC0EF0000E1F6E43
:1003E800010E9CEC0EF0E10E1F6E000E9CEC0EF060
:1003F800000E1F6E010E9CEC0EF00E0E1F6E010E0D
:100408009CEC0EF0140E1F6E010E9CEC0EF0030E09
:100418001F6E010E9CEC0EF0110E1F6E010E9CEC6F
:100428000EF0070E1F6E010E9CEC0EF0310E1F6EC3
:10043800010E9CEC0EF0C10E1F6E010E9CEC0EF02E
:10044800480E1F6E010E9CEC0EF0080E1F6E010E7A
:100458009CEC0EF00F0E1F6E010E9CEC0EF00C0EB5
:100468001F6E010E9CEC0EF0310E1F6E010E9CECFF
:100478000EF0360E1F6E010E9CEC0EF00F0E1F6E66
:10048800010E9CEC0EF0110E1F6E000E9CEC0EF08F
:10049800780EC0EC0DF0290E1F6E000E9CEC0EF0CD
:1004A800780EC0EC0DF0000E246E000E236E90EC5A
:1004B8000AF0120019EC0EF0000E9DEC09F09BEC0E
:1004C80000F0000E0001D66F520ED56F000ED86FE7
:1004D800DC0ED76F530ED96FFF0EDA6FF80EDC6F94
:1004E8001F0EDB6F000EDE6F000EDD6F00EC07F0F5
:1004F800850E0101206F000E216F000E236F320E52
:10050800226F9A0E246FFF0E256F99EC07F0000EEC
:100518000001D66F550ED56F000ED86FBE0ED76F7F
:10052800850ED96F000EDA6F070EDC6FE00EDB6FF9
:10053800000EDE6F000EDD6F00EC07F0850E010186
:10054800206F000E216F000E236F320E226FF40E03
:10055800246FFF0E256F99EC07F0000E0001D66F8F
:10056800780ED56F000ED86FA50ED76F850ED96F90
:10057800000EDA6FFC0EDC6F180EDB6F000EDE6FFC
:10058800000EDD6F00EC07F0850E0101206F000EF4
:10059800216F000E236F320E226F1D0E246FFF0E87
:1005A800256F99EC07F0000E0001D66F140ED56F79
:1005B800000ED86F8C0ED76F850ED96F000EDA6FCC
:1005C800F80EDC6F000EDB6F000EDE6F000EDD6FC5
:1005D80000EC07F0850E0101206F000E216F000E60
:1005E800236F320E226F840E246FFF0E256F99EC55
:1005F80007F0000E0001D66F280ED56F000ED86FD9
:10060800780ED76F850ED96F000EDA6FF80EDC6F93
:10061800000EDB6F000EDE6F000EDD6F00EC07F0E2
:10062800850E0101206F000E216F000E236F320E20
:10063800226F6C0E246FFF0E256F99EC07F0000EE9
:100648000001D66F140ED56F000ED86F5F0ED76FEE
:10065800850ED96F000EDA6FFF0EDC6FE00EDB6FD0
:10066800000EDE6F000EDD6F00EC07F0850E010155
:10067800206F000E216F000E236F320E226FCF0EF7
:10068800246FFF0E256F99EC07F0000E0001D66F5E
:100698005A0ED56F000ED86F4B0ED76F850ED96FD7
:1006A800000EDA6FFF0EDC6FE00EDB6F000EDE6F00
:1006B800000EDD6F00EC07F0F28EF28CF28CFA0E71
:1006C8001E6E1D0E1F6E19EC0FF0F20E1E6E160E2A
:1006D8001F6E37EC0FF0080E1E6E1E0E1F6E14EC08
:1006E8000FF04AEC0FF0160E1E6E1B0E1F6E0FEC6D
:1006F8000FF048EC0FF0C20E0101206FFE0E216FC3
:1007080004EC0EF0010E0001846F00018451D8A49E
:1007180090EF03F092EF03F098EF03F046EC0FF040
:100728008A988A869BEF03F048EC0FF08A960001BE
:100738008351D8B4A2EF03F0A4EF03F0A7EF03F0BE
:100748008A8AA8EF03F08A9AFE51D8B4AEEF03F074
:10075800B0EF03F0B5EF03F0BBEC03F0000E0001BF
:10076800FE6F0EEC0BF089EF03F099EF00F099EFB4
:1007780004F00C0E0EEC0CF0AD0E0101206FFF0E14
:10078800216F04EC0EF0000E0101206FFF0E216FA7
:1007980004EC0EF0530E0101206FFE0E216F04ECE5
:1007A8000EF0AB0E0101206FFD0E216F04EC0EF070
:1007B8002C0E0101206FFE0E216F04EC0EF0DB0EF3
:1007C8000101206FFD0E216F04EC0EF0E10E010116
:1007D800206FFE0E216F04EC0EF0EA0E0101206F6F
:1007E800FF0E216F04EC0EF0300E0001FF6FC0EF1A
:1007F80004F00C0E0EEC0CF0390E0101206FFF0E08
:10080800216F04EC0EF0E10E0101206FFE0E216F46
:1008180004EC0EF0EA0E0101206FFF0E216F04ECCC
:100828000EF0000E0001836FF8EF03F00C0E0EECD3
:100838000CF07A0E0101206FFE0E216F04EC0EF011
:10084800010E0001846FE10E0101206FFE0E216F81
:1008580004EC0EF0EA0E0101206FFF0E216F04EC8C
:100868000EF0F8EF03F00C0E0EEC0CF09F0E0101E9
:10087800206FFE0E216F80C022F181C023F104ECAD
:100888000EF0DF0E0101206FFF0E216F2DC022F147
:100898002EC023F104EC0EF0E10E0101206FFE0ED4
:1008A800216F04EC0EF0EA0E0101206FFF0E216F9C
:1008B80004EC0EF0F8EF03F00C0E0EEC0CF0E10E69
:1008C8000101206FFE0E216F04EC0EF0EA0E01010B
:1008D800206FFF0E216F04EC0EF0F8EF03F00C0E02
:1008E8000EEC0CF0E10E0101206FFE0E216F04ECFE
:1008F8000EF0EA0E0101206FFF0E216F04EC0EF0DE
:10090800F8EF03F00C0E0EEC0CF0BE0E0101206F98
:10091800FF0E216F04EC0EF0040E0101206FFE0E95
:10092800216F04EC0EF0F8EF03F00001FF51010114
:10093800266F276B2751000AD8B4A5EF04F086EF7D
:1009480004F02651300AD8B4BDEF03F0010AD8B438
:10095800FDEF03F0030AD8B41AEF04F0010AD8B483
:1009680037EF04F0070AD8B460EF04F0010AD8B4EE
:1009780073EF04F086EF04F012000001D0BFC7EF58
:1009880004F0CAEF04F0010ECBEF04F0000ED76FAD
:10099800D751D8B4D2EF04F0D4EF04F0D8EF04F074
:1009A800CF6DD01FD8B0D02B28BEDFEF04F0DDEF1D
:1009B80004F0E5EF04F0000ED46F010ED36FE9EFF9
:1009C80004F027C0D3F028C0D4F025C0D5F026C045
:1009D800D6F0D751D8B4F3EF04F0F5EF04F00CEFEC
:1009E80005F0D507D8A0D607D751D8A4FEEF04F054
:1009F80000EF05F006EF05F0000ED26F2B0ED16F59
:100A08000AEF05F0000ED26F2D0ED16FD1C0D7F0CE
:100A1800000ED96F1F0ED86F000E01011F6F46EF31
:100A280005F0D807D8A0D907000ED825D96E010E31
:100A3800D921DA6ECFC01EF0D0C01FF0000E216E93
:100A48000A0E206E45EC09F01EC0B7F01FC0B8F0C2
:100A580011EC0DF00001B751300FDF6ED307D8A0AD
:100A6800D407D507D8A0D607CFC01EF0D0C01FF036
:100A7800000E216E0A0E206E85EC08F01EC0CFF025
:100A88001FC0D0F00001D9BF52EF05F0D95108E1DD
:100A9800D805D8A052EF05F054EF05F06AEF05F03D
:100AA800CF51D011D8A45BEF05F05DEF05F015EF3D
:100AB80005F0D4BF6AEF05F0D45106E1D305D8B0EC
:100AC80068EF05F06AEF05F015EF05F0D751D8B4D7
:100AD80070EF05F072EF05F07DEF05F0D807D8A0AC
:100AE800D907000ED825D96E010ED921DA6ED7C0E4
:100AF800DFFFCDC0C3F0CEC0C4F0000ED825C56F4F
:100B0800010ED921C66FD5C0C7F0D6C0C8F044ECD5
:100B18000AF0C3C0CDF0C4C0CEF01200000E000130
:100B2800D26F3AEF06F0D890BF35F66EC035F76E43
:100B3800CF0EF626EF0EF722F86A000EF82209000B
:100B4800F5CFC5F00900F5CFC6F0D251C55F000E4C
:100B5800C65BBB51C525B76FBC51C621B86FBDC0B8
:100B6800B9F0BEC0BAF0F0EC0CF0000E0001D36F83
:100B7800000ED46FD251C56FC66BD890C537C63733
:100B8800D890BF35F66EC035F76ECF0EF626EF0E4D
:100B9800F722F86A000EF8220900F5CFC7F009001D
:100BA800F5CFC8F0D890C737C837C551C75DC96FEA
:100BB800C651C859CA6FD351C95F000ECA5BBF512D
:100BC800C927C051CA23D890C937CA37CF0EC925FB
:100BD800F66EEF0ECA21F76EF86A000EF8220900C9
:100BE800F5CFCBF00900F5CFCCF0D4C0CDF0800E16
:100BF800CE6F000ECF6FCD2B05EF06F0CF35CF337C
:100C0800CE33CD2F02EF06F00001CB51CE15D06FB9
:100C1800CC51CF15D16FD051D111D8B416EF06F001
:100C280018EF06F020EF06F0C1C021F0C2C022F094
:100C3800B4EC0EF026EF06F0C3C021F0C4C022F0D9
:100C4800B4EC0EF00001D42B070ED4652EEF06F09D
:100C580030EF06F0BEEF05F0D32B010ED36537EF6A
:100C680006F039EF06F0BCEF05F0D22BD890BF356F
:100C7800F66EC035F76ECF0EF626EF0EF722F86A3D
:100C8800000EF822D251C56FC66B0900F550C55D3C
:100C98000900F550C659D8A054EF06F056EF06F0F3
:100CA80097EF05F01200DCC0D9FFDDC0DAFFDECF18
:100CB800F6FFDDCFF7FFF86A0800F550250AD8A43B
:100CC80068EF06F06AEF06F0E0EF06F0DCC0D9FF47
:100CD800DDC0DAFFDE2A000EDD22000E266E000ED1
:100CE800256E25C082F027682868DCC0D9FFDDC0E2
:100CF800DAFFDECFE6F0DDCFE7F0E6C0F6FFE7C0CB
:100D0800F7FFF86A0800F550640AD8B48EEF06F0C9
:100D180090EF06F09FEF06F0E6C0F6FFE7C0F7FF9A
:100D2800F86A0800F550690AD8A49DEF06F09FEF0D
:100D380006F0D2EF06F0DEC0D9FFDFC0DAFFDFCF62
:100D4800E0F0020EDE26DFCFE1F0000EDD22E0C08B
:100D5800D9FFE1C0DAFFDECFE2F0DDCFE3F0010E2C
:100D68000001E625E06F000EE721E16FDCC0D9FF46
:100D7800DDC0DAFFE0C0DEFFE1C0DDFFDAC0CDF0A4
:100D8800DBC0CEF0E2C0CFF0E3C0D0F0C1EC04F09D
:100D9800CDC0DAF0CEC0DBF0FFEF06F0DCC0D9FF43
:100DA800DDC0DAFFDE2A000EDD22000E0001DB6F57
:100DB800000EDA6FFFEF06F0DCC0D9FFDDC0DAFF06
:100DC800DECFF6FFDDCFF7FFF86A0800F550206E9A
:100DD800216ADAC022F0DBC023F01EEC08F0DCC088
:100DE800D9FFDDC0DAFFDE2A000EDD22000E000189
:100DF800DB6F010EDA6F12007FEF07F0000E0001C3
:100E0800E56F000EE46F000EE36F000EE26F2CEF4B
:100E180007F0D890E435F66EE535F76ECF0EF62676
:100E2800EF0EF722F86A000EF8220900F5CFDFF07E
:100E38000900F5CFE0F0D890DF37E037010EDF2763
:100E4800000EE023DF51E427E051E523E24BE32BDA
:100E5800D9C0F6FFDAC0F7FF000EF86E0F0EF76480
:100E680003D00800F55005D0F6CFE1FFF7CFE2FF39
:100E7800E7500001DF6FE00EDF25E06FE16BFF0E4A
:100E8800E123E051E25DE151E359D8A04EEF07F0CC
:100E980050EF07F00DEF07F0D5C0BBF0D6C0BCF09F
:100EA800D7C0BDF0D8C0BEF0E4C0BFF0E5C0C0F008
:100EB800DBC0C1F0DCC0C2F0DDC0C3F0DEC0C4F0EE
:100EC80092EC05F0D8900001E435F66EE535F76E42
:100ED800CF0EF626EF0EF722F86A000EF822090068
:100EE800F5CFDFF00900F5CFE0F0DF51D527E0516D
:100EF800D623D94BDA2BD9C0F6FFDAC0F7FF000E9C
:100F0800F86E0F0EF76403D00800F55005D0F6CF41
:100F1800E1FFF7CFE2FFE7500009D8A496EF07F00A
:100F280098EF07F002EF07F01200800E0101235D31
:100F3800D8A0A1EF07F0A3EF07F0AAEF07F0000E83
:100F480000017F6F4B0E7E6F1DEF08F0260E2B6F92
:100F5800010E2C6F20C12FF121C130F1235109E17D
:100F6800020E225DD8A0BBEF07F0BDEF07F0C9EF76
:100F780007F0FF0E2225396FFF0E23213A6F000E6E
:100F8800336F000E326FD1EF07F0000E3A6F010E8B
:100F9800396F000E336F010E326F2F0E0001E86FAC
:100FA800010EE96F24C1EAF025C1EBF02B0EEC6FBE
:100FB800010EED6FADEC0BF0E8C02DF1E9C02EF19C
:100FC800010122512311D8B4ECEF07F0EEEF07F03E
:100FD8001DEF08F02EBFF3EF07F0F5EF07F01DEF58
:100FE80008F0FF0E2225266FFF0E2321276F2651BA
:100FF8002D5D2E51800A286F2751800A2859D8A0C4
:1010080008EF08F00AEF08F012EF08F0FF0E2225AB
:10101800296FFF0E23212A6F16EF08F02DC129F141
:101028002EC12AF129512025D96E2A512121DA6EA3
:10103800DF6A120022502310D8B425EF08F027EFFA
:1010480008F030EF08F022502310D8A42EEF08F053
:1010580030EF08F035EF08F020500AEC0FF084EF7D
:1010680008F020EE0AF02250D9262350DA22DE506A
:10107800DE10D8B442EF08F044EF08F060EF08F053
:1010880020EE0AF02250D9262350DA2210EE03F07F
:101098002250E1262350E222DE50E65CE650800A28
:1010A8000001BB6FDE50800ABB59D8B05EEF08F074
:1010B80060EF08F084EF08F020EE03F02250D92604
:1010C8002350DA22DECFB7F0DDCFB8F022C0D9FF47
:1010D80023C0DAFFDECFB9F0DDCFBAF00001B75197
:1010E800B925D96EB851BA21DA6E20C0DFFF20EEDB
:1010F80003F02250D9262350DA22DE2A000EDD2200
:101108001200000E0001B86F21BE8FEF08F08DEFBE
:1011180008F095EF08F0206C211ED8B0212A010EA6
:10112800B86F1FBE9CEF08F09AEF08F0A2EF08F026
:101138001E6C1F1ED8B01F2A010EB81B000EBA6FF6
:10114800000EB96F20502110D8B4ADEF08F0AFEF02
:1011580008F0D7EF08F0010EB76FB7EF08F0D89096
:1011680020362136B72B21AEBCEF08F0BEEF08F0D1
:10117800B3EF08F0D890B937BA3720501E5C215029
:101188001F58D8A0CAEF08F0CCEF08F0D1EF08F04C
:1011980020501E5E21501F5AB981D890213220322A
:1011A800B72FBEEF08F0B851D8B4DDEF08F0DFEF85
:1011B80008F0E3EF08F0B96DBA1FD8B0BA2BB9C080
:1011C8001EF0BAC01FF01200600E3824D96EDA6A19
:1011D800000EDA22DF6AABA4F4EF08F0F6EF08F0AD
:1011E8000AEF09F0600E3824D96EDA6A000EDA22A6
:1011F8000001DF8202D80AEF09F00500FA6EF85103
:10120800FD6EF951FE6EFF6AFA501200ABA20FEFA5
:1012180009F011EF09F025EF09F0600E3824D96EB6
:10122800DA6A000EDA220001DF8402D825EF09F01D
:101238000500FA6EF651FD6EF751FE6EFF6AFA5020
:101248001200600E3824D96EDA6A000EDA22DF50F6
:10125800D8B431EF09F033EF09F042EF09F002D8C2
:1012680040EF09F00500FA6E0001F451FD6EF551EA
:10127800FE6EFF6AFA50120044EF09F043EC0EF0DC
:101288001200000E236E1FBE4EEF09F04CEF09F05E
:1012980054EF09F01E6C1F1ED8B01F2A010E236ED2
:1012A80021BE5BEF09F059EF09F05FEF09F0206C00
:1012B800211ED8B0212A20502110D8B466EF09F099
:1012C80068EF09F08CEF09F0010E226E70EF09F05B
:1012D800D89020362136222A21AE75EF09F077EF13
:1012E80009F06CEF09F020501E5C21501F58D8A05F
:1012F80080EF09F082EF09F086EF09F020501E5EBA
:1013080021501F5AD89021322032222E77EF09F02F
:101318002350D8B492EF09F094EF09F098EF09F050
:101328001E6C1F1ED8B01F2A1EC01EF01FC01FF043
:1013380012001F6E6CBAA3EF09F0A5EF09F0F1EFE8
:1013480009F01F50040D010EF326000EF422A70E1B
:10135800F324F66EFD0EF420F76EF86A000EF822FC
:101368000800F5CF6DFF1F50040DA70EF324F66E8D
:10137800FD0EF420F76EF86A000EF8220800F5CF8B
:101388006CFF000E6B6E1F50040D020EF326000E4C
:10139800F422A70EF324F66EFD0EF420F76EF86A19
:1013A800000EF8220800F5CF6EFF1F50040D030E43
:1013B800F326000EF422A70EF324F66EFD0EF42099
:1013C800F76EF86A000EF8220800F5CF1EF0955067
:1013D8001E18FE0B1E18956E6C8A1200000E156EF4
:1013E800000E166E000E176E000E186E11501210B9
:1013F80013101410D8B403EF0AF005EF0AF03BEF0E
:101408000AF0010E196E0FEF0AF0D8901136123655
:1014180013361436192A14AE14EF0AF016EF0AF030
:1014280009EF0AF0D89015361636173618361150C7
:101438000D5C12500E5813500F5814501058D8A065
:1014480028EF0AF02AEF0AF033EF0AF011500D5E88
:1014580012500E5A13500F5A1450105A1580D89023
:101468001432133212321132192E16EF0AF015C047
:101478000DF016C00EF017C00FF018C010F01200D3
:101488000001C8BF4AEF0AF04CEF0AF052EF0AF029
:10149800C7C0CBF0C8C0CCF056EF0AF0000ECC6F36
:1014A800000ECB6F000ECA6F000EC96F69EF0AF00D
:1014B800000E216E200E206EC3C022F0C4C023F09F
:1014C8001EEC08F00001C94BCA2BCB51C95DCA51AB
:1014D800800A246ECC51800A2458D8A076EF0AF0EE
:1014E80078EF0AF05CEF0AF0C5C0BCF0C6C0BDF0EA
:1014F800C3C0BEF0C4C0BFF0A9EC0CF0C5C01EF05C
:10150800C6C01FF070EC0DF00001CB511E24C36F54
:10151800CC511F20C46F1200010E0001BE6F400E97
:10152800BD6F000EBC6FF00EBB6F000EB86F000EE3
:10153800B76F000EBA6F000EB96FF0EC0CF000092F
:10154800D8B4A9EF0AF0ABEF0AF0C5EF0AF0D3EF71
:101558000AF023C021F024C022F0B4EC0EF0000100
:10156800BD07D8A0BE07BD2906E1BE29D8A4BFEF94
:101578000AF0C1EF0AF0ADEF0AF0010EBE6F400E9F
:10158800BD6F0001BB07D8A0BC07BB2906E1BC2979
:10159800D8A4D1EF0AF0D3EF0AF0B3EF0AF01200A3
:1015A8009D9AD00E1E6E110E1F6E23EC0FF09D98A3
:1015B800640E1E6E1A0E1F6E1EEC0FF0080EB86E2B
:1015C800900EAB6E240EAC6ECF0EAF6E000EB06EEA
:1015D800A60E1E6E1E0E1F6E2DEC0FF0800E1E6ED8
:1015E8001E0E1F6E28EC0FF0860E1E6E1E0E1F6E4E
:1015F80032EC0FF0000E356E000E3B6E000E3A6EA8
:10160800080E396E000E386E000E376E000E366EFC
:101618009D8A1200BFEC0EF00009D8B416EF0BF04B
:1016280018EF0BF043EF0BF039EC0CF0336E33503E
:101638000EEC0CF02EEF0BF0010E0001FE6F33C024
:10164800FFF043EF0BF0000E0001FE6F300EFF6F4E
:1016580043EF0BF033501F6E206A2050000AD8B4B5
:1016680038EF0BF027EF0BF01F500D0AD8B420EF1E
:101678000BF03D0AD8B420EF0BF027EF0BF0120067
:10168800000E096E000E0A6E000E0B6E000E0C6E38
:1016980001A051EF0BF053EF0BF05BEF0BF005508F
:1016A800092606500A2207500B2208500C22D8900F
:1016B8000536063607360836D89004320332023229
:1016C80001320150021003100410D8A46EEF0BF081
:1016D80070EF0BF04CEF0BF009C001F00AC002F0FC
:1016E8000BC003F00CC004F01200000EA8EC0EF0C2
:1016F800D4EC0EF001C02DF002C02EF02DC001F088
:101708002EC002F0036A046A640E056E000E066EAF
:10171800000E076E000E086E44EC0BF001C00DF0D1
:1017280002C00EF003C00FF004C010F0FF0E116EDF
:10173800030E126E000E136E000E146EF2EC09F01A
:101748000DC080F00EC081F080C080F081C081F0B3
:101758001200EAC0EEF0EBC0EFF0000E00017D6F62
:10176800000E7C6FCBEF0BF0E8C0DAF0E9C0DBF0DD
:10177800EE0EDC6F000EDD6FECC0DEF0EDC0DFF0CA
:1017880057EC06F00001DA517C27DB517D23EEC0CF
:10179800F6FFEFC0F7FFF86A0800F5500009D8A473
:1017A800D8EF0BF0DAEF0BF0B8EF0BF07CC0E8F0F5
:1017B8007DC0E9F012009E0EF66E1E0EF76E000E4A
:1017C800F86E0900F5CFFEF00900F5CFFFF09C0E8A
:1017D800F66E1E0EF76E000EF86E0900F5CF40F09B
:1017E8000900F5CF41F001EE00F0200EEE6AE806A0
:1017F800FDE100EE60F0570EEE6AE806FDE100EE4E
:1018080025F0170EEE6AE806FDE1429042920001CB
:101818005EEF02F01E6E3950D8B415EF0CF017EFDA
:101828000CF00FEF0CF09DB81CEF0CF01EEF0CF055
:1018380022EF0CF01EC0ADFF37EF0CF09D98700E34
:101848003B24D96EDA6A000EDA221EC0DFFF3B2A7B
:10185800070E3B6432EF0CF034EF0CF036EF0CF06F
:10186800000E3B6E39069D8812003650D8B43FEF03
:101878000CF041EF0CF039EF0CF0600E3724D96E04
:10188800DA6A000EDA22DF50356E680E3724D96E18
:10189800DA6A000EDA22DF501E6E372A070E376426
:1018A80058EF0CF05AEF0CF05CEF0CF0000E376EAE
:1018B8009D9A36069D8A1E501200225009E1F00EAC
:1018C800215CD8A06AEF0CF06CEF0CF06FEF0CF015
:1018D800010E84EF0CF02A0E1F6E000E9CEC0EF029
:1018E80022501F6E010E9CEC0EF021C01FF0010E5D
:1018F8009CEC0EF02C0E1F6E000E9CEC0EF0000EF1
:101908001200400E215C010E2258D8A08EEF0CF078
:1019180090EF0CF093EF0CF0010EA8EF0CF02B0EEB
:101928001F6E000E9CEC0EF022501F6E010E9CECF8
:101938000EF021C01FF0010E9CEC0EF02C0E1F6E55
:10194800000E9CEC0EF0000E1200000E0001C26F9B
:10195800000EC16FBCEF0CF0C0C020F0216ABEC001
:1019680022F0BFC023F01EEC08F00001C14BC22BCF
:10197800C151BC25D96EC251BD21DA6EDF50C06F8E
:10198800C051D8A4CAEF0CF0CCEF0CF0B0EF0CF0BB
:101998001200000E8D6E000E8C6E000E896E000E09
:1019A8008A6E000E8B6E040E966EBF0E926EC70E78
:1019B800936E9F0E946EEF0E956E000E0F013B6FA7
:1019C800300E3A6F060E396F070E3C6F2F0E386FC8
:1019D800000E616EF19E1200B7C021F0B8C022F06F
:1019E80085EC0CF00009D8A4FCEF0CF0FEEF0CF02D
:1019F8000CEF0DF0B9C021F0BAC022F061EC0CF088
:101A08000009D8B40AEF0DF00CEF0DF00FEF0DF050
:101A1800010E10EF0DF0000E12000001B8BF1FEF0D
:101A28000DF0B85106E1B705D8B01DEF0DF01FEF66
:101A38000DF02DEF0DF0B7C0B9F0B8C0BAF0B91F6E
:101A4800BA1FB94BBA2BB9C0B7F0BAC0B8F031EF6A
:101A58000DF0B7C0B7F0B8C0B8F01200080E396082
:101A680038EF0DF03AEF0DF050EF0DF0700E3A240C
:101A7800D96EDA6A000EDA22DF50AD6E3A2A070E06
:101A88003A6449EF0DF04BEF0DF04DEF0DF0000EFD
:101A98003A6E392A51EF0DF09D9812009E902FC092
:101AA80001F030C002F058EC0EF00001F051F111D5
:101AB800D8B461EF0DF063EF0DF06FEF0DF002D8C1
:101AC8006FEF0DF00500FA6EF051FD6EF151FE6EEC
:101AD800FF6AFA50120012001EC020F01FC021F049
:101AE80078EF0DF01E4A1F2A1EC0D9FF1FC0DAFF6B
:101AF800DF50D8A482EF0DF084EF0DF076EF0DF0F3
:101B080020501E5C1E6E21501F581F6E12000001CF
:101B18008451D8B492EF0DF094EF0DF0A5EF0DF0CD
:101B28008AB899EF0DF09CEF0DF0010E9DEF0DF0C6
:101B3800000EFF0A016E013A8A500118EF0B0118D6
:101B48008A6E1200F29434C0D6FF0001F251F311EC
:101B5800D8B4B1EF0DF0B3EF0DF0BFEF0DF002D830
:101B6800BFEF0DF00500FA6EF251FD6EF351FE6EF7
:101B7800FF6AFA50120012001F6E000E206ECDEFA1
:101B88000DF0030E1E6E980EE82EFED71E2EFCD703
:101B9800202A1F50205CD8A0D4EF0DF0D6EF0DF00E
:101BA800C5EF0DF012009E9C3E503F10D8B4DFEFF9
:101BB8000DF0E1EF0DF0EDEF0DF002D8EDEF0DF0C7
:101BC8000500FA6E3E50FD6E3F50FE6EFF6AFA50F9
:101BD800120012003C503D10D8B4F5EF0DF0F7EFAD
:101BE8000DF003EF0EF002D803EF0EF00500FA6EC9
:101BF8003C50FD6E3D50FE6EFF6AFA501200120016
:101C0800220E0101246F010E256F000E0001E86FFE
:101C1800000EE96F20C1EAF021C1EBF0240EEC6F51
:101C2800010EED6FADEC0BF01200F6EC0EF0DEECF1
:101C38000EF0CDEC0CF0EFEC0EF06CEC0EF0E7ECE7
:101C48000EF0CAEC0EF02EEC0EF07EEC0EF0D4EC9A
:101C58000AF01200000ECC6E0B0ECF6EDC0ECE6EAC
:101C6800CECF2FF0CFCF30F09E909D80A00E1E6E6D
:101C78001E0E1F6E0FEC0FF0310ECD6E1200680EA7
:101C88003824D96EDA6A000EDA22AECFDFFF382A9E
:101C9800070E386452EF0EF054EF0EF056EF0EF0C8
:101CA800000E386E362A1200CDA45DEF0EF05FEFFD
:101CB8000EF067EF0EF0CD900250CF6E01C0CEFF50
:101CC800CD806BEF0EF00250CF6E01C0CEFF120038
:101CD800010EC26E000EC16E890EC06E000EC36E7C
:101CE800000EC46E9D8CA80E1E6E1E0E1F6E37EC65
:101CF8000FF01200000ED76E3D0ED66E3D0E346EFC
:101D0800F294F28AA20E1E6E1E0E1F6E14EC0FF0D5
:101D1800570ED56E12001E6E1EC06FFFA4AE97EF51
:101D28000EF099EF0EF092EF0EF0A49E6F50120095
:101D3800206E20B002D08D9001D08D808D921F50E2
:101D48008FEC0EF08D821200026E02C001F0014687
:101D58000146C2500118830B0118C26EC2801200DE
:101D680022501F6E010E9CEC0EF021C01FF0010ED8
:101D78009CEC0EF012003650D8A4C5EF0EF0C8EF58
:101D88000EF0010EC9EF0EF0000E1200F292F19C57
:101D9800A40E1E6E1E0E1F6E19EC0FF0F2881200B4
:101DA800C450046E036AC3500324016E000E04205D
:101DB800026E1200400E6D6E000E6C6E010E6E6E9D
:101DC80095906C9A1200000E0F01546F000E556F1B
:101DD800000E566F1200300ED36E040ED26E000E37
:101DE8009B6E1200D08E9F8CF1849F889F8A9F8063
:101DF8001200000E0001836F000E846FF292120031
:101E0800000EA8EC0EF04CEC0FF012001F6E1F50E5
:101E18000EEC0CF012001EC0F0F01FC0F1F0120022
:101E28001EC0F2F01FC0F3F012001EC03CF01FC02D
:101E38003DF012001EC0FCF01FC0FDF012001EC0D5
:101E4800FAF01FC0FBF012001EC0F6F01FC0F7F03A
:101E580012001EC0F8F01FC0F9F012001EC0F4F006
:101E68001FC0F5F012001EC03EF01FC03FF0120068
:101E7800F292EEEC0DF01200AB98AB88120043EC36
:101E88000EF01200CD901200CD801200D58E1200F7
:101E9800C282120012000130120012001200120059
:021EA800120026
:10D08E000014A514A514A514A514A514A514A5146F
:10D09E00A514A514A514AD14A514A514A514A514B2
:10D0AE00A514A514ADF4ACD3AC92AC52A431A4111A
:10D0BE00A452A472A4D3ACF4AC14AD14AD14A51444
:10D0CE00A514A514A514A514A514A514A514A5148A
:10D0DE00A514A514A514A514A514A514A514A5147A
:10D0EE00A514A514A514A514A514A514A514A5146A
:10D0FE00A514A514A514A514A514A514A514A5145A
:10D10E00A514A514A514A514A514A514A514A51449
:10D11E00A514A514A514A514A514A514A514A51439
:10D12E00A514A514A514A514A514A514A514A51429
:10D13E00A514A514A514A514A514A514A514ADD352
:10D14E00AC31A44E9B6B8A88812679E678A578A5AA
:10D15E0078C578067988814A8A0D93F0A3B3AC140A
:10D16E00A514A514A514A514A514A514A514A514E9
:10D17E00A514A514A514A514A514A514A514A514D9
:10D18E00A514A514A514A514A514A514A514A514C9
:10D19E00A514A514A514A514A514A514A514A514B9
:10D1AE00A514A514A514A514A514A514A514A514A9
:10D1BE00A514A514A514A514A514A514A514A51499
:10D1CE00A514A514A514A514A514A514A514AD1481
:10D1DE00A514A514A514A514A514ADB2AC8E9B0967
:10D1EE0082C678447803780378037803780378034B
:10D1FE007803780378037802784378C578A8810D90
:10D20E009B72AC13AD14A514A534A514A515A514C5
:10D21E00A514A514A514A514A514A514A514A51438
:10D22E00A514A514A514A514A514A514A514A51428
:10D23E00A514A514A514A514A514A514A514A51418
:10D24E00A514A514A514A514A514A514A514A51408
:10D25E00A514A514A514A514A514A514A514A514F8
:10D26E00A514A514A514A514A514A514A514A514E8
:10D27E00A534A514AD14ADD3A44E9B678164780379
:10D28E0078037803780378037803780378037803B8
:10D29E007803780378037803780270027803784471
:10D2AE00702679EC9292A413A514A514A514A514B6
:10D2BE00A514A514A514A514A514A514A514A51498
:10D2CE00A514A514A514A514A514A514A514A51488
:10D2DE00A514A514A514A514A514A514A514A51478
:10D2EE00A514A514A514A514A514A514A514A51468
:10D2FE00A514A514A514A514A514A514A514A51458
:10D30E00A514A514A514A514A514A514A514A51447
:10D31E00A514A513AD30A4098A64780378037803A5
:10D32E007803780378037803780378037803780317
:10D33E007803780378037803780378037803780307
:10D34E007803784370A881CFA3F3A413A514A51472
:10D35E00A514A514A514A514A514A514A514A514F7
:10D36E00A514A514A514A514A514A514A514A514E7
:10D37E00A514A514A514A514A514A514A514A514D7
:10D38E00A514A514A514A514A514A514A514A514C7
:10D39E00A514A514A514A514A514A514A514A514B7
:10D3AE00A514A514A514A514A514A514A514A514A7
:10D3BE00A5F3AC8E9B267923780378037803780344
:10D3CE007803780378037803780378037803780377
:10D3DE007803780378037803780378037803780367
:10D3EE0078037803780378C578ED92D3AC14A5143E
:10D3FE00A514A514A514A514A514A514A514A51457
:10D40E00A514A514A514A514A514A514A514A51446
:10D41E00A514A514A514A514A514A514A514A51436
:10D42E00A514A514A514A514A514A514A514A51426
:10D43E00A514A514A514A514A514A514A514A51416
:10D44E00A514A514A514A514A514A514A514A5D347
:10D45E00A40D93A5700378037803780378037803FB
:10D46E0078037803780378037803780378037803D6
:10D47E0078037803780378037803780378037803C6
:10D48E0078037803780378037864786B8AB2A414EF
:10D49E00A514A514A514A514A514A514A514A514B6
:10D4AE00A514A514A514A514A514A514A514A514A6
:10D4BE00A514A514A514A514A514A514A514A51496
:10D4CE00A514A514A514A514A514A514A514A51486
:10D4DE00A514A514A514A514A514A514A514A51476
:10D4EE00A514A514A514A514A514A514A5D3ACECC8
:10D4FE009A847803780378037803780378037803A3
:10D50E0078037802782378857806798881E989E925
:10D51E0081A8814781C5784378037803780378031F
:10D52E00780378037803780378037844786B92B3A2
:10D53E00AC14A514A514A514A514A514A514A5140E
:10D54E00A514A514A514A514A514A514A514A51405
:10D55E00A514A514A514A514A514A514A514A514F5
:10D56E00A514A514A514A514A514A514A514A514E5
:10D57E00A514A514A514A514A514A514A514A514D5
:10D58E00A514A514A514A514A514A5F4AC4E9B843E
:10D59E0078037803780378037803780378037803A5
:10D5AE007864788881EC92F0A392A4D3ACF3ACF3B8
:10D5BE00A4D3AC92AC11A42E9BC9898578037803B1
:10D5CE007803780378037803780378037844788CAB
:10D5DE0092F3AC14A514A514A514AD14A514A5149A
:10D5EE00A514A514A514A514A514A514A514A51465
:10D5FE00A514A514A514A514A514A514A514A51455
:10D60E00A514A514A514A514A514A514A514A51444
:10D61E00A514A514A514A514A514A514A514A51434
:10D62E00A514A514A514A514A513ADF0A3C67803CF
:10D63E00780378037803780378037803784378883F
:10D64E00818F9BB3ACF4AC14A514A514A514A5142A
:10D65E00A514A514A514A514ADD3ACF0A30982642A
:10D66E00700378037803780378037803780378845B
:10D67E00702D9B14A514A5F4A414A514A514A5141B
:10D68E00A514A514A514A514A514A514A514A514C4
:10D69E00A514A514A514A514A514A514A514A514B4
:10D6AE00A514A514A514A514A514A514A514A514A4
:10D6BE00A514A514A514A514A514A514A514A51494
:10D6CE00A513A514A514A514A592A4A881237803C7
:10D6DE007803780378037803780378A578AC92B250
:10D6EE00AC14A514A514AD14A514A514A514A51455
:10D6FE00A514A514A514AD14A514A514ADD3AC4E44
:10D70E009B067923780378027803800378037802E6
:10D71E0078E67810A414AD14A514A514A514A514B8
:10D72E00A514A514A514A514A514A514A514A51423
:10D73E00A514A514A514A514A514A514A514A51413
:10D74E00A514A514A514A514A514A514A514A51403
:10D75E00A514A514A514A514A514A514A514A514F3
:10D76E00A514A514A514A5F3ACCC922378037803C5
:10D77E00780378037803780378E5788E9BF3AC14FE
:10D78E00A514A514A514A513A514A514AD14AD14B4
:10D79E00AD14A514A513A514A534A515A5F4ACF3C5
:10D7AE00ACF0A347810378038003780378037803F2
:10D7BE00784370298AD3AC14A514A5F4AC14A5141F
:10D7CE00A514A514A514A514A514A514A514A51483
:10D7DE00A514A514A514A514A514A514A514A51473
:10D7EE00A514A514A514A514A514A514A514A51463
:10D7FE00A514A514A514A514A514A514A514A51453
:10D80E00A514A514A5F4AC31AC06790378027803FF
:10D81E0078037803780378A5788F9B14A514A51444
:10D82E00AD14A514A514A514A514A514A514A5141A
:10D83E00A514A514A514A514A514A5F4AC14A5142B
:10D84E00A514AD10A4277903700378037803780329
:10D85E0078027884788F9B13AD14A514A514A514A3
:10D86E00A514A514A514A514A514A514A514A514E2
:10D87E00A514A514A514A514A514A514A514A514D2
:10D88E00A514A514A514A514A514A514A514A514C2
:10D89E00A514A514A514A514A514A514A514A514B2
:10D8AE00A514A514A5F4ACAB9223700378037803EA
:10D8BE00780378037864780D9BF3AC14A514A51443
:10D8CE00A514A514A514A514A514A514A514A51482
:10D8DE00A514A514A514A514AD14A514A514A5146A
:10D8EE00A514A514ADAFA3C5780378037803780308
:10D8FE007802780378E989D3AC14A514A514A5147D
:10D90E00A514A514A514A514A514A514A514A51441
:10D91E00A514A514A514A514A514A514A514A51431
:10D92E00A514A514A514A514A514A514A514A51421
:10D93E00A514A514A514A514A514A514A514A51411
:10D94E00A514A514A592A40679027803780378038A
:10D95E0078037823780A8AD3AC14A514A534A514B9
:10D96E00A514A514A514AD14AD14A514A514A514D1
:10D97E00A514A514A514A514A514A514A514A514D1
:10D98E00A514A514A5F3ACCC9243700380037803C1
:10D99E007803780278857810A414A514A514A5141C
:10D9AE00A514A514A514A514A514A514A514A514A1
:10D9BE00A514A514A514A514A514A514A514A51491
:10D9CE00A514A514A514A514A514A514A514A51481
:10D9DE00A514A514A514A514A514A514A514A51471
:10D9EE00A514A514AD6E9B447803780378037803D1
:10D9FE00780378C57811A414AD14A514A514A51434
:10DA0E00AD14A514A514A514A514A514A514A51438
:10DA1E00A514A514A514A514A514A514A514A51430
:10DA2E00A514A514A514A592AC67810378037803F9
:10DA3E0078038002782370AC8A14AD14A514AD144B
:10DA4E00A514A514A514A514A514A514A514A51400
:10DA5E00A514A514A514A514A514A514A514A514F0
:10DA6E00A514A514A514A514A514A514A514A514E0
:10DA7E00A514A514A514A514A514A514A514A514D0
:10DA8E00A515A5F3AC2A8A237803780378037803C7
:10DA9E007803786B8AF3AC14A514AD14A514A514F1
:10DAAE00A514AD14A514A514A514A514A514A51498
:10DABE00A514A514A514A514A514A514A514A51490
:10DACE00A514A514A514A514AD2E9B4470037803BC
:10DADE00780378037803786781B2AC14AD14A5147B
:10DAEE00A514A514A514A514A514A514A514A51460
:10DAFE00A514A514A514A514A514A514A514A51450
:10DB0E00A514A514A514A514A514A514A514A5143F
:10DB1E00A514A514A514A514A514A514A514A5142F
:10DB2E00A514A592AC478103780378037823780374
:10DB3E00786478F0A314A514A514A514A534A5141F
:10DB4E00A514A514A514A514A514A514A514A514FF
:10DB5E00A514A514A514A514A514A514A514A514EF
:10DB6E00A514A514A514A514A572ACE67803780324
:10DB7E0078037803780378A57830A414AD14A5142F
:10DB8E00A514A514A514A514A514A514A514A514BF
:10DB9E00A514A514A514A514A514A514A514A514AF
:10DBAE00A514A514A514A514A514A514A514A5149F
:10DBBE00A514A514A514A514A514A514A514A5148F
:10DBCE00A514A510A4A57802700378037803780332
:10DBDE00784779B2AC14AD14A5B3ACD0A38E9BF03C
:10DBEE00A3D3AC14AD14A514AD14A514A514A5148B
:10DBFE00A514A514A514A514A514A514A514A5144F
:10DC0E00A514A514A514A514A5F4AC2A8A037803AB
:10DC1E007803780378037864706E9B14AD14A514A2
:10DC2E00A514A514A514A514A514A514A514A5141E
:10DC3E00A514A514A514A514A514A514A514A5140E
:10DC4E00A514A514A514A514A514A514A514A514FE
:10DC5E00A514A514A514A514A514A514A514A514EE
:10DC6E00A514A58F9B447803780378037803780373
:10DC7E00784A8AF3AC14AD31A4C98184784478858E
:10DC8E00780A8A51A414A514A514A514A514A514D4
:10DC9E00A514A514A514A514A514A514A514A514AE
:10DCAE00A514A514A514A514A513A50D9B237803DF
:10DCBE00780378037803782378CC92F4AC14A51407
:10DCCE00A514A514A514A514A514A514A514A5147E
:10DCDE00A514A514A514A514A514A514A514A5146E
:10DCEE00A514A514A514A514A514A514A514A5145E
:10DCFE00A514A514A514A514A514A514A514A5144E
:10DD0E00A514AD2D9323780378037803780380232D
:10DD1E0078EC9213A5B2A4C9812378037803780313
:10DD2E00782378EA89D3AC14AD14A514A514A514E0
:10DD3E00A514A514A514A514A514A514A514A5140D
:10DD4E00A514A514A514A514A514A5AFA364780352
:10DD5E007803780378037803704A92F4AC14A51311
:10DD6E00A514A514A514A514A514A514A514A514DD
:10DD7E00A514A514A514A514A514A514A514A514CD
:10DD8E00A514A514A514A514A514A514A514A514BD
:10DD9E00A514A514A514A514A514A514A514A514AD
:10DDAE00A514ADEC922378037803780378027844B7
:10DDBE00704E9B14ADCF9B84780378037803780361
:10DDCE00780378857010A414A514A514A514A514B1
:10DDDE00A514A514A514A514A514A514A514A5146D
:10DDEE00A514A514A514A514A514A510A48578032F
:10DDFE007803780378027802780A8AF4AC14A514B2
:10DE0E00A514A514A514A514A514A514A514A5143C
:10DE1E00A514A514A514A514A514A514A514A5142C
:10DE2E00A514A514A514A514A514A514A514A5141C
:10DE3E00A514A514A514A514A514A514A514A5140C
:10DE4E00A514ADCC92237803780378037803784435
:10DE5E00788F9B13AD4E9B44780378037803780339
:10DE6E007803784470CF9B14A514A514A514A5149B
:10DE7E00A514A514A514A514A514A514A514A514CC
:10DE8E00A514A514A514AD14A514A531A4A5780345
:10DE9E00780378037803780378E989F3A414A5143A
:10DEAE00A514A514A514A514A514A514A514A5149C
:10DEBE00A514A514A514A514A514A514A514A5148C
:10DECE00A514A514A514A514A514A514A514A5147C
:10DEDE00A514A514A514A514A514A514A514A5146C
:10DEEE00A5F4ACCC922378037803780378037844B6
:10DEFE00784E9B13ADAF9B64780378038003780351
:10DF0E00780378A47010A414A514A514A514A51450
:10DF1E00A514A514A514A514A514A514A514A5142B
:10DF2E00A514A514A514A514A514AD10A4857803E5
:10DF3E007803780378037803700A8AF3AC14A51477
:10DF4E00A514A514A514A514A514A514A514A514FB
:10DF5E00A514A514A514A514A514A514A514A514EB
:10DF6E00A514A514A514A514A514A514A514A514DB
:10DF7E00A514A514A514A514A514A514A514A514CB
:10DF8E00A514A52D9343780378037803780378239B
:10DF9E0078EC9213AD92ACA88123700378037803CA
:10DFAE00782378E989D3AC14A514A514A514A51467
:10DFBE00A514A514A514A514A514A514A514A5148B
:10DFCE00A514A514A514A514AD14ADAFA3647003C8
:10DFDE007803780378037803704A8A14AD14A51475
:10DFEE00A514A514A514A514A514A514A514A5145B
:10DFFE00A514A514A514A514A514A514A514A5144B
:10E00E00A514A514A514A514A514A514A514A5143A
:10E01E00A514A514A514A514A514A514A514A5142A
:10E02E00A514A58F9B647003780378037803780397
:10E03E00784A8AF3AC14A531A4C9818470447885DA
:10E04E0078E98951ACF4AC14A514A514A514A51443
:10E05E00A514A514A514A514A514A514A514A514EA
:10E06E00A514A514A514A514A513AD0D9B447803F2
:10E07E00780378037803782378CC9214AD14A51422
:10E08E00A514A514A514A514A514A514A514A514BA
:10E09E00A514A514A514A514A514A514A514A514AA
:10E0AE00A514A514A514A514A514A514A514A5149A
:10E0BE00A514A514A514A514A514A514A514A5148A
:10E0CE00A514A511A4A47803780378037803780324
:10E0DE00784781B2A414A514A5D2A4CFA36E9BF049
:10E0EE009BB3A414AD14AD14A514A514A514A514B6
:10E0FE00A514A514A514A514A514A514A514A5144A
:10E10E00A514A514AD14A514A5F3AC2A8A037802A0
:10E11E007803780378037843786E9B14AD14A514B6
:10E12E00A514A514A514A514A514A514A514A51419
:10E13E00A514A514A514A514A514A514A514A51409
:10E14E00A514A514A514A514A514A514A514A514F9
:10E15E00A514A514A514A514A514A514A514A514E9
:10E16E00A514A592AC47810378037803780378034E
:10E17E00788478F0A314AD14AD14A513A514A514CA
:10E18E00A514A514A514A514A514A514A514A514B9
:10E19E00A514A514A514A514A514A514A514A514A9
:10E1AE00A514A514A514A513A572AC0679037803BE
:10E1BE0078038003780378A57811A414A514A51309
:10E1CE00A514A514A514A514A514A514A514A51479
:10E1DE00A514A514A514A514A514A514A514A51469
:10E1EE00A514A514A514A514A514A514A514A51459
:10E1FE00A514A514A514A514A514A514A514A51449
:10E20E00A514A5F3AC2A8A03780378037803780360
:10E21E007803786A92F3AC14A534A514A514A5144A
:10E22E00A514A514A514A514A514AD14A514A51410
:10E23E00A514A514A514A514A514AD14AD14A5F418
:10E24E00AC14A514A514A514AD4E93437003780316
:10E25E00700378037802786781B2AC14A513A51405
:10E26E00A514A514A514A514A514A514A514A514D8
:10E27E00A514A514A514A514A514A514A514A514C8
:10E28E00A514A514A514A514A514A514A514A514B8
:10E29E00A514A514A514A514A514A514A514A514A8
:10E2AE00A514A513AD4E9B44780378037803780329
:10E2BE00780378E57810A414AD15A514A514A5144B
:10E2CE00A514A514A514A514A514A514A514A51478
:10E2DE00A514A514A514A514ADF4AC14A514A51479
:10E2EE00A514A514A514A592A4678102780378033A
:10E2FE00780378037823788B9214A514A514A514AB
:10E30E00A514A514A514A514A514A514A514A51437
:10E31E00A514A514A514A514A514A514A514A51427
:10E32E00A514A514A514A514A514A514A514A51417
:10E33E00A514A514A514A514A514A514A514A51407
:10E34E00A514A514A592A40679037803780378037F
:10E35E0078037823782A8AD3AC14AD14AD14A5149F
:10E36E00A514A514A514A514A514A514A514A514D7
:10E37E00A514A514A514A514A514A514A534A514A7
:10E38E00A514AD14A5F3ACED92447803780378038D
:10E39E0078037803788478F09B14A514A514A5143B
:10E3AE00A514A514A514A514A514A514A514A51497
:10E3BE00A514A514A514A514A514A514A514A51487
:10E3CE00A514A514A514A514A514A514A514A51477
:10E3DE00A514A514A514A514A514A514A514A51467
:10E3EE00A514A514A5F4AC8C9223780378037803B6
:10E3FE00780378037864782D9BF4AC14A514A514D7
:10E40E00A514A514A514A514A514A514A514A51436
:10E41E00A514A514A514A514A514A514A514A51426
:10E42E00AD14A534A5CFA3C578037803780378037C
:10E43E007803780378C981D3AC14A514A514A51458
:10E44E00A514A514A514A514A514A514A514A514F6
:10E45E00A514A514A514A514A514A514A514A514E6
:10E46E00A514A514A514A514A514A514A514A514D6
:10E47E00A514A514A514A514A514A514A514A514C6
:10E48E00A514A514A514A531A4E678037803780382
:10E49E0078037803780378C5788F9B14AD14A51490
:10E4AE00A514A514A514A514A514A514A514A51496
:10E4BE00A514A514A514A514A514A514A514AD147E
:10E4CE00A514AD30A446810378037803780378034E
:10E4DE007803788478AF9B14A514A514A514A514FD
:10E4EE00A514A514A514A514A514A514A514A51456
:10E4FE00A514A514A514A514A514A514A514A51446
:10E50E00A514A514A514A514A514A514A514A51435
:10E51E00A514A514A514A514A514A514A514A51425
:10E52E00A514A514A514A5F3ACAB92437003780300
:10E53E00780380037802780378E6788F9BF4AC1426
:10E54E00A514A514A514A514A514A514A514A514F5
:10E55E00A514A514A534AD14A514A514A514A513BE
:10E56E00A5F0A3677903780378037803780378031B
:10E57E00780378098AD3AC14A514A514A514A51490
:10E58E00A514A514A514A514A514A514A514A514B5
:10E59E00A514A514A514A514A514A514A514A514A5
:10E5AE00A514A514A514A514A514A514A514A51495
:10E5BE00A514A514A514A514A514A514A514A51485
:10E5CE00A514A514A514A534AD92A48881037803CF
:10E5DE007803780378037803780378A578CC9AB219
:10E5EE00AC14A514A514A514A514A514A514A5144E
:10E5FE00A514A514A514A514A514A514A5D3AC4E45
:10E60E009B068103780378037803780378037803F5
:10E61E0078E68011A414A514A514A514A514A514A8
:10E62E00A514A514A514A514A514A514A514A51414
:10E63E00A514A514A514A514A514A514A514A51404
:10E64E00A514A514A514A514A514A514A514A514F4
:10E65E00A514A514A514A514A514A514A514A514E4
:10E66E00A514A514A514A514A514A5F0A3C5780387
:10E67E00780378037803780378037803784478A8CE
:10E68E00818E9BB3A414AD14A514AD14A514A514BA
:10E69E00A514A514A514A513ADD3ACD0A30A8A64F2
:10E6AE0078037803780378037803780278038084FC
:10E6BE00704E9BF4AC14A5F4AC14A514A514A514BB
:10E6CE00A514A514A514A514A514A514A514A51474
:10E6DE00A514A514A514A514A514A514A514A51464
:10E6EE00A514A514A514A514A514A514A514A51454
:10E6FE00A514A514A514A514A514A514A514A51444
:10E70E00A514A514A514A534A514ADF3AC2D9B84A6
:10E71E007803780378037803780378037802780314
:10E72E007885788881ED9AF0A392A4D3ACF3A4F304
:10E73E00ACD3ACB3AC31A44D9BE989C57803780357
:10E74E007803780378038003780378037844788B12
:10E75E008AF3A414A514AD14A514A514A514A51418
:10E76E00A514A514A514A514A514A514A514A514D3
:10E77E00A514A514A514A514A514A514A514A514C3
:10E78E00A514A514A514A514A514A514A514A514B3
:10E79E00A514A514A514A514A514A514A514A514A3
:10E7AE00A514A514A514A514A514AD14A5F3A4CCF5
:10E7BE0092647803780378038003780378037803F0
:10E7CE0078037803782378A57026798881E989C83B
:10E7DE0089A8812681A57843780370037802780290
:10E7EE00780378037803780378037844704A8AB202
:10E7FE00AC34AD14A514A514A514A514A514A51414
:10E80E00AD14A514A514A514A514A514A514A5142A
:10E81E00A514A514A514A514A514A514A514A51422
:10E82E00A514A514A514A514A514A514A514A51412
:10E83E00A514A514A514A514A514A514A514A51402
:10E84E00A514A514A514AD14A514A514A514A5D32B
:10E85E00AC0D93A5700378037803780378037803DF
:10E86E0078037803780378037803780378037803C2
:10E87E0078037803780378037803780378037803B2
:10E88E0078037803780378037844786B8AB2AC14F3
:10E89E00A514A514A514A514AD14AD14A514A51492
:10E8AE00A514A514A514A514A514A514A514A51492
:10E8BE00A514A514A514A514A514A514A514A51482
:10E8CE00A514A514A514A514A514A514A514A51472
:10E8DE00A514A514A514A514A514A514A514A51462
:10E8EE00A514A514A513A514AD14A514A514A5144B
:10E8FE00A5F3AC6E9B06792378037803780378032F
:10E90E007803780378037803780378037803780321
:10E91E007803780378037803780378037803780311
:10E92E0078037803780378A578CC92D3AC14A51429
:10E93E00A514A514A514A514AD14A514A514A514F9
:10E94E00A514A514A514A514A514A514A514A514F1
:10E95E00A514A514A514A514A514A514A514A514E1
:10E96E00A514A514A514A514A514A514A514A514D1
:10E97E00A514A514A514A514A514A514A514A514C1
:10E98E00A514A514A514A514A514A514A514A514B1
:10E99E00A514ADF3AC10A4E989647803780278036A
:10E9AE007803780378037803780378037803780381
:10E9BE007803780378037803780378037803780371
:10E9CE0078037823786781AFA3F3A414A514A51454
:10E9DE00A514A514A514A514A514A514A514A51461
:10E9EE00A514A514A514A514A514A514A514A51451
:10E9FE00A514A514A514A514A514A514A514A51441
:10EA0E00A514A514A514A514A514A514A514A51430
:10EA1E00A514A514A514A514A514A514A514A51420
:10EA2E00A514A514A514A514A514A514A514A51410
:10EA3E00A514A514A534A5D3AC4E9B6781647803A9
:10EA4E0078037803780378037803780378037803E0
:10EA5E00780378037803780378037803780378448F
:10EA6E00782679EC9A92ACF4AC14A514A5F4AC14F7
:10EA7E00A514A514A514A514A514A514A514A514C0
:10EA8E00A514A514A514A514A514A514A514A514B0
:10EA9E00A514A514A514A514A514A514A514A514A0
:10EAAE00A514A514A514A514A514A514A514A51490
:10EABE00A514A514A514A514A514A514A514A51480
:10EACE00A514A514A514A514A514A514A514A51470
:10EADE00A514A514A514A514A513AD92AC4E9BC9EF
:10EAEE0081A5782478037802780378037803780375
:10EAFE007803780278037803704470A57088810DCE
:10EB0E009B72AC14AD14A514AD14A514AD14A514BC
:10EB1E00A514A514A514A514A514A514A514A5141F
:10EB2E00A514A514A514A514A514A514A514A5140F
:10EB3E00A514A514A514A514A514A514A514A514FF
:10EB4E00A514A514A514A514A514A514A514A514EF
:10EB5E00A514A514A514A514A514A514A514A514DF
:10EB6E00A514A514A514A514A514A514A514A514CF
:10EB7E00A514A514A514AD14A514A514A514ADD3F0
:10EB8E00AC31A44D932A8A6881E678C578A478853D
:10EB9E0078A578E57847810A8A0D9B10A4B3ACF36B
:10EBAE00AC14A514A534A514A514A514A514A51468
:10EBBE00A514A514A514A514A514A514A514A5147F
:10EBCE00A514A514A514A514A514A514A514A5146F
:10EBDE00A514A514A514A514A514A514A514A5145F
:10EBEE00A514A514A514A514A514A514A514A5144F
:10EBFE00A514A514A514A514A514A514A514A5143F
:10EC0E00A514A514A514A514A514A514A514A5142E
:10EC1E00A514A513A514A514A514A514A514A5141F
:10EC2E00A514AD14AD13ADD3A492A452A431A43146
:10EC3E00A451A492A4D3ACF3AC14AD14A514A51492
:10EC4E00A514A514A514A515A514A514A514A514ED
:10EC5E00A514A514A514A514A514A514A514A514DE
:10EC6E00A514A514A514A514A514A514A514A514CE
:10EC7E00A514A514A514A514A514A514A514A514BE
:10EC8E00A514A514A514A514A514A514A514A514AE
:10EC9E00A514A514A514A514A514A514A514A5149E
:10ECAE00A514A514A514A514A514A514A514A5148E
:10ECBE00A514A514AD14AD14AD14A514AD14A5145E
:10ECCE00A514A514A514A514A5F4AC14A514A51487
:10ECDE00A514AD14AD14A514A514A514A514A5144E
:10ECEE00A514A514A514A514A514A5F4AC14AD145F
:10ECFE00AD14A514A514A514A514A514A514A51436
:10ED0E00A514A514A514A514A514A514A514A5142D
:10ED1E00A514A514A514A514A514A514A514A5141D
:10ED2E00A514A514A514A514A514A514A514A5140D
:10ED3E00A514A514A514A514A514A514A514A514FD
:10ED4E00A514A514A514A514A514A514A514A514ED
:10ED5E00A514A514A514A514AD14A514A514A514D5
:10ED6E00A514A514A514A514A514A514A514A514CD
:10ED7E00A514A514A514A514A514A514A514A514BD
:10ED8E00A514A514AD14A514A514A514A514A514A5
:10ED9E00A514A514A514A514A514A514A514A5149D
:10EDAE00A514A514A514A514A514A514A514A5148D
:10EDBE00A514A514A514A514A514A514A514A5147D
:10EDCE00A514A514A514A514A514A514A514A5146D
:10EFCE00A50400000000000000000000000000008A
:10EFDE00000000030000000000FE001B0000000007
:10EFEE000005001E00000000000000000000001ED2
:10EFFE00000000000000000B0000000000100001E7
:10F00E000010001D00F00003001E000100100001A2
:10F01E000010001D00F00003001E00010010000192
:10F02E0000000000000900000004001C000800227F
:10F03E0000100042001000FF007F0042001000840C
:10F04E0000100000000F00000000000C001C00006B
:10F05E00002200100022000800220006001C000101
:10F06E0000C000000020000E001800110004001166
:10F07E00000200110000000E00000000000B000056
:10F08E0000000000000E001C001100A2001000C2C3
:10F09E00001000220011001C000A0000000C0000ED
:10F0AE00000C000000120000000000030000000031
:10F0BE00001E00000000000000060000000000001E
:10F0CE00000000E0001F001C006000020080000035
:10F0DE000000000400000000000600C000F8003F21
:10F0EE000000000000060024000000180000007E52
:10F0FE0000000018000000240000000000000009BD
:10F10E000000000000800000008000000080000071
:10F11E0000F000070080000000800000008000006A
:10F12E00000000000004000000000000006000006D
:10F13E0000180000000000050000000100000001A2
:10F14E0000000001000000010000000000040000AB
:10F15E000000000000180000001800000000000869
:10F16E000000000000000040000000380000000712
:10F17E0000E00000001C0000000200000000000083
:10F18E00000900F800070004000800020010000249
:10F19E00001000020010000200100004000800F829
:10F1AE000007000000000009000000000000000041
:10F1BE00000000000000000000000000000200003F
:10F1CE000002000000FE001F0000000000090018F1
:10F1DE0000100004001800020014000200120002C9
:10F1EE0000110082001000440010003800100000D2
:10F1FE00000000090008000C0004001000020010BE
:10F20E0000420010004200100044001000B8000838
:10F21E0000000007000000000009000000020000CE
:10F22E0000030080000200600002001000020008CF
:10F23E00000200FE001F0000000200000000000996
:10F24E000000000400700008002E001000220010C4
:10F25E000022001000220010004200080082000769
:10F26E00000000000009000000000000000700C0C0
:10F27E0000080060001000580010004400100082CA
:10F28E000008000000070000000000090000000058
:10F29E00000200100002000C0002000300C2000079
:10F2AE0000320000000E000000020000000000000E
:10F2BE0000090000000700980008006400100042DA
:10F2CE0000100042001000640010009800080000BA
:10F2DE0000070000000000090000000000380000D8
:10F2EE000044001000820008008200040082000327
:10F2FE000084000000780000000000000004000000
:10F30E00000000300018003000180000000000045B
:10F31E000000000000300060003000180000000007
:10F32E00000A000000000080000000800000004085
:10F33E000001002000020020000200100004001056
:10F34E0000040008000800000000000A0000000091
:10F35E00002000010020000100200001002000011B
:10F36E00002000010020000100200001002000010B
:10F37E0000000000000A0000000000080008001055
:10F38E0000040010000400200002002000020040D3
:10F39E000001008000000080000000000000000856
:10F3AE0000000000000C000000820001004200027C
:10F3BE000022001A0022001A009C0001000000002A
:10F3CE00000E0000000000F000030008000400041E
:10F3DE00000800C2001100220012001200120012DA
:10F3EE00001200E2001100120012000400120008C8
:10F3FE00000900F0000400000000000D00000000F5
:10F40E00000000100000000E0080000100600001EE
:10F41E00001C000100020001001C00010060000140
:10F42E00008000010000000E00000010000000002F
:10F43E000009000000000000000000FE001F004256
:10F44E000010004200100064001000980008000038
:10F45E00000700000000000D0000000000F0000397
:10F46E000008000400040008000200100002001052
:10F47E00000200100002001000020010000400083C
:10F48E00000400080008000400000000000C00004A
:10F49E0000000000000000FE001F0002001000022D
:10F4AE000010000200100002001000020010000404
:10F4BE0000080008000400F000030000000000092E
:10F4CE00000000000000000000FE001F00420010BF
:10F4DE0000420010004200100042001000420010D6
:10F4EE00000000000008000000000000000000FE08
:10F4FE00001F0042000000420000004200000042D7
:10F50E00000000000000000E0000000000F00003EC
:10F51E0000080004000400080002001000020010A1
:10F52E000002001000020010008200100084001083
:10F53E000084000800880004008000030000000022
:10F54E00000A000000000000000000FE001F004046
:10F55E00000000400000004000000040000000409D
:10F56E00000000FE001F000000000004000000006C
:10F57E000000000000FE001F000000000007000059
:10F58E000000000000080000001000000010000045
:10F59E00000800FE00070000000000090000000047
:10F5AE000000000000FE001F00600000009000013F
:10F5BE00000800020004000C000200100000000011
:10F5CE000008000000000000000000FE001F000008
:10F5DE0000100000001000000010000000100000DD
:10F5EE000000000F000000000000001C00F80003E7
:10F5FE00000600000038000000C000010000000EF0
:10F60E00000000100000000E00C0000100380000D5
:10F61E000006000000F800030000001C00000000BF
:10F62E00000B000000000000000000FE001F00089C
:10F63E0000000030000000400000008000000000CC
:10F64E0000030000000400FE001F00000000000E7A
:10F65E000000000000F00003000800040004000891
:10F66E000002001000020010000200100002001044
:10F67E000002001000020010000400080008000440
:10F68E0000F0000300000000000900000000000070
:10F69E00000000FE001F0042000000420000004279
:10F6AE000000002400000018000000000000000E02
:10F6BE000000000000F00003000800040004000831
:10F6CE0000020010000200100002001000020011E3
:10F6DE00000200120002000C0004000800080016D0
:10F6EE0000F0002100000000000A000000000000F1
:10F6FE00000000FE001F0042000000C20000004299
:10F70E00000100420006002400080018001000004E
:10F71E00000000080000000400180008002400107B
:10F72E00004200100042001000840008000800078C
:10F73E0000000000000800020000000200000002AD
:10F74E00000000FE001F0002000000020000000288
:10F75E00000000000000000A000000000000000091
:10F76E0000FE00070000000800000010000000105E
:10F77E00000000100000000800FE0007000000005E
:10F78E00000C00020000001C000000600000008061
:10F79E0000010000000E000000100000000E0080AE
:10F7AE00000100600000001C0000000200000000CC
:10F7BE000000000F000000000006000000780000AE
:10F7CE00008000070000001800800007007800008D
:10F7DE0000060000007800000080000700000018FE
:10F7EE000080000700780000000600000000000006
:10F7FE000009000000000006001800080004003098
:10F80E00000300C0000000300003000800040006E2
:10F81E00001800000000000B0000000000020000B5
:10F82E000004000000180000006000000080001FAF
:10F83E00006000000018000000040000000200003C
:10F84E00000000000008000200100002001C000270
:10F85E00001300C2001000320010000E0010000253
:10F86E000010000000000006000000000000000074
:10F87E0000FE00FF00020080000200800000000079
:10F88E00000A00020000000C0000001000000060E2
:10F89E0000000080000100000006000000080000CB
:10F8AE0000300000004000000000000500000000D5
:10F8BE00000200800002008000FE00FF0000000039
:10F8CE00000B00000000000000020080000100702C
:10F8DE000000000C000000020000000C0000007090
:10F8EE00000000800001000000020000000000097E
:10F8FE0000000040000000400000004000000040FA
:10F90E0000000040000000400000004000000040E9
:10F91E0000000000000500000000000000000002D2
:10F92E0000000004000000000000000B00000000BA
:10F93E0000C000070020000800100010001000108A
:10F94E000010001000100010001000100020000821
:10F95E0000F0001F00000000000B0000000000FE81
:10F96E00001F0020000800100010001000100010F2
:10F97E00001000100010001000100020000800C041
:10F98E00000700000000000A0000000000C0000791
:10F99E0000200008001000100010001000100010D1
:10F9AE0000100010002000080040000400000000BD
:10F9BE00000B0000000000C000070020000800102F
:10F9CE0000100010001000100010001000100010A9
:10F9DE0000100020000800FE001F00000000000ABA
:10F9EE000000000000C000070020000900100011F8
:10F9FE00001000110010001100100011002000096D
:10FA0E0000C000050000000000060000000000100D
:10FA1E00000000FC001F0012000000120000000099
:10FA2E000000000B0000000000C00027002000486E
:10FA3E000010009000100090001000900010009038
:10FA4E00001000900020004800F0003F0000000071
:10FA5E00000A0000000000FE001F00200000001041
:10FA6E000000001000000010000000100000002038
:10FA7E00000000C0001F0000000000030000000096
:10FA8E0000F6001F0000000000030000008000F6DA
:10FA9E00007F0000000000080000000000FE001FB4
:10FAAE000000000100800002004000040020000859
:10FABE00001000100000000000030000000000FE17
:10FACE00001F00000000000F0000000000F0001FEB
:10FADE0000200000001000000010000000100000C8
:10FAEE000020000000C0001F0020000000100000D9
:10FAFE0000100000001000000020000000C0001FD9
:10FB0E0000000000000A0000000000F0001F0020AE
:10FB1E000000001000000010000000100000001097
:10FB2E0000000020000000C0001F00000000000ABE
:10FB3E000000000000C000070020000800100010A8
:10FB4E00001000100010001000100010002000081F
:10FB5E0000C0000700000000000B0000000000F0D5
:10FB6E0000FF002000080010001000100010001010
:10FB7E00001000100010001000100020000800C03F
:10FB8E00000700000000000B0000000000C000078E
:10FB9E0000200008001000100010001000100010CF
:10FBAE0000100010001000100020000800F000FFF0
:10FBBE000000000000060000000000F0001F002002
:10FBCE000000001000000010000000000000000601
:10FBDE0000600008009000100010001100100011CD
:10FBEE000020000E000000000007000000000010C2
:10FBFE0000000010000000FE001F001000000010AA
:10FC0E00000000000000000A0000000000F00007E5
:10FC1E00000000080000001000000010000000109E
:10FC2E00000000100000000800F0000700000000B7
:10FC3E00000A0010000000600000008000030000B9
:10FC4E00000C000000100000000C0080000300609B
:10FC5E0000000010000000000000000E0010000068
:10FC6E0000E0000000000007000000180000000780
:10FC7E0000E000000010000000E00000000000079F
:10FC8E00000000180000000700E000000010000057
:10FC9E0000000000000900100010002000080040C5
:10FCAE0000040080000300800003004000040020D8
:10FCBE0000080010001000000000000900100000F5
:10FCCE0000E00000000000830000007C0000000C3B
:10FCDE000000000300E00000001000000000000023
:10FCEE000008001000100010001800100016001080
:10FCFE00001100D0001000300010001000100000A5
:10FD0E00000000070000000000000001008000025B
:10FD1E0000FC007E00020080000200800000000057
:10FD2E0000070000000000000000000000000000BE
:10FD3E0000000000000000FE00FF000000000006B2
:10FD4E00000200800002008000FC007E00800002A5
:10FD5E000000000100000000000A0000000000800A
:10FD6E000000004000000040000000400000008045
:10FD7E000000008000000080000000400000000035
:10FD8E000000000500FF000F000100080001000840
:10FD9E0000FF000F0000000000004001000D0A33BC
:10FDAE00202D2056697375616C697A61722061200D
:10FDBE0070657263656E746167656D20646F206E29
:10FDCE006976656C2064652061677561000D0A3582
:10FDDE00202D2050726F6772616D6172206E6F768A
:10FDEE006F2076616C6F7220646520726566657235
:10FDFE00656E636961000D0A5072696D6120302075
:10FE0E007061726120766F6C74617220616F204D2B
:10FE1E00656E75205072696E636970616C000D0AB3
:10FE2E0034202D2056697375616C697A6172206F6A
:10FE3E00206E6976656C20646520726566657265F4
:10FE4E006E636961000D0A32202D2041746976615E
:10FE5E007220636F6D74726F6C6F20646F206E69A9
:10FE6E0076656C2064652061677561000D0A436FCD
:10FE7E006E74726F6C6F20646F206E6976656C2085
:10FE8E0064652061677561206174697661646F21B4
:10FE9E00000D0A50657263656E746167656D20644E
:10FEAE006F206E6976656C20646520616775613AB6
:10FEBE0020256400534554555020434F4D504C451A
:10FECE00544544205355434345535346554C4C5982
:10FEDE000D0A000D0A30202D20566F6C74617220B1
:10FEEE00616F204D656E75205072696E6369706129
:10FEFE006C000D0A31202D204465736C69676172A8
:10FF0E0020626F6D626120646520616775610053C8
:10FF1E00495354454D41205041524120434F4E5478
:10FF2E00524F4C4F20444520554D000D0A426F6DE7
:10FF3E0062612064652061677561206465736C6918
:10FF4E006761646100454E47454E48415249412024
:10FF5E00454C4554524F5445434E4943410041751B
:10FF6E00746F7265733A20506564726F20466572C5
:10FF7E007265697261004D4F544F5220454D204DB0
:10FF8E00414C484120414245525441004D49435253
:10FF9E004F50524F4345535341444F524553000D1A
:10FFAE000A4D454E55205052494E434950414C0042
:10FFBE000D0A4F7063616F20496E76616C696461E2
:10FFCE00004265726E6172646F2053616E746F735E
:10FFDE00000D0A626974733A202564000D0A4F7091
:10FFEE0063616F3A200032303232202F20323300DC
:01FFFE000002
:020000040020DA
:08000000FFFFFFFFFFFFFFFF00
:020000040030CA
:0E000000FF2A1F3CFFBF81FF0FC00FE00F4023
:00000001FF
